:020000040800F2
:1000000000000220FD4600086D1600087516000865
:100010007D160008851600088D16000800000000F7
:10002000000000000000000000000000951600081D
:10003000A316000800000000B1160008BF16000853
:100040004D4700084D4700084D4700084D47000840
:100050004D4700084D4700084D4700084D47000830
:100060004D4700084D4700084D4700084D47000820
:100070004D4700084D4700084D4700084D47000810
:100080004D4700084D4700084D4700084D47000800
:100090004D4700084D4700084D4700084D470008F0
:1000A0004D4700084D4700084D4700084D470008E0
:1000B000CD1600084D4700084D4700084D47000881
:1000C0004D4700084D4700084D4700084D470008C0
:1000D0004D4700084D4700084D4700084D470008B0
:1000E000E11600084D4700084D4700084D4700083D
:1000F0004D470008F11600084D4700084D4700081D
:100100004D4700084D4700084D4700084D4700087F
:100110004D4700084D4700084D4700084D4700086F
:100120004D4700084D4700084D4700084D4700085F
:100130004D4700084D4700084D4700084D4700084F
:100140004D4700084D4700084D47000805170008B7
:100150004D4700084D4700084D4700084D4700082F
:100160004D4700084D4700084D4700084D4700081F
:100170004D4700084D4700084D47000800000000AB
:080180004D4700084D4700083F
:1001880010B5054C237833B9044B13B10448AFF3C9
:1001980000800123237010BD8806002000000000A5
:1001A800F8D7000808B5034B1BB103490348AFF360
:1001B800008008BD000000008C060020F8D7000869
:1001C80053B94AB9002908BF00281CBF4FF0FF31B6
:1001D8004FF0FF3000F088B9ADF1080C6DE904CE9E
:1001E80000F006F8DDF804E0DDE9022304B070470A
:1001F8002DE9F047089D8E4604468846002B4AD1D3
:100208008A42174662D9B2FA82F64EB1C6F1200385
:1002180001FA06F820FA03F3B74043EA0808B440A5
:100228004FEA174E1FFA87FCB8FBFEF1230C0EFBB2
:10023800118843EA084301FB0CF29A4209D9FB18DA
:1002480001F1FF3080F0EA809A4240F2E7800239FB
:100258003B449A1AA3B2B2FBFEF00EFB102243EA0B
:10026800024300FB0CFC9C4509D9FB1800F1FF3246
:1002780080F0D6809C4540F2D3803B44023840EA67
:100288000140A3EB0C0300211DB1F3400022C5E996
:100298000032BDE8F0878B4205D90DB1C5E90001F0
:1002A80000210846F5E7B3FA83F1002946D17345E2
:1002B80002D3824200F20581841A6EEB0302012008
:1002C8009046002DE5D0C5E90048E2E7002A00F095
:1002D8009080B2FA82F6002E40F0A4808A1A030CAD
:1002E8004FEA174E80B2BCB20121B2FBFEFC0EFBF6
:1002F8001C2243EA024304FB0CF29A4207D9FB187A
:100308000CF1FF3802D29A4200F2E080C4469B1AF0
:10031800B3FBFEF20EFB123340EA034302FB04F484
:100328009C4207D9FB1802F1FF3002D29C4200F22E
:10033800CA8002461B1B42EA0C40A5E7C1F1200611
:100348008B4022FA06F71F430EFA01F420FA06F34F
:100358002EFA06FE4FEA1749234300FA01F81FFA5E
:1003680087FCBEFBF9F01C0C09FB10EE44EA0E44B6
:1003780000FB0CFEA64502FA01F209D93C1900F16E
:10038800FF3A80F09C80A64540F2998002383C44B0
:10039800A4EB0E041FFA83FEB4FBF9F309FB134424
:1003A8004EEA044403FB0CFCA44508D93C1903F1AC
:1003B800FF3E80F08280A4457FD9023B3C4443EA5B
:1003C8000040A4EB0C04A0FB02EC64457346E14634
:1003D80062D35FD05DB1B8EB030264EB090404FAA1
:1003E80006F622FA01F31E43CC40C5E90064002159
:1003F8004FE7B1FBF2FC010C41EA0E4180B240EA42
:1004080001423B4638463C46B846BE462026B1FB2C
:10041800F7F1A2EB080241EA0C4166E7014618E74A
:1004280010462CE7C6F120022EFA02F3B740B1407D
:1004380020FA02F24FEA174E0A43B3FBFEF8BCB2A9
:100448000EFB1833110C41EA034108FB04F9B040D4
:1004580089454FEA104380B23ED9791808F1FF3C2C
:1004680001D289451FD8A1EB0901B1FBFEF909FBAF
:1004780004F80EFB191192B242EA0142424529D210
:10048800BA1809F1FF31C4D24245C2D2A9F102011A
:100498003A44BEE7F0459DD2BEEB02036CEB070C75
:1004A8000138E14696E7A7EB09094944A8F1020C8F
:1004B800B1FBFEF909FB04F8DBE773467FE750461A
:1004C80066E70846FDE63B44023A33E7ACF1020C26
:1004D8003B441CE749469CE7A1EB0901C446B1FB34
:1004E800FEF909FB04F8C4E7704700BF80B584B083
:1004F80000AF03460A46FB711346BB710422012173
:10050800002000F0CBF90346FB7306E0042201212A
:10051800002000F0C3F90346FB7397F90F30002B56
:10052800F4DBFB7903F00B03DBB2B879012200217D
:1005380000F046FB00BF1037BD4680BD80B500AF58
:100548003E210220FFF7D2FFC0210220FFF7CEFF95
:10055800B8210220FFF7CAFF40210220FFF7C6FF9B
:100568003F210220FFF7C2FF3E210120FFF7BEFF17
:10057800C0210120FFF7BAFFB8210120FFF7B6FF1D
:1005880040210120FFF7B2FF3F210120FFF7AEFF16
:1005980000BF80BD80B584B000AF0346FB71002367
:1005A800BB602EE0BB68DBB2483BDBB219460120DA
:1005B800FFF79CFFBB68DBB2483BDBB21946022061
:1005C800FFF794FF0023FB6007E0FB7919460A2038
:1005D800FFF78CFFFB680133FB60FB683F2BF4DD02
:1005E8000023FB6007E0FB7919460920FFF77EFF2F
:1005F800FB680133FB60FB683F2BF4DDBB6801330C
:10060800BB60BB68072BCDDD00BF00BF1037BD4600
:1006180080BD000090B585B000AF0446084611467D
:100628001A462346FB710346BB710B467B71134682
:100638003B71FB79203BDBB23B733B79032B02D147
:100648007B799B007B733B79052B07D17B791A4615
:10065800520013445B00DBB204337B733B79072BF6
:1006680002D17B79DB007B737B7B3F2B05D9092388
:10067800FB737B7B403B7B7301E00A23FB737B7B33
:1006880043F04003FB72FB7B03F00703DBB2FA7A0B
:1006980011461846FFF72AFFBB7963F04703FB7240
:1006A800FB7B03F00703DBB2FA7A11461846FFF723
:1006B8001DFF3B79032B21D10023BB731AE097F967
:1006C8000C2097F90E10344813465B00134403447A
:1006D8000B441B78FB72FB7B43F00803DBB2FA7A0E
:1006E80011461846FFF702FF97F90E30DBB20133C7
:1006F800DBB2BB7397F90E30022BE0DD3B79052B9B
:1007080021D10023BB731AE097F90C2097F90E103A
:10071800224813469B00134403440B441B78FB7286
:10072800FB7B43F00803DBB2FA7A11461846FFF761
:10073800DDFE97F90E30DBB20133DBB2BB7397F9FC
:100748000E30042BE0DD3B79072B21D10023BB734E
:100758001AE097F90C2097F90E1011481346DB00A0
:100768009B1A03440B441B78FB72FB7B43F0080382
:10077800DBB2FA7A11461846FFF7B8FE97F90E3041
:10078800DBB20133DBB2BB7397F90E30062BE0DD29
:1007980000BF1437BD4690BD00000020C4000020F3
:1007A800AC02002080B584B000AF78600B46FB70C7
:1007B8001346BB70BB78032B12D10023FB600CE0FF
:1007C800FB687A6813441878F978FB68DAB203236F
:1007D800FFF720FFFB680133FB60FB681F2BEFDD91
:1007E800BB78052B12D10023FB600CE0FB687A680C
:1007F80013441878F978FB68DAB20523FFF70AFF83
:10080800FB680133FB60FB68132BEFDDBB78072B1C
:1008180012D10023FB600CE0FB687A681344187857
:10082800F978FB68DAB20723FFF7F4FEFB680133B7
:10083800FB60FB680F2BEFDD00BF1037BD4680BDA6
:1008480080B586B000AF4FF47F437B600023BB6068
:100858000023FB603B1D1946034804F08BFD00BFD5
:100868001837BD4680BD00BF0010024080B586B075
:1008780000AF4FF47F437B600123BB600023FB6024
:1008880000233B613B1D1946034804F073FD00BF7C
:100898001837BD4680BD00BF0010024080B584B047
:1008A80000AF0346FB710B46BB7113467B71FFF724
:1008B800C7FF7B7903F00103002B06D001224FF418
:1008C8008071BC4804F00AFF05E000224FF48071F3
:1008D800B84804F003FF7B7903F00203002B06D02D
:1008E80001224FF40071B34804F0F8FE05E000223D
:1008F8004FF40071AF4804F0F1FE7B7903F0040374
:10090800002B06D001224FF48061AA4804F0E6FECD
:1009180005E000224FF48061A64804F0DFFE7B79F1
:1009280003F00803002B06D001224FF40061A14810
:1009380004F0D4FE05E000224FF400619D4804F065
:10094800CDFE7B7903F01003002B05D00122022194
:10095800994804F0C3FE04E000220221964804F0FE
:10096800BDFEFB79032B4FD801A252F823F000BF3C
:1009780089090008AB090008CD090008EF0900083B
:10098800BB79002B06D100224FF400618A4804F09D
:10099800A5FE3AE001224FF40061874804F09EFE6C
:1009A80033E0BB79002B06D100224FF480518248F6
:1009B80004F094FE29E001224FF480517E4804F0AF
:1009C8008DFE22E0BB79002B06D100224FF40051A6
:1009D800794804F083FE18E001224FF4005176486C
:1009E80004F07CFE11E0BB79002B06D100224FF405
:1009F8008041714804F072FE07E001224FF4804103
:100A08006D4804F06BFE00E000BF002201216A4837
:100A180004F064FE4FF48071684804F047FE034612
:100A2800DB015BB2DB115AB23B7A62F300033B7223
:100A38004FF40071614804F039FE0346DB015BB2F4
:100A4800DB115AB23B7A62F341033B724FF4806187
:100A58005A4804F02BFE0346DB015BB2DB115AB2A5
:100A68003B7A62F382033B724FF40061534804F00F
:100A78001DFE0346DB015BB2DB115AB23B7A62F31F
:100A8800C3033B724FF480514C4804F00FFE0346F9
:100A9800DB015BB2DB115AB23B7A62F304133B729F
:100AA8004FF40051454804F001FE0346DB015BB2F8
:100AB800DB115AB23B7A62F345133B724FF4804123
:100AC8003E4804F0F3FD0346DB015BB2DB115AB28A
:100AD8003B7A62F386133B724FF40041374804F0C7
:100AE800E5FD0346DB015BB2DB115AB23B7A62F3E8
:100AF800C7133B72012201212F4804F0EFFDFB7957
:100B0800032B4FD801A252F823F000BF250B000891
:100B1800470B0008690B00088B0B0008BB79002BFA
:100B280006D101224FF40061234804F0D7FD3AE0D2
:100B380000224FF40061204804F0D0FD33E0BB7977
:100B4800002B06D101224FF480511B4804F0C6FD4A
:100B580029E000224FF48051174804F0BFFD22E03D
:100B6800BB79002B06D101224FF40051124804F042
:100B7800B5FD18E000224FF400510F4804F0AEFD17
:100B880011E0BB79002B06D101224FF480410A48BD
:100B980004F0A4FD07E000224FF48041064804F069
:100BA8009DFD00E000BF3B7AFB73FB7B18461037C6
:100BB800BD4680BD000C0240000402400010024007
:100BC80090B585B000AF0446084611461A4623463C
:100BD800FB710346BB710B467B7113463B71FFF7F4
:100BE80045FEFB793B733B7B03F00103DBB2002B33
:100BF80006D100224FF48071B54804F06FFD05E07E
:100C080001224FF48071B24804F068FD3B7B03F089
:100C18000203DBB2002B06D100224FF40071AC486E
:100C280004F05CFD05E001224FF40071A84804F0CF
:100C380055FD3B7B03F00403DBB2002B06D10022F9
:100C48004FF48061A24804F049FD05E001224FF409
:100C580080619F4804F042FD3B7B03F00803DBB250
:100C6800002B06D100224FF40061994804F036FDAC
:100C780005E001224FF40061954804F02FFD3B7B0D
:100C880003F01003DBB2002B06D100224FF4805191
:100C98008F4804F023FD05E001224FF480518C4871
:100CA80004F01CFD3B7B03F02003DBB2002B06D1D4
:100CB80000224FF40051864804F010FD05E001229F
:100CC8004FF40051824804F009FD3B7B03F04003D8
:100CD800DBB2002B06D100224FF480417C4804F09F
:100CE800FDFC05E001224FF48041794804F0F6FC50
:100CF8003B7B23F07F03DBB2002B06D100224FF4AD
:100D08000041734804F0EAFC05E001224FF4004179
:100D18006F4804F0E3FC3B7903F00103002B06D095
:100D280001224FF480716B4804F0D8FC05E00022E2
:100D38004FF48071674804F0D1FC3B7903F002035B
:100D4800002B06D001224FF40071624804F0C6FC63
:100D580005E000224FF400715E4804F0BFFC3B79C7
:100D680003F00403002B06D001224FF48061594898
:100D780004F0B4FC05E000224FF48061554804F00B
:100D8800ADFC3B7903F00803002B06D001224FF499
:100D98000061504804F0A2FC05E000224FF4006115
:100DA8004C4804F09BFC3B7903F01003002B05D062
:100DB80001220221484804F091FC04E000220221AB
:100DC800454804F08BFCBB79032B4FD801A252F89D
:100DD80023F000BFED0D00080F0E0008310E0008CB
:100DE800530E00087B79002B06D100224FF40061D6
:100DF800394804F073FC3AE001224FF400613648A8
:100E080004F06CFC33E07B79002B06D100224FF410
:100E18008051314804F062FC29E001224FF48051EE
:100E28002D4804F05BFC22E07B79002B06D10022E0
:100E38004FF40051284804F051FC18E001224FF407
:100E48000051254804F04AFC11E07B79002B06D1BB
:100E580000224FF48041204804F040FC07E00122C2
:100E68004FF480411C4804F039FC00E000BFBB7916
:100E7800032B55D801A252F823F000BF950E0008A5
:100E8800B70E0008E50E0008070F00087B79002B55
:100E980006D101224FF400610F4804F01FFC40E026
:100EA80000224FF400610C4804F018FC39E07B790B
:100EB800002B06D101224FF48051074804F00EFCA4
:100EC8002FE000224FF48051034804F007FC28E08B
:100ED80000100240000C0240000402407B79002B05
:100EE80006D101224FF40051104804F0F7FB18E036
:100EF80000224FF400510D4804F0F0FB11E07B791B
:100F0800002B06D101224FF48041084804F0E6FB8B
:100F180007E000224FF48041044804F0DFFB00E0C2
:100F280000BF00BF1437BD4690BD00BF000402409B
:100F380080B500AF00F070FF03F000FA00F092FDFA
:100F480000F01AFD00F03AFC02F0ECFE00F090FC14
:100F580002F020FF02F03CFF03F070F902F03AFEC5
:100F680000F0F2FD03F0AAFA03F0B6FB00BF80BD63
:100F780080B400AF00BFBD465DF8047B704780B504
:100F880000AF03F0E1FB00F015F800F051F900F0B4
:100F9800B1F80BF0E9FF00F077F800F025F900F060
:100FA800D7F8FFF7C5FF00F023FF00F02BFF0CF088
:100FB80001F8FCE780B594B000AF07F120033022B8
:100FC800002118460CF086FB07F10C0300221A607A
:100FD8005A609A60DA601A610023BB60284B1B6C68
:100FE800274A43F080531364254B1B6C03F080534E
:100FF800BB60BB6800237B60224B1B68214A43F41B
:10100800804313601F4B1B6803F480437B607B683D
:1010180001233B624FF480337B620223BB634FF4AE
:101028008003FB6308233B644FF4A8737B640223AB
:10103800BB640723FB6407F12003184607F0A6FCEE
:101048000346002B01D000F00BFA0F23FB600223AC
:101058003B6100237B614FF4A053BB614FF4805385
:10106800FB6107F10C030521184607F007FF03464B
:10107800002B01D000F0F4F900BF5037BD4680BD09
:10108800003802400070004080B500AF174B184A86
:101098001A60164B15225A60144B00229A60134BA3
:1010A8000022DA60114B4FF440221A610F4B4FF4C3
:1010B80080125A610D4B00221A760C4B00225A7688
:1010C8000A4B00229A76094B0022DA76074B002257
:1010D8001A77064B00225A77044803F0CBFB0346E5
:1010E800002B01D000F0BCF900BF80BDA406002091
:1010F8000064004080B500AF124B134A1A60114BD0
:10110800124A5A600F4B00229A600E4B0022DA6096
:101118000C4B4FF480421A610A4B00225A61094B6A
:1011280000229A61074B0022DA61064B00221A62FC
:10113800044806F031FC0346002B01D000F090F97A
:1011480000BF80BDCC06002000540040A0860100EE
:1011580080B586B000AF07F1080300221A605A6014
:101168009A60DA603B4600221A605A601D4B4FF0C5
:1011780080421A601B4B00225A601A4B00229A6068
:10118800184B44F29F12DA60164B00221A61154B75
:1011980000229A61134808F07DF80346002B01D01D
:1011A80000F05EF94FF48053BB6007F1080319465D
:1011B8000C4808F01FFA0346002B01D000F050F944
:1011C80000233B6000237B603B461946054808F036
:1011D80041FC0346002B01D000F042F900BF18374C
:1011E800BD4680BD2007002080B500AF0E4B0F4ADA
:1011F8001A600D4B02225A600B4B00229A600A4B70
:101208004DF6BF22DA60084B00221A61064B002215
:101218009A61054808F03EF80346002B01D000F01B
:101228001FF900BF80BD00BF6807002000200040F4
:1012380080B58CB000AF07F11C0300221A605A6019
:101248009A60DA601A610023BB617F4B1B6B7E4A90
:1012580043F0100313637C4B1B6B03F01003BB615B
:10126800BB6900237B61784B1B6B774A43F004030F
:101278001363754B1B6B03F004037B617B690023CD
:101288003B61714B1B6B704A43F0800313636E4BD9
:101298001B6B03F080033B613B690023FB606A4BD7
:1012A8001B6B694A43F001031363674B1B6B03F025
:1012B8000103FB60FB680023BB60634B1B6B624A46
:1012C80043F002031363604B1B6B03F00203BB6024
:1012D800BB6800237B605C4B1B6B5B4A43F00803D5
:1012E8001363594B1B6B03F008037B607B68002278
:1012F8004FF64171554804F0F1F901220121544893
:1013080004F0ECF9002248F2E011524804F0E6F942
:10131800002247F60301504804F0E0F900224FF498
:101328007F414E4804F0DAF900224FF40071484832
:1013380004F0D4F94FF64173FB6101233B620023AB
:101348007B620023BB6207F11C0319463F4804F087
:1013580011F84FF40053FB614FF404133B62002370
:101368007B6207F11C031946394804F003F840F280
:101378000123FB6101233B6200237B620023BB62E4
:1013880007F11C031946324803F0F4FF0123FB61FF
:1013980000233B6200237B6207F11C0319462D489A
:1013A80003F0E8FF48F2E013FB6101233B620023EE
:1013B8007B620023BB6207F11C031946254803F032
:1013C800D9FF47F60303FB6101233B6200237B62DD
:1013D8000023BB6207F11C0319461F4803F0CAFF2C
:1013E8000423FB6100233B6200237B6207F11C039B
:1013F8001946194803F0BEFF4FF47F43FB610123F0
:101408003B6200237B620023BB6207F11C03194681
:10141800124803F0AFFF2023FB6100233B62002347
:101428007B6207F11C0319460C4803F0A3FF002256
:101438000021282003F067FF282003F080FF00BF69
:101448003037BD4680BD00BF003802400010024062
:10145800000802400000024000040240000C024064
:1014680080B400AF72B600BF00BFFDE780B582B0A0
:1014780000AF00237B60104B5B6C0F4A43F4804342
:1014880053640D4B5B6C03F480437B607B680023E3
:101498003B60094B1B6C084A43F080531364064BAE
:1014A8001B6C03F080533B603B68072003F020FF70
:1014B80000BF0837BD4680BD0038024080B58AB0FD
:1014C80000AF786007F1140300221A605A609A602E
:1014D800DA601A617B681B68194A93422BD1002392
:1014E8003B61184B1B6C174A43F000731364154B90
:1014F8001B6C03F000733B613B690023FB60114BDD
:101508001B6B104A43F0080313630E4B1B6B03F06D
:101518000803FB60FB6803237B610223BB61002394
:10152800FB6103233B6209237B6207F1140319461D
:10153800054803F01FFF00BF2837BD4680BD00BF28
:101548000064004000380240000C024080B58AB0B8
:1015580000AF786007F1140300221A605A609A609D
:10156800DA601A617B681B68194A93422CD1002300
:101578003B61184B1B6B174A43F002031363154B6F
:101588001B6B03F002033B613B694FF410737B61F3
:101598001223BB610123FB6100233B6204237B62AE
:1015A80007F1140319460C4803F0E4FE0023FB601E
:1015B800084B1B6C074A43F400131364054B1B6C60
:1015C80003F40013FB60FB6800BF2837BD4680BDED
:1015D80000540040003802400004024080B584B046
:1015E80000AF78607B681B68B3F1804F16D1002389
:1015F800FB601A4B1B6C194A43F001031364174B29
:101608001B6C03F00103FB60FB68002200211C2017
:1016180003F079FE1C2003F092FE1AE07B681B6839
:101628000F4A934215D10023BB600C4B1B6C0B4A2D
:1016380043F480731364094B1B6C03F48073BB6021
:10164800BB68002200212D2003F05DFE2D2003F051
:1016580076FE00BF1037BD4680BD00BF003802408F
:101668000020004080B400AF00BFFDE780B400AFA9
:1016780000BFFDE780B400AF00BFFDE780B400AF56
:1016880000BFFDE780B400AF00BFFDE780B400AF46
:1016980000BFBD465DF8047B704780B400AF00BF53
:1016A800BD465DF8047B704780B400AF00BFBD46FF
:1016B8005DF8047B704780B500AF03F097F800BF72
:1016C80080BD000080B500AF024807F0A3FE00BF50
:1016D80080BD00BF2007002080B500AF4FF4005048
:1016E80004F030F800BF80BD80B500AF024807F0B5
:1016F80091FE00BF80BD00BF6807002080B500AF25
:10170800024804F0F5FA00BF80BD00BF700C00204D
:1017180080B586B000AF7860144A154BD31A7B6148
:101728007B693B61134B1B68002B02D1114B124A9A
:101738001A60104B1A687B6813443A699A4207D2B8
:101748000BF0E0FF03460C221A604FF0FF3309E06C
:10175800084B1B68FB60074B1A687B681344054AF3
:101768001360FB6818461837BD4680BD000002208C
:1017780000040000B00700209811002080B400AFDA
:10178800064BD3F88830054A43F47003C2F8883012
:1017980000BFBD465DF8047B704700BF00ED00E068
:1017A80080B500AF9A2000F031FA03461A46024B82
:1017B8005A8000BF80BD00BFB407002080B400AFCE
:1017C800034B00221A7000BFBD465DF8047B7047CA
:1017D800B407002080B500AF224B1B8801339AB2B2
:1017E800204B1A801F4B1B88092B31D91D4B002217
:1017F8001A8000F047F90346012B14D11A4B1B88B5
:10180800022B27D0184B1B8801339AB2164B1A802B
:10181800154B1B88012B1FD9144B01221A70134B2F
:1018280001225A701DE0104B1B88002B16D00E4B5E
:101838001B88013B9AB20C4B1A800B4B1B88002B60
:101848000ED10A4B00221A70084B01225A7008E088
:1018580000BF06E000BF04E000BF02E000BF00E0F8
:1018680000BF80BDB8070020BA070020BC070020D1
:1018780080B400AF094B00225A70084B02221A703C
:10188800074B00221A80074B01221A80064B074A91
:101898001A6100BFBD465DF8047B7047BC07002095
:1018A800B8070020BA07002050080020DD170008FC
:1018B80080B582B000AF0346FB71FB79032B09D0DA
:1018C800032B0DDC012B02D0022B06D008E000F020
:1018D80003FA05E000F0DCF902E000F021FA00BFAD
:1018E80000BF0837BD4680BD80B582B000AF034653
:1018F800FB71FB79032B09D0032B0DDC012B02D0E4
:10190800022B06D008E000F0F3F905E000F0CCF96E
:1019180002E000F011FA00BF00BF0837BD4680BDE5
:1019280080B582B000AF0346FB71124B1B780133C0
:10193800DAB2104B1A700F4B1B78312B15D90D4B9F
:1019480000221A70FB79032B09D0032B0DDC012B25
:1019580002D0022B06D008E000F0D6F905E000F02E
:10196800AFF902E000F0F4F900BF00BF0837BD4648
:1019780080BD00BFBE07002080B500AF00F0F4F9BD
:1019880000F0FEF900F008FA00F012FA054BFF2209
:101998001A70044B0A225A70034B00221A8000BFA7
:1019A80080BD00BFC4070020C007002080B485B0F8
:1019B80000AF0346FB710023FB730023BB6012E0FA
:1019C800FB7B5B00FB7397F9073003F001035AB206
:1019D80097F90F3013435BB2FB73FB795B08FB711C
:1019E800BB680133BB60BB68072BE9DDFB7B18468E
:1019F8001437BD465DF8047B7047000080B500AF22
:101A0800702000F0E7F803461A460C4B9A707420D1
:101A180000F0E0F80346DB43DBB21846FFF7C6FFE9
:101A280003461A46054BDA70762000F0D3F80346D1
:101A3800DB43DAB2014B1A7100BF80BDC807002032
:101A480080B500AF064B5B791946782000F008F99D
:101A5800034B9B7919467A2000F002F900BF80BD3C
:101A6800C807002080B400AF054B00221A70044B51
:101A780001225A7000BFBD465DF8047B704700BF65
:101A8800C807002080B500AF0121054803F00EFE0D
:101A98000346012B01D1012300E00023184680BD35
:101AA8000000024080B500AF0021034803F027FB87
:101AB8000346184680BD00BFA406002080B500AFCD
:101AC800024803F0C5F90346184680BDA406002065
:101AD80080B582B000AF78607B68074A002107486C
:101AE80003F0EBF90346002B01D0002300E00123AB
:101AF80018460837BD4680BDD0070020A406002040
:101B080080B584B000AFF860B9601346FB710B4A2A
:101B1800FB681360FB79094A1361094BBA680749E6
:101B2800084803F0C5F80346002B01D0012300E064
:101B3800002318461037BD4680BD00BFEC070020C3
:101B48002C080020A406002080B500AF1E4B002200
:101B58005A601D4B00229A601B4B0022DA601A4B18
:101B680000221A75194B4FF400521A60174B0022C5
:101B78005A60164B4FF47F429A60144B0022DA6089
:101B8800124B00221A61114B0D225A610F4B002291
:101B98009A610E4B0122DA610C4B01221A620B4941
:101BA8000B4802F063FF0346002B01D0012308E035
:101BB800074803F039F80346002B01D0012300E061
:101BC8000023184680BD00BFEC0700200408002051
:101BD800A406002080B586B002AF0346FB71FB79EE
:101BE80099B207F10F02012300930123064806F07A
:101BF80015F90346002B01D1FB7B00E000231846B2
:101C08001037BD4680BD00BFCC06002080B586B029
:101C180002AF0346FB71FB7999B207F10C0201236D
:101C2800009302230D4806F0F9F80346002B0FD164
:101C38003B7B1BB29B011BB203F470731AB27B7B14
:101C48009B08DBB21BB213431BB2FB81FB8900E08C
:101C5800002318461037BD4680BD00BFCC060020C3
:101C680080B584B002AF03460A46FB711346BB71C8
:101C7800FB7999B2BA1D012300930123034805F0AB
:101C8800CFFF00BF0837BD4680BD00BFCC0600208F
:101C980080B500AF01224FF48071024803F01EFDA9
:101CA80000BF80BD0000024080B500AF00224FF4A5
:101CB8008071024803F012FD00BF80BD00000240A1
:101CC80080B500AF4FF48071024803F020FD00BFDB
:101CD80080BD00BF0000024080B500AF01224FF474
:101CE8000041024803F0FAFC00BF80BD000002403A
:101CF80080B500AF00224FF40041024803F0EEFC2B
:101D080000BF80BD0000024080B500AF4FF4004125
:101D1800024803F0FCFC00BF80BD00BF0000024089
:101D280080B500AF01224FF40071024803F0D6FCE1
:101D380000BF80BD0008024080B500AF00224FF40C
:101D48000071024803F0CAFC00BF80BD00080240D1
:101D580080B500AF4FF40071024803F0D8FC00BF13
:101D680080BD00BF0008024080B500AF00220121FD
:101D7800024803F0B3FC00BF80BD00BF0010024062
:101D880080B500AF00224021024803F0A7FC00BF45
:101D980080BD00BF0000024080B500AF0022802156
:101DA800024803F09BFC00BF80BD00BF000002405A
:101DB80080B500AF00222021024803F08FFC00BF4D
:101DC80080BD00BF0000024080B582B000AF7860DF
:101DD8007B68054A934202D1044B1B68984700BFB1
:101DE8000837BD4680BD00BF6807002030080020C6
:101DF80080B500AF024807F09DFA00BF80BD00BF64
:101E08006807002080B500AF024807F093FA00BFCA
:101E180080BD00BF2007002080B400AF034B044AF8
:101E28001A6000BFBD465DF8047B7047300800208B
:101E3800790F000880B483B000AF0346FB8000BF71
:101E48000C37BD465DF8047B7047000080B483B052
:101E580000AF0F4B4FF480725A610023FB7107E00B
:101E6800FB790B4A134430221A73FB790133FB7157
:101E7800FB79072BF4D9064B0822DA72044B0122AE
:101E88009A7200BF0C37BD465DF8047B704700BFEF
:101E98007408002080B483B000AF0F4B40F20112E9
:101EA8005A610023FB7107E0FB790B4A1344312286
:101EB8001A73FB790133FB71FB79072BF4D9064BB5
:101EC8000822DA72044B01229A7200BF0C37BD4611
:101ED8005DF8047B704700BF7408002080B483B0AD
:101EE80000AF244B40F203125A61234BDB78032BDB
:101EF80024D0032B31DC012B02D0022B0FD02CE095
:101F08000023FB7107E0FB791A4A13444E221A7327
:101F1800FB790133FB71FB79072BF4D91DE0002312
:101F2800BB7107E0BB79134A13444F221A73BB797C
:101F38000133BB71BB79072BF4D90EE000237B7109
:101F480007E07B790B4A13444D221A737B790133DE
:101F58007B717B79072BF4D900BF064B0822DA7214
:101F6800044B01229A7200BF0C37BD465DF8047B12
:101F7800704700BF740800203808002080B483B080
:101F880000AF234B4FF482725A61224BDB78012B4E
:101F980024D0204B1B78012B02D0032B0FD02BE031
:101FA8000023FB7107E0FB79194A134446221A7390
:101FB800FB790133FB71FB79072BF4D91CE0002373
:101FC800BB7107E0BB79124A134445221A73BB79E7
:101FD8000133BB71BB79072BF4D90DE000237B716A
:101FE80007E07B790A4A134452221A737B7901333A
:101FF8007B717B79072BF4D9054B0822DA72044BE5
:1020080001229A7200BF0C37BD465DF8047B704709
:10201800740800203808002080B483B000AF124B49
:102028004FF483725A610023FB710DE0FB790E4A6D
:10203800134445221A73FB7901330B4A1344522285
:102048001A73FB790233FB71FB79072BEED9064B28
:102058000822DA72044B01229A7200BF0C37BD467F
:102068005DF8047B704700BF7408002080B400AF9F
:102078001C4B5B78012B01D000232EE0194B5B7EB3
:10208800002B04D0174B00225A70002325E0154B73
:102098009B78312B20D1134BDB78312B1CD1114B82
:1020A8001B79312B18D10F4B5B79312B14D10D4B88
:1020B8009B79312B10D10B4BDB79312B0CD1094B90
:1020C8001B7A312B08D1074B5B7A312B04D1054B96
:1020D80000225A70012300E000231846BD465DF82F
:1020E800047B70477408002080B400AF1C4B5B78F9
:1020F800012B01D000232EE0194B5B7E002B04D06E
:10210800174B00225A70002325E0154B9B78302B83
:1021180020D1134BDB78302B1CD1114B1B79302B82
:1021280018D10F4B5B79302B14D10D4B9B79302B89
:1021380010D10B4BDB79302B0CD1094B1B7A302B90
:1021480008D1074B5B7A302B04D1054B00225A701B
:10215800012300E000231846BD465DF8047B704764
:102168007408002080B400AF1C4B5B78012B01D0B1
:1021780000232EE0194B5B7E002B04D0174B002266
:102188005A70002325E0154B9B78452B20D1134B23
:10219800DB78522B1CD1114B1B79452B18D10F4BD7
:1021A8005B79522B14D10D4B9B79452B10D10B4BDE
:1021B800DB79522B0CD1094B1B7A452B08D1074BE5
:1021C8005B7A522B04D1054B00225A70012300E0A0
:1021D80000231846BD465DF8047B7047740800204C
:1021E80080B400AF1C4B5B78012B01D000232EE09C
:1021F800194B5B7E002B04D0174B00225A7000232A
:1022080025E0154B9B78552B20D1134BDB78552BAC
:102218001CD1114B1B79552B18D10F4B5B79552BC2
:1022280014D10D4B9B79552B10D10B4BDB79552BCA
:102238000CD1094B1B7A552B08D1074B5B7A552BD0
:1022480004D1054B00225A70012300E000231846F0
:10225800BD465DF8047B70477408002080B500AF68
:10226800734B01221A70734B1B78012B1DD1714BD4
:102278009B7823F05503002B0BD16E4BDB7823F0B2
:102288003403002B05D16B4B1B7903F00203002BA1
:102298000BD1684B00221A70674B00221A70FFF7A7
:1022A800BBFE664B664A1A60C0E0FFF75BFF034659
:1022B800012B09D15F4B00221A705F4B00221A7064
:1022C8005E4B5F4A1A60B1E05E4B1B78012B2DD143
:1022D8005D4B1B780133DAB25B4B1A705A4B1B7893
:1022E800012B09D1534B01225A70524B9B7903F0B1
:1022F8007F03DAB24F4B9A71534B1B78C72B15D912
:102308004C4B1B7903F00103002B0FD0494B0122E2
:102318005A70484B9B7963F07F03DAB2454B9A7148
:10232800484B00221A70484B00221A70FFF7DCFE57
:102338000346012B09D13F4B00221A703E4B002265
:102348001A703E4B414A1A6070E03A4B1B78012BD9
:1023580013D1384BDB785B09DBB203F00103002BA8
:102368000BD0344B00221A70334B00221A70FFF73F
:102378006DFD324B354A1A6058E0354B5B78012BBE
:1023880010D1334B1B78012B0CD12A4B00221A7029
:10239800294B00221A702E4B00225A70274B2D4AC7
:1023A8001A6043E0234B1B78012B1DD1214BDB78AE
:1023B8001B09DBB203F00103002B15D01D4B0022D3
:1023C8001A701D4B00221A701A4B01225A70194BB1
:1023D8005B7923F00103DAB2164B5A71FFF75AFD05
:1023E800164B1D4A1A6021E0FFF740FE0346012BF9
:1023F80013D1104B00221A700F4B00221A700D4B8C
:1024080001225A700B4B5B7923F00103DAB2094BB6
:102418005A710A4B104A1A6008E0104B00225A7091
:10242800044B00221A70044B00221A7080BD00BFB2
:1024380038080020C8070020B407002050080020F2
:10244800B53B0008340800203C0800206924000837
:10245800BC070020D5250008253000087408002096
:1024680080B582B000AF374BDB781B09DBB203F0D5
:102478000103FB71344B02221A70324B00221A708E
:10248800324B00221A70324B1B78FA799A4210D0DC
:10249800304B1B780133DAB22E4B1A702D4B1B7858
:1024A800022B09D92A4AFB7913702A4B00221A7089
:1024B80002E0284B00221A70274B1B78002B27D1EB
:1024C800234B1B78012B23D1244B1B780133DAB221
:1024D800224B1A70214B1B78012B03D1204B002271
:1024E8001A8015E01D4B1B78022B11D11C4B1B8841
:1024F800B3F57A7F0CD2FFF7CDFC1A4B1A4A1A6053
:10250800164B00221A70124B1A78134B1A7015E0EA
:102518000F4B1A78104B1A70104B1B78002B0DD0EC
:102528000F4B1B880A339AB20D4B1A800C4B1B8831
:10253800B3F57A7F02D3094B00221A700837BD46DB
:1025480080BD00BFC807002038080020B40700205D
:102558003D0800203E0800203F08002040080020D9
:1025680042080020500800202530000880B400AF41
:10257800144B1B780133DAB2124B1A70114B1B78CB
:10258800312B1AD90F4B00221A700F4B01225A70A7
:102598000D4B5B7903F00103002B07D00A4B5B79E5
:1025A80023F00103DAB2084B5A7106E0064B5B7957
:1025B80043F00103DAB2044B5A7100BFBD465DF81F
:1025C800047B704744080020C807002080B400AF8F
:1025D800054B04221A70054B054A1A6000BFBD4618
:1025E8005DF8047B704700BF3808002050080020C1
:1025F800FD25000880B500AFFFF7B8FF2E4B1B780C
:10260800012B15D12C4B9B7823F05503002B05D1BA
:10261800294BDB7823F03003002B09D0264B00220E
:102628001A70264B00221A70254B264A1A6042E07F
:10263800214B1B78012B11D11F4BDB785B09DBB2D7
:1026480003F00103002B09D01B4B00221A701B4B0F
:1026580000221A701A4B1C4A1A602CE0164B1B7881
:10266800012B22D1144BDB781B09DBB203F00103E9
:10267800002B1AD0104B00221A700F4B01225A70EF
:102688000D4B5B7923F04003DAB20B4B5A710A4BBE
:102698005B7963F07F03DAB2074B5A71074B00226C
:1026A8001A70074B094A1A6005E0034B00221A709A
:1026B800024B00221A7080BDC8070020B407002012
:1026C80050080020B53B000869240008D9260008F6
:1026D80080B400AF4B4B1B780133DAB2494B1A7008
:1026E800494B1B78012B18D1474B9B7823F0590392
:1026F800002B05D1444BDB7823F03403002B0CD09E
:10270800404B00221A70404B00221A703F4B0022A7
:102718001A703F4B3F4A1A606FE03B4B1B78012B06
:1027280025D1394BDB785B09DBB203F00103002BC1
:102738001DD0344B00221A70334B00221A70324BD2
:1027480001225A70304B5B7903F07F03DAB22E4BCB
:102758005A712D4B5B7943F04003DAB22A4B5A7118
:102768002A4B00221A702A4B2B4A1A6045E0254B47
:102778001B78C82B0ED1244B5B7903F07F03DAB2A8
:10278800214B5A71204B5B7943F04003DAB21E4B60
:102798005A7132E01B4B1B78C82B28D91A4B1B786F
:1027A800012B24D1184BDB781B09DBB203F00103A2
:1027B800002B1CD0134B00221A70134B00221A70E6
:1027C800114B01225A70104B5B7923F02003DAB2C7
:1027D8000D4B5A710C4B5B7943F01003DAB20A4B7C
:1027E8005A710A4B00221A70094B0C4A1A60064BA0
:1027F80000221A70054B00221A70BD465DF8047B52
:10280800704700BF45080020C8070020B407002013
:1028180050080020B53B0008692400082928000852
:1028280080B500AFFFF7A2FE384B1B780133DAB250
:10283800364B1A70364B1B78012B18D1344B9B78CA
:1028480023F07D03002B05D1314BDB7823F03503D2
:10285800002B0CD02D4B00221A702D4B00221A7021
:102868002C4B00221A702C4B2C4A1A604CE0284B37
:102878001B78012B14D1264BDB785B09DBB203F004
:102888000103002B0CD0214B00221A70204B002290
:102898001A70204B00221A701F4B214A1A6033E02D
:1028A8001A4B1B78C72B29D9194B9B785B09DBB2CC
:1028B80003F00103002B21D0144B00221A70144B93
:1028C80001225A70124B5B7943F02003DAB2104BA5
:1028D8005A710F4B5B7923F01003DAB20C4B5A7123
:1028E8000B4B9B7923F00203DAB2094B9A71094B1F
:1028F80000221A70084B0B4A1A6005E0044B0022AC
:102908001A70044B00221A7080BD00BF46080020D0
:10291800C8070020B407002050080020B53B000875
:10292800692400083129000880B500AFFFF71EFEB2
:10293800324B1B78012B13D1304B9B7823F0750356
:10294800002B03D12D4BDB783F2B09D92B4B0022D1
:102958001A702B4B00221A702A4B2B4A1A604CE033
:10296800264B1B78012B1BD1244BDB785B09DBB290
:1029780003F00103002B13D0204B00221A701F4BC9
:1029880001225A701D4B9B7943F00203DAB21B4BAC
:102998009A711B4B00221A701A4B1C4A1A602CE0C1
:1029A800164B1B78012B22D1144BDB781B09DBB2A9
:1029B80003F00103002B1AD0104B00221A700F4BA2
:1029C80001225A700D4B9B7943F00203DAB20B4B8C
:1029D8009A710A4B9B7923F00103DAB2074B9A717B
:1029E800074B00221A70074B094A1A6005E0034B8F
:1029F80000221A70024B00221A7080BDC8070020FE
:102A0800B407002050080020B53B000869240008DE
:102A18001D2A000880B500AFFFF7A8FD3B4B1B78C7
:102A28000133DAB2394B1A70394B1B78012B18D1A4
:102A3800374B9B7823F09503002B05D1344BDB787B
:102A480023F03003002B0CD0304B00221A70304B8F
:102A580000221A702F4B00221A702F4B2F4A1A602F
:102A680052E02B4B1B78012B1ED1294BDB785B09DD
:102A7800DBB203F00103002B16D0244B00221A709E
:102A8800234B00221A70224B01225A70204B9B794B
:102A980043F00103DAB21E4B9A711E4B00221A70E2
:102AA8001D4B1F4A1A602FE0184B1B78C72B25D9DE
:102AB800174B9B78DB09DBB203F00103002B1DD019
:102AC800124B00221A70124B00221A70104B01226E
:102AD8005A700F4B9B7943F00103DAB20C4B9A7191
:102AE8000B4B5B7923F00803DAB2094B5A71094B97
:102AF80000221A70084B0B4A1A6005E0044B0022AA
:102B08001A70044B00221A7080BD00BF47080020CD
:102B1800C8070020B407002050080020B53B000873
:102B280069240008312B000880B500AFFFF71EFDAF
:102B3800374B1B78012B15D1354B9B7823F0550368
:102B4800002B05D1324BDB7823F07003002B09D022
:102B58002F4B00221A702F4B00221A702E4B2F4A2F
:102B68001A6053E02A4B1B78012B1BD1284BDB78CA
:102B78005B09DBB203F00103002B13D0244B0022C6
:102B88001A70234B01225A70214B5B7943F00803DA
:102B9800DAB21F4B5A711F4B00221A701E4B204A83
:102BA8001A6033E01A4B1B78012B29D1184BDB78BC
:102BB8001B09DBB203F00103002B21D0144B0022C8
:102BC8001A70134B01225A70114B5B7943F00803BA
:102BD800DAB20F4B5A710E4B5B7923F00203DAB26B
:102BE8000B4B5A710A4B5B7943F00403DAB2084B7A
:102BF8005A71084B00221A70074B0A4A1A6005E0FE
:102C0800034B00221A70034B00221A7080BD00BFCC
:102C1800C8070020B407002050080020B53B000872
:102C280069240008312C000880B400AF404B1B78A1
:102C38000133DAB23E4B1A703E4B1B78012B18D188
:102C48003C4B9B7823F05603002B05D1394BDB789E
:102C580023F03803002B0CD0354B00221A70354B6B
:102C680000221A70344B00221A70344B344A1A600E
:102C780059E0304B1B78012B25D12E4BDB785B09B3
:102C8800DBB203F00103002B1DD0294B00221A7080
:102C9800284B00221A70274B01225A70254B5B796A
:102CA80043F00203DAB2234B5A71224B5B7923F0CB
:102CB8000403DAB21F4B5A711F4B00221A701F4BC4
:102CC800204A1A602FE01A4B1B78C72B25D9194BBD
:102CD8009B785B08DBB203F00103002B1DD0144B7B
:102CE80000221A70134B00221A70124B01225A70DC
:102CF800104B5B7943F00203DAB20E4B5A710D4B5D
:102D08005B7923F00403DAB20A4B5A710A4B0022AA
:102D18001A700A4B0C4A1A6005E0064B00221A701A
:102D2800054B00221A70BD465DF8047B704700BF52
:102D380048080020C8070020B407002050080020D9
:102D4800B53B000869240008552D000880B500AF80
:102D5800FFF70CFC904B1B78012B5BD18F4B1B783A
:102D68000133DAB28D4B1A708C4B1B78012B0AD1C8
:102D78008B4B01225A708A4B9B7903F07F03DAB29E
:102D8800874B9A7143E1854B1B78C72B3ED9844BFF
:102D98001B7903F00103002B38D0814B01225A70B4
:102DA8007F4B5B7943F00103DAB27D4B5A717C4B60
:102DB8009B7963F07F03DAB2794B9A71764B0022E4
:102DC8001A70764B00221A70764B1B78012B02D0B2
:102DD800022B0AD01AE0744B744A1A60704B002216
:102DE8001A70734B00221A7011E1724B1B78032B77
:102DF80005D1704B00221A706B4B6F4A1A60684BF2
:102E080000221A706A4B00221A7000E1644B0022FB
:102E18001A70FCE0624B1B78012B1BD1604B9B782E
:102E280023F05503002B0BD15D4BDB7823F03003E7
:102E3800002B05D15A4B1B7903F00203002B09D153
:102E48005C4B00221A70564B00221A70564B5B4A94
:102E58001A60DCE0524B1B78012B30D1504BDB78E9
:102E68005B09DBB203F00103002B28D0514B002291
:102E78001A704B4B00221A70494B01225A70484B6A
:102E88009B7923F01003DAB2454B9A71444B9B7936
:102E980043F02003DAB2424B9A71414B9B7943F0DD
:102EA8004003DAB23E4B9A713D4B9B7903F07F03A6
:102EB800DAB23B4B9A713B4B01221A70A7E0384BB0
:102EC8001B78012B40F09D80354BDB781B09DBB26A
:102ED80003F00103002B00F09480314B1B7903F0C1
:102EE8000103002B00F08D80324B1B780133DAB2DE
:102EF800304B1A702E4B00221A70294B00221A7080
:102F0800274B01225A70244B01221A70294B1B7837
:102F1800032B55D0032B70DC012B02D0022B1DD0C4
:102F28006BE01F4B9B7943F01003DAB21C4B9A718C
:102F38001B4B9B7923F02003DAB2194B9A71184B7B
:102F48009B7943F04003DAB2154B9A71144B9B7985
:102F580063F07F03DAB2124B9A714EE0104B9B7903
:102F680043F01003DAB20E4B9A710D4B9B7943F084
:102F78002003DAB20A4B9A71094B9B7923F040037C
:102F8800DAB2074B9A71064B9B7963F07F03DAB28A
:102F9800034B9A7131E000BF340800204908002033
:102FA800C80700204A0800205008002069240008AB
:102FB800B40700204B08002065220008B53B000834
:102FC800134B9B7923F01003DAB2114B9A71104B13
:102FD8009B7943F02003DAB20D4B9A710C4B9B7925
:102FE80043F04003DAB20A4B9A71094B9B7963F0BC
:102FF8007F03DAB2064B9A7100BF064B02221A70A1
:1030080005E0034B00221A70034B00221A7080BDA2
:10301800C80700204A080020B407002080B500AF88
:10302800414B03221A70414B1B78012B1DD13F4B9A
:103038009B7823F0D503002B0BD13C4BDB7823F096
:103048003703002B05D1394B1B7903F00203002B02
:103058000BD1364B00221A70354B00221A70FEF73E
:10306800DBFF344B344A1A605DE0FFF77BF8034618
:10307800012B09D12D4B00221A702D4B00221A70FA
:103088002C4B2D4A1A604EE0FFF72EF80346012B11
:1030980009D1264B00221A70254B00221A70254BA5
:1030A800264A1A603FE0214B9B789B09DBB203F06C
:1030B8000103002B12D01D4B9B78DB09DBB203F018
:1030C8000103002B0AD1194B01225A70174B9B7927
:1030D80023F00103DAB2154B9A711EE0134B9B786B
:1030E8009B09DBB203F00103002B16D10F4B9B7831
:1030F800DB09DBB203F00103002B0ED00B4B0122DE
:103108005A700A4B9B7943F00103DAB2074B9A7164
:10311800FEF734FF074B0A4A1A60044B00221A7064
:10312800034B00221A7080BD38080020C807002011
:10313800B407002050080020B53B000869240008A7
:103148004D31000880B500AF454B1B78012B1DD1D0
:10315800434B9B7823F0D503002B0BD1404BDB78F6
:1031680023F03703002B05D13D4B1B7903F00203F5
:10317800002B0BD13A4B00221A703A4B00221A70DE
:10318800FEF74AFF384B394A1A6067E0FEF7EAFF54
:103198000346012B09D1324B00221A70314B002211
:1031A8001A70314B314A1A6058E0FEF79DFF03460A
:1031B800012B09D12A4B00221A702A4B00221A70BF
:1031C800294B2B4A1A6049E02A4B1B780133DAB2A3
:1031D800284B1A70274B1B78C72B1FD9254B002269
:1031E8001A701F4BDB7803F00703072B0ED0072B51
:1031F80010DC022B02D0062B04D00BE01E4B012260
:10320800DA700BE01C4B0222DA7007E01A4B03223B
:10321800DA7003E0184B0022DA7000BF164BDB7837
:10322800002B15D00E4B01225A700D4B5B7943F0E1
:103238001003DAB20A4B5A71094B5B7923F0200369
:10324800DAB2074B5A71FEF749FE074B0B4A1A6070
:10325800034B00221A70034B00221A7080BD00BF76
:10326800C8070020B407002050080020B53B00081C
:10327800692400084C08002038080020893200081A
:1032880080B500AF454B1B78012B1DD1434B9B7874
:1032980023F07503002B0BD1404BDB7823F0370369
:1032A800002B05D13D4B1B7903F00203002B0BD1FA
:1032B8003A4B00221A703A4B00221A70FEF7ACFE05
:1032C800384B394A1A6067E0FEF74CFF0346012B7A
:1032D80009D1324B00221A70314B00221A70314B3F
:1032E800314A1A6058E0FEF7FFFE0346012B09D168
:1032F8002A4B00221A702A4B00221A70294B2B4A9B
:103308001A6049E0254B9B781B09DBB203F00103E7
:10331800002B19D0214B9B785B09DBB203F001032A
:10332800002B11D11D4B01225A701C4B5B7923F0E5
:103338002003DAB2194B5A71184B5B7943F010032A
:10334800DAB2164B5A7121E0144B9B781B09DBB299
:1033580003F00103002B19D1104B9B785B09DBB2FA
:1033680003F00103002B11D00D4B5B88B3F5587F98
:103378000CD30A4B01225A70084B9B7923F00203A5
:10338800DAB2064B9A71074B094A1A60034B0022BE
:103398001A70034B00221A7080BD00BFC8070020B6
:1033A800B407002050080020B53B00086924000835
:1033B800BD33000880B500AF4D4B1B78012B1BD1E6
:1033C8004B4B9B7823F07D03002B09D1484BDB78CE
:1033D8003F2B05D8464B1B7903F00203002B0BD17A
:1033E800434B00221A70434B00221A70FEF714FE5A
:1033F800414B424A1A607AE0FEF7B4FE0346012BBD
:1034080009D13B4B00221A703A4B00221A703A4BF2
:103418003A4A1A606BE0FEF767FE0346012B09D1B2
:10342800334B00221A70334B00221A70324B344A45
:103438001A605CE02E4B9B781B09DBB203F001039A
:10344800002B1DD12A4B9B785B09DBB203F00103EB
:10345800002B15D0274B5B88B3F5547F10D3244B32
:1034680001225A70224B5B7923F04003DAB2204BD9
:103478005A711F4B5B7963F07F03DAB21C4B5A71A8
:103488001B4BDB78DB08DBB203F00103002B28D0F1
:10349800174B01225A70164B5B7943F04003DAB29E
:1034A800134B5A71124B5B7903F07F03DAB2104B5E
:1034B8005A710F4B9B7943F00203DAB20C4B9A71A5
:1034C8000B4B5B7943F02003DAB2094B5A71084B76
:1034D8005B7923F01003DAB2054B5A71064B094A9F
:1034E8001A60034B00221A70024B00221A7080BD2A
:1034F800C8070020B407002050080020B53B00088A
:10350800692400081135000880B500AF9A4B1B7874
:10351800012B1CD1984B9B785BB2002B0BDB964B95
:10352800DB7823F03D03002B05D1934B1B7903F087
:103538000203002B0BD1904B00221A708F4B0022F4
:103548001A70FEF769FD8E4B8E4A1A6013E1FEF77A
:1035580009FE0346012B09D1874B00221A70874BBD
:1035680000221A70864B874A1A6004E1FEF7BCFDF8
:103578000346012B09D1804B00221A707F4B002291
:103588001A707F4B804A1A60F5E0804B1B78013334
:10359800DAB27E4B1A707D4B1B78C72B40F2E58060
:1035A8007A4B00221A70744BDB78DB08DBB203F02D
:1035B8000103002B25D0704B9B7803F00103002BEF
:1035C8001FD06D4B5B79DB08DBB203F00103002BE6
:1035D80017D0694B01225A70674B5B7923F00203BD
:1035E800DAB2654B5A71644B5B7943F00403DAB283
:1035F800614B5A71604B00221A70604B00221A709E
:10360800B9E05D4BDB78DB08DBB203F00103002B8C
:1036180020D0594B9B785B08DBB203F00103002BE9
:1036280018D0554B5B79DB08DBB203F00103002BA4
:1036380010D0514B01225A704F4B5B7923F008038D
:10364800DAB24D4B5A714C4B00221A704B4B002288
:103658001A7090E0484BDB78DB08DBB203F001031B
:10366800002B27D0444B9B785B08DBB203F00103A7
:10367800002B1FD0404B5B79DB08DBB203F0010362
:10368800002B17D13C4B01225A703B4B5B7943F01E
:103698000203DAB2384B5A71374B5B7923F00403D3
:1036A800DAB2354B5A71344B00221A70334B002270
:1036B8001A7060E0304B9B7803F00103002B54D064
:1036C8002D4B5B79DB08DBB203F00103002B4CD1F7
:1036D800294B01225A702E4BDB78012B05D0002B89
:1036E8002FDD023B012B2CD815E0234B9B7943F0AF
:1036F8001003DAB2204B9A711F4B9B7923F02003F9
:10370800DAB21D4B9A711C4B9B7943F04003DAB235
:10371800194B9A7115E0184B9B7943F01003DAB2F4
:10372800154B9A71144B9B7943F02003DAB2124B74
:103738009A71114B9B7923F04003DAB20E4B9A71C0
:1037480000BF0D4B9B7923F00803DAB20A4B9A713C
:10375800094B9B7963F07F03DAB2074B9A710D4BE3
:1037680001221A70064B0C4A1A60034B00221A7089
:10377800024B00221A7080BDC8070020B407002041
:1037880050080020B53B0008692400084D080020B7
:103798003808002034080020A537000880B500AF9D
:1037A800484B1B78012B1DD1464B9B7823F05503C2
:1037B800002B0BD1434BDB7823F03803002B05D1CA
:1037C800404B1B7903F00203002B0BD13D4B002229
:1037D8001A703D4B00221A70FEF71EFC3B4B3C4A08
:1037E8001A606DE0FEF7BEFC0346012B09D1354B8C
:1037F80000221A70344B00221A70344B344A1A6073
:103808005EE0FEF771FC0346012B09D12D4B002227
:103818001A702D4B00221A702C4B2E4A1A604FE05A
:103828002D4B1B78012B2DD12C4B1B780133DAB291
:103838002A4B1A70294B1B78012B09D1214B0122E5
:103848005A70204B9B7903F07F03DAB21D4B9A71B3
:10385800224B1B78952B15D91A4B1B7903F00103C2
:10386800002B0FD0174B01225A70164B9B7963F02F
:103878007F03DAB2134B9A71174B00221A70174B59
:1038880000221A70144B1B78002B13D10D4B012208
:103898005A700C4B5B7923F00203DAB2094B5A7168
:1038A800084B5B7943F00403DAB2064B5A71074BB5
:1038B8000B4A1A60034B00221A70034B00221A703D
:1038C80080BD00BFC8070020B407002050080020B2
:1038D800B53B000869240008340800204E08002081
:1038E800ED38000880B500AF3E4B1B78012B1DD189
:1038F8003C4B9B7823F05703002B0BD1394BDB78DB
:1039080023F03003002B05D1364B1B7903F002035B
:10391800002B0BD1334B00221A70334B00221A7044
:10392800FEF77AFB314B324A1A6059E0FEF71AFC6F
:103938000346012B09D12B4B00221A702A4B002277
:103948001A702A4B2A4A1A604AE0FEF7CDFB034652
:10395800012B09D1234B00221A70234B00221A7025
:10396800224B244A1A603BE01E4B9B785B08DBB273
:1039780003F00103002B2DD01A4B9B7803F00103B1
:10398800002B27D1174B5B79DB08DBB203F001036F
:10399800002B1FD1FEF724FC0346012B1AD1114B33
:1039A80001225A700F4B5B7943F00803DAB20D4BD2
:1039B8005A710C4B5B7943F00203DAB2094B5A7126
:1039C800084B5B7923F00403DAB2064B5A71074BB4
:1039D800094A1A60034B00221A70034B00221A701E
:1039E80080BD00BFC8070020B40700205008002091
:1039F800B53B000869240008053A000880B500AF07
:103A0800614B1B78012B1DD15F4B9B7823F057032B
:103A1800002B0BD15C4BDB7823F03003002B05D156
:103A2800594B1B7903F00203002B0BD1564B002294
:103A38001A70564B00221A70FEF7EEFA544B554A8C
:103A48001A60A0E0FEF78EFB0346012B09D14E4B0E
:103A580000221A704D4B00221A704D4B4D4A1A60C5
:103A680091E0FEF741FB0346012B09D1464B0022AA
:103A78001A70464B00221A70454B474A1A6082E07A
:103A8800464B1B78012B40D1454B1B780133DAB2EA
:103A9800434B1A70424B1B78012B09D13A4B012238
:103AA8005A70394B9B7903F07F03DAB2364B9A711F
:103AB8003B4B1B78952B28D9334B1B7903F001031B
:103AC800002B22D0304B01225A702F4B5B7943F0E8
:103AD8000103DAB22C4B5A712B4B9B7963F07F03AD
:103AE800DAB2294B9A712D4B00221A702C4B002206
:103AF8001A702C4B0022DA702A4B01221A70FEF73A
:103B08003DFA234B284A1A603DE01F4B9B7803F08F
:103B18000103002B31D01C4B9B785B08DBB203F010
:103B28000103002B29D11D4B1B78012B25D0164BE7
:103B38009B7923F00803DAB2134B9A71124B9B79E5
:103B480023F01003DAB2104B9A710F4B9B7943F0B4
:103B58002003DAB20C4B9A710B4B9B7943F040036C
:103B6800DAB2094B9A71084B9B7963F07F03DAB29A
:103B7800054B9A71094B01221A70034B00221A70E7
:103B8800024B00221A7080BDC8070020B40700202D
:103B980050080020B53B00086924000834080020BC
:103BA8004F080020380800206522000880B400AFC4
:103BB800054B9B7A002B02D1044B054A1A6000BFC3
:103BC800BD465DF8047B704774080020500800204B
:103BD800790F000880B400AF3F4B5B7943F00103D5
:103BE800DAB23D4B5A713C4B5B7943F00203DAB2CF
:103BF800394B5A71384B5B7923F00403DAB2364BF0
:103C08005A71354B5B7943F00803DAB2324B5A717B
:103C1800314B5B7923F01003DAB22F4B5A712E4BDC
:103C28005B7943F02003DAB22B4B5A712A4B5B794C
:103C380043F04003DAB2284B5A71274B5B7903F003
:103C48007F03DAB2244B5A71234B9B7943F001036B
:103C5800DAB2214B9A71204B9B7943F00203DAB216
:103C68001D4B9A711C4B9B7923F00803DAB21A4B4F
:103C78009A71194B9B7923F01003DAB2164B9A719B
:103C8800154B9B7943F02003DAB2134B9A71124B10
:103C98009B7943F04003DAB20F4B9A710E4B9B7934
:103CA80063F07F03DAB20C4B9A710C4B01221A7045
:103CB8000B4B0022DA700A4B00229A70084B012243
:103CC8001A70074B00225A70064B074A1A6000BF49
:103CD800BD465DF8047B7047C80700203408002003
:103CE80038080020500800206522000880B582B0FE
:103CF80000AF0B4B5B88FB71094B1B78012B01D084
:103D0800FDF74EFDFB799AB2054B5B889A4202D0CB
:103D1800034B01221A7000BF0837BD4680BD00BFA3
:103D2800B407002080B400AF034B044A9A6000BF78
:103D3800BD465DF8047B704750080020F53C00083C
:103D480080B582B000AF124B9B78FB71104BDB78CB
:103D5800BB710F4B1B797B710D4B1B78012B01D06D
:103D6800FDF74CFE0A4B9B78FA799A4209D1084B29
:103D7800DB78BA799A4204D1054B1B797A799A4251
:103D880002D0034B01221A7000BF0837BD4680BD20
:103D9800C807002080B400AF034B044A5A6000BF34
:103DA800BD465DF8047B704750080020493D000877
:103DB80080B500AF054B5B78012B04D1FDF740FEC1
:103DC800024B00225A7000BF80BD00BFC807002008
:103DD80080B400AF034B044ADA6000BFBD465DF80B
:103DE800047B704750080020B93D0008B0B489B082
:103DF80000AF03463960FB801C4B07F10C041D46DD
:103E08000FCD0FC42B682370FB881B0B9BB203F0EC
:103E18000F0320333B4413F8142C3B681A70FB88BB
:103E28001B0A9BB203F00F023B68013320323A446D
:103E380012F8142C1A70FB881B099BB203F00F02AE
:103E48003B68023320323A4412F8142C1A70FB886B
:103E580003F00F023B68033320323A4412F8142C63
:103E68001A7000BF2437BD46B0BC704710D8000890
:103E780080B485B000AF03463960FB710023FB6056
:103E880014E0FA79FB68C3F1070342FA03F303F07D
:103E98000103002B01D0312100E03021FB683A6892
:103EA80013440A461A70FB680133FB60FB68072B52
:103EB800E7DD00BF00BF1437BD465DF8047B7047DF
:103EC80080B58CB000AF582387F82F30D74B5B787C
:103ED800012B11D1D54B1B78012B03D1312387F846
:103EE8002F3002E0302387F82F3097F82F00052372
:103EF8000C220621FCF78EFBCD4B9B7807F12402A0
:103F080011461846FFF7B4FFC94BDB7807F11C02CE
:103F180011461846FFF7ACFFC54B1B7907F1140291
:103F280011461846FFF7A4FFC14B5B7907F10C0255
:103F380011461846FFF79CFFBD4B9B793A1D114669
:103F48001846FFF795FFBB4B5B883A461146184663
:103F5800FFF74CFF387B052305220121FCF75AFBAC
:103F6800787B052306220121FCF754FBB87B052347
:103F780007220121FCF74EFBF87B052308220121CB
:103F8800FCF748FB387C05230C220121FCF742FB97
:103F9800787C05230D220121FCF73CFBB87C052326
:103FA8000E220121FCF736FBF87C05230F220121A4
:103FB800FCF730FB3879052305220221FCF72AFBA0
:103FC8007879052306220221FCF724FBB87905231A
:103FD80007220221FCF71EFBF8790523082202219B
:103FE800FCF718FB387A05230C220221FCF712FB98
:103FF800787A05230D220221FCF70CFBB87A0523F9
:104008000E220221FCF706FBF87A05230F22022173
:10401800FCF700FB97F82400052305220321FCF791
:10402800F9FA97F82500052306220321FCF7F2FA8E
:1040380097F82600052307220321FCF7EBFA97F8E7
:104048002700052308220321FCF7E4FA97F8280043
:1040580005230C220321FCF7DDFA97F82900052334
:104068000D220321FCF7D6FA97F82A0005230E2221
:104078000321FCF7CFFA97F82B0005230F22032121
:10408800FCF7C8FA387F052305220421FCF7C2FA99
:10409800787F052306220421FCF7BCFAB87F0523A4
:1040A80007220421FCF7B6FAF87F05230822042129
:1040B800FCF7B0FA97F8200005230C220421FCF73E
:1040C800A9FA97F8210005230D220421FCF7A2FA8A
:1040D80097F8220005230E220421FCF79BFA97F893
:1040E800230005230F220421FCF794FA387D0523C9
:1040F80005220521FCF78EFA787D05230622052185
:10410800FCF788FAB87D052307220521FCF782FA17
:10411800F87D052308220521FCF77CFA387E052363
:104128000C220521FCF776FA787E05230D2205215D
:10413800FCF770FAB87E05230E220521FCF76AFA0F
:10414800F87E05230F220521FCF764FA3878052349
:1041580007220721FCF75EFA787805230822072151
:10416800FCF758FAB878052309220721FCF752FA18
:10417800F87805230A220721FCF74CFA2E4B1B7806
:10418800013B032B26D801A252F823F0A5410008D1
:10419800B3410008C1410008CF410008052312229D
:1041A80007215720FCF736FA14E0052312220721CD
:1041B8004120FCF72FFA0DE00523122207214F209A
:1041C800FCF728FA06E00523122207215420FCF701
:1041D80021FA00BF184BDB78032B14D0032B19DC12
:1041E800012B02D0022B07D014E00523122206214E
:1041F8004E20FCF70FFA14E00523122206214F2067
:10420800FCF708FA0DE00523122206214D20FCF7E1
:1042180001FA06E00523122206214120FCF7FAF9EB
:1042280000BF00BF3037BD4680BD00BFBC070020BF
:10423800C8070020B40700203808002080B500AF68
:1042480000224FF40061264801F048FA01224FF499
:104258008051234801F042FA01224FF400512048CE
:1042680001F03CFA01224FF480411D4801F036FA72
:10427800642000F0DBFAFCF761F9642000F0D6FA5C
:104288000020FCF787F9052200211648FCF78AFA76
:10429800052201211448FCF785FA0522022113485A
:1042A800FCF780FA052203211148FCF77BFA052266
:1042B80004211048FCF776FA052205210E48FCF780
:1042C80071FA052206210D48FCF76CFA0522072130
:1042D8000B48FCF767FA0B4B0B4A9A6100BF80BD8D
:1042E80000040240580500206F05002086050020C4
:1042F8009D050020B4050020CB050020E205002024
:10430800F905002050080020C93E000880B582B099
:1043180000AF0023FB7107E0FB79074A52F823300E
:104328009847FB790133FB71FB79082BF4D900BF5F
:1043380000BF0837BD4680BD5008002080B483B058
:1043480000AF0023FB7107E0FB79094A094942F8ED
:104358002310FB790133FB71FB79082BF4D9064B49
:10436800064A1A6000BF0C37BD465DF8047B7047EB
:1043780050080020790F0008300800201543000875
:1043880080B500AF1D4B9B7A002B33D01B4BDB7ADB
:10439800002B06D1194B03225A76184B00229A7229
:1043A8002BE0164BDB7A082B06D9144B04225A76DD
:1043B800124B00229A7220E0FDF780FB0346002B87
:1043C8001AD00E4B5B690D4AD27A0D491846FDF793
:1043D80097FB0346002B06D0084B01225A76074B61
:1043E80000229A7209E0054B00225A76034B0022FC
:1043F8009A7202E000BF00E000BF80BD7408002090
:104408008008002080B584B000AF2A4B5B78012B70
:1044180049D0FDF747FB0346002B46D03B1D184605
:10442800FDF756FB0346012B09D0224B00221A76D2
:10443800204B02225A761F4B01225A7036E01E4B3F
:104448001B69DAB21B4B1A761A4B1B7E082B02D952
:10445800184B08221A760023FB730CE0FA7BFB7BCF
:1044680010323A4412F80C1C124A13440A469A7045
:10447800FB7B0133FB730F4B1B7EFA7B9A42EDD318
:1044880007E0FB7B0B4A134400229A70FB7B013345
:10449800FB73FB7B072BF4D9064B00225A76054B9E
:1044A80001225A7002E000BF00E000BF1037BD468D
:1044B80080BD00BF74080020D007002080B483B0FE
:1044C80000AF1C4B4FF480725A611A4B00221A70CD
:1044D800184B00225A70174B00229A72154B002273
:1044E800DA72144B00221A76124B00225A760023F5
:1044F800FB710CE0FB790F4A134400221A73FB7915
:104508000C4A134400229A70FB790133FB71FB7942
:10451800072BEFD9084B094A1A62074B084ADA6198
:10452800044B01221A7000BF0C37BD465DF8047BAE
:10453800704700BF74080020500800208943000815
:104548000D44000880B500AF604B1B78013B042B7D
:1045580000F2BB8001A252F823F000BF79450008A1
:10456800ED4500088D45000801460008BD460008D5
:104578000220FDF7D5F90120FDF7B6F90320FDF774
:10458800B3F9A2E0514BDB78002B00F09D804F4B34
:10459800DB78032B1BD0032B00F39680012B02D072
:1045A800022B0AD090E00320FDF7BAF90120FDF7AD
:1045B8009BF90220FDF798F913E00320FDF778F93D
:1045C8000120FDF791F90220FDF78EF909E003209B
:1045D800FDF76EF90120FDF787F90220FDF784F950
:1045E80000BF71E00120FDF763F90320FDF77CF9B6
:1045F8000220FDF779F968E0354BDB7803F0010319
:10460800002B09D00320FDF753F90120FDF76CF9C1
:104618000220FDF769F958E02D4BDB785B08DBB227
:1046280003F00103002B09D00120FDF741F9032015
:10463800FDF75AF90220FDF757F946E0244BDB78DD
:104648009B08DBB203F00103002B09D00220FDF721
:104658002FF90320FDF748F90120FDF745F934E06B
:104668001B4BDB78DB08DBB203F00103002B09D01E
:104678000220FDF71DF90320FDF736F90120FDF7AB
:1046880033F922E0134B5B884F2B09D90320FDF740
:104698000FF90120FDF70CF90220FDF725F914E0C8
:1046A8000320FDF721F90120FDF71EF90220FDF78F
:1046B8001BF90AE00120FDF733F90220FDF714F990
:1046C8000320FDF711F900E000BF80BD3808002085
:1046D800C8070020B407002080B400AF034B044A89
:1046E8005A6200BFBD465DF8047B70475008002041
:1046F8004D450008DFF834D0FDF740F80C480D4967
:104708000D4A002302E0D458C4500433C4188C4224
:10471800F9D30A4A0A4C002301E013600432A2428A
:10472800FBD308F0F5FFFCF72AFC704700000220D5
:10473800000000208806002050D8000888060020C5
:1047480098110020FEE7000080B500AF0E4B1B68F3
:104758000D4A43F4007313600B4B1B680A4A43F479
:1047680080631360084B1B68074A43F48073136027
:10477800032000F0BDFD002000F008F8FCF776FEED
:104788000023184680BD00BF003C024080B582B0BF
:1047980000AF7860124B1A68124B1B7819464FF419
:1047A8007A73B3FBF1F3B2FBF3F3184600F0D5FDCF
:1047B8000346002B01D001230EE07B680F2B0AD89B
:1047C800002279684FF0FF3000F09DFD064A7B68B3
:1047D8001360002300E0012318460837BD4680BD5A
:1047E80054050020140600201006002080B400AFF5
:1047F800064B1B781A46064B1B681344044A136081
:1048080000BFBD465DF8047B704700BF140600205A
:104818009008002080B400AF034B1B681846BD46C3
:104828005DF8047B704700BF9008002080B584B015
:1048380000AF7860FFF7EEFFB8607B68FB60FB684D
:10484800B3F1FF3F05D00A4B1B781A46FB681344A7
:10485800FB6000BFFFF7DEFF0246BB68D31AFA68A9
:104868009A42F7D800BF00BF1037BD4680BD00BFD1
:104878001406002080B584B000AF78607B68002BF8
:1048880001D10123EDE07B6893F82030DBB2002BE7
:1048980002D17868FCF712FE7B681B681A687B688F
:1048A8001B6842F001021A60FFF7B4FFF86012E0DB
:1048B800FFF7B0FF0246FB68D31A0A2B0BD97B68B7
:1048C8005B6A43F400327B685A627B68052283F88E
:1048D80020200123C5E07B681B685B6803F00103A7
:1048E800002BE5D07B681B681A687B681B6822F080
:1048F80002021A60FFF78EFFF86012E0FFF78AFFE6
:104908000246FB68D31A0A2B0BD97B685B6A43F40F
:1049180000327B685A627B68052283F820200123D5
:104928009FE07B681B685B6803F00203002BE5D1FE
:104938007B681B7E012B08D17B681B681A687B6823
:104948001B6842F080021A6007E07B681B681A68DF
:104958007B681B6822F080021A607B685B7E012BF3
:1049680008D17B681B681A687B681B6842F04002A4
:104978001A6007E07B681B681A687B681B6822F06E
:1049880040021A607B689B7E012B08D17B681B68FC
:104998001A687B681B6842F020021A6007E07B688F
:1049A8001B681A687B681B6822F020021A607B6803
:1049B800DB7E012B08D17B681B681A687B681B6843
:1049C80022F010021A6007E07B681B681A687B688F
:1049D8001B6842F010021A607B681B7F012B08D10C
:1049E8007B681B681A687B681B6842F008021A60BB
:1049F80007E07B681B681A687B681B6822F008025E
:104A08001A607B685B7F012B08D17B681B681A687A
:104A18007B681B6842F004021A6007E07B681B6829
:104A28001A687B681B6822F004021A607B689A681F
:104A38007B68DB681A437B681B691A437B685B6980
:104A480042EA03017B685B685A1E7B681B680A435D
:104A5800DA617B6800225A627B68012283F8202091
:104A6800002318461037BD4680BD000080B487B0CB
:104A780000AF786039607B6893F82030FB75FB7D68
:104A8800012B03D0FB7D022B40F0BE80654B3B61C0
:104A98003B69D3F8003243F001023B69C3F80022B6
:104AA8003B69D3F8003223F47C523B69C3F80022F7
:104AB8003B69D3F800223B685B6A1B021A433B69D7
:104AC800C3F800223B685B6903F01F03012202FA66
:104AD80003F3FB603B69D3F81C22FB68DB431A40F5
:104AE8003B69C3F81C223B68DB69002B23D13B6977
:104AF800D3F80C22FB68DB431A403B69C3F80C224D
:104B08003B68DB6819043B685B689BB23A6852698A
:104B180019433B69483243F832103B689B681904D3
:104B28003B681B689AB23B685B690A43396948333A
:104B3800DB000B445A603B68DB69012B22D13B69DF
:104B4800D3F80C22FB681A433B69C3F80C223B6874
:104B58001B6819043B685B689BB23A685269194341
:104B68003B69483243F832103B689B6819043B683C
:104B7800DB689AB23B685B690A4339694833DB00F2
:104B88000B445A603B689B69002B09D13B69D3F8F9
:104B98000422FB68DB431A403B69C3F8042207E0A0
:104BA8003B69D3F80422FB681A433B69C3F8042223
:104BB8003B681B69002B09D13B69D3F81422FB68B9
:104BC800DB431A403B69C3F8142207E03B69D3F87A
:104BD8001422FB681A433B69C3F814223B681B6A1A
:104BE800012B07D13B69D3F81C22FB681A433B69A8
:104BF800C3F81C223B69D3F8003223F001023B6959
:104C0800C3F80022002306E07B685B6A43F4802235
:104C18007B685A62012318461C37BD465DF8047B41
:104C2800704700BF0064004080B584B000AF786072
:104C38007B6893F82030DBB2012B2ED17B680222EF
:104C480083F820207B681B681A687B681B6822F041
:104C580001021A60FFF7DEFDF86012E0FFF7DAFDE7
:104C68000246FB68D31A0A2B0BD97B685B6A43F4AC
:104C780000327B685A627B68052283F82020012372
:104C880012E07B681B685B6803F00103002BE5D129
:104C98007B6800225A62002306E07B685B6A43F463
:104CA80000227B685A62012318461037BD4680BD32
:104CB80080B489B000AFF860B9607A603B60FB6887
:104CC80093F82030FB77FB681B689B68BB61FB7F10
:104CD800012B03D0FB7F022B40F0AD80BB6903F0B2
:104CE8008063002B0AD1BB6903F00063002B05D158
:104CF800BB6903F08053002B00F09580BB691B0E45
:104D080003F003037B6101227B699A403B681A60C8
:104D1800BB689B68002B0DD1BB681B685A05BB6834
:104D2800DB68F96809681A437B6918331B010B446F
:104D38001A600FE0BB685B68DA00BB689B681A43BF
:104D4800BB68DB68F96809681A437B6918331B017B
:104D58000B441A60FB681968BB681A697B691833C9
:104D68001B010B4404331A60BB681B7D012B11D156
:104D7800FB681A687B6918331B01134404331B68EA
:104D8800FA68116843F480727B6918331B010B447D
:104D980004331A607B6807331B781A067B6806336E
:104DA8001B781B041A437B6805331B781B021343CB
:104DB8007A68043212781046FA68116843EA0002E9
:104DC8007B691B010B4403F5C6731A607B680333C8
:104DD8001B781A067B6802331B781B041A437B680E
:104DE80001331B781B0213437A6812781046FA685D
:104DF800116843EA00027B691B010B4403F5C47385
:104E08001A60FB681A687B6918331B0113441B6816
:104E1800FA68116843F001027B6918331B010B44DF
:104E28001A6000230EE0FB685B6A43F40012FB681B
:104E38005A62012306E0FB685B6A43F48022FB6840
:104E48005A62012318462437BD465DF8047B704733
:104E580080B485B000AF78600023FB607B6893F86E
:104E68002030FB72FB7A012B02D0FB7A022B1DD17A
:104E78007B681B689B6803F08063002B02D0FB688B
:104E88000133FB607B681B689B6803F00063002BA1
:104E980002D0FB680133FB607B681B689B6803F0EA
:104EA8008053002B02D0FB680133FB60FB68184677
:104EB8001437BD465DF8047B704780B487B000AFF7
:104EC800F860B9607A603B60FB6893F82030FB7546
:104ED800FB7D012B03D0FB7D022B40F00381BB68D7
:104EE800002B0ED1FB681B68DB6803F00303002B63
:104EF80016D1FB685B6A43F40012FB685A6201230F
:104F0800F7E0FB681B681B6903F00303002B07D15C
:104F1800FB685B6A43F40012FB685A620123E8E00D
:104F2800FB681A68BB681B331B0113441B6803F03A
:104F380004027B689A607B689B68002B0CD1FB6835
:104F48001A68BB681B331B0113441B685B0DC3F352
:104F58000A027B681A600BE0FB681A68BB681B339F
:104F68001B0113441B68DB0823F060427B685A600E
:104F7800FB681A68BB681B331B0113441B6803F0EA
:104F880002027B68DA60FB681A68BB681B331B0186
:104F9800134404331B6803F00803002B03D07B6819
:104FA80008221A610BE0FB681A68BB681B331B01F7
:104FB800134404331B6803F00F027B681A61FB6813
:104FC8001A68BB681B331B01134404331B681B0A94
:104FD800DAB27B689A61FB681A68BB681B331B01ED
:104FE800134404331B681B0C9AB27B685A61FB6834
:104FF8001A68BB681B01134403F5DC731B68DAB23B
:105008003B681A70FB681A68BB681B01134403F5F8
:10501800DC731B681A0A3B680133D2B21A70FB684A
:105028001A68BB681B01134403F5DC731B681A0C70
:105038003B680233D2B21A70FB681A68BB681B015E
:10504800134403F5DC731B681A0E3B680333D2B2B2
:105058001A70FB681A68BB681B01134403F5DE73FA
:105068001A683B680433D2B21A70FB681A68BB68C6
:105078001B01134403F5DE731B681A0A3B680533EA
:10508800D2B21A70FB681A68BB681B01134403F597
:10509800DE731B681A0C3B680633D2B21A70FB68C1
:1050A8001A68BB681B01134403F5DE731B681A0EEC
:1050B8003B680733D2B21A70BB68002B08D1FB6873
:1050C8001B68DA68FB681B6842F02002DA6007E0B8
:1050D800FB681B681A69FB681B6842F020021A61AA
:1050E800002306E0FB685B6A43F48022FB685A628F
:1050F800012318461C37BD465DF8047B704780B411
:1051080085B000AF786039600023FB607B6893F856
:105118002030FB72FB7A012B02D0FB7A022B0FD1D5
:105128003B68002B06D17B681B68DB6803F0030330
:10513800FB6005E07B681B681B6903F00303FB60E9
:10514800FB6818461437BD465DF8047B70470000BD
:1051580080B485B000AF78607B6803F00703FB601C
:105168000C4BDB68BB60BA684FF6FF031340BB60AB
:10517800FB681A02BB68134343F0BF6343F4003370
:10518800BB60044ABB68D36000BF1437BD465DF8F6
:10519800047B704700ED00E080B400AF044BDB688F
:1051A8001B0A03F007031846BD465DF8047B7047E9
:1051B80000ED00E080B483B000AF0346FB7197F9BF
:1051C8000730002B0BDBFB7903F01F02074997F927
:1051D80007305B09012000FA02F241F8232000BFE2
:1051E8000C37BD465DF8047B704700BF00E100E066
:1051F80080B483B000AF03463960FB7197F907307C
:10520800002B0ADB3B68DAB20C4997F90730120128
:10521800D2B20B4483F800230AE03B68DAB20849AB
:10522800FB7903F00F03043B1201D2B20B441A7648
:1052380000BF0C37BD465DF8047B704700E100E015
:1052480000ED00E080B489B000AFF860B9607A6022
:10525800FB6803F00703FB61FB69C3F10703042B39
:1052680028BF0423BB61FB690433062B02D9FB6901
:10527800033B00E000237B614FF0FF32BB6902FA79
:1052880003F3DA43BB681A407B699A404FF0FF3159
:105298007B6901FA03F3D9437B680B401343184633
:1052A8002437BD465DF8047B7047000080B582B0A6
:1052B80000AF78607B68013BB3F1807F01D30123A5
:1052C8000FE00A4A7B68013B53600F214FF0FF3023
:1052D800FFF78EFF054B00229A60044B07221A60E5
:1052E800002318460837BD4680BD00BF10E000E027
:1052F80080B582B000AF78607868FFF729FF00BFFB
:105308000837BD4680BD80B586B000AF0346B9609A
:105318007A60FB7300237B61FFF73EFF78617A6850
:10532800B9687869FFF78EFF024697F90F30114682
:105338001846FFF75DFF00BF1837BD4680BD80B532
:1053480082B000AF0346FB7197F907301846FFF7A4
:1053580031FF00BF0837BD4680BD80B582B000AFC1
:1053680078607868FFF7A2FF034618460837BD46FD
:1053780080BD000080B489B000AF78603960002338
:105388007B6100233B610023BB610023FB616BE170
:105398000122FB6902FA03F37B613B681B687A69A7
:1053A80013403B613A697B699A4240F05A813B68F5
:1053B8005B6803F00303012B05D03B685B6803F0CF
:1053C8000303022B30D17B689B68BB61FB695B00E0
:1053D800032202FA03F3DB43BA691340BB613B685B
:1053E800DA68FB695B0002FA03F3BA691343BB612D
:1053F8007B68BA699A607B685B68BB610122FB695C
:1054080002FA03F3DB43BA691340BB613B685B688C
:105418001B0903F00102FB6902FA03F3BA6913439B
:10542800BB617B68BA695A603B685B6803F0030339
:10543800032B17D07B68DB68BB61FB695B00032229
:1054480002FA03F3DB43BA691340BB613B689A680D
:10545800FB695B0002FA03F3BA691343BB617B681B
:10546800BA69DA603B685B6803F00303022B23D157
:10547800FB69DA087B68083253F82230BB61FB69A4
:1054880003F007039B000F2202FA03F3DB43BA6918
:105498001340BB613B681A69FB6903F007039B0073
:1054A80002FA03F3BA691343BB61FB69DA087B6844
:1054B8000832B96943F822107B681B68BB61FB6935
:1054C8005B00032202FA03F3DB43BA691340BB61B2
:1054D8003B685B6803F00302FB695B0002FA03F3B5
:1054E800BA691343BB617B68BA691A603B685B6839
:1054F80003F44033002B00F0B4800023FB60604BC2
:105508005B6C5F4A43F4804353645D4B5B6C03F40C
:105518008043FB60FB685B4AFB699B08023352F8D7
:105528002330BB61FB6903F003039B000F2202FADF
:1055380003F3DB43BA691340BB617B68524A934269
:105548002BD07B68514A934225D07B68504A9342BE
:105558001FD07B684F4A934219D07B684E4A9342CA
:1055680013D07B684D4A93420DD07B684C4A9342D6
:1055780007D07B684B4A934201D107230EE00823EA
:105588000CE006230AE0052308E0042306E00323D1
:1055980004E0022302E0012300E00023FA6902F09C
:1055A800030292009340BA691343BB613549FB6912
:1055B8009B080233BA6941F823203B4B9B68BB61C7
:1055C8003B69DB43BA691340BB613B685B6803F422
:1055D8008013002B03D0BA693B691343BB61324A7D
:1055E800BB699360304BDB68BB613B69DB43BA69DD
:1055F8001340BB613B685B6803F40013002B03D0C6
:10560800BA693B691343BB61274ABB69D360264B20
:105618005B68BB613B69DB43BA691340BB613B68AC
:105628005B6803F40033002B03D0BA693B6913436A
:10563800BB611D4ABB6953601B4B1B68BB613B695F
:10564800DB43BA691340BB613B685B6803F4803392
:10565800002B03D0BA693B691343BB61124ABB698B
:105668001360FB690133FB61FB690F2B7FF690AE7A
:1056780000BF00BF2437BD465DF8047B704700BFFC
:105688000038024000380140000002400004024097
:1056980000080240000C02400010024000140240C2
:1056A80000180240001C0240003C014080B485B054
:1056B80000AF78600B467B807B681A697B88134053
:1056C800002B02D00123FB7301E00023FB73FB7B5B
:1056D80018461437BD465DF8047B704780B483B024
:1056E80000AF78600B467B8013467B707B78002B7D
:1056F80003D07A887B689A6103E07B881A047B6808
:105708009A6100BF0C37BD465DF8047B704780B4D2
:1057180085B000AF78600B467B807B685B69FB6077
:105728007A88FB6813401A04FB68D9437B880B40CE
:105738001A437B689A6100BF1437BD465DF8047B45
:105748007047000080B582B000AF0346FB80084B6D
:105758005A69FB881340002B06D0054AFB88536121
:10576800FB881846FCF766FB00BF0837BD4680BDBE
:10577800003C014080B586B002AF78607B68002BA2
:1057880001D1012359E07B681B68FB607B6893F8B3
:10579800D533DBB2002B06D17B68002283F8D423F3
:1057A800786807F03FFC7B68032283F8D523FB6801
:1057B800B3F1A04F02D17B6800229A717B681B6805
:1057C800184604F04CFA7B6818687B681A7C8DF8D8
:1057D800002004330ECB04F0CDF90346002B05D08E
:1057E8007B68022283F8D523012326E07B681B68A7
:1057F8000121184604F044FA0346002B05D07B68C3
:10580800022283F8D523012317E07B6818687B6898
:105818001A7C8DF8002004330ECB04F0EDFB034610
:10582800002B05D07B68022283F8D523012304E0EE
:105838007B68012283F8D523002318461037BD461C
:1058480080BD90B58BB004AF7860084611461A4603
:105858000346FB700B46BB7013467B703B8E7B6127
:105868007B6893F8D433012B01D102239DE07B6838
:10587800012283F8D423FA78796813461B019B1A0E
:105888009B000B44193300221A70FA787968134682
:105898001B019B1A9B000B4414337A781A70FA7810
:1058A800796813461B019B1A9B000B441533FA7841
:1058B8001A70FA78796813461B019B1A9B000B44EF
:1058C800263397F82C201A70FA78BB7803F07F03F8
:1058D800D8B2796813461B019B1A9B000B441633F8
:1058E80002461A70FB781946786800F0A5FB97F90C
:1058F8000230002B0ADAFA78796813461B019B1AE2
:105908009B000B44173301221A7009E0FA78796872
:1059180013461B019B1A9B000B44173300221A7075
:105928007B681B68184604F0CBFC386197F82C306C
:10593800012B0BD197F82830012B07D13B69002B9D
:1059480004D17B69BC2B01D9BC237B61FA787968C7
:1059580013461B019B1A9B000B44183397F8282009
:105968001A70FA787B6998B2796813461B019B1AFA
:105978009B000B44283302461A807B6818687B69B1
:105988009BB27C78BA78F978029397F82C30019317
:1059980097F828300093234604F0BAFC0346FB73BB
:1059A8007B68002283F8D423FB7B18461C37BD464E
:1059B80090BD000080B582B000AF786008461146FF
:1059C8001A460346FB700B46BB7013467B70FA7889
:1059D800796813461B019B1A9B000B441733BA784E
:1059E8001A70FA78796813461B019B1A9B000B44BE
:1059F80026337A781A703B7C002B14D1FA787968B0
:105A080013461B019B1A9B000B442A3303221A706E
:105A1800FA78796813461B019B1A9B000B441933CB
:105A28003A7F1A7009E0FA78796813461B019B1AC5
:105A38009B000B442A3302221A707B78032B00F256
:105A4800028101A252F823F0615A0008395C00086B
:105A5800255B0008AF5B00083B7C012B40F0F5801C
:105A6800BB78002B2DD13B8B002B09D1FA787968B4
:105A780013461B019B1A9B000B443D3301221A70ED
:105A8800FA78796813461B019B1A9B000B443D3337
:105A98001B78002B0AD1FA78796813461B019B1AE8
:105AA8009B000B442A3300221A70CEE0FA787968FA
:105AB80013461B019B1A9B000B442A3302221A70BF
:105AC800C3E0FA78796813461B019B1A9B000B44C4
