:020000040800F2
:1000000000000220A12A0008451600084D1600082D
:10001000551600085D16000865160008000000006F
:100020000000000000000000000000006D16000845
:100030007B160008000000008916000897160008CB
:10004000F12A0008F12A0008F12A0008F12A000824
:10005000F12A0008F12A0008F12A0008F12A000814
:10006000F12A0008F12A0008F12A0008F12A000804
:10007000F12A0008F12A0008F12A0008F12A0008F4
:10008000F12A0008F12A0008F12A0008F12A0008E4
:10009000F12A0008F12A0008F12A0008F12A0008D4
:1000A000F12A0008F12A0008F12A0008F12A0008C4
:1000B000A5160008F12A0008F12A0008F12A000814
:1000C000F12A0008F12A0008F12A0008F12A0008A4
:1000D000F12A0008F12A0008F12A0008F12A000894
:1000E000B9160008F12A0008F12A0008F12A0008D0
:1000F000F12A0008C9160008F12A0008F12A0008B0
:10010000F12A0008F12A0008F12A0008F12A000863
:10011000F12A0008F12A0008F12A0008F12A000853
:10012000F12A0008F12A0008F12A0008F12A000843
:10013000F12A0008F12A0008F12A0008F12A000833
:10014000F12A0008F12A0008F12A0008DD1600084B
:10015000F12A0008F12A0008F12A0008F12A000813
:10016000F12A0008F12A0008F12A0008F12A000803
:10017000F12A0008F12A0008F12A00080000000016
:08018000F12A0008F12A000831
:1001880010B5054C237833B9044B13B10448AFF3C9
:1001980000800123237010BD8806002000000000A5
:1001A800E0B4000808B5034B1BB103490348AFF39B
:1001B800008008BD000000008C060020E0B40008A4
:1001C80053B94AB9002908BF00281CBF4FF0FF31B6
:1001D8004FF0FF3000F088B9ADF1080C6DE904CE9E
:1001E80000F006F8DDF804E0DDE9022304B070470A
:1001F8002DE9F047089D8E4604468846002B4AD1D3
:100208008A42174662D9B2FA82F64EB1C6F1200385
:1002180001FA06F820FA03F3B74043EA0808B440A5
:100228004FEA174E1FFA87FCB8FBFEF1230C0EFBB2
:10023800118843EA084301FB0CF29A4209D9FB18DA
:1002480001F1FF3080F0EA809A4240F2E7800239FB
:100258003B449A1AA3B2B2FBFEF00EFB102243EA0B
:10026800024300FB0CFC9C4509D9FB1800F1FF3246
:1002780080F0D6809C4540F2D3803B44023840EA67
:100288000140A3EB0C0300211DB1F3400022C5E996
:100298000032BDE8F0878B4205D90DB1C5E90001F0
:1002A80000210846F5E7B3FA83F1002946D17345E2
:1002B80002D3824200F20581841A6EEB0302012008
:1002C8009046002DE5D0C5E90048E2E7002A00F095
:1002D8009080B2FA82F6002E40F0A4808A1A030CAD
:1002E8004FEA174E80B2BCB20121B2FBFEFC0EFBF6
:1002F8001C2243EA024304FB0CF29A4207D9FB187A
:100308000CF1FF3802D29A4200F2E080C4469B1AF0
:10031800B3FBFEF20EFB123340EA034302FB04F484
:100328009C4207D9FB1802F1FF3002D29C4200F22E
:10033800CA8002461B1B42EA0C40A5E7C1F1200611
:100348008B4022FA06F71F430EFA01F420FA06F34F
:100358002EFA06FE4FEA1749234300FA01F81FFA5E
:1003680087FCBEFBF9F01C0C09FB10EE44EA0E44B6
:1003780000FB0CFEA64502FA01F209D93C1900F16E
:10038800FF3A80F09C80A64540F2998002383C44B0
:10039800A4EB0E041FFA83FEB4FBF9F309FB134424
:1003A8004EEA044403FB0CFCA44508D93C1903F1AC
:1003B800FF3E80F08280A4457FD9023B3C4443EA5B
:1003C8000040A4EB0C04A0FB02EC64457346E14634
:1003D80062D35FD05DB1B8EB030264EB090404FAA1
:1003E80006F622FA01F31E43CC40C5E90064002159
:1003F8004FE7B1FBF2FC010C41EA0E4180B240EA42
:1004080001423B4638463C46B846BE462026B1FB2C
:10041800F7F1A2EB080241EA0C4166E7014618E74A
:1004280010462CE7C6F120022EFA02F3B740B1407D
:1004380020FA02F24FEA174E0A43B3FBFEF8BCB2A9
:100448000EFB1833110C41EA034108FB04F9B040D4
:1004580089454FEA104380B23ED9791808F1FF3C2C
:1004680001D289451FD8A1EB0901B1FBFEF909FBAF
:1004780004F80EFB191192B242EA0142424529D210
:10048800BA1809F1FF31C4D24245C2D2A9F102011A
:100498003A44BEE7F0459DD2BEEB02036CEB070C75
:1004A8000138E14696E7A7EB09094944A8F1020C8F
:1004B800B1FBFEF909FB04F8DBE773467FE750461A
:1004C80066E70846FDE63B44023A33E7ACF1020C26
:1004D8003B441CE749469CE7A1EB0901C446B1FB34
:1004E800FEF909FB04F8C4E7704700BF80B584B083
:1004F80000AF03460A46FB711346BB710422012173
:10050800002000F0CBF90346FB7306E0042201212A
:10051800002000F0C3F90346FB7397F90F30002B56
:10052800F4DBFB7903F00B03DBB2B879012200217D
:1005380000F046FB00BF1037BD4680BD80B500AF58
:100548003E210220FFF7D2FFC0210220FFF7CEFF95
:10055800B8210220FFF7CAFF40210220FFF7C6FF9B
:100568003F210220FFF7C2FF3E210120FFF7BEFF17
:10057800C0210120FFF7BAFFB8210120FFF7B6FF1D
:1005880040210120FFF7B2FF3F210120FFF7AEFF16
:1005980000BF80BD80B584B000AF0346FB71002367
:1005A800BB602EE0BB68DBB2483BDBB219460120DA
:1005B800FFF79CFFBB68DBB2483BDBB21946022061
:1005C800FFF794FF0023FB6007E0FB7919460A2038
:1005D800FFF78CFFFB680133FB60FB683F2BF4DD02
:1005E8000023FB6007E0FB7919460920FFF77EFF2F
:1005F800FB680133FB60FB683F2BF4DDBB6801330C
:10060800BB60BB68072BCDDD00BF00BF1037BD4600
:1006180080BD000090B585B000AF0446084611467D
:100628001A462346FB710346BB710B467B71134682
:100638003B71FB79203BDBB23B733B79032B02D147
:100648007B799B007B733B79052B07D17B791A4615
:10065800520013445B00DBB204337B733B79072BF6
:1006680002D17B79DB007B737B7B3F2B05D9092388
:10067800FB737B7B403B7B7301E00A23FB737B7B33
:1006880043F04003FB72FB7B03F00703DBB2FA7A0B
:1006980011461846FFF72AFFBB7963F04703FB7240
:1006A800FB7B03F00703DBB2FA7A11461846FFF723
:1006B8001DFF3B79032B21D10023BB731AE097F967
:1006C8000C2097F90E10344813465B00134403447A
:1006D8000B441B78FB72FB7B43F00803DBB2FA7A0E
:1006E80011461846FFF702FF97F90E30DBB20133C7
:1006F800DBB2BB7397F90E30022BE0DD3B79052B9B
:1007080021D10023BB731AE097F90C2097F90E103A
:10071800224813469B00134403440B441B78FB7286
:10072800FB7B43F00803DBB2FA7A11461846FFF761
:10073800DDFE97F90E30DBB20133DBB2BB7397F9FC
:100748000E30042BE0DD3B79072B21D10023BB734E
:100758001AE097F90C2097F90E1011481346DB00A0
:100768009B1A03440B441B78FB72FB7B43F0080382
:10077800DBB2FA7A11461846FFF7B8FE97F90E3041
:10078800DBB20133DBB2BB7397F90E30062BE0DD29
:1007980000BF1437BD4690BD00000020C4000020F3
:1007A800AC02002080B584B000AF78600B46FB70C7
:1007B8001346BB70BB78032B12D10023FB600CE0FF
:1007C800FB687A6813441878F978FB68DAB203236F
:1007D800FFF720FFFB680133FB60FB681F2BEFDD91
:1007E800BB78052B12D10023FB600CE0FB687A680C
:1007F80013441878F978FB68DAB20523FFF70AFF83
:10080800FB680133FB60FB68132BEFDDBB78072B1C
:1008180012D10023FB600CE0FB687A681344187857
:10082800F978FB68DAB20723FFF7F4FEFB680133B7
:10083800FB60FB680F2BEFDD00BF1037BD4680BDA6
:1008480080B586B000AF4FF47F437B600023BB6068
:100858000023FB603B1D1946034802F0EBFB00BF79
:100868001837BD4680BD00BF0010024080B586B075
:1008780000AF4FF47F437B600123BB600023FB6024
:1008880000233B613B1D1946034802F0D3FB00BF20
:100898001837BD4680BD00BF0010024080B584B047
:1008A80000AF0346FB710B46BB7113467B71FFF724
:1008B800C7FF7B7903F00103002B06D001224FF418
:1008C8008071BC4802F06AFD05E000224FF4807197
:1008D800B84802F063FD7B7903F00203002B06D0D1
:1008E80001224FF40071B34802F058FD05E00022E0
:1008F8004FF40071AF4802F051FD7B7903F0040317
:10090800002B06D001224FF48061AA4802F046FD70
:1009180005E000224FF48061A64802F03FFD7B7994
:1009280003F00803002B06D001224FF40061A14810
:1009380002F034FD05E000224FF400619D4802F00A
:100948002DFD7B7903F01003002B05D00122022135
:10095800994802F023FD04E000220221964802F0A3
:100968001DFDFB79032B4FD801A252F823F000BFDD
:1009780089090008AB090008CD090008EF0900083B
:10098800BB79002B06D100224FF400618A4802F09F
:1009980005FD3AE001224FF40061874802F0FEFCB1
:1009A80033E0BB79002B06D100224FF480518248F6
:1009B80002F0F4FC29E001224FF480517E4802F055
:1009C800EDFC22E0BB79002B06D100224FF4005148
:1009D800794802F0E3FC18E001224FF40051764810
:1009E80002F0DCFC11E0BB79002B06D100224FF4A9
:1009F8008041714802F0D2FC07E001224FF48041A7
:100A08006D4802F0CBFC00E000BF002201216A48DB
:100A180002F0C4FC4FF48071684802F0A7FC03465A
:100A2800DB015BB2DB115AB23B7A62F300033B7223
:100A38004FF40071614802F099FC0346DB015BB298
:100A4800DB115AB23B7A62F341033B724FF4806187
:100A58005A4802F08BFC0346DB015BB2DB115AB249
:100A68003B7A62F382033B724FF40061534802F011
:100A78007DFC0346DB015BB2DB115AB23B7A62F3C1
:100A8800C3033B724FF480514C4802F06FFC03469D
:100A9800DB015BB2DB115AB23B7A62F304133B729F
:100AA8004FF40051454802F061FC0346DB015BB29C
:100AB800DB115AB23B7A62F345133B724FF4804123
:100AC8003E4802F053FC0346DB015BB2DB115AB22D
:100AD8003B7A62F386133B724FF40041374802F0C9
:100AE80045FC0346DB015BB2DB115AB23B7A62F389
:100AF800C7133B72012201212F4802F04FFCFB79FA
:100B0800032B4FD801A252F823F000BF250B000891
:100B1800470B0008690B00088B0B0008BB79002BFA
:100B280006D101224FF40061234802F037FC3AE075
:100B380000224FF40061204802F030FC33E0BB791A
:100B4800002B06D101224FF480511B4802F026FCED
:100B580029E000224FF48051174802F01FFC22E0E0
:100B6800BB79002B06D101224FF40051124802F044
:100B780015FC18E000224FF400510F4802F00EFC5B
:100B880011E0BB79002B06D101224FF480410A48BD
:100B980002F004FC07E000224FF48041064802F00E
:100BA800FDFB00E000BF3B7AFB73FB7B1846103768
:100BB800BD4680BD000C0240000402400010024007
:100BC80090B585B000AF0446084611461A4623463C
:100BD800FB710346BB710B467B7113463B71FFF7F4
:100BE80045FEFB793B733B7B03F00103DBB2002B33
:100BF80006D100224FF48071B54802F0CFFB05E022
:100C080001224FF48071B24802F0C8FB3B7B03F02D
:100C18000203DBB2002B06D100224FF40071AC486E
:100C280002F0BCFB05E001224FF40071A84802F075
:100C3800B5FB3B7B03F00403DBB2002B06D100229B
:100C48004FF48061A24802F0A9FB05E001224FF4AD
:100C580080619F4802F0A2FB3B7B03F00803DBB2F4
:100C6800002B06D100224FF40061994802F096FB50
:100C780005E001224FF40061954802F08FFB3B7BB1
:100C880003F01003DBB2002B06D100224FF4805191
:100C98008F4802F083FB05E001224FF480518C4815
:100CA80002F07CFB3B7B03F02003DBB2002B06D178
:100CB80000224FF40051864802F070FB05E0012243
:100CC8004FF40051824802F069FB3B7B03F040037C
:100CD800DBB2002B06D100224FF480417C4802F0A1
:100CE8005DFB05E001224FF48041794802F056FB94
:100CF8003B7B23F07F03DBB2002B06D100224FF4AD
:100D08000041734802F04AFB05E001224FF400411C
:100D18006F4802F043FB3B7903F00103002B06D038
:100D280001224FF480716B4802F038FB05E0002285
:100D38004FF48071674802F031FB3B7903F00203FE
:100D4800002B06D001224FF40071624802F026FB06
:100D580005E000224FF400715E4802F01FFB3B796A
:100D680003F00403002B06D001224FF48061594898
:100D780002F014FB05E000224FF48061554802F0B0
:100D88000DFB3B7903F00803002B06D001224FF43A
:100D98000061504802F002FB05E000224FF40061B8
:100DA8004C4802F0FBFA3B7903F01003002B05D006
:100DB80001220221484802F0F1FA04E0002202214F
:100DC800454802F0EBFABB79032B4FD801A252F841
:100DD80023F000BFED0D00080F0E0008310E0008CB
:100DE800530E00087B79002B06D100224FF40061D6
:100DF800394802F0D3FA3AE001224FF4006136484C
:100E080002F0CCFA33E07B79002B06D100224FF4B4
:100E18008051314802F0C2FA29E001224FF4805192
:100E28002D4802F0BBFA22E07B79002B06D1002284
:100E38004FF40051284802F0B1FA18E001224FF4AB
:100E48000051254802F0AAFA11E07B79002B06D15F
:100E580000224FF48041204802F0A0FA07E0012266
:100E68004FF480411C4802F099FA00E000BFBB79BA
:100E7800032B55D801A252F823F000BF950E0008A5
:100E8800B70E0008E50E0008070F00087B79002B55
:100E980006D101224FF400610F4802F07FFA40E0CA
:100EA80000224FF400610C4802F078FA39E07B79AF
:100EB800002B06D101224FF48051074802F06EFA48
:100EC8002FE000224FF48051034802F067FA28E02F
:100ED80000100240000C0240000402407B79002B05
:100EE80006D101224FF40051104802F057FA18E0D9
:100EF80000224FF400510D4802F050FA11E07B79BE
:100F0800002B06D101224FF48041084802F046FA2E
:100F180007E000224FF48041044802F03FFA00E065
:100F280000BF00BF1437BD4690BD00BF000402409B
:100F380080B500AF00F00EFE01F08CFD00F01CFD46
:100F480000F0A4FC00F026FC00F080FC01F0D6FACA
:100F580001F0F2FA01F0FEFC01F050FA00BF80BD8A
:100F680080B400AF00BFBD465DF8047B704780B514
:100F780000AF01F0BBFD00F015F800F04FF900F0EC
:100F8800AFF809F065FE00F077F800F023F900F0FB
:100F9800D5F8FFF7CDFF00F0BFFD00F0D1FD09F057
:100FA8007DFEFCE780B594B000AF07F12003302246
:100FB800002118460AF002FA07F10C0300221A6011
:100FC8005A609A60DA601A610023BB60284B1B6C78
:100FD800274A43F080531364254B1B6C03F080535E
:100FE800BB60BB6800237B60224B1B68214A43F42B
:100FF800804313601F4B1B6803F480437B607B684E
:1010080001233B624FF480337B620223BB634FF4BE
:101018008003FB6308233B644FF4A8737B640223BB
:10102800BB640723FB6407F12003184605F0F4FAB4
:101038000346002B01D000F0FFF90F23FB600223C9
:101048003B6100237B614FF4A053BB614FF4805395
:10105800FB6107F10C030521184605F055FD034611
:10106800002B01D000F0E8F900BF5037BD4680BD25
:10107800003802400070004080B500AF164B174A98
:101088001A60154B10225A60134B00229A60124BBB
:101098000022DA60104B00221A610F4B00225A61BD
:1010A8000D4B00221A760C4B00225A760A4B00226E
:1010B8009A76094B0022DA76074B00221A77064BFC
:1010C80000225A77044801F0A7FD0346002B01D0FF
:1010D80000F0B2F900BF80BDA40600200064004003
:1010E80080B500AF124B134A1A60114B124A5A606E
:1010F8000F4B00229A600E4B0022DA600C4B4FF423
:1011080080421A610A4B00225A61094B00229A61F7
:10111800074B0022DA61064B00221A62044804F0E9
:1011280081FA0346002B01D000F086F900BF80BD8C
:10113800CC06002000540040A086010080B586B08F
:1011480000AF07F1080300221A605A609A60DA605B
:101158003B4600221A605A601D4B4FF080421A60CD
:101168001B4B00225A601A4B00229A60184B44F21B
:101178009F12DA60164B00221A61154B00229A6101
:10118800134805F0CDFE0346002B01D000F054F9BA
:101198004FF48053BB6007F1080319460C4806F06A
:1011A8009EF80346002B01D000F046F900233B606F
:1011B80000237B603B461946054806F0BFFA034604
:1011C800002B01D000F038F900BF1837BD4680BDAC
:1011D8002007002080B500AF0E4B0F4A1A600D4B58
:1011E80002225A600B4B00229A600A4B4DF6BF222E
:1011F800DA60084B00221A61064B00229A61054802
:1012080005F08EFE0346002B01D000F015F900BF53
:1012180080BD00BF680700200020004080B58CB06A
:1012280000AF07F11C0300221A605A609A60DA6066
:101238001A610023BB617A4B1B6B794A43F0100398
:101248001363774B1B6B03F01003BB61BB6900236F
:101258007B61734B1B6B724A43F004031363704B3F
:101268001B6B03F004037B617B6900233B616C4BC0
:101278001B6B6B4A43F080031363694B1B6B03F0D2
:1012880080033B613B690023FB60654B1B6B644A31
:1012980043F001031363624B1B6B03F00103FB6014
:1012A800FB680023BB605E4B1B6B5D4A43F0020387
:1012B80013635B4B1B6B03F00203BB60BB6800232B
:1012C8007B60574B1B6B564A43F008031363544B20
:1012D8001B6B03F008037B607B6800224FF64171AB
:1012E800504802F05BF8012201214F4802F056F8FD
:1012F8000022E0214D4802F051F8002247F6030190
:101308004B4802F04BF800224FF47F41494802F065
:1013180045F84FF64173FB6101233B6200237B6272
:101328000023BB6207F11C0319463E4801F082FE08
:101338004FF40053FB614FF404133B6200237B62BC
:1013480007F11C031946384801F074FE0123FB61BC
:1013580001233B6200237B620023BB6207F11C036D
:101368001946314801F066FE0123FB6100233B6208
:1013780000237B6207F11C0319462C4801F05AFE32
:10138800E023FB6101233B6200237B620023BB62F5
:1013980007F11C031946254801F04CFE47F60303E4
:1013A800FB6101233B6200237B620023BB6207F1E0
:1013B8001C0319461E4801F03DFE0423FB6100236F
:1013C8003B6200237B6207F11C031946184801F0B1
:1013D80031FE4FF47F43FB6101233B6200237B62B4
:1013E8000023BB6207F11C031946124801F022FED4
:1013F8002023FB6100233B6200237B6207F11C036F
:1014080019460C4801F016FE00220021282001F0A0
:10141800DAFD282001F0F3FD00BF3037BD4680BD5E
:10142800003802400010024000080240000002405C
:1014380000040240000C024080B400AF72B600BF46
:1014480000BFFDE780B582B000AF00237B60104B82
:101458005B6C0F4A43F4804353640D4B5B6C03F49D
:1014680080437B607B6800233B60094B1B6C084A08
:1014780043F080531364064B1B6C03F080533B60AE
:101488003B68072001F094FD00BF0837BD4680BDCA
:101498000038024080B58AB000AF786007F11403C5
:1014A80000221A605A609A60DA601A617B681B68C9
:1014B800194A93422BD100233B61184B1B6C174AE6
:1014C80043F000731364154B1B6C03F000733B610E
:1014D8003B690023FB60114B1B6B104A43F0080368
:1014E80013630E4B1B6B03F00803FB60FB680323BD
:1014F8007B610223BB610023FB6103233B62092359
:101508007B6207F114031946054801F093FD00BFFB
:101518002837BD4680BD00BF006400400038024047
:10152800000C024080B58AB000AF786007F1140360
:1015380000221A605A609A60DA601A617B681B6838
:10154800194A93422CD100233B61184B1B6B174A55
:1015580043F002031363154B1B6B03F002033B615B
:101568003B694FF410737B611223BB610123FB615C
:1015780000233B6204237B6207F1140319460C48DD
:1015880001F058FD0023FB60084B1B6C074A43F42D
:1015980000131364054B1B6C03F40013FB60FB681A
:1015A80000BF2837BD4680BD0054004000380240C7
:1015B8000004024080B584B000AF78607B681B6887
:1015C800B3F1804F16D10023FB601A4B1B6C194AEC
:1015D80043F001031364174B1B6C03F00103FB601A
:1015E800FB68002200211C2001F0EDFC1C2001F00A
:1015F80006FD1AE07B681B680F4A934215D1002349
:10160800BB600C4B1B6C0B4A43F480731364094B8F
:101618001B6C03F48073BB60BB68002200212D2083
:1016280001F0D1FC2D2001F0EAFC00BF1037BD46C7
:1016380080BD00BF003802400020004080B400AFE9
:1016480000BFFDE780B400AF00BFFDE780B400AF86
:1016580000BFFDE780B400AF00BFFDE780B400AF76
:1016680000BFFDE780B400AF00BFBD465DF8047B56
:10167800704780B400AF00BFBD465DF8047B70477B
:1016880080B400AF00BFBD465DF8047B704780B5ED
:1016980000AF01F07DFA00BF80BD000080B500AF4B
:1016A800024805F02CFD00BF80BD00BF20070020C8
:1016B80080B500AF4FF4005001F08AFE00BF80BD36
:1016C80080B500AF024805F01AFD00BF80BD00BF1D
:1016D8006807002080B500AF024802F04FF900BF4C
:1016E80080BD00BFDC0B002080B586B000AF7860FD
:1016F800144A154BD31A7B617B693B61134B1B68FA
:10170800002B02D1114B124A1A60104B1A687B68E1
:1017180013443A699A4207D209F068FE03460C223C
:101728001A604FF0FF3309E0084B1B68FB60074B5A
:101738001A687B681344054A1360FB681846183713
:10174800BD4680BD0000022000040000B007002054
:101758000811002080B400AF064BD3F88830054A42
:1017680043F47003C2F8883000BFBD465DF8047BBF
:10177800704700BF00ED00E080B500AF9A2000F090
:1017880045F903461A46024B5A8000BF80BD00BF88
:10179800B407002080B400AF034B044A9A6000BF2E
:1017A800BD465DF8047B7047E007002081170008FC
:1017B80080B500AF224B1B8801339AB2204B1A80A8
:1017C8001F4B1B88092B31D91D4B00221A8000F0B2
:1017D800F1F80346012B14D11A4B1B88022B27D092
:1017E800184B1B8801339AB2164B1A80154B1B886D
:1017F800012B1FD9144B01221A70134B01225A7066
:101808001DE0104B1B88002B16D00E4B1B88013B8C
:101818009AB20C4B1A800B4B1B88002B0ED10A4B2B
:1018280000221A70084B01225A7008E000BF06E037
:1018380000BF04E000BF02E000BF00E000BF80BDC1
:10184800B8070020BA070020BC07002080B400AF0A
:10185800094B00225A70084B02221A70074B0022CB
:101868001A80074B01221A80064B074A1A6100BFEB
:10187800BD465DF8047B7047BC070020B807002010
:10188800BA070020E0070020B917000880B500AFAC
:1018980000F0FEF800F008F900F012F900F01CF969
:1018A800054BFF221A70044B32225A70034B002258
:1018B8001A8000BF80BD00BFC0070020BE070020FF
:1018C80080B485B000AF0346FB710023FB7300238F
:1018D800BB6012E0FB7B5B00FB7397F9073003F0FA
:1018E80001035AB297F90F3013435BB2FB73FB79CC
:1018F8005B08FB71BB680133BB60BB68072BE9DD84
:10190800FB7B18461437BD465DF8047B7047000022
:1019180080B500AF702000F05DF803461A460C4B06
:101928009A70742000F056F80346DB43DBB2184681
:10193800FFF7C6FF03461A46054BDA70762000F01B
:1019480049F80346DB43DAB2014B1A7100BF80BD88
:10195800C407002080B500AF064B5B791946782094
:1019680000F07EF8034B9B7919467A2000F078F84E
:1019780000BF80BDC407002080B400AF0C4B00221C
:101988009A700B4B0022DA70094B00221A71084B2F
:1019980000225A71064B00229A71054B00221A70D8
:1019A800034B01225A7000BFBD465DF8047B7047A7
:1019B800C407002080B500AF0121054801F0D6FC1E
:1019C8000346012B01D1012300E00023184680BD06
:1019D8000000024080B586B002AF0346FB71FB7978
:1019E80099B207F10F02012300930123064804F07E
:1019F8005BF80346002B01D1FB7B00E0002318466F
:101A08001037BD4680BD00BFCC06002080B586B02B
:101A180002AF0346FB71FB7999B207F10C0201236F
:101A2800009302230D4804F03FF80346002B0FD122
:101A38003B7B1BB29B011BB203F470731AB27B7B16
:101A48009B08DBB21BB213431BB2FB81FB8900E08E
:101A5800002318461037BD4680BD00BFCC060020C5
:101A680080B584B002AF03460A46FB711346BB71CA
:101A7800FB7999B2BA1D012300930123034803F0AF
:101A880015FF00BF0837BD4680BD00BFCC0600204B
:101A980080B500AF00220121024801F07FFC00BFA1
:101AA80080BD00BF0010024080B500AF0022402179
:101AB800024801F073FC00BF80BD00BF0000024077
:101AC80080B500AF00228021024801F067FC00BF0A
:101AD80080BD00BF0000024080B500AF0022202179
:101AE800024801F05BFC00BF80BD00BF000002405F
:101AF80080B582B000AF78607B68054A934202D116
:101B0800044B1B68984700BF0837BD4680BD00BF1F
:101B180068070020CC07002080B500AF024805F018
:101B28004FFA00BF80BD00BF6807002080B500AF36
:101B3800024805F0B5FA00BF80BD00BF6807002065
:101B480080B500AF024805F03BFA00BF80BD00BF7A
:101B58002007002080B400AF034B044A1A6000BF7E
:101B6800BD465DF8047B7047CC070020690F00086C
:101B780080B483B000AF0346FB8000BF0C37BD467E
:101B88005DF8047B7047000080B400AF1F4B012252
:101B98001A701F4B1B78012B0ED11D4BDB785B098C
:101BA800DBB203F00103002B06D0194B00221A7098
:101BB800184B194A1A6024E0184B5B78012B0AD19C
:101BC800164B1B78012B06D1144B00225A70114B6F
:101BD800134A1A6015E00E4B1B78012B0ED10C4BE3
:101BE800DB781B09DBB203F00103002B06D0084B9E
:101BF80000221A70074B0B4A1A6002E0044B0022BD
:101C08001A70BD465DF8047B704700BFD0070020FE
:101C1800C4070020E0070020311C0008BC07002092
:101C2800311D0008E123000880B483B000AF354BB4
:101C3800DB781B09DBB203F00103FB71324B022294
:101C48001A70304B00221A70304B1B78FA799A427E
:101C580010D02F4B1B780133DAB22D4B1A702C4B56
:101C68001B78022B09D9294AFB791370284B0022CB
:101C78001A7002E0264B00221A70264B1B78002BA4
:101C880025D1224B1B78012B21D1234B1B78013303
:101C9800DAB2214B1A70204B1B78012B03D11F4B52
:101CA80000221A8013E01C4B1B78022B0FD11B4B10
:101CB8001B88B3F57A7F0AD2194B1A4A1A60164B59
:101CC80000221A70114B1A78124B1A7015E00F4B3C
:101CD8001A78104B1A70104B1B78002B0DD00F4B35
:101CE8001B880A339AB20D4B1A800C4B1B88B3F52C
:101CF8007A7F02D3084B00221A700C37BD465DF874
:101D0800047B7047C4070020D0070020D1070020BB
:101D1800D2070020D3070020D4070020D6070020D0
:101D2800E0070020E123000880B400AF054B04223F
:101D38001A70054B054A1A6000BFBD465DF8047B62
:101D4800704700BFD0070020E0070020591D000899
:101D580080B400AF2A4B1B78012B12D1284B9B78FB
:101D680023F05503002B05D1254BDB7823F03003F6
:101D7800002B06D0224B00221A70224B224A1A60EE
:101D880039E01F4B1B78012B0ED11D4BDB785B090B
:101D9800DBB203F00103002B06D0194B00221A70A6
:101DA800184B1A4A1A6026E0154B1B78012B1FD1D5
:101DB800134BDB781B09DBB203F00103002B17D0B0
:101DC8000F4B00221A700E4B01225A700C4B5B7994
:101DD80023F04003DAB20A4B5A71094B5B7963F07E
:101DE8007F03DAB2064B5A71064B094A1A6002E0C1
:101DF800034B00221A70BD465DF8047B704700BF94
:101E0800C4070020E0070020F9230008311C00085F
:101E18001D1E000880B400AF434B1B8801339AB2E3
:101E2800414B1A80414B1B78012B15D13F4B9B78B6
:101E380023F05903002B05D13C4BDB7823F0340306
:101E4800002B09D0384B00221A80384B00221A7018
:101E5800374B384A1A6063E0344B1B78012B22D188
:101E6800324BDB785B09DBB203F00103002B1AD09D
:101E78002D4B00221A802D4B00221A702B4B012269
:101E88005A702A4B5B7903F07F03DAB2274B5A71F9
:101E9800264B5B7943F04003DAB2244B5A71244B4A
:101EA800254A1A603CE0204B1B88FA2B0ED11F4BA9
:101EB8005B7903F07F03DAB21C4B5A711B4B5B79D9
:101EC80043F04003DAB2194B5A7129E0164B1B88CC
:101ED800FA2B22D9154B1B78012B1ED1134BDB781B
:101EE8001B09DBB203F00103002B16D00E4B0022B6
:101EF8001A800E4B01225A700C4B5B7923F0200399
:101F0800DAB20A4B5A71094B5B7943F01003DAB223
:101F1800064B5A71064B094A1A60044B00221A7084
:101F2800BD465DF8047B7047D8070020C407002031
:101F3800E0070020F9230008311C0008491F0008A9
:101F480080B400AF334B1B8801339AB2314B1A80EF
:101F5800314B1B78012B15D12F4B9B7823F07D0338
:101F6800002B05D12C4BDB7823F03503002B09D04F
:101F7800284B00221A80284B00221A70274B284A27
:101F88001A6043E0244B1B78012B11D1224BDB78DC
:101F98005B09DBB203F00103002B09D01D4B0022C3
:101FA8001A801D4B00221A701C4B1E4A1A602DE025
:101FB800184B1B88F92B26D9174B9B785B09DBB28A
:101FC80003F00103002B1ED0124B00221A80124B83
:101FD80001225A70104B5B7943F02003DAB20E4BA2
:101FE8005A710D4B5B7923F01003DAB20A4B5A7120
:101FF800094B9B7923F00203DAB2074B9A71074B1E
:10200800094A1A6002E0044B00221A70BD465DF8C6
:10201800047B7047DA070020C4070020E00700208F
:10202800F9230008311C00083520000880B400AFEF
:102038002E4B1B78012B10D12C4B9B7823F075036A
:10204800002B03D1294BDB783F2B06D9274B0022E5
:102058001A70274B274A1A6043E0244B1B78012B40
:1020680018D1224BDB785B09DBB203F00103002BAC
:1020780010D01E4B00221A701C4B01225A701B4BA9
:102088009B7943F00203DAB2184B9A71184B1A4A3B
:102098001A6026E0154B1B78012B1FD1134BDB78F8
:1020A8001B09DBB203F00103002B17D00F4B0022F2
:1020B8001A700E4B01225A700C4B9B7943F00203A5
:1020C800DAB20A4B9A71094B9B7923F00103DAB211
:1020D800064B9A71064B094A1A6002E0034B00222C
:1020E8001A70BD465DF8047B704700BFC407002026
:1020F800E0070020F9230008311C00080921000826
:1021080080B400AF364B1B8801339AB2344B1A8027
:10211800344B1B78012B15D1324B9B7823F0950358
:10212800002B05D12F4BDB7823F03003002B09D08F
:102138002B4B00221A802B4B00221A702A4B2B4A59
:102148001A6049E0274B1B78012B1BD1254BDB7804
:102158005B09DBB203F00103002B13D0204B0022F4
:102168001A80204B00221A701E4B01225A701D4BF8
:102178009B7943F00103DAB21A4B9A711A4B1C4A45
:102188001A6029E0164B1B88F92B22D9154B9B782E
:10219800DB09DBB203F00103002B1AD0104B00223D
:1021A8001A80104B00221A700E4B01225A700D4BE8
:1021B8009B7943F00103DAB20A4B9A71094B5B79B8
:1021C80023F00803DAB2074B5A71074B094A1A6021
:1021D80002E0044B00221A70BD465DF8047B70478C
:1021E800DC070020C4070020E0070020F9230008CE
:1021F800311C00080122000880B400AF324B1B7864
:10220800012B12D1304B9B7823F05503002B05D1BD
:102218002D4BDB7823F07003002B06D02A4B0022CD
:102228001A702A4B2A4A1A604AE0274B1B78012B5E
:1022380018D1254BDB785B09DBB203F00103002BD7
:1022480010D0214B00221A701F4B01225A701E4BCE
:102258005B7943F00803DAB21B4B5A711B4B1D4ADA
:102268001A602DE0184B1B78012B26D1164BDB7812
:102278001B09DBB203F00103002B1ED0124B002216
:102288001A70114B01225A700F4B5B7943F0080307
:10229800DAB20D4B5A710C4B5B7923F00203DAB2B8
:1022A800094B5A71084B5B7943F00403DAB2064BC9
:1022B8005A71064B084A1A6002E0034B00221A7052
:1022C800BD465DF8047B7047C4070020E007002086
:1022D800F9230008311C0008E522000880B483B007
:1022E80000AF0023FB80FB880133FB80354B1B7854
:1022F800012B14D1334B9B7823F05603002B05D1C7
:10230800304BDB7823F03803002B08D00023FB8008
:102318002C4B00221A702C4B2C4A1A604DE0294B8A
:102328001B78012B21D1274BDB785B09DBB203F04B
:102338000103002B19D00023FB80224B00221A70C6
:10234800204B01225A701F4B5B7943F00203DAB22B
:102358001C4B5A711B4B5B7923F00403DAB2194BFF
:102368005A71194B1A4A1A6027E0FB88F92B21D9B0
:10237800144B9B785B08DBB203F00103002B19D0E8
:102388000023FB800F4B00221A700E4B01225A705B
:102398000C4B5B7943F00203DAB20A4B5A71094BD2
:1023A8005B7923F00403DAB2064B5A71064B094AEB
:1023B8001A6002E0034B00221A700C37BD465DF824
:1023C800047B7047C4070020E0070020F9230008B9
:1023D800311C0008911B000880B400AF034B032296
:1023E8001A7000BFBD465DF8047B7047D007002017
:1023F80080B500AFFFF79AFB00BF80BD80B400AF87
:10240800264B5B7943F00103DAB2244B5A71234B14
:102418005B7943F00203DAB2204B5A711F4B5B79A8
:1024280023F00403DAB21D4B5A711C4B5B7943F05D
:102438000803DAB2194B5A71184B5B7923F0100371
:10244800DAB2164B5A71154B5B7943F02003DAB2B6
:10245800124B5A71114B5B7943F04003DAB20F4BC0
:102468005A710E4B5B7903F07F03DAB20B4B5A714A
:102478000A4B9B7943F00103DAB2084B9A71074B78
:102488009B7943F00203DAB2044B9A71044B054A74
:102498001A6000BFBD465DF8047B7047C407002082
:1024A800E0070020911B000880B582B000AF124BF6
:1024B8009B78FB71104BDB78BB710F4B1B797B71E1
:1024C8000D4B1B78012B01D0FFF722FA0A4B9B78A2
:1024D800FA799A4209D1084BDB78BA799A4204D141
:1024E800054B1B797A799A4202D0034B01221A7064
:1024F80000BF0837BD4680BDC407002080B400AFC8
:10250800034B044A5A6000BFBD465DF8047B704720
:10251800E0070020B124000880B500AF054B5B78C8
:10252800012B04D1FFF716FA024B00225A7000BFA4
:1025380080BD00BFC407002080B400AF034B044A2D
:10254800DA6000BFBD465DF8047B7047E0070020F5
:1025580021250008B0B489B000AF03463960FB807C
:102568001C4B07F10C041D460FCD0FC42B682370BC
:10257800FB881B0B9BB203F00F0320333B4413F87B
:10258800142C3B681A70FB881B0A9BB203F00F02DD
:102598003B68013320323A4412F8142C1A70FB8835
:1025A8001B099BB203F00F023B68023320323A4406
:1025B80012F8142C1A70FB8803F00F023B680333DF
:1025C80020323A4412F8142C1A7000BF2437BD4642
:1025D800B0BC7047F8B4000880B485B000AF0346BB
:1025E8003960FB710023FB6014E0FA79FB68C3F1E2
:1025F800070342FA03F303F00103002B01D0312152
:1026080000E03021FB683A6813440A461A70FB68F8
:102618000133FB60FB68072BE7DD00BF00BF143701
:10262800BD465DF8047B704780B58CB000AF582379
:1026380087F82F30C34B5B78012B11D1C14B1B7826
:10264800012B03D1312387F82F3002E0302387F89C
:102658002F3097F82F0005230C220621FDF7DAFF0B
:10266800B94B9B7807F1240211461846FFF7B4FFCF
:10267800B54BDB7807F11C0211461846FFF7ACFF93
:10268800B14B1B7907F1140211461846FFF7A4FF56
:10269800AD4B5B7907F10C0211461846FFF79CFF1A
:1026A800A94B9B793A1D11461846FFF795FFA74B92
:1026B8005B883A4611461846FFF74CFF387B0523DE
:1026C80005220121FDF7A6FF787B052306220121BB
:1026D800FDF7A0FFB87B052307220121FDF79AFF2C
:1026E800F87B052308220121FDF794FF387C052398
:1026F8000C220121FDF78EFF787C05230D22012194
:10270800FDF788FFB87C05230E220121FDF782FF23
:10271800F87C05230F220121FDF77CFF387905237A
:1027280005220221FDF776FF78790523062202218A
:10273800FDF770FFB879052307220221FDF76AFF2C
:10274800F879052308220221FDF764FF387A05236A
:102758000C220221FDF75EFF787A05230D22022163
:10276800FDF758FFB87A05230E220221FDF752FF24
:10277800F87A05230F220221FDF74CFF97F8240071
:10278800052305220321FDF745FF97F825000523BA
:1027980006220321FDF73EFF97F8260005230722AE
:1027A8000321FDF737FF97F82700052308220321A7
:1027B800FDF730FF97F8280005230C220321FDF7C9
:1027C80029FF97F8290005230D220321FDF722FF91
:1027D80097F82A0005230E220321FDF71BFF97F81F
:1027E8002B0005230F220321FDF714FF387F052353
:1027F80005220421FDF70EFF787F05230622042118
:10280800FDF708FFB87F052307220421FDF702FF23
:10281800F87F052308220421FDF7FCFE97F8200025
:1028280005230C220421FDF7F5FE97F82100052366
:102838000D220421FDF7EEFE97F8220005230E2253
:102848000421FDF7E7FE97F8230005230F22042152
:10285800FDF7E0FE387D052305220521FDF7DAFEA8
:10286800787D052306220521FDF7D4FEB87D0523D2
:1028780007220521FDF7CEFEF87D05230822052154
:10288800FDF7C8FE387E05230C220521FDF7C2FEA0
:10289800787E05230D220521FDF7BCFEB87E0523B1
:1028A8000E220521FDF7B6FEF87E05230F2205212D
:1028B800FDF7B0FE3878052307220721FDF7AAFEA9
:1028C8007878052308220721FDF7A4FEB8780523A8
:1028D80009220721FDF79EFEF87805230A22072121
:1028E800FDF798FE1A4B1B78013B032B26D801A253
:1028F80052F823F00D2900081B290008292900088F
:10290800372900080523122207215720FDF782FEE8
:1029180014E00523122207214120FDF77BFE0DE07C
:102928000523122207214F20FDF774FE06E0052338
:10293800122207215420FDF76DFE00BF00BF30377B
:10294800BD4680BDBC070020C4070020B407002096
:10295800D007002080B500AF00224FF40061264860
:1029680000F01CFD01224FF48051234800F016FDB1
:1029780001224FF40051204800F010FD01224FF4CD
:1029880080411D4800F00AFD642000F021F9FDF7A0
:10299800D5FD642000F01CF90020FDF7FBFD0522A1
:1029A80000211648FDF7FEFE052201211448FDF717
:1029B800F9FE052202211348FDF7F4FE0522032142
:1029C8001148FDF7EFFE052204211048FDF7EAFE45
:1029D800052205210E48FDF7E5FE052206210D48D2
:1029E800FDF7E0FE052207210B48FDF7DBFE0B4B48
:1029F8000B4A9A6100BF80BD0004024058050020C0
:102A08006F050020860500209D050020B4050020E4
:102A1800CB050020E2050020F9050020E007002092
:102A28003126000880B582B000AF0023FB7107E0B3
:102A3800FB79074A52F823309847FB790133FB7139
:102A4800FB79062BF4D900BF00BF0837BD4680BD0F
:102A5800E007002080B483B000AF0023FB7107E0DB
:102A6800FB79094A094942F82310FB790133FB71C4
:102A7800FB79062BF4D9064B064A1A6000BF0C37BF
:102A8800BD465DF8047B7047E0070020690F000829
:102A9800CC0700202D2A0008DFF834D0FEF75AFEB4
:102AA8000C480D490D4A002302E0D458C4500433A1
:102AB800C4188C42F9D30A4A0A4C002301E0136077
:102AC8000432A242FBD308F097FCFEF750FA704795
:102AD80000000220000000208806002038B5000809
:102AE8008806002004110020FEE7000080B500AF32
:102AF8000E4B1B680D4A43F4007313600B4B1B68A5
:102B08000A4A43F480631360084B1B68074A43F47E
:102B180080731360032000F04BFA002000F008F8DF
:102B2800FEF790FC0023184680BD00BF003C024021
:102B380080B582B000AF7860124B1A68124B1B78D0
:102B480019464FF47A73B3FBF1F3B2FBF3F318466B
:102B580000F063FA0346002B01D001230EE07B68E6
:102B68000F2B0AD8002279684FF0FF3000F02BFABB
:102B7800064A7B681360002300E0012318460837E3
:102B8800BD4680BD54050020140600201006002014
:102B980080B400AF064B1B781A46064B1B681344DB
:102BA800044A136000BFBD465DF8047B704700BF50
:102BB80014060020FC07002080B400AF034B1B68FC
:102BC8001846BD465DF8047B704700BFFC0700202F
:102BD80080B584B000AF7860FFF7EEFFB8607B681F
:102BE800FB60FB68B3F1FF3F05D00A4B1B781A4620
:102BF800FB681344FB6000BFFFF7DEFF0246BB68BB
:102C0800D31AFA689A42F7D800BF00BF1037BD46FA
:102C180080BD00BF1406002080B584B000AF786086
:102C28007B68002B01D10123EDE07B6893F820300D
:102C3800DBB2002B02D17868FEF72CFC7B681B689E
:102C48001A687B681B6842F001021A60FFF7B4FF3C
:102C5800F86012E0FFF7B0FF0246FB68D31A0A2BB0
:102C68000BD97B685B6A43F400327B685A627B68E5
:102C7800052283F820200123C5E07B681B685B6878
:102C880003F00103002BE5D07B681B681A687B689A
:102C98001B6822F002021A60FFF78EFFF86012E04C
:102CA800FFF78AFF0246FB68D31A0A2B0BD97B6809
:102CB8005B6A43F400327B685A627B68052283F8BA
:102CC800202001239FE07B681B685B6803F00203F8
:102CD800002BE5D17B681B7E012B08D17B681B6824
:102CE8001A687B681B6842F080021A6007E07B68FC
:102CF8001B681A687B681B6822F080021A607B6870
:102D08005B7E012B08D17B681B681A687B681B688F
:102D180042F040021A6007E07B681B681A687B680B
:102D28001B6822F040021A607B689B7E012B08D149
:102D38007B681B681A687B681B6842F020021A606F
:102D480007E07B681B681A687B681B6822F0200212
:102D58001A607B68DB7E012B08D17B681B681A68C8
:102D68007B681B6822F010021A6007E07B681B680A
:102D78001A687B681B6842F010021A607B681B7F28
:102D8800012B08D17B681B681A687B681B6842F0B6
:102D980008021A6007E07B681B681A687B681B6872
:102DA80022F008021A607B685B7F012B08D17B68E0
:102DB8001B681A687B681B6842F004021A6007E007
:102DC8007B681B681A687B681B6822F004021A601B
:102DD8007B689A687B68DB681A437B681B691A43BF
:102DE8007B685B6942EA03017B685B685A1E7B6803
:102DF8001B680A43DA617B6800225A627B680122F9
:102E080083F82020002318461037BD4680BD0000F7
:102E180080B485B000AF78607B6803F00703FB607F
:102E28000C4BDB68BB60BA684FF6FF031340BB600E
:102E3800FB681A02BB68134343F0BF6343F40033D3
:102E4800BB60044ABB68D36000BF1437BD465DF859
:102E5800047B704700ED00E080B400AF044BDB68F2
:102E68001B0A03F007031846BD465DF8047B70474C
:102E780000ED00E080B483B000AF0346FB7197F922
:102E88000730002B0BDBFB7903F01F02074997F98A
:102E980007305B09012000FA02F241F8232000BF45
:102EA8000C37BD465DF8047B704700BF00E100E0C9
:102EB80080B483B000AF03463960FB7197F90730DF
:102EC800002B0ADB3B68DAB20C4997F9073012018C
:102ED800D2B20B4483F800230AE03B68DAB208490F
:102EE800FB7903F00F03043B1201D2B20B441A76AC
:102EF80000BF0C37BD465DF8047B704700E100E079
:102F080000ED00E080B489B000AFF860B9607A6085
:102F1800FB6803F00703FB61FB69C3F10703042B9C
:102F280028BF0423BB61FB690433062B02D9FB6964
:102F3800033B00E000237B614FF0FF32BB6902FADC
:102F480003F3DA43BB681A407B699A404FF0FF31BC
:102F58007B6901FA03F3D9437B680B401343184696
:102F68002437BD465DF8047B7047000080B582B009
:102F780000AF78607B68013BB3F1807F01D3012308
:102F88000FE00A4A7B68013B53600F214FF0FF3086
:102F9800FFF78EFF054B00229A60044B07221A6048
:102FA800002318460837BD4680BD00BF10E000E08A
:102FB80080B582B000AF78607868FFF729FF00BF5E
:102FC8000837BD4680BD80B586B000AF0346B960FE
:102FD8007A60FB7300237B61FFF73EFF78617A68B4
:102FE800B9687869FFF78EFF024697F90F301146E6
:102FF8001846FFF75DFF00BF1837BD4680BD80B596
:1030080082B000AF0346FB7197F907301846FFF707
:1030180031FF00BF0837BD4680BD80B582B000AF24
:1030280078607868FFF7A2FF034618460837BD4660
:1030380080BD000080B489B000AF7860396000239B
:103048007B6100233B610023BB610023FB616BE1D3
:103058000122FB6902FA03F37B613B681B687A690A
:1030680013403B613A697B699A4240F05A813B6858
:103078005B6803F00303012B05D03B685B6803F032
:103088000303022B30D17B689B68BB61FB695B0043
:10309800032202FA03F3DB43BA691340BB613B68BE
:1030A800DA68FB695B0002FA03F3BA691343BB6190
:1030B8007B68BA699A607B685B68BB610122FB69BF
:1030C80002FA03F3DB43BA691340BB613B685B68F0
:1030D8001B0903F00102FB6902FA03F3BA691343FF
:1030E800BB617B68BA695A603B685B6803F003039D
:1030F800032B17D07B68DB68BB61FB695B0003228D
:1031080002FA03F3DB43BA691340BB613B689A6870
:10311800FB695B0002FA03F3BA691343BB617B687E
:10312800BA69DA603B685B6803F00303022B23D1BA
:10313800FB69DA087B68083253F82230BB61FB6907
:1031480003F007039B000F2202FA03F3DB43BA697B
:103158001340BB613B681A69FB6903F007039B00D6
:1031680002FA03F3BA691343BB61FB69DA087B68A7
:103178000832B96943F822107B681B68BB61FB6998
:103188005B00032202FA03F3DB43BA691340BB6115
:103198003B685B6803F00302FB695B0002FA03F318
:1031A800BA691343BB617B68BA691A603B685B689C
:1031B80003F44033002B00F0B4800023FB60604B25
:1031C8005B6C5F4A43F4804353645D4B5B6C03F470
:1031D8008043FB60FB685B4AFB699B08023352F83B
:1031E8002330BB61FB6903F003039B000F2202FA43
:1031F80003F3DB43BA691340BB617B68524A9342CD
:103208002BD07B68514A934225D07B68504A934221
:103218001FD07B684F4A934219D07B684E4A93422D
:1032280013D07B684D4A93420DD07B684C4A934239
:1032380007D07B684B4A934201D107230EE008234D
:103248000CE006230AE0052308E0042306E0032334
:1032580004E0022302E0012300E00023FA6902F0FF
:10326800030292009340BA691343BB613549FB6975
:103278009B080233BA6941F823203B4B9B68BB612A
:103288003B69DB43BA691340BB613B685B6803F485
:103298008013002B03D0BA693B691343BB61324AE0
:1032A800BB699360304BDB68BB613B69DB43BA6940
:1032B8001340BB613B685B6803F40013002B03D029
:1032C800BA693B691343BB61274ABB69D360264B84
:1032D8005B68BB613B69DB43BA691340BB613B6810
:1032E8005B6803F40033002B03D0BA693B691343CE
:1032F800BB611D4ABB6953601B4B1B68BB613B69C3
:10330800DB43BA691340BB613B685B6803F48033F5
:10331800002B03D0BA693B691343BB61124ABB69EE
:103328001360FB690133FB61FB690F2B7FF690AEDD
:1033380000BF00BF2437BD465DF8047B704700BF5F
:1033480000380240003801400000024000040240FA
:1033580000080240000C0240001002400014024025
:1033680000180240001C0240003C014080B485B0B7
:1033780000AF78600B467B807B681A697B881340B6
:10338800002B02D00123FB7301E00023FB73FB7BBE
:1033980018461437BD465DF8047B704780B483B087
:1033A80000AF78600B467B8013467B707B78002BE0
:1033B80003D07A887B689A6103E07B881A047B686B
:1033C8009A6100BF0C37BD465DF8047B704700006A
:1033D80080B582B000AF0346FB80084B5A69FB8872
:1033E8001340002B06D0054AFB885361FB8818461A
:1033F800FEF7BEFB00BF0837BD4680BD003C01405C
:1034080080B586B002AF78607B68002B01D10123BC
:1034180059E07B681B68FB607B6893F8D533DBB2A7
:10342800002B06D17B68002283F8D423786807F044
:103438006DFC7B68032283F8D523FB68B3F1A04FAA
:1034480002D17B6800229A717B681B68184604F0D9
:103458007AFA7B6818687B681A7C8DF80020043338
:103468000ECB04F0FBF90346002B05D07B68022243
:1034780083F8D523012326E07B681B6801211846C1
:1034880004F072FA0346002B05D07B68022283F809
:10349800D523012317E07B6818687B681A7C8DF8B0
:1034A800002004330ECB04F01BFC0346002B05D090
:1034B8007B68022283F8D523012304E07B6801227C
:1034C80083F8D523002318461037BD4680BD90B534
:1034D8008BB004AF7860084611461A460346FB7065
:1034E8000B46BB7013467B703B8E7B617B6893F801
:1034F800D433012B01D102239DE07B68012283F89C
:10350800D423FA78796813461B019B1A9B000B4455
:10351800193300221A70FA78796813461B019B1A2E
:103528009B000B4414337A781A70FA78796813463A
:103538001B019B1A9B000B441533FA781A70FA7812
:10354800796813461B019B1A9B000B44263397F896
:103558002C201A70FA78BB7803F07F03D8B2796808
:1035680013461B019B1A9B000B44163302461A7024
:10357800FB781946786800F0A5FB97F90230002B14
:103588000ADAFA78796813461B019B1A9B000B44E8
:10359800173301221A7009E0FA78796813461B017B
:1035A8009B1A9B000B44173300221A707B681B6818
:1035B800184604F0F9FC386197F82C30012B0BD130
:1035C80097F82830012B07D13B69002B04D17B6980
:1035D800BC2B01D9BC237B61FA78796813461B019F
:1035E8009B1A9B000B44183397F828201A70FA7816
:1035F8007B6998B2796813461B019B1A9B000B44A0
:10360800283302461A807B6818687B699BB27C78ED
:10361800BA78F978029397F82C30019397F8283004
:103628000093234604F0E8FC0346FB737B68002202
:1036380083F8D423FB7B18461C37BD4690BD000099
:1036480080B582B000AF7860084611461A46034636
:10365800FB700B46BB7013467B70FA78796813468B
:103668001B019B1A9B000B441733BA781A70FA781F
:10367800796813461B019B1A9B000B4426337A7802
:103688001A703B7C002B14D1FA78796813461B0119
:103698009B1A9B000B442A3303221A70FA78796824
:1036A80013461B019B1A9B000B4419333A7F1A706F
:1036B80009E0FA78796813461B019B1A9B000B44B2
:1036C8002A3302221A707B78032B00F2028101A2AE
:1036D80052F823F0ED360008C5380008B137000865
:1036E8003B3800083B7C012B40F0F580BB78002B71
:1036F8002DD13B8B002B09D1FA78796813461B0131
:103708009B1A9B000B443D3301221A70FA787968A2
:1037180013461B019B1A9B000B443D331B78002B5F
:103728000AD1FA78796813461B019B1A9B000B444F
:103738002A3300221A70CEE0FA78796813461B0102
:103748009B1A9B000B442A3302221A70C3E0FA78B2
:10375800796813461B019B1A9B000B441A331B788C
:10376800012B40F0B880FA78796813461B019B1A40
:103778009B000B443C331B78002B0AD1FA787968FC
:1037880013461B019B1A9B000B442A3300221A7014
:10379800A1E0FA78796813461B019B1A9B000B4439
:1037A8002A3302221A7096E0BB78002B20D1FA78CF
:1037B800796813461B019B1A9B000B443D331B7809
:1037C800002B0AD1FA78796813461B019B1A9B00D3
:1037D8000B442A3300221A707EE0FA78796813467F
:1037E8001B019B1A9B000B442A3302221A7073E0B8
:1037F800FA78796813461B019B1A9B000B443C33EB
:103808001B78002B0AD1FA78796813461B019B1A9A
:103818009B000B442A3300221A705DE0FA7879681D
:1038280013461B019B1A9B000B442A3302221A7071
:1038380052E0BB78002B20D1FA78796813461B0137
:103848009B1A9B000B443D331B78002B0AD1FA7856
:10385800796813461B019B1A9B000B442A330022EC
:103868001A7039E0FA78796813461B019B1A9B0095
:103878000B442A3302221A702EE0FA78796813462C
:103888001B019B1A9B000B443C331B78002B0AD16D
:10389800FA78796813461B019B1A9B000B442A335C
:1038A80000221A7018E0FA78796813461B019B1AEF
:1038B8009B000B442A3302221A700DE0FA787968CB
:1038C80013461B019B1A9B000B442A3300221A70D3
:1038D80002E000BF00E000BFFA78796813461B01D8
:1038E8009B1A9B000B442C337A691A60FA78398B3F
:1038F800786813461B019B1A9B00034434331960F4
:10390800FA78796813461B019B1A9B000B444C33C9
:1039180000221A70FA78796813461B019B1A9B00DB
:103928000B44383300221A60FA78796813461B0171
:103938009B1A9B000B441533FA781A70FA78796849
:1039480013461B019B1A9B000B444D3300221A702F
:103958007B681868FA7813461B019B1A9B00103382
:103968007A681344191D7B689B791A4604F070FC29
:10397800034618460837BD4680BD00BF80B586B0EF
:1039880000AF78607B681B683B613B69FB607B68C4
:103998001B68184604F05EF90346012B40F0FB80D3
:1039A8007B681B68184604F021F90346002B00F0D9
:1039B800F1807B681B68184604F018F9034603F485
:1039C8000013B3F5001F04D17B681B684FF4001285
:1039D8005A617B681B68184604F008F9034603F42B
:1039E8008013B3F5801F04D17B681B684FF48012E5
:1039F8005A617B681B68184604F0F8F8034603F020
:103A08008063B3F1806F04D17B681B684FF08062DC
:103A18005A617B681B68184604F0E8F8034603F00F
:103A28000203022B03D17B681B6802225A617B6860
:103A38001B68184604F0DAF8034603F00053B3F1A4
:103A4800005F20D17B681B684FF000525A61FB6809
:103A580003F588631B6803F00103002B13D11021C1
:103A6800386903F0CDFF386903F0FCFF7B685B7AA7
:103A7800022B05D17B681B680121184604F0F4F974
:103A8800786807F0C1F97B681B68184604F0AEF83F
:103A9800034603F08073B3F1807F02D1786801F0A8
:103AA8004DFD7B681B68184604F0A0F8034603F038
:103AB8000803082B06D1786807F08AF97B681B6829
:103AC80008225A617B681B68184604F08FF8034681
:103AD80003F00073B3F1007F39D17B681B68184687
:103AE80004F030FEB86000237B6125E07B6903F0B9
:103AF8000F03BA6822FA03F303F00103002B18D06E
:103B08007B695A01FB68134403F5A0631B6803F43F
:103B18000043B3F5004F06D17B69DBB219467868DC
:103B280000F005F905E07B69DBB21946786800F01A
:103B380067FF7B6901337B617B685B791A467B6928
:103B48009342D3D37B681B684FF000725A617B683D
:103B58001B68184604F04AF8034603F01003102BBC
:103B680001D1012300E00023002B14D07B681B68DF
:103B78009A697B681B6822F010029A61786801F0E4
:103B8800FEFB7B681B689A697B681B6842F0100221
:103B98009A6100E000BF1837BD4680BD80B582B08D
:103BA80000AF78607B6893F8D433012B01D10223EE
:103BB80013E07B68012283F8D4237B681B6801210A
:103BC800184604F0B8F97B681B68184603F0AAFE8B
:103BD8007B68002283F8D423002318460837BD46A3
:103BE80080BD80B582B000AF78607B6893F8D4332D
:103BF800012B01D102230DE07B68012283F8D42335
:103C08007B681B68184604F00BFF7B68002283F86A
:103C1800D423002318460837BD4680BD80B582B03E
:103C280000AF78607B681B68184604F05AF90346B1
:103C380018460837BD4680BD80B483B000AF7860B1
:103C48000B46FB70FA78796813461B019B1A9B0098
:103C58000B444C331B7818460C37BD465DF8047B83
:103C6800704780B483B000AF78600B46FB70FA7879
:103C7800796813461B019B1A9B000B4438331B6859
:103C880018460C37BD465DF8047B704780B582B096
:103C980000AF78607B681B68184604F09CF90346FF
:103CA80018460837BD4680BD80B582B000AF786041
:103CB8007B681B68184604F077F9034618460837EE
:103CC800BD4680BD80B483B000AF78600B46FB7002
:103CD800FA78796813461B019B1A9B000B441A3328
:103CE80000221A70FA78796813461B019B1A9B0008
:103CF8000B441B3300221A70FA78796813461B01AB
:103D08009B1A9B000B44253300221A70FA787968B5
:103D180013461B019B1A9B000B44243300221A7084
:103D2800002318460C37BD465DF8047B704780B504
:103D380086B000AF78600B46FB707B681B687B61C0
:103D48007B693B617B681B68FA781146184603F06B
:103D580060FF034603F00403042B1AD1FB785A01D1
:103D68003B69134403F5A0631A4604239360FA7869
:103D7800796813461B019B1A9B000B444D3307229D
:103D88001A707B681B68FA781146184604F0EBFC39
:103D98009EE07B681B68FA781146184603F039FFE5
:103DA800034603F48073B3F5807F1BD1FB785A0177
:103DB8003B69134403F5A0631A464FF4807393607C
:103DC800FA78796813461B019B1A9B000B444D3304
:103DD80008221A707B681B68FA781146184604F0A6
:103DE800C2FC75E07B681B68FA781146184603F038
:103DF80010FF034603F00803082B1AD1FB785A0179
:103E08003B69134403F5A0631A4608239360FA78C4
:103E1800796813461B019B1A9B000B444D330622FD
:103E28001A707B681B68FA781146184604F09BFCE8
:103E38004EE07B681B68FA781146184603F0E9FEE5
:103E4800034603F48063B3F5806F1BD1FB785A01F6
:103E58003B69134403F5A0631A464FF480639360EB
:103E6800FA78796813461B019B1A9B000B444D3363
:103E780009221A707B681B68FA781146184604F004
:103E880072FC25E07B681B68FA781146184603F037
:103E9800C0FE034603F08003802B19D1FB785A013A
:103EA8003B69134403F5A0631A4680239360FA78AC
:103EB800796813461B019B1A9B000B444D3307225C
:103EC8001A707B681B68FA781146184604F04BFC98
:103ED8007B681B68FA781146184603F09AFE034679
:103EE80003F40073B3F5007F12D17B681B68FA787E
:103EF8001146184604F037FCFB785A013B69134415
:103F080003F5A0631A464FF40073936000F075BD83
:103F18007B681B68FA781146184603F07AFE034658
:103F280003F00103012B40F02881FB785A013B691B
:103F3800134403F5A0631A4620239360FA7879683E
:103F480013461B019B1A9B000B441B331B78012B48
:103F580019D1FA78796813461B019B1A9B000B4408
:103F68001B3300221A70FB785A013B69134403F58E
:103F7800A0635B68FA7851013A690A4402F5A062C5
:103F880023F4803353607B689B79002B1BD0FA782D
:103F9800796813461B019B1A9B000B443033196840
:103FA800FB785A013B69134403F5A0631B69C3F30B
:103FB8001203FA78C91A786813461B019B1A9B00EA
:103FC800034438331960FA78796813461B019B1A41
:103FD8009B000B444D3301221A70FA787968134616
:103FE8001B019B1A9B000B44443300221A60FB7888
:103FF8005A013B69134403F5A0631A4601239360F1
:10400800FA78796813461B019B1A9B000B442633E8
:104018001B78002B0AD0FA78796813461B019B1A83
:104028009B000B4426331B78022B10D17B681B683E
:10403800FA781146184604F096FBFB785A013B695A
:10404800134403F5A0631A46102393603DE0FA7801
:10405800796813461B019B1A9B000B4426331B7877
:10406800032B0AD0FA78796813461B019B1A9B0028
:104078000B4426331B78012B27D1FB785A013B6967
:10408800134403F5A0631B68FA7851013A690A449E
:1040980002F5A06243F000531360FA78796813467A
:1040A8001B019B1A9B000B444C3301221A70FA78AF
:1040B800796813461B019B1A9B000B444C331A78F2
:1040C800FB781946786806F0ADFE7B689B79012B72
:1040D8003BD1FA78796813461B019B1A9B000B4465
:1040E80038331968FA78786813461B019B1A9B00C5
:1040F800034428331B880B44591EFA787868134602
:104108001B019B1A9B00034428331B88B1FBF3F364
:1041180003F00103002B00F07084FA7879681346E5
:104128001B019B1A9B000B443C331B78FA7883F0E5
:104138000103D8B2796813461B019B1A9B000B44F4
:104148003C3302461A7000F058BCFA787968134676
:104158001B019B1A9B000B443C331B78FA7883F0B5
:104168000103D8B2796813461B019B1A9B000B44C4
:104178003C3302461A7000F040BC7B681B68FA7832
:104188001146184603F045FD034603F02003202B93
:1041980031D1FB785A013B69134403F5A0631A46F1
:1041A80020239360FA78796813461B019B1A9B00B9
:1041B8000B441A331B78012B40F01F84FA78796876
:1041C80013461B019B1A9B000B441B3301221A70D8
:1041D800FA78796813461B019B1A9B000B444D33F0
:1041E80003221A707B681B68FA781146184604F097
:1041F800BAFA00F002BC7B681B68FA7811461846C8
:1042080003F007FD034603F00203022B40F0058389
:10421800FB785A013B69134403F5A0631A4602234D
:104228009360FA78796813461B019B1A9B000B442C
:104238004D331B78012B14D1FA78796813461B018A
:104248009B1A9B000B444D3302221A70FA78796846
:1042580013461B019B1A9B000B444C3301221A7016
:10426800CCE2FA78796813461B019B1A9B000B4431
:104278004D331B78062B14D1FA78796813461B0145
:104288009B1A9B000B444D3302221A70FA78796806
:1042980013461B019B1A9B000B444C3305221A70D2
:1042A800ACE2FA78796813461B019B1A9B000B4411
:1042B8004D331B78072B0BD0FA78796813461B010E
:1042C8009B1A9B000B444D331B78092B40F0A680AA
:1042D800FA78796813461B019B1A9B000B444D33EF
:1042E80002221A70FA78796813461B019B1A9B0000
:1042F8000B4444331B68591C786813461B019B1AEE
:104308009B00034444331960FA78796813461B010B
:104318009B1A9B000B4444331B68022B43D9FA7841
:10432800796813461B019B1A9B000B4444330022F7
:104338001A60FA78796813461B019B1A9B000B4494
:104348001A331B78012B23D1FA78796813461B019D
:104358009B1A9B000B441B3300221A70FA78796869
:1043680013461B019B1A9B000B441C3300221A7036
:10437800FB785A013B69134403F5A0635B68FA783C
:1043880051013A690A4402F5A06223F4803353606C
:10439800FA78796813461B019B1A9B000B444C332F
:1043A80004221A7029E2FA78796813461B019B1ACD
:1043B8009B000B444C3302221A70FA787968134632
:1043C8001B019B1A9B000B4426331B78002B0BD038
:1043D800FA78796813461B019B1A9B000B44263315
:1043E8001B78022B40F00982FB785A013B69134481
:1043F80003F5A0631B68FB60FB6823F08043FB6048
:10440800FB6843F00043FB60FB785A013B691344A7
:1044180003F5A0631A46FB681360EEE1FA78796841
:1044280013461B019B1A9B000B444D331B78052B2D
:1044380040F0C880FA78796813461B019B1A9B00E4
:104448000B444D3302221A70FA78796813461B011F
:104458009B1A9B000B441B331B78012B40F0CE8129
:10446800FA78796813461B019B1A9B000B44263384
:104478001B78032B6BD1FA78796813461B019B1ABA
:104488009B000B4448331B68591C786813461B0172
:104498009B1A9B00034448331960FA7879681346DD
:1044A8001B019B1A9B000B4448331B68022B43D902
:1044B800FA78796813461B019B1A9B000B44483312
:1044C80000221A60FA78796813461B019B1A9B0030
:1044D8000B441B3300221A70FA78796813461B01C3
:1044E8009B1A9B000B4444331B68022B09D8FA78AB
:1044F800796813461B019B1A9B000B441C3301224D
:104508001A70FB785A013B69134403F5A0635B6892
:10451800FA7851013A690A4402F5A06223F480331B
:104528005360FA78796813461B019B1A9B000B4469
:104538004C3304221A7014E0FA78796813461B0188
:104548009B1A9B000B444C3302221A7009E0FA783C
:10455800796813461B019B1A9B000B444C330222BB
:104568001A70FA78796813461B019B1A9B000B4452
:1045780026331B78002B0BD0FA78796813461B0179
:104588009B1A9B000B4426331B78022B40F0368184
:10459800FB785A013B69134403F5A0631B68FB6071
:1045A800FB6823F08043FB60FB6843F00043FB603B
:1045B800FB785A013B69134403F5A0631A46FB686C
:1045C80013601BE1FA78796813461B019B1A9B005C
:1045D8000B444D331B78032B40F08180FA787968BF
:1045E80013461B019B1A9B000B444D3302221A7081
:1045F800FA78796813461B019B1A9B000B441B33FE
:104608001B78012B40F0FA80FA78796813461B0171
:104618009B1A9B000B444C3302221A70FB785A01F8
:104628003B69134403F5A0635B68FA7851013A6962
:104638000A4402F5A06243F480335360FB785A01C0
:104648003B69134403F5A063DB68FA7851013A69C2
:104658000A4402F5A06243F04003D360FB785A0194
:104668003B69134403F5A063DB68FA7851013A69A2
:104678000A4402F5A06223F02003D360FA7879682F
:1046880013461B019B1A9B000B4426331B78002BF7
:104698000BD0FA78796813461B019B1A9B000B44D0
:1046A80026331B78022B40F0A980FB785A013B691E
:1046B800134403F5A0631B68FB60FB6823F0804389
:1046C800FB60FB6843F00043FB60FB785A013B69E1
:1046D800134403F5A0631A46FB6813608EE0FA786A
:1046E800796813461B019B1A9B000B444D331B78BA
:1046F800042B43D1FA78796813461B019B1A9B0057
:104708000B444D3302221A70FA78796813461B015C
:104718009B1A9B000B444C3302221A70FA78796872
:1047280013461B019B1A9B000B4426331B78002B56
:104738000AD0FA78796813461B019B1A9B000B4430
:1047480026331B78022B59D1FB785A013B69134455
:1047580003F5A0631B68FB60FB6823F08043FB60E4
:10476800FB6843F00043FB60FB785A013B69134444
:1047780003F5A0631A46FB6813603FE0FA7879688E
:1047880013461B019B1A9B000B444D331B78082BC7
:1047980026D1FA78796813461B019B1A9B000B44B3
:1047A8004D3302221A70FA78796813461B019B1A56
:1047B8009B000B4444331B68591C786813461B0143
:1047C8009B1A9B00034444331960FA7879681346AE
:1047D8001B019B1A9B000B444C3304221A700DE0FA
:1047E800FA78796813461B019B1A9B000B444D33DA
:1047F8001B78022B00F0008100E000BFFA7879688E
:1048080013461B019B1A9B000B444C331A78FB7808
:104818001946786806F006FBEFE07B681B68FA78B3
:104828001146184603F0F5F9034603F04003402B00
:104838002FD1FB785A013B69134403F5A0631A464C
:1048480040239360FA78796813461B019B1A9B00F2
:104858000B444D3305221A70FA78796813461B0108
:104868009B1A9B000B441A331B78002B09D1FA784A
:10487800796813461B019B1A9B000B4444330022A2
:104888001A607B681B68FA781146184603F06BFFBC
:10489800B3E07B681B68FA781146184603F0B9F94B
:1048A800034603F01003102B40F0A780FA787968CC
:1048B80013461B019B1A9B000B4426331B78032BC2
:1048C8001BD1FA78796813461B019B1A9B000B448D
:1048D800443300221A60FA78796813461B019B1A40
:1048E8009B000B444D3304221A707B681B68FA78CE
:1048F8001146184603F037FF3FE0FA787968134607
:104908001B019B1A9B000B4426331B78002B0AD0F3
:10491800FA78796813461B019B1A9B000B442633CF
:104928001B78022B29D1FA78796813461B019B1A48
:104938009B000B44443300221A607B689B79002B50
:104948000AD0FA78796813461B019B1A9B000B441E
:104958001B331B78012B10D1FA78796813461B0199
:104968009B1A9B000B444D3304221A707B681B680A
:10497800FA781146184603F0F6FEFA787968134675
:104988001B019B1A9B000B441B331B78012B29D15D
:10499800FA78796813461B019B1A9B000B441B335A
:1049A80000221A70FB785A013B69134403F5A0638F
:1049B8005B68FA7851013A690A4402F5A06223F467
:1049C80080335360FB785A013B69134403F5A063B5
:1049D800DB68FA7851013A690A4402F5A06243F0AB
:1049E8002003D360FB785A013B69134403F5A063A5
:1049F8001A461023936000E000BF1837BD4680BDFB
:104A080080B586B000AF78600B46FB707B681B688A
:104A18007B617B693B617B681B68FA7811461846A5
:104A280003F0F7F8034603F00403042B1BD1FB78CB
:104A38005A013B69134403F5A0631A4604239360A3
:104A4800FA78796813461B019B1A9B000B444D3377
:104A580007221A707B681B68FA781146184603F01B
:104A680082FE00F089BC7B681B68FA7811461846FC
:104A780003F0CFF8034603F02003202B40F0828098
:104A8800FB785A013B69134403F5A0631A462023B7
:104A98009360FA78796813461B019B1A9B000B44B4
:104AA80019331B78012B24D1FA78796813461B0136
:104AB8009B1A9B000B44193300221A70FA78796804
:104AC80013461B019B1A9B000B444C3302221A709D
:104AD800FA78796813461B019B1A9B000B444D33E7
:104AE80003221A707B681B68FA781146184603F08F
:104AF8003AFEFA78796813461B019B1A9B000B440F
:104B08001A331B78012B40F03784FA7879681346FA
:104B18001B019B1A9B000B441B331B78002B40F096
:104B28002B84FA78796813461B019B1A9B000B4467
:104B380026331B78012B09D0FA78796813461B01B4
:104B48009B1A9B000B441B3301221A70FA78796870
:104B580013461B019B1A9B000B444D3303221A700A
:104B68007B681B68FA781146184603F0FCFDFA7852
:104B7800796813461B019B1A9B000B44443300229F
:104B88001A60F9E37B681B68FA781146184603F047
:104B980040F8034603F40073B3F5007F11D1FB78A6
:104BA8005A013B69134403F5A0631A464FF4007396
:104BB80093607B681B68FA781146184603F0D3FDAA
:104BC800DAE37B681B68FA781146184603F021F887
:104BD800034603F00103012B68D1FA78796813467C
:104BE8001B019B1A9B000B44443300221A607B680C
:104BF8001B68FA781146184603F00BF8034603F0D1
:104C08004003402B12D1FA78796813461B019B1A8E
:104C18009B000B44193301221A70FB785A013B6937
:104C2800134403F5A0631A4640239360FA78796821
:104C380013461B019B1A9B000B441B331B78002B4C
:104C480019D0FA78796813461B019B1A9B000B440C
:104C58001B3300221A70FB785A013B69134403F591
:104C6800A0635B68FA7851013A690A4402F5A062C8
:104C780023F480335360FB785A013B69134403F5EE
:104C8800A0631A4601239360FA78796813461B01DA
:104C98009B1A9B000B444D3301221A707B681B68DA
:104CA800FA781146184603F05EFD65E37B681B68D9
:104CB800FA781146184602F0ACFF034603F04003A9
:104CC800402B39D1FA78796813461B019B1A9B004F
:104CD8000B444D3305221A70FA78796813461B0184
:104CE8009B1A9B000B441A331B78002B09D1FA78C6
:104CF800796813461B019B1A9B000B441933012248
:104D08001A70FA78796813461B019B1A9B000B44AA
:104D1800443300221A607B681B68FA7811461846EB
:104D280003F021FDFB785A013B69134403F5A063A6
:104D38001A46402393601FE37B681B68FA78114684
:104D4800184602F066FF034603F00803082B1AD141
:104D5800FB785A013B69134403F5A0631A460823FC
:104D68009360FA78796813461B019B1A9B000B44E1
:104D78004D3306221A707B681B68FA78114618466C
:104D880003F0F1FCF8E27B681B68FA7811461846D4
:104D980002F03FFF034603F01003102B44D1FA78CA
:104DA800796813461B019B1A9B000B44443300226D
:104DB8001A60FA78796813461B019B1A9B000B440A
:104DC8004D3304221A70FA78796813461B019B1A2E
:104DD8009B000B4419331B78002B14D1FA7879689F
:104DE80013461B019B1A9B000B4418331B78002B9E
:104DF80009D1FA78796813461B019B1A9B000B446A
:104E0800193301221A707B681B68FA781146184614
:104E180003F0A9FCFB785A013B69134403F5A0632E
:104E28001A4610239360A7E27B681B68FA7811463C
:104E3800184602F0EEFE034603F08003802B40F094
:104E480083807B689B79002B11D1FA7879681346A7
:104E58001B019B1A9B000B444D3307221A707B6879
:104E68001B68FA781146184603F07DFC62E0FA7870
:104E7800796813461B019B1A9B000B4444331B683B
:104E8800591C786813461B019B1A9B000344443342
:104E98001960FA78796813461B019B1A9B000B442A
:104EA80044331B68022B22D9FA78796813461B0110
:104EB8009B1A9B000B44443300221A60FA787968E5
:104EC80013461B019B1A9B000B444C3304221A7097
:104ED800FA78796813461B019B1A9B000B444C33E4
:104EE8001A78FB781946786805F09CFF22E0FA7872
:104EF800796813461B019B1A9B000B444C33022212
:104F08001A70FB785A013B69134403F5A0631B68C8
:104F1800FB60FB6823F08043FB60FB6843F00043C1
:104F2800FB60FB785A013B69134403F5A0631A46FA
:104F3800FB681360FB785A013B69134403F5A063CF
:104F48001A468023936017E27B681B68FA7811463B
:104F5800184602F05EFE034603F48063B3F5806FE3
:104F68001BD1FA78796813461B019B1A9B000B44E6
:104F78004D3309221A707B681B68FA781146184667
:104F880003F0F1FBFB785A013B69134403F5A06376
:104F98001A464FF480639360EEE17B681B68FA78E9
:104FA8001146184602F035FE034603F00203022BB1
:104FB80040F0DF81FB785A013B69134403F5A06395
:104FC8001A4602239360FA78796813461B019B1AE4
:104FD8009B000B444D331B78012B40F09380FA78EB
:104FE800796813461B019B1A9B000B444D33022220
:104FF8001A70FA78796813461B019B1A9B000B44B8
:105008004C3301221A70FA78796813461B019B1AEF
:105018009B000B4426331B78022B0BD0FA78796857
:1050280013461B019B1A9B000B4426331B78032B4A
:1050380040F090817B689B79002B15D1FA787968CC
:1050480013461B019B1A9B000B443D331B78FA78CF
:1050580083F00103D8B2796813461B019B1A9B00A1
:105068000B443D3302461A707B689B79012B40F054
:105078007181FA78796813461B019B1A9B000B44CF
:1050880034331B68002B00F06581FA787968134681
:105098001B019B1A9B000B4434331968FA78786813
:1050A80013461B019B1A9B00034428331B880B449F
:1050B800591EFA78786813461B019B1A9B00034413
:1050C80028331B88B1FBF3F3BB60BB6803F0010313
:1050D800002B00F03F81FA78796813461B019B1A70
:1050E8009B000B443D331B78FA7883F00103D8B258
:1050F800796813461B019B1A9B000B443D330246FB
:105108001A7027E1FA78796813461B019B1A9B00ED
:105118000B444D331B78032B20D1FA78796813465A
:105128001B019B1A9B000B444D3302221A70FA781C
:10513800796813461B019B1A9B000B441B331B7891
:10514800012B40F00781FA78796813461B019B1AF6
:105158009B000B444C3302221A70FBE0FA78796802
:1051680013461B019B1A9B000B444D331B78042BE1
:105178003AD1FA78796813461B019B1A9B000B44B5
:105188004D3302221A70FA78796813461B019B1A6C
:105198009B000B444C3302221A70FA787968134644
:1051A8001B019B1A9B000B441B331B78012B40F0FF
:1051B800D180FA78796813461B019B1A9B000B442F
:1051C8001B3300221A70FB785A013B69134403F51C
:1051D800A0635B68FA7851013A690A4402F5A06253
:1051E80023F480335360B5E0FA78796813461B01DD
:1051F8009B1A9B000B444D331B78052B14D1FA786E
:10520800796813461B019B1A9B000B444D330222FD
:105218001A70FA78796813461B019B1A9B000B4495
:105228004C3302221A7095E0FA78796813461B010C
:105238009B1A9B000B444D331B78062B14D1FA782C
:10524800796813461B019B1A9B000B444D330222BD
:105258001A70FA78796813461B019B1A9B000B4455
:105268004C3305221A7075E0FA78796813461B01E9
:105278009B1A9B000B444D331B78072B0AD0FA78F6
:10528800796813461B019B1A9B000B444D331B780E
:10529800092B70D1FA78796813461B019B1A9B0079
:1052A8000B444D3302221A70FA78796813461B01B1
:1052B8009B1A9B000B4444331B68591C786813469F
:1052C8001B019B1A9B00034444331960FA787968E0
:1052D80013461B019B1A9B000B4444331B68022B8B
:1052E80014D9FA78796813461B019B1A9B000B4462
:1052F800443300221A60FA78796813461B019B1A16
:105308009B000B444C3304221A7022E0FA78796827
:1053180013461B019B1A9B000B444C3302221A7044
:10532800FB785A013B69134403F5A0631B68FB60D3
:10533800FB6823F08043FB60FB6843F00043FB609D
:10534800FB785A013B69134403F5A0631A46FB68CE
:10535800136000BFFA78796813461B019B1A9B00FB
:105368000B444C331A78FB781946786805F05AFDD7
:1053780002E000BF00E000BF1837BD4680BD80B521
:105388008AB000AF78607B681B687B627B6A3B628F
:105398007B681B681B6AFB61FB6903F00F03BB6139
:1053A800FB695B0C03F00F037B61FB691B09C3F30B
:1053B8000A033B617B69022B04D07B69052B00F053
:1053C800B680B7E03B69002B00F0B3807968BA6912
:1053D80013461B019B1A9B000B442C331B68002BA4
:1053E80000F0A7807968BA6913461B019B1A9B00D5
:1053F8000B4438331A683B69D1187868BA69134680
:105408001B019B1A9B00034434331B68994200F22A
:1054180083807B6818687968BA6913461B019B1AF0
:105428009B000B442C331B683A6992B2194602F070
:1054380085FB7968BA6913461B019B1A9B000B44CC
:105448002C331A683B69D1187868BA6913461B016E
:105458009B1A9B0003442C3319607968BA69134678
:105468001B019B1A9B000B4438331A683B69D118FF
:105478007868BA6913461B019B1A9B0003443833AA
:105488001960BB695A013B6A134403F5A0631B69A1
:10549800DB0CC3F30903FB607968BA6913461B0187
:1054A8009B1A9B000B4428331B881A463B6993427E
:1054B8003FD1FB68002B3CD0BB695A013B6A1344BF
:1054C80003F5A0631B68BB60BB6823F08043BB6027
:1054D800BB6843F00043BB60BB695A013B6A134495
:1054E80003F5A0631A46BB6813607968BA69134666
:1054F8001B019B1A9B000B443C331B7883F0010370
:10550800D8B27968BA6913461B019B1A9B000B44F1
:105518003C3302461A700CE07968BA6913461B01DD
:105528009B1A9B000B444C3304221A7001E000BF05
:1055380000E000BF00BF2837BD4680BD80B586B0FB
:1055480000AF78607B681B687B617B693B613B6966
:1055580003F588631B68FB603B6903F588631B6878
:10556800BB60BB6823F02E03BB60FB6803F002033B
:10557800022B0BD1FB6803F00103012B02D17868E1
:1055880005F034FCBB6843F00203BB60FB6803F022
:105598000803082B32D1BB6843F00803BB60FB68E3
:1055A80003F00403042B26D17B685B7A022B13D10A
:1055B800FB6803F4C023B3F5802F06D17B681B6812
:1055C8000221184602F050FC11E07B681B6801219B
:1055D800184602F049FC0AE07B68DB79012B06D10A
:1055E8003B6903F580631A464EF66023536078687A
:1055F80005F026FC02E0786805F030FCFB6803F053
:105608002003202B03D1BB6843F02003BB603B6918
:1056180003F588631A46BB68136000BF1837BD4698
:1056280080BD000080B584B000AF78607B68002B37
:1056380001D101232BE17B6893F83D30DBB2002BCD
:1056480006D17B68002283F83C207868FBF76AFF64
:105658007B68242283F83D207B681B681A687B6876
:105668001B6822F001021A607B681B681A687B6855
:105678001B6842F400421A607B681B681A687B68E2
:105688001B6822F400421A6001F036FCF8607B685F
:105698005B68814A934207D8FB68804A934294BF6B
:1056A80001230023DBB206E0FB687D4A934294BFE6
:1056B80001230023DBB2002B01D00123E7E0FB68C4
:1056C800784AA2FB03239B0CBB607B681B685B6862
:1056D80023F03F017B681B68BA680A435A607B68FD
:1056E8001B681B6A23F03F017B685B686A4A934228
:1056F80002D8BB68013309E0BB684FF4967202FB1D
:1057080003F3694AA2FB03239B0901337A681268F1
:105718000B4313627B681B68DB6923F44F4222F05A
:10572800FF027B685B685C498B4219D8FB68591E8D
:105738007B685B685B00B1FBF3F3591C40F6FC73B4
:105748000B40002B0AD0FB68591E7B685B685B0026
:10575800B1FBF3F30133C3F30B0351E004234FE030
:105768007B689B68002B11D1FB68581E7B685968C1
:105778000B465B000B44B0FBF3F30133C3F30B039D
:10578800002B0CBF01230023DBB212E0FB68581E7C
:105798007B6859680B469B000B4499000B44B0FB8F
:1057A800F3F30133C3F30B03002B0CBF01230023D6
:1057B800DBB2002B01D0012322E07B689B68002B21
:1057C8000ED1FB68581E7B6859680B465B000B447A
:1057D800B0FBF3F30133C3F30B0343F400430FE0CF
:1057E800FB68581E7B6859680B469B000B44990060
:1057F8000B44B0FBF3F30133C3F30B0343F440430F
:10580800796809681343CB617B681B681B6823F0C0
:10581800C0017B68DA697B681B6A1A437B681B686E
:105828000A431A607B681B689B6823F4034323F0D0
:10583800FF037A6811697A68D26811437A68126836
:105848000B4393607B681B68DB6823F0FF017B6870
:105858005A697B689B691A437B681B680A43DA604C
:105868007B681B681A687B681B6842F001021A6033
:105878007B6800221A647B68202283F83D207B68BD
:1058880000221A637B68002283F83E200023184612
:105898001037BD4680BD00BFA08601007F841E0072
:1058A800FF083D0083DE1B43D34D621080B588B0EE
:1058B80002AFF8607A601A460B467B8113463B813B
:1058C800FDF77AF97861FB6893F83D30DBB2202B5D
:1058D80040F0E0807B690093192301227049F86841
:1058E80000F064FC0346002B01D00223D3E0FB68E0
:1058F80093F83C30012B01D10223CCE0FB68012254
:1059080083F83C20FB681B681B6803F00103012B2C
:1059180007D0FB681B681A68FB681B6842F0010225
:105928001A60FB681B681A68FB681B6822F400622F
:105938001A60FB68212283F83D20FB68102283F857
:105948003E20FB6800221A64FB687A685A62FB688A
:105958003A895A85FB685B8D9AB2FB681A85FB68A1
:10596800504ADA6279897B693A6AF86800F0CEFAB7
:105978000346002B01D001238DE000233B61FB6827
:105988001B685B693B61FB681B689B693B613B6902
:1059980066E07A69396AF86800F022FD0346002B50
:1059A8000DD0FB681B6C042B07D1FB681B681A68B9
:1059B800FB681B6842F400721A6001236BE0FB6805
:1059C8005B6A1A78FB681B681A61FB685B6A5A1C79
:1059D800FB685A62FB685B8D9BB2013B9AB2FB681D
:1059E8005A85FB681B8D013B9AB2FB681A85FB68D8
:1059F8001B685B6903F00403042B1BD1FB681B8D38
:105A0800002B17D0FB685B6A1A78FB681B681A6161
:105A1800FB685B6A5A1CFB685A62FB685B8D9BB229
:105A2800013B9AB2FB685A85FB681B8D013B9AB211
:105A3800FB681A857A69396AF86800F019FD034627
:105A4800002B0DD0FB681B6C042B07D1FB681B686F
:105A58001A68FB681B6842F400721A6001231AE096
:105A6800FB681B8D002B94D1FB681B681A68FB68C8
:105A78001B6842F400721A60FB68202283F83D20FC
:105A8800FB68002283F83E20FB68002283F83C2054
:105A9800002300E0022318461837BD4680BD00BF2A
:105AA800020010000000FFFF80B58CB002AFF86064
:105AB8007A601A460B467B8113463B81FDF77CF8DA
:105AC8007862FB6893F83D30DBB2202B40F01782F8
