:020000040800F2
:1000000000000220113800084916000851160008A7
:100010005916000861160008691600080000000063
:100020000000000000000000000000007116000841
:100030007F160008000000008D1600089B160008BF
:10004000613800086138000861380008613800082C
:10005000613800086138000861380008613800081C
:10006000613800086138000861380008613800080C
:1000700061380008613800086138000861380008FC
:1000800061380008613800086138000861380008EC
:1000900061380008613800086138000861380008DC
:1000A00061380008613800086138000861380008CC
:1000B000A916000861380008613800086138000896
:1000C00061380008613800086138000861380008AC
:1000D000613800086138000861380008613800089C
:1000E000BD16000861380008613800086138000852
:1000F00061380008CD160008613800086138000832
:10010000613800086138000861380008613800086B
:10011000613800086138000861380008613800085B
:10012000613800086138000861380008613800084B
:10013000613800086138000861380008613800083B
:10014000613800086138000861380008E1160008CD
:10015000613800086138000861380008613800081B
:10016000613800086138000861380008613800080B
:10017000613800086138000861380008000000009C
:08018000613800086138000835
:1001880010B5054C237833B9044B13B10448AFF3C9
:1001980000800123237010BD8806002000000000A5
:1001A80050C2000808B5034B1BB103490348AFF31D
:1001B800008008BD000000008C06002050C2000826
:1001C80053B94AB9002908BF00281CBF4FF0FF31B6
:1001D8004FF0FF3000F088B9ADF1080C6DE904CE9E
:1001E80000F006F8DDF804E0DDE9022304B070470A
:1001F8002DE9F047089D8E4604468846002B4AD1D3
:100208008A42174662D9B2FA82F64EB1C6F1200385
:1002180001FA06F820FA03F3B74043EA0808B440A5
:100228004FEA174E1FFA87FCB8FBFEF1230C0EFBB2
:10023800118843EA084301FB0CF29A4209D9FB18DA
:1002480001F1FF3080F0EA809A4240F2E7800239FB
:100258003B449A1AA3B2B2FBFEF00EFB102243EA0B
:10026800024300FB0CFC9C4509D9FB1800F1FF3246
:1002780080F0D6809C4540F2D3803B44023840EA67
:100288000140A3EB0C0300211DB1F3400022C5E996
:100298000032BDE8F0878B4205D90DB1C5E90001F0
:1002A80000210846F5E7B3FA83F1002946D17345E2
:1002B80002D3824200F20581841A6EEB0302012008
:1002C8009046002DE5D0C5E90048E2E7002A00F095
:1002D8009080B2FA82F6002E40F0A4808A1A030CAD
:1002E8004FEA174E80B2BCB20121B2FBFEFC0EFBF6
:1002F8001C2243EA024304FB0CF29A4207D9FB187A
:100308000CF1FF3802D29A4200F2E080C4469B1AF0
:10031800B3FBFEF20EFB123340EA034302FB04F484
:100328009C4207D9FB1802F1FF3002D29C4200F22E
:10033800CA8002461B1B42EA0C40A5E7C1F1200611
:100348008B4022FA06F71F430EFA01F420FA06F34F
:100358002EFA06FE4FEA1749234300FA01F81FFA5E
:1003680087FCBEFBF9F01C0C09FB10EE44EA0E44B6
:1003780000FB0CFEA64502FA01F209D93C1900F16E
:10038800FF3A80F09C80A64540F2998002383C44B0
:10039800A4EB0E041FFA83FEB4FBF9F309FB134424
:1003A8004EEA044403FB0CFCA44508D93C1903F1AC
:1003B800FF3E80F08280A4457FD9023B3C4443EA5B
:1003C8000040A4EB0C04A0FB02EC64457346E14634
:1003D80062D35FD05DB1B8EB030264EB090404FAA1
:1003E80006F622FA01F31E43CC40C5E90064002159
:1003F8004FE7B1FBF2FC010C41EA0E4180B240EA42
:1004080001423B4638463C46B846BE462026B1FB2C
:10041800F7F1A2EB080241EA0C4166E7014618E74A
:1004280010462CE7C6F120022EFA02F3B740B1407D
:1004380020FA02F24FEA174E0A43B3FBFEF8BCB2A9
:100448000EFB1833110C41EA034108FB04F9B040D4
:1004580089454FEA104380B23ED9791808F1FF3C2C
:1004680001D289451FD8A1EB0901B1FBFEF909FBAF
:1004780004F80EFB191192B242EA0142424529D210
:10048800BA1809F1FF31C4D24245C2D2A9F102011A
:100498003A44BEE7F0459DD2BEEB02036CEB070C75
:1004A8000138E14696E7A7EB09094944A8F1020C8F
:1004B800B1FBFEF909FB04F8DBE773467FE750461A
:1004C80066E70846FDE63B44023A33E7ACF1020C26
:1004D8003B441CE749469CE7A1EB0901C446B1FB34
:1004E800FEF909FB04F8C4E7704700BF80B584B083
:1004F80000AF03460A46FB711346BB710422012173
:10050800002000F0CBF90346FB7306E0042201212A
:10051800002000F0C3F90346FB7397F90F30002B56
:10052800F4DBFB7903F00B03DBB2B879012200217D
:1005380000F046FB00BF1037BD4680BD80B500AF58
:100548003E210220FFF7D2FFC0210220FFF7CEFF95
:10055800B8210220FFF7CAFF40210220FFF7C6FF9B
:100568003F210220FFF7C2FF3E210120FFF7BEFF17
:10057800C0210120FFF7BAFFB8210120FFF7B6FF1D
:1005880040210120FFF7B2FF3F210120FFF7AEFF16
:1005980000BF80BD80B584B000AF0346FB71002367
:1005A800BB602EE0BB68DBB2483BDBB219460120DA
:1005B800FFF79CFFBB68DBB2483BDBB21946022061
:1005C800FFF794FF0023FB6007E0FB7919460A2038
:1005D800FFF78CFFFB680133FB60FB683F2BF4DD02
:1005E8000023FB6007E0FB7919460920FFF77EFF2F
:1005F800FB680133FB60FB683F2BF4DDBB6801330C
:10060800BB60BB68072BCDDD00BF00BF1037BD4600
:1006180080BD000090B585B000AF0446084611467D
:100628001A462346FB710346BB710B467B71134682
:100638003B71FB79203BDBB23B733B79032B02D147
:100648007B799B007B733B79052B07D17B791A4615
:10065800520013445B00DBB204337B733B79072BF6
:1006680002D17B79DB007B737B7B3F2B05D9092388
:10067800FB737B7B403B7B7301E00A23FB737B7B33
:1006880043F04003FB72FB7B03F00703DBB2FA7A0B
:1006980011461846FFF72AFFBB7963F04703FB7240
:1006A800FB7B03F00703DBB2FA7A11461846FFF723
:1006B8001DFF3B79032B21D10023BB731AE097F967
:1006C8000C2097F90E10344813465B00134403447A
:1006D8000B441B78FB72FB7B43F00803DBB2FA7A0E
:1006E80011461846FFF702FF97F90E30DBB20133C7
:1006F800DBB2BB7397F90E30022BE0DD3B79052B9B
:1007080021D10023BB731AE097F90C2097F90E103A
:10071800224813469B00134403440B441B78FB7286
:10072800FB7B43F00803DBB2FA7A11461846FFF761
:10073800DDFE97F90E30DBB20133DBB2BB7397F9FC
:100748000E30042BE0DD3B79072B21D10023BB734E
:100758001AE097F90C2097F90E1011481346DB00A0
:100768009B1A03440B441B78FB72FB7B43F0080382
:10077800DBB2FA7A11461846FFF7B8FE97F90E3041
:10078800DBB20133DBB2BB7397F90E30062BE0DD29
:1007980000BF1437BD4690BD00000020C4000020F3
:1007A800AC02002080B584B000AF78600B46FB70C7
:1007B8001346BB70BB78032B12D10023FB600CE0FF
:1007C800FB687A6813441878F978FB68DAB203236F
:1007D800FFF720FFFB680133FB60FB681F2BEFDD91
:1007E800BB78052B12D10023FB600CE0FB687A680C
:1007F80013441878F978FB68DAB20523FFF70AFF83
:10080800FB680133FB60FB68132BEFDDBB78072B1C
:1008180012D10023FB600CE0FB687A681344187857
:10082800F978FB68DAB20723FFF7F4FEFB680133B7
:10083800FB60FB680F2BEFDD00BF1037BD4680BDA6
:1008480080B586B000AF4FF47F437B600023BB6068
:100858000023FB603B1D1946034803F0A3FA00BFC1
:100868001837BD4680BD00BF0010024080B586B075
:1008780000AF4FF47F437B600123BB600023FB6024
:1008880000233B613B1D1946034803F08BFA00BF68
:100898001837BD4680BD00BF0010024080B584B047
:1008A80000AF0346FB710B46BB7113467B71FFF724
:1008B800C7FF7B7903F00103002B06D001224FF418
:1008C8008071BC4803F022FC05E000224FF48071DF
:1008D800B84803F01BFC7B7903F00203002B06D019
:1008E80001224FF40071B34803F010FC05E0002228
:1008F8004FF40071AF4803F009FC7B7903F004035F
:10090800002B06D001224FF48061AA4803F0FEFBB9
:1009180005E000224FF48061A64803F0F7FB7B79DD
:1009280003F00803002B06D001224FF40061A14810
:1009380003F0ECFB05E000224FF400619D4803F052
:10094800E5FB7B7903F01003002B05D0012202217F
:10095800994803F0DBFB04E000220221964803F0EB
:10096800D5FBFB79032B4FD801A252F823F000BF27
:1009780089090008AB090008CD090008EF0900083B
:10098800BB79002B06D100224FF400618A4803F09E
:10099800BDFB3AE001224FF40061874803F0B6FB43
:1009A80033E0BB79002B06D100224FF480518248F6
:1009B80003F0ACFB29E001224FF480517E4803F09C
:1009C800A5FB22E0BB79002B06D100224FF4005191
:1009D800794803F09BFB18E001224FF40051764858
:1009E80003F094FB11E0BB79002B06D100224FF4F1
:1009F8008041714803F08AFB07E001224FF48041EF
:100A08006D4803F083FB00E000BF002201216A4823
:100A180003F07CFB4FF48071684803F05FFB0346EA
:100A2800DB015BB2DB115AB23B7A62F300033B7223
:100A38004FF40071614803F051FB0346DB015BB2E0
:100A4800DB115AB23B7A62F341033B724FF4806187
:100A58005A4803F043FB0346DB015BB2DB115AB291
:100A68003B7A62F382033B724FF40061534803F010
:100A780035FB0346DB015BB2DB115AB23B7A62F30A
:100A8800C3033B724FF480514C4803F027FB0346E5
:100A9800DB015BB2DB115AB23B7A62F304133B729F
:100AA8004FF40051454803F019FB0346DB015BB2E4
:100AB800DB115AB23B7A62F345133B724FF4804123
:100AC8003E4803F00BFB0346DB015BB2DB115AB275
:100AD8003B7A62F386133B724FF40041374803F0C8
:100AE800FDFA0346DB015BB2DB115AB23B7A62F3D3
:100AF800C7133B72012201212F4803F007FBFB7942
:100B0800032B4FD801A252F823F000BF250B000891
:100B1800470B0008690B00088B0B0008BB79002BFA
:100B280006D101224FF40061234803F0EFFA3AE0BE
:100B380000224FF40061204803F0E8FA33E0BB7963
:100B4800002B06D101224FF480511B4803F0DEFA36
:100B580029E000224FF48051174803F0D7FA22E029
:100B6800BB79002B06D101224FF40051124803F043
:100B7800CDFA18E000224FF400510F4803F0C6FAEE
:100B880011E0BB79002B06D101224FF480410A48BD
:100B980003F0BCFA07E000224FF48041064803F056
:100BA800B5FA00E000BF3B7AFB73FB7B18461037B1
:100BB800BD4680BD000C0240000402400010024007
:100BC80090B585B000AF0446084611461A4623463C
:100BD800FB710346BB710B467B7113463B71FFF7F4
:100BE80045FEFB793B733B7B03F00103DBB2002B33
:100BF80006D100224FF48071B54803F087FA05E06A
:100C080001224FF48071B24803F080FA3B7B03F075
:100C18000203DBB2002B06D100224FF40071AC486E
:100C280003F074FA05E001224FF40071A84803F0BC
:100C38006DFA3B7B03F00403DBB2002B06D10022E4
:100C48004FF48061A24803F061FA05E001224FF4F5
:100C580080619F4803F05AFA3B7B03F00803DBB23C
:100C6800002B06D100224FF40061994803F04EFA98
:100C780005E001224FF40061954803F047FA3B7BF9
:100C880003F01003DBB2002B06D100224FF4805191
:100C98008F4803F03BFA05E001224FF480518C485D
:100CA80003F034FA3B7B03F02003DBB2002B06D1C0
:100CB80000224FF40051864803F028FA05E001228B
:100CC8004FF40051824803F021FA3B7B03F04003C4
:100CD800DBB2002B06D100224FF480417C4803F0A0
:100CE80015FA05E001224FF48041794803F00EFA25
:100CF8003B7B23F07F03DBB2002B06D100224FF4AD
:100D08000041734803F002FA05E001224FF4004164
:100D18006F4803F0FBF93B7903F00103002B06D081
:100D280001224FF480716B4803F0F0F905E00022CE
:100D38004FF48071674803F0E9F93B7903F0020347
:100D4800002B06D001224FF40071624803F0DEF94F
:100D580005E000224FF400715E4803F0D7F93B79B3
:100D680003F00403002B06D001224FF48061594898
:100D780003F0CCF905E000224FF48061554803F0F8
:100D8800C5F93B7903F00803002B06D001224FF484
:100D98000061504803F0BAF905E000224FF4006101
:100DA8004C4803F0B3F93B7903F01003002B05D04E
:100DB80001220221484803F0A9F904E00022022197
:100DC800454803F0A3F9BB79032B4FD801A252F889
:100DD80023F000BFED0D00080F0E0008310E0008CB
:100DE800530E00087B79002B06D100224FF40061D6
:100DF800394803F08BF93AE001224FF40061364894
:100E080003F084F933E07B79002B06D100224FF4FC
:100E18008051314803F07AF929E001224FF48051DA
:100E28002D4803F073F922E07B79002B06D10022CC
:100E38004FF40051284803F069F918E001224FF4F3
:100E48000051254803F062F911E07B79002B06D1A7
:100E580000224FF48041204803F058F907E00122AE
:100E68004FF480411C4803F051F900E000BFBB7902
:100E7800032B55D801A252F823F000BF950E0008A5
:100E8800B70E0008E50E0008070F00087B79002B55
:100E980006D101224FF400610F4803F037F940E012
:100EA80000224FF400610C4803F030F939E07B79F7
:100EB800002B06D101224FF48051074803F026F990
:100EC8002FE000224FF48051034803F01FF928E077
:100ED80000100240000C0240000402407B79002B05
:100EE80006D101224FF40051104803F00FF918E021
:100EF80000224FF400510D4803F008F911E07B7906
:100F0800002B06D101224FF48041084803F0FEF877
:100F180007E000224FF48041044803F0F7F800E0AE
:100F280000BF00BF1437BD4690BD00BF000402409B
:100F380080B500AF00F000FE02F044FC00F01CFD9C
:100F480000F0A4FC00F028FC02F030F900F07EFC70
:100F580002F064F902F080F902F0B4FB02F07EF8C6
:100F680000BF80BD80B400AF00BFBD465DF8047B04
:100F7800704780B500AF02F071FC00F015F800F082
:100F88004FF900F0AFF80AF01BFD00F077F800F019
:100F980023F900F0D5F8FFF7CBFF00F0AFFD00F024
:100FA800C1FD0AF033FDFCE780B594B000AF07F14E
:100FB80020033022002118460BF0B8F807F10C0383
:100FC80000221A605A609A60DA601A610023BB60D6
:100FD800284B1B6C274A43F080531364254B1B6C2A
:100FE80003F08053BB60BB6800237B60224B1B6807
:100FF800214A43F4804313601F4B1B6803F480436A
:101008007B607B6801233B624FF480337B62022361
:10101800BB634FF48003FB6308233B644FF4A8735E
:101028007B640223BB640723FB6407F12003184693
:1010380006F0AAF90346002B01D000F0FFF90F23B0
:10104800FB6002233B6100237B614FF4A053BB612B
:101058004FF48053FB6107F10C030521184606F095
:101068000BFC0346002B01D000F0E8F900BF503715
:10107800BD4680BD003802400070004080B500AF1A
:10108800164B174A1A60154B10225A60134B002250
:101098009A60124B0022DA60104B00221A610F4B43
:1010A80000225A610D4B00221A760C4B00225A7608
:1010B8000A4B00229A76094B0022DA76074B002267
:1010C8001A77064B00225A77044802F05DFC034663
:1010D800002B01D000F0B2F900BF80BDA4060020AB
:1010E8000064004080B500AF124B134A1A60114BE0
:1010F800124A5A600F4B00229A600E4B0022DA60A7
:101108000C4B4FF480421A610A4B00225A61094B7A
:1011180000229A61074B0022DA61064B00221A620C
:10112800044805F037F90346002B01D000F086F992
:1011380000BF80BDCC06002000540040A0860100FE
:1011480080B586B000AF07F1080300221A605A6024
:101158009A60DA603B4600221A605A601D4B4FF0D5
:1011680080421A601B4B00225A601A4B00229A6078
:10117800184B44F29F12DA60164B00221A61154B85
:1011880000229A61134806F083FD0346002B01D024
:1011980000F054F94FF48053BB6007F10803194677
:1011A8000C4806F054FF0346002B01D000F046F926
:1011B80000233B6000237B603B461946054807F047
:1011C80075F90346002B01D000F038F900BF183735
:1011D800BD4680BD2007002080B500AF0E4B0F4AEA
:1011E8001A600D4B02225A600B4B00229A600A4B80
:1011F8004DF6BF22DA60084B00221A61064B002226
:101208009A61054806F044FD0346002B01D000F022
:1012180015F900BF80BD00BF68070020002000400E
:1012280080B58CB000AF07F11C0300221A605A6029
:101238009A60DA601A610023BB617A4B1B6B794AAA
:1012480043F010031363774B1B6B03F01003BB6170
:10125800BB6900237B61734B1B6B724A43F0040329
:101268001363704B1B6B03F004037B617B690023E2
:101278003B616C4B1B6B6B4A43F080031363694BF8
:101288001B6B03F080033B613B690023FB60654BEC
:101298001B6B644A43F001031363624B1B6B03F03F
:1012A8000103FB60FB680023BB605E4B1B6B5D4A60
:1012B80043F0020313635B4B1B6B03F00203BB6039
:1012C800BB6800237B60574B1B6B564A43F00803EF
:1012D8001363544B1B6B03F008037B607B6800228D
:1012E8004FF64171504802F011FF012201214F4889
:1012F80002F00CFF0022E0214D4802F007FF002217
:1013080047F603014B4802F001FF00224FF47F41EA
:10131800494802F0FBFE4FF64173FB6101233B6233
:1013280000237B620023BB6207F11C0319463E4879
:1013380002F038FD4FF40053FB614FF404133B6295
:1013480000237B6207F11C031946384802F02AFD86
:101358000123FB6101233B6200237B620023BB6204
:1013680007F11C031946314802F01CFD0123FB61FB
:1013780000233B6200237B6207F11C0319462C48BB
:1013880002F010FDE023FB6101233B6200237B6236
:101398000023BB6207F11C031946254802F002FD31
:1013A80047F60303FB6101233B6200237B620023B2
:1013B800BB6207F11C0319461E4802F0F3FC042324
:1013C800FB6100233B6200237B6207F11C03194683
:1013D800184802F0E7FC4FF47F43FB6101233B62AE
:1013E80000237B620023BB6207F11C0319461248E5
:1013F80002F0D8FC2023FB6100233B6200237B62C0
:1014080007F11C0319460C4802F0CCFC002200210D
:10141800282002F090FC282002F0A9FC00BF3037F9
:10142800BD4680BD0038024000100240000802405E
:101438000000024000040240000C024080B400AFEB
:1014480072B600BF00BFFDE780B582B000AF0023D1
:101458007B60104B5B6C0F4A43F4804353640D4B25
:101468005B6C03F480437B607B6800233B60094B23
:101478001B6C084A43F080531364064B1B6C03F043
:1014880080533B603B68072002F04AFC00BF0837E6
:10149800BD4680BD0038024080B58AB000AF786094
:1014A80007F1140300221A605A609A60DA601A6120
:1014B8007B681B68194A93422BD100233B61184B68
:1014C8001B6C174A43F000731364154B1B6C03F035
:1014D80000733B613B690023FB60114B1B6B104A97
:1014E80043F0080313630E4B1B6B03F00803FB6008
:1014F800FB6803237B610223BB610023FB61032399
:101508003B6209237B6207F114031946054802F080
:1015180049FC00BF2837BD4680BD00BF00640040BD
:1015280000380240000C024080B58AB000AF7860F5
:1015380007F1140300221A605A609A60DA601A618F
:101548007B681B68194A93422CD100233B61184BD6
:101558001B6B174A43F002031363154B1B6B03F015
:1015680002033B613B694FF410737B611223BB613B
:101578000123FB6100233B6204237B6207F1140310
:1015880019460C4802F00EFC0023FB60084B1B6C4C
:10159800074A43F400131364054B1B6C03F4001350
:1015A800FB60FB6800BF2837BD4680BD0054004083
:1015B800003802400004024080B584B000AF786073
:1015C8007B681B68B3F1804F16D10023FB601A4B70
:1015D8001B6C194A43F001031364174B1B6C03F08F
:1015E8000103FB60FB68002200211C2002F0A3FB22
:1015F8001C2002F0BCFB1AE07B681B680F4A934270
:1016080015D10023BB600C4B1B6C0B4A43F4807351
:101618001364094B1B6C03F48073BB60BB68002226
:1016280000212D2002F087FB2D2002F0A0FB00BF37
:101638001037BD4680BD00BF003802400020004082
:1016480080B400AF00BFFDE780B400AF00BFFDE786
:1016580080B400AF00BFFDE780B400AF00BFFDE776
:1016680080B400AF00BFFDE780B400AF00BFBD4647
:101678005DF8047B704780B400AF00BFBD465DF8DD
:10168800047B704780B400AF00BFBD465DF8047BA3
:10169800704780B500AF02F033F900BF80BD00008D
:1016A80080B500AF024806F0E2FB00BF80BD00BF76
:1016B8002007002080B500AF4FF4005002F040FD35
:1016C80000BF80BD80B500AF024806F0D0FB00BF68
:1016D80080BD00BF6807002080B500AF024803F056
:1016E80005F800BF80BD00BFEC0B002080B586B0B8
:1016F80000AF7860144A154BD31A7B617B693B6154
:10170800134B1B68002B02D1114B124A1A60104B65
:101718001A687B6813443A699A4207D20AF01EFD98
:1017280003460C221A604FF0FF3309E0084B1B6890
:10173800FB60074B1A687B681344054A1360FB6813
:1017480018461837BD4680BD00000220000400007E
:10175800B00700201811002080B400AF064BD3F862
:101768008830054A43F47003C2F8883000BFBD468C
:101778005DF8047B704700BF00ED00E080B500AF66
:101788009A2000F035F903461A46024B5A8000BFEA
:1017980080BD00BFB407002080B400AF034B002217
:1017A8001A7000BFBD465DF8047B7047B40700207F
:1017B80080B500AF224B1B8801339AB2204B1A80A8
:1017C8001F4B1B88092B31D91D4B00221A8000F0B2
:1017D800E3F80346012B14D11A4B1B88022B27D0A0
:1017E800184B1B8801339AB2164B1A80154B1B886D
:1017F800012B1FD9144B01221A70134B01225A7066
:101808001DE0104B1B88002B16D00E4B1B88013B8C
:101818009AB20C4B1A800B4B1B88002B0ED10A4B2B
:1018280000221A70084B01225A7008E000BF06E037
:1018380000BF04E000BF02E000BF00E000BF80BDC1
:10184800B8070020BA070020BC07002080B400AF0A
:10185800094B00225A70084B02221A70074B0022CB
:101868001A80074B01221A80064B074A1A6100BFEB
:10187800BD465DF8047B7047BC070020B807002010
:10188800BA070020F0070020B917000880B500AF9C
:1018980000F0F0F800F0FAF800F004F900F00EF9A2
:1018A800054BFF221A70044B32225A70034B002258
:1018B8001A8000BF80BD00BFC0070020BE070020FF
:1018C80080B485B000AF0346FB710023FB7300238F
:1018D800BB6012E0FB7B5B00FB7397F9073003F0FA
:1018E80001035AB297F90F3013435BB2FB73FB79CC
:1018F8005B08FB71BB680133BB60BB68072BE9DD84
:10190800FB7B18461437BD465DF8047B7047000022
:1019180080B500AF702000F04FF803461A460C4B14
:101928009A70742000F048F80346DB43DBB218468F
:10193800FFF7C6FF03461A46054BDA70762000F01B
:101948003BF80346DB43DAB2014B1A7100BF80BD96
:10195800C407002080B500AF064B5B791946782094
:1019680000F070F8034B9B7919467A2000F06AF86A
:1019780000BF80BDC407002080B400AF054B002223
:101988001A70044B01225A7000BFBD465DF8047BF3
:10199800704700BFC407002080B500AF012105488B
:1019A80002F09CFB0346012B01D1012300E0002338
:1019B800184680BD0000024080B586B002AF0346DD
:1019C800FB71FB7999B207F10F0201230093012300
:1019D800064804F021FF0346002B01D1FB7B00E001
:1019E800002318461037BD4680BD00BFCC06002036
:1019F80080B586B002AF0346FB71FB7999B207F157
:101A08000C020123009302230D4804F005FF03464E
:101A1800002B0FD13B7B1BB29B011BB203F47073ED
:101A28001AB27B7B9B08DBB21BB213431BB2FB8150
:101A3800FB8900E0002318461037BD4680BD00BF73
:101A4800CC06002080B584B002AF03460A46FB717D
:101A58001346BB71FB7999B2BA1D01230093012388
:101A6800034804F0DBFD00BF0837BD4680BD00BF5A
:101A7800CC06002080B500AF00220121024802F008
:101A880045FB00BF80BD00BF0010024080B500AF1D
:101A980000224021024802F039FB00BF80BD00BF90
:101AA8000000024080B500AF00228021024802F009
:101AB8002DFB00BF80BD00BF0000024080B500AF15
:101AC80000222021024802F021FB00BF80BD00BF98
:101AD8000000024080B582B000AF78607B68054A9C
:101AE800934202D1044B1B68984700BF0837BD4694
:101AF80080BD00BF68070020CC07002080B500AF7C
:101B0800024806F015F900BF80BD00BF6807002035
:101B180080B500AF024806F07BF900BF80BD00BF6A
:101B28006807002080B500AF024806F001F900BF41
:101B380080BD00BF2007002080B400AF034B044ADB
:101B48001A6000BFBD465DF8047B7047CC070020D3
:101B58006D0F000880B483B000AF0346FB8000BF60
:101B68000C37BD465DF8047B7047000080B400AFB9
:101B7800544B01221A70544B1B78012B1BD1524B2A
:101B88009B7823F05503002B0BD14F4BDB7823F0C8
:101B98003403002B05D14C4B1B7903F00203002BB7
:101BA80009D1494B00221A70484B00221A70484B41
:101BB800484A1A6082E0484B1B78012B2DD1474BCD
:101BC8001B780133DAB2454B1A70444B1B78012B52
:101BD80009D13D4B01225A703B4B9B7903F07F039F
:101BE800DAB2394B9A713D4B1B78632B15D9364BBA
:101BF8001B7903F00103002B0FD0334B01225A70DD
:101C0800314B9B7963F07F03DAB22F4B9A71324BD9
:101C180000221A70314B00221A702B4B1B78012BB3
:101C280011D1294BDB785B09DBB203F00103002BF0
:101C380009D0254B00221A70244B00221A70244B1D
:101C4800274A1A603AE0274B5B78012B10D1254BC5
:101C58001B78012B0CD11C4B00221A701B4B002245
:101C68001A70204B00225A70194B1F4A1A6025E03F
:101C7800154B1B78012B1BD1134BDB781B09DBB2EF
:101C880003F00103002B13D00F4B00221A700F4BE7
:101C980000221A700C4B01225A700B4B5B7923F00F
:101CA8000103DAB2084B5A71094B104A1A6005E071
:101CB800054B00221A70054B00221A70BD465DF8CC
:101CC800047B7047D4070020C4070020B407002015
:101CD800F007002059300008D0070020D80700205E
:101CE800F91C0008BC070020051E00084D28000844
:101CF80080B483B000AF374BDB781B09DBB203F04D
:101D08000103FB71344B02221A70324B00221A7005
:101D1800324B00221A70324B1B78FA799A4210D053
:101D2800304B1B780133DAB22E4B1A702D4B1B78CF
:101D3800022B09D92A4AFB7913702A4B00221A7000
:101D480002E0284B00221A70274B1B78002B25D164
:101D5800234B1B78012B21D1244B1B780133DAB29A
:101D6800224B1A70214B1B78012B03D1204B0022E8
:101D78001A8013E01D4B1B78022B0FD11C4B1B88BC
:101D8800B3F57A7F0AD21B4B1B4A1A60174B002205
:101D98001A70134B1A78144B1A7015E0104B1A78F6
:101DA800114B1A70114B1B78002B0DD0104B1B8850
:101DB8000A339AB20E4B1A800D4B1B88B3F57A7F03
:101DC80002D30A4B00221A700C37BD465DF8047B1B
:101DD800704700BFC4070020D4070020B4070020C4
:101DE800D9070020DA070020DB070020DC070020E5
:101DF800DE070020F00700204D28000880B400AF5F
:101E0800054B04221A70054B054A1A6000BFBD46EF
:101E18005DF8047B704700BFD4070020F00700205E
:101E28002D1E000880B400AF304B1B78012B15D154
:101E38002E4B9B7823F05503002B05D12B4BDB78D9
:101E480023F03003002B09D0284B00221A70284BAE
:101E580000221A70274B284A1A6042E0234B1B784D
:101E6800012B11D1214BDB785B09DBB203F00103B5
:101E7800002B09D01D4B00221A701D4B00221A702E
:101E88001C4B1E4A1A602CE0184B1B78012B22D1E0
:101E9800164BDB781B09DBB203F00103002B1AD0C9
:101EA800124B00221A70114B01225A700F4B5B79AA
:101EB80023F04003DAB20D4B5A710C4B5B7963F097
:101EC8007F03DAB2094B5A71094B00221A70094B89
:101ED8000B4A1A6005E0054B00221A70044B0022D9
:101EE8001A70BD465DF8047B704700BFC407002028
:101EF800B4070020F007002059300008F91C00083A
:101F08000D1F000880B400AF4B4B1B8801339AB2F9
:101F1800494B1A80494B1B78012B18D1474B9B78AA
:101F280023F05903002B05D1444BDB7823F034030D
:101F3800002B0CD0404B00221A80404B00221A7014
:101F48003F4B00221A703F4B3F4A1A606FE03B4BF1
:101F58001B78012B25D1394BDB785B09DBB203F009
:101F68000103002B1DD0344B00221A80334B002272
:101F78001A70324B01225A70304B5B7903F07F03A1
:101F8800DAB22E4B5A712D4B5B7943F04003DAB22B
:101F98002A4B5A712A4B00221A702A4B2B4A1A6074
:101FA80045E0254B1B88642B0ED1244B5B7903F04D
:101FB8007F03DAB2214B5A71204B5B7943F040031F
:101FC800DAB21E4B5A7132E01B4B1B88642B28D99E
:101FD8001A4B1B78012B24D1184BDB781B09DBB279
:101FE80003F00103002B1CD0134B00221A80134B63
:101FF80000221A70114B01225A70104B5B7923F0A2
:102008002003DAB20D4B5A710C4B5B7943F0100385
:10201800DAB20A4B5A710A4B00221A70094B0C4A61
:102028001A60064B00221A70054B00221A70BD4632
:102038005DF8047B704700BFE0070020C40700205C
:10204800B4070020F007002059300008F91C0008E8
:102058005D20000880B400AF394B1B8801339AB269
:10206800374B1A80374B1B78012B18D1354B9B788F
:1020780023F07D03002B05D1324BDB7823F03503A9
:10208800002B0CD02E4B00221A802E4B00221A70E7
:102098002D4B00221A702D4B2D4A1A604CE0294B0B
:1020A8001B78012B14D1274BDB785B09DBB203F0DB
:1020B8000103002B0CD0224B00221A80214B002256
:1020C8001A70214B00221A70204B224A1A6033E002
:1020D8001B4B1B88632B29D91A4B9B785B09DBB2F6
:1020E80003F00103002B21D0154B00221A80154B59
:1020F80001225A70134B5B7943F02003DAB2114B7B
:102108005A71104B5B7923F01003DAB20D4B5A71F8
:102118000C4B9B7923F00203DAB20A4B9A710A4BF3
:1021280000221A70094B0C4A1A6005E0054B002280
:102138001A70054B00221A70BD465DF8047B704783
:10214800E2070020C4070020B4070020F0070020A1
:1021580059300008F91C00086521000880B400AF58
:10216800344B1B78012B13D1324B9B7823F075032A
:10217800002B03D12F4BDB783F2B09D92D4B0022A5
:102188001A702D4B00221A702C4B2D4A1A604CE005
:10219800284B1B78012B1BD1264BDB785B09DBB264
:1021A80003F00103002B13D0224B00221A70214B9D
:1021B80001225A701F4B9B7943F00203DAB21D4B80
:1021C8009A711D4B00221A701C4B1E4A1A602CE093
:1021D800184B1B78012B22D1164BDB781B09DBB27D
:1021E80003F00103002B1AD0124B00221A70114B76
:1021F80001225A700F4B9B7943F00203DAB20D4B60
:102208009A710C4B9B7923F00103DAB2094B9A714E
:10221800094B00221A70094B0B4A1A6005E0054B5E
:1022280000221A70044B00221A70BD465DF8047B28
:10223800704700BFC4070020B4070020F007002043
:1022480059300008F91C00085522000880B400AF76
:102258003C4B1B8801339AB23A4B1A803A4B1B7895
:10226800012B18D1384B9B7823F09503002B05D10F
:10227800354BDB7823F03003002B0CD0314B002298
:102288001A80314B00221A70304B00221A70304BE2
:10229800304A1A6052E02C4B1B78012B1ED12A4B76
:1022A800DB785B09DBB203F00103002B16D0254B6A
:1022B80000221A80244B00221A70234B01225A70E4
:1022C800214B9B7943F00103DAB21F4B9A711F4BE4
:1022D80000221A701E4B204A1A602FE0194B1B88E7
:1022E800632B25D9184B9B78DB09DBB203F001037C
:1022F800002B1DD0134B00221A80134B00221A709A
:10230800114B01225A70104B9B7943F00103DAB24A
:102318000D4B9A710C4B5B7923F00803DAB20A4B28
:102328005A710A4B00221A70094B0C4A1A6005E0D0
:10233800054B00221A70054B00221A70BD465DF845
:10234800047B7047E4070020C4070020B40700207E
:10235800F007002059300008F91C0008692300081C
:1023680080B400AF384B1B78012B15D1364B9B78C6
:1023780023F05503002B05D1334BDB7823F0700392
:10238800002B09D0304B00221A70304B00221A70F3
:102398002F4B304A1A6053E02B4B1B78012B1BD173
:1023A800294BDB785B09DBB203F00103002B13D068
:1023B800254B00221A70244B01225A70224B5B795C
:1023C80043F00803DAB2204B5A71204B00221A70EE
:1023D8001F4B214A1A6033E01B4B1B78012B29D174
:1023E800194BDB781B09DBB203F00103002B21D06A
:1023F800154B00221A70144B01225A70124B5B794C
:1024080043F00803DAB2104B5A710F4B5B7923F093
:102418000203DAB20C4B5A710B4B5B7943F004039D
:10242800DAB2094B5A71094B00221A70084B0B4A51
:102438001A6005E0044B00221A70044B00221A703F
:10244800BD465DF8047B7047C4070020B407002030
:10245800F007002059300008F91C0008692400081A
:1024680080B400AF404B1B8801339AB23E4B1A80B0
:102478003E4B1B78012B18D13C4B9B7823F056031D
:10248800002B05D1394BDB7823F03803002B0CD017
:10249800354B00221A80354B00221A70344B00222B
:1024A8001A70344B344A1A6059E0304B1B78012BB0
:1024B80025D12E4BDB785B09DBB203F00103002B3F
:1024C8001DD0294B00221A80284B00221A70274B56
:1024D80001225A70254B5B7943F00203DAB2234B91
:1024E8005A71224B5B7923F00403DAB21F4B5A71FD
:1024F8001F4B00221A701F4B204A1A602FE01A4BFC
:102508001B88632B25D9194B9B785B08DBB203F03A
:102518000103002B1DD0144B00221A80134B0022FC
:102528001A70124B01225A70104B5B7943F0020368
:10253800DAB20E4B5A710D4B5B7923F00403DAB211
:102548000A4B5A710A4B00221A700A4B0C4A1A603D
:1025580005E0064B00221A70054B00221A70BD4692
:102568005DF8047B704700BFE6070020C407002021
:10257800B4070020F007002059300008F91C0008B3
:102588008D25000880B400AF9D4B1B78012B54D1DA
:102598009C4B1B780133DAB29A4B1A70994B1B7813
:1025A800012B0AD1984B01225A70974B9B7903F063
:1025B8007F03DAB2944B9A713CE1924B1B78632B00
:1025C80037D9914B1B7903F00103002B31D08E4B87
:1025D80001225A708C4B9B7963F07F03DAB28A4BE5
:1025E8009A71874B00221A70864B00221A70874B0B
:1025F8001B78012B02D0022B0AD01AE0844B854AA3
:102608001A60814B00221A70834B00221A7011E164
:10261800824B1B78032B05D1804B00221A707C4B10
:102628007F4A1A60784B00221A707B4B00221A707E
:1026380000E1754B00221A70FCE0734B1B78012BEC
:102648001BD1714B9B7823F05503002B0BD16E4B9C
:10265800DB7823F03003002B05D16B4B1B7903F09B
:102668000203002B09D16D4B00221A70664B002221
:102678001A70674B6B4A1A60DCE0634B1B78012BBE
:1026880030D1614BDB785B09DBB203F00103002B2F
:1026980028D0624B00221A705B4B00221A705A4BEA
:1026A80001225A70584B9B7923F01003DAB2564B2B
:1026B8009A71554B9B7943F02003DAB2524B9A71C9
:1026C800514B9B7943F04003DAB24F4B9A714E4B12
:1026D8009B7903F07F03DAB24B4B9A714B4B012283
:1026E8001A70A7E0484B1B78012B40F09D80464BA1
:1026F800DB781B09DBB203F00103002B00F09480A8
:10270800414B1B7903F00103002B00F08D80434BF4
:102718001B780133DAB2414B1A703F4B00221A7012
:10272800394B00221A70384B01225A70344B01225F
:102738001A703A4B1B78032B40D0032B5BDC012B20
:1027480002D0022B1DD056E02F4B9B7943F010038B
:10275800DAB22D4B9A712C4B9B7923F02003DAB215
:10276800294B9A71284B9B7943F04003DAB2264BE8
:102778009A71254B9B7963F07F03DAB2224B9A71E9
:1027880039E0214B9B7943F01003DAB21E4B9A7162
:102798001D4B9B7943F02003DAB21B4B9A711A4BFD
:1027A8009B7923F04003DAB2174B9A71164B9B7949
:1027B80063F07F03DAB2144B9A711CE0124B9B79D9
:1027C80023F01003DAB2104B9A710F4B9B7943F048
:1027D8002003DAB20C4B9A710B4B9B7943F0400300
:1027E800DAB2094B9A71084B9B7963F07F03DAB22E
:1027F800054B9A7100BF054B02221A701AE000BF00
:10280800D0070020E8070020C4070020E9070020BF
:10281800F0070020F91C0008B4070020EA07002090
:10282800751B000859300008044B00221A70044B2D
:1028380000221A70BD465DF8047B7047C40700206B
:10284800B407002080B400AF304B03221A70304B1D
:102858001B78012B18D12E4B9B7823F0D503002B26
:102868000BD12B4BDB7823F03703002B05D1284BFA
:102878001B7903F00203002B06D1254B00221A70A6
:10288800244B254A1A603DE0214B9B789B09DBB21B
:1028980003F00103002B12D01D4B9B78DB09DBB240
:1028A80003F00103002B0AD1194B01225A70184B6F
:1028B8009B7923F00103DAB2154B9A711CE0144B93
:1028C8009B789B09DBB203F00103002B14D1104B5A
:1028D8009B78DB09DBB203F00103002B0CD00C4B17
:1028E80001225A700A4B9B7943F00103DAB2084B74
:1028F8009A71084B094A1A60054B00221A70084B56
:1029080000221A70BD465DF8047B7047D40700208A
:10291800C4070020F0070020593000082D290008BE
:10292800B407002080B400AF264B1B780133DAB21D
:10293800244B1A70234B1B78632B1FD9214B002281
:102948001A70214BDB7803F00703072B0ED0072BF7
:1029580010DC022B02D0062B04D00BE01B4B01220B
:10296800DA700BE0194B0222DA7007E0174B0322EA
:10297800DA7003E0154B0022DA7000BF134BDB78E6
:10298800002B13D0104B01225A700F4B5B7943F088
:102998001003DAB20C4B5A710B4B5B7923F020030E
:1029A800DAB2094B5A710A4B0A4A1A60064B0022DE
:1029B8001A70094B00221A7000BFBD465DF8047BEF
:1029C800704700BFEB070020C4070020D407002091
:1029D800F0070020E5290008B407002080B400AF04
:1029E800354B1B78012B18D1334B9B7823F075039B
:1029F800002B0BD1304BDB7823F03703002B05D1AC
:102A08002D4B1B7903F00203002B06D12A4B002221
:102A18001A702A4B2A4A1A6049E0274B9B781B09EF
:102A2800DBB203F00103002B19D0234B9B785B0921
:102A3800DBB203F00103002B11D11F4B01225A70A6
:102A48001D4B5B7923F02003DAB21B4B5A711A4BEA
:102A58005B7943F01003DAB2174B5A7121E0164B39
:102A68009B781B09DBB203F00103002B19D1124B31
:102A78009B785B09DBB203F00103002B11D0114BEB
:102A88005B88B3F5587F0CD30B4B01225A700A4B65
:102A98009B7923F00203DAB2074B9A71074B0A4A73
:102AA8001A60054B00221A70064B00221A70BD46A8
:102AB8005DF8047B704700BFC4070020F0070020C2
:102AC80059300008B4070020D52A000880B400AFA8
:102AD8003D4B1B78012B16D13B4B9B7823F07D0394
:102AE800002B09D1384BDB783F2B05D8364B1B79A7
:102AF80003F00203002B06D1334B00221A70334B2C
:102B0800334A1A605CE0304B9B781B09DBB203F058
:102B18000103002B1DD12C4B9B785B09DBB203F022
:102B28000103002B15D02B4B5B88B3F5547F10D3D2
:102B3800254B01225A70244B5B7923F04003DAB20B
:102B4800214B5A71204B5B7963F07F03DAB21E4B3D
:102B58005A711D4BDB78DB08DBB203F00103002B55
:102B680028D0194B01225A70174B5B7943F0400368
:102B7800DAB2154B5A71144B5B7903F07F03DAB262
:102B8800114B5A71104B9B7943F00203DAB20E4B8A
:102B98009A710D4B5B7943F02003DAB20A4B5A71F4
:102BA800094B5B7923F01003DAB2074B5A71074BD4
:102BB800094A1A60044B00221A70064B00221A7048
:102BC800BD465DF8047B7047C4070020F00700206D
:102BD80059300008B4070020E52B000880B400AF86
:102BE8007C4B1B780133DAB27A4B1A70794B1B781D
:102BF800632B40F2E580774B00221A70764BDB7826
:102C0800DB08DBB203F00103002B25D0724B9B7865
:102C180003F00103002B1FD06F4B5B79DB08DBB29D
:102C280003F00103002B17D06B4B01225A706A4B3B
:102C38005B7923F00203DAB2674B5A71664B5B7912
:102C480043F00403DAB2644B5A71634B00221A70E2
:102C5800624B00221A70B9E05F4BDB78DB08DBB20D
:102C680003F00103002B20D05B4B9B785B08DBB2A1
:102C780003F00103002B18D0574B5B79DB08DBB25C
:102C880003F00103002B10D0534B01225A70524B12
:102C98005B7923F00803DAB24F4B5A714E4B00228E
:102CA8001A704E4B00221A7090E04B4BDB78DB0811
:102CB800DBB203F00103002B27D0474B9B785B085E
:102CC800DBB203F00103002B1FD0434B5B79DB0819
:102CD800DBB203F00103002B17D13F4B01225A70DE
:102CE8003D4B5B7943F00203DAB23B4B5A713A4BE6
:102CF8005B7923F00403DAB2374B5A71364B002262
:102D08001A70364B00221A7060E0334B9B7803F040
:102D18000103002B54D0304B5B79DB08DBB203F0A6
:102D28000103002B4CD12C4B01225A702C4BDB7821
:102D3800012B05D0002B2FDD023B012B2CD815E0F1
:102D4800254B9B7943F01003DAB2234B9A71224B3F
:102D58009B7923F02003DAB21F4B9A711E4B9B79A3
:102D680043F04003DAB21C4B9A7115E01A4B9B7979
:102D780043F01003DAB2184B9A71174B9B7943F062
:102D88002003DAB2144B9A71134B9B7923F040035A
:102D9800DAB2114B9A7100BF0F4B9B7923F00803ED
:102DA800DAB20D4B9A710C4B9B7963F07F03DAB260
:102DB800094B9A710B4B01221A700B4B0B4A1A6084
:102DC800054B00221A70054B00221A70BD465DF8AB
:102DD800047B7047EC070020C4070020B4070020DC
:102DE800D4070020D0070020F0070020F92D0008A4
:102DF80080B400AF2A4B1B78012B2DD1294B1B78AF
:102E08000133DAB2274B1A70264B1B78012B09D1F4
:102E1800254B01225A70244B9B7903F07F03DAB2C9
:102E2800214B9A711F4B1B78952B15D91E4B1B797B
:102E380003F00103002B0FD01B4B01225A701A4BD1
:102E48009B7963F07F03DAB2174B9A71144B002217
:102E58001A70144B00221A70114B1B78002B13D1D7
:102E6800114B01225A70104B5B7923F00203DAB23E
:102E78000D4B5A710C4B5B7943F00403DAB20A4BE1
:102E88005A710A4B0A4A1A60074B00221A70094BFA
:102E980000221A7000BFBD465DF8047B704700BF72
:102EA800D0070020ED070020C4070020F00700200D
:102EB800C12E0008B407002080B400AF1D4B9B78DA
:102EC8005B08DBB203F00103002B28D0194B9B7879
:102ED80003F00103002B22D1164B5B79DB08DBB230
:102EE80003F00103002B1AD1124B01225A70114B27
:102EF8005B7943F00803DAB20E4B5A710D4B5B79DC
:102F080043F00203DAB20B4B5A710A4B5B7923F098
:102F18000403DAB2074B5A71074B084A1A60054B8B
:102F280000221A70064B00221A7000BFBD465DF8D9
:102F3800047B7047C4070020F00700204D2F0008CD
:102F4800B407002080B400AF3B4B1B78012B31D174
:102F58003A4B1B780133DAB2384B1A70374B1B786F
:102F6800012B09D1364B01225A70354B9B7903F05E
:102F78007F03DAB2324B9A71304B1B78952B19D9F3
:102F88002F4B1B7903F00103002B13D02C4B01228C
:102F98005A702B4B9B7963F07F03DAB2284B9A71F6
:102FA800254B00221A70254B00221A70254B264A01
:102FB8001A603DE0224B9B7803F00103002B31D0CF
:102FC8001F4B9B785B08DBB203F00103002B29D170
:102FD800194B1B78012B25D0194B9B7923F008033B
:102FE800DAB2174B9A71164B9B7923F01003DAB2B9
:102FF800134B9A71124B9B7943F02003DAB2104BB2
:103008009A710F4B9B7943F04003DAB20C4B9A71DB
:103018000B4B9B7963F07F03DAB2094B9A71064B2D
:1030280001221A70064B00221A70084B00221A70EF
:10303800BD465DF8047B7047D0070020EE070020EE
:10304800C4070020F0070020751B0008B407002003
:1030580080B500AFFEF75CFD00BF80BD80B400AF57
:103068003F4B5B7943F00103DAB23D4B5A713C4B5D
:103078005B7943F00203DAB2394B5A71384B5B790A
:1030880023F00403DAB2364B5A71354B5B7943F0BF
:103098000803DAB2324B5A71314B5B7923F01003D3
:1030A800DAB22F4B5A712E4B5B7943F02003DAB218
:1030B8002B4B5A712A4B5B7943F04003DAB2284B09
:1030C8005A71274B5B7903F07F03DAB2244B5A71AC
:1030D800234B9B7943F00103DAB2214B9A71204BC1
:1030E8009B7943F00203DAB21D4B9A711C4B9B7912
:1030F80023F00803DAB21A4B9A71194B9B7923F023
:103108001003DAB2164B9A71154B9B7943F02003E2
:10311800DAB2134B9A71124B9B7943F04003DAB23F
:103128000F4B9A710E4B9B7963F07F03DAB20C4B0D
:103138009A710C4B01221A700B4B0022DA700A4B61
:1031480000229A70084B01221A70074B00225A700D
:10315800064B074A1A6000BFBD465DF8047B7047FE
:10316800C4070020D0070020D4070020F007002063
:10317800751B000880B582B000AF0B4B5B88FB71F4
:10318800094B1B78012B01D0FEF7F8FAFB799AB2AC
:10319800054B5B889A4202D0034B01221A7000BF8C
:1031A8000837BD4680BD00BFB407002080B400AF1B
:1031B800034B044A9A6000BFBD465DF8047B704724
:1031C800F00700207D31000880B582B000AF124BB7
:1031D8009B78FB71104BDB78BB710F4B1B797B71B4
:1031E8000D4B1B78012B01D0FEF792FB0A4B9B7805
:1031F800FA799A4209D1084BDB78BA799A4204D114
:10320800054B1B797A799A4202D0034B01221A7036
:1032180000BF0837BD4680BDC407002080B400AF9A
:10322800034B044A5A6000BFBD465DF8047B7047F3
:10323800F0070020D131000880B500AF054B5B785E
:10324800012B04D1FEF786FB024B00225A7000BF07
:1032580080BD00BFC407002080B400AF034B044A00
:10326800DA6000BFBD465DF8047B7047F0070020B8
:1032780041320008B0B489B000AF03463960FB8022
:103288001C4B07F10C041D460FCD0FC42B6823708F
:10329800FB881B0B9BB203F00F0320333B4413F84E
:1032A800142C3B681A70FB881B0A9BB203F00F02B0
:1032B8003B68013320323A4412F8142C1A70FB8808
:1032C8001B099BB203F00F023B68023320323A44D9
:1032D80012F8142C1A70FB8803F00F023B680333B2
:1032E80020323A4412F8142C1A7000BF2437BD4615
:1032F800B0BC704768C2000880B485B000AF034610
:103308003960FB710023FB6014E0FA79FB68C3F1B4
:10331800070342FA03F303F00103002B01D0312124
:1033280000E03021FB683A6813440A461A70FB68CB
:103338000133FB60FB68072BE7DD00BF00BF1437D4
:10334800BD465DF8047B704780B58CB000AF58234C
:1033580087F82F30D74B5B78012B11D1D54B1B78D1
:10336800012B03D1312387F82F3002E0302387F86F
:103378002F3097F82F0005230C220621FDF74AF974
:10338800CD4B9B7807F1240211461846FFF7B4FF8E
:10339800C94BDB7807F11C0211461846FFF7ACFF52
:1033A800C54B1B7907F1140211461846FFF7A4FF15
:1033B800C14B5B7907F10C0211461846FFF79CFFD9
:1033C800BD4B9B793A1D11461846FFF795FFBB4B3D
:1033D8005B883A4611461846FFF74CFF387B0523B1
:1033E80005220121FDF716F9787B05230622012124
:1033F800FDF710F9B87B052307220121FDF70AF92B
:10340800F87B052308220121FDF704F9387C052300
:103418000C220121FDF7FEF8787C05230D220121FD
:10342800FDF7F8F8B87C05230E220121FDF7F2F824
:10343800F87C05230F220121FDF7ECF838790523E4
:1034480005220221FDF7E6F87879052306220221F4
:10345800FDF7E0F8B879052307220221FDF7DAF82D
:10346800F879052308220221FDF7D4F8387A0523D4
:103478000C220221FDF7CEF8787A05230D220221CD
:10348800FDF7C8F8B87A05230E220221FDF7C2F825
:10349800F87A05230F220221FDF7BCF897F82400DB
:1034A800052305220321FDF7B5F897F82500052324
:1034B80006220321FDF7AEF897F826000523072218
:1034C8000321FDF7A7F897F8270005230822032111
:1034D800FDF7A0F897F8280005230C220321FDF733
:1034E80099F897F8290005230D220321FDF792F892
:1034F80097F82A0005230E220321FDF78BF897F889
:103508002B0005230F220321FDF784F8387F0523BC
:1035180005220421FDF77EF8787F05230622042181
:10352800FDF778F8B87F052307220421FDF772F824
:10353800F87F052308220421FDF76CF897F820008E
:1035480005230C220421FDF765F897F821000523CF
:103558000D220421FDF75EF897F8220005230E22BC
:103568000421FDF757F897F8230005230F220421BB
:10357800FDF750F8387D052305220521FDF74AF8A7
:10358800787D052306220521FDF744F8B87D05233B
:1035980007220521FDF73EF8F87D052308220521BD
:1035A800FDF738F8387E05230C220521FDF732F89F
:1035B800787E05230D220521FDF72CF8B87E05231A
:1035C8000E220521FDF726F8F87E05230F22052196
:1035D800FDF720F83878052307220721FDF71AF8A8
:1035E8007878052308220721FDF714F8B878052311
:1035F80009220721FDF70EF8F87805230A2207218A
:10360800FDF708F82E4B1B78013B032B26D801A2A7
:1036180052F823F02D3600083B36000849360008DA
:10362800573600080523122207215720FCF7F2FF1E
:1036380014E00523122207214120FCF7EBFF0DE0DF
:103648000523122207214F20FCF7E4FF06E005239B
:10365800122207215420FCF7DDFF00BF184BDB784E
:10366800032B14D0032B19DC012B02D0022B07D01B
:1036780014E00523122206214E20FCF7CBFF14E0AC
:103688000523122206214F20FCF7C4FF0DE0052375
:10369800122206214D20FCF7BDFF06E00523122269
:1036A80006214120FCF7B6FF00BF00BF3037BD46FA
:1036B80080BD00BFBC070020C4070020B40700205D
:1036C800D407002080B500AF00224FF400612648DF
:1036D80000F01CFD01224FF48051234800F016FD34
:1036E80001224FF40051204800F010FD01224FF450
:1036F80080411D4800F00AFD642000F021F9FCF724
:103708001DFF642000F01CF90020FCF743FF052290
:1037180000211648FDF746F8052201211448FDF757
:1037280041F8052202211348FDF73CF80522032140
:103738001148FDF737F8052204211048FDF732F843
:10374800052205210E48FDF72DF8052206210D4812
:10375800FDF728F8052207210B48FDF723F80B4B46
:103768000B4A9A6100BF80BD000402405805002042
:103778006F050020860500209D050020B405002067
:10378800CB050020E2050020F9050020F007002005
:103798005133000880B582B000AF0023FB7107E009
:1037A800FB79074A52F823309847FB790133FB71BC
:1037B800FB79062BF4D900BF00BF0837BD4680BD92
:1037C800F007002080B483B000AF0023FB7107E04E
:1037D800FB79094A094942F82310FB790133FB7147
:1037E800FB79062BF4D9064B064A1A6000BF0C3742
:1037F800BD465DF8047B7047F00700206D0F000898
:10380800CC0700209D370008DFF834D0FDF7A4FF6F
:103818000C480D490D4A002302E0D458C450043323
:10382800C4188C42F9D30A4A0A4C002301E01360F9
:103838000432A242FBD308F097FCFDF79AFB7047CD
:10384800000002200000002088060020A8C200080E
:103858008806002014110020FEE7000080B500AFA4
:103868000E4B1B680D4A43F4007313600B4B1B6827
:103878000A4A43F480631360084B1B68074A43F401
:1038880080731360032000F04BFA002000F008F862
:10389800FDF7DAFD0023184680BD00BF003C02405A
:1038A80080B582B000AF7860124B1A68124B1B7853
:1038B80019464FF47A73B3FBF1F3B2FBF3F31846EE
:1038C80000F063FA0346002B01D001230EE07B6869
:1038D8000F2B0AD8002279684FF0FF3000F02BFA3E
:1038E800064A7B681360002300E001231846083766
:1038F800BD4680BD54050020140600201006002097
:1039080080B400AF064B1B781A46064B1B6813445D
:10391800044A136000BFBD465DF8047B704700BFD2
:10392800140600200C08002080B400AF034B1B686D
:103938001846BD465DF8047B704700BF0C080020A0
:1039480080B584B000AF7860FFF7EEFFB8607B68A1
:10395800FB60FB68B3F1FF3F05D00A4B1B781A46A2
:10396800FB681344FB6000BFFFF7DEFF0246BB683D
:10397800D31AFA689A42F7D800BF00BF1037BD467D
:1039880080BD00BF1406002080B584B000AF786009
:103998007B68002B01D10123EDE07B6893F8203090
:1039A800DBB2002B02D17868FDF776FD7B681B68D7
:1039B8001A687B681B6842F001021A60FFF7B4FFBF
:1039C800F86012E0FFF7B0FF0246FB68D31A0A2B33
:1039D8000BD97B685B6A43F400327B685A627B6868
:1039E800052283F820200123C5E07B681B685B68FB
:1039F80003F00103002BE5D07B681B681A687B681D
:103A08001B6822F002021A60FFF78EFFF86012E0CE
:103A1800FFF78AFF0246FB68D31A0A2B0BD97B688B
:103A28005B6A43F400327B685A627B68052283F83C
:103A3800202001239FE07B681B685B6803F002037A
:103A4800002BE5D17B681B7E012B08D17B681B68A6
:103A58001A687B681B6842F080021A6007E07B687E
:103A68001B681A687B681B6822F080021A607B68F2
:103A78005B7E012B08D17B681B681A687B681B6812
:103A880042F040021A6007E07B681B681A687B688E
:103A98001B6822F040021A607B689B7E012B08D1CC
:103AA8007B681B681A687B681B6842F020021A60F2
:103AB80007E07B681B681A687B681B6822F0200295
:103AC8001A607B68DB7E012B08D17B681B681A684B
:103AD8007B681B6822F010021A6007E07B681B688D
:103AE8001A687B681B6842F010021A607B681B7FAB
:103AF800012B08D17B681B681A687B681B6842F039
:103B080008021A6007E07B681B681A687B681B68F4
:103B180022F008021A607B685B7F012B08D17B6862
:103B28001B681A687B681B6842F004021A6007E089
:103B38007B681B681A687B681B6822F004021A609D
:103B48007B689A687B68DB681A437B681B691A4341
:103B58007B685B6942EA03017B685B685A1E7B6885
:103B68001B680A43DA617B6800225A627B6801227B
:103B780083F82020002318461037BD4680BD00007A
:103B880080B485B000AF78607B6803F00703FB6002
:103B98000C4BDB68BB60BA684FF6FF031340BB6091
:103BA800FB681A02BB68134343F0BF6343F4003356
:103BB800BB60044ABB68D36000BF1437BD465DF8DC
:103BC800047B704700ED00E080B400AF044BDB6875
:103BD8001B0A03F007031846BD465DF8047B7047CF
:103BE80000ED00E080B483B000AF0346FB7197F9A5
:103BF8000730002B0BDBFB7903F01F02074997F90D
:103C080007305B09012000FA02F241F8232000BFC7
:103C18000C37BD465DF8047B704700BF00E100E04B
:103C280080B483B000AF03463960FB7197F9073061
:103C3800002B0ADB3B68DAB20C4997F9073012010E
:103C4800D2B20B4483F800230AE03B68DAB2084991
:103C5800FB7903F00F03043B1201D2B20B441A762E
:103C680000BF0C37BD465DF8047B704700E100E0FB
:103C780000ED00E080B489B000AFF860B9607A6008
:103C8800FB6803F00703FB61FB69C3F10703042B1F
:103C980028BF0423BB61FB690433062B02D9FB69E7
:103CA800033B00E000237B614FF0FF32BB6902FA5F
:103CB80003F3DA43BB681A407B699A404FF0FF313F
:103CC8007B6901FA03F3D9437B680B401343184619
:103CD8002437BD465DF8047B7047000080B582B08C
:103CE80000AF78607B68013BB3F1807F01D301238B
:103CF8000FE00A4A7B68013B53600F214FF0FF3009
:103D0800FFF78EFF054B00229A60044B07221A60CA
:103D1800002318460837BD4680BD00BF10E000E00C
:103D280080B582B000AF78607868FFF729FF00BFE0
:103D38000837BD4680BD80B586B000AF0346B96080
:103D48007A60FB7300237B61FFF73EFF78617A6836
:103D5800B9687869FFF78EFF024697F90F30114668
:103D68001846FFF75DFF00BF1837BD4680BD80B518
:103D780082B000AF0346FB7197F907301846FFF78A
:103D880031FF00BF0837BD4680BD80B582B000AFA7
:103D980078607868FFF7A2FF034618460837BD46E3
:103DA80080BD000080B489B000AF7860396000231E
:103DB8007B6100233B610023BB610023FB616BE156
:103DC8000122FB6902FA03F37B613B681B687A698D
:103DD80013403B613A697B699A4240F05A813B68DB
:103DE8005B6803F00303012B05D03B685B6803F0B5
:103DF8000303022B30D17B689B68BB61FB695B00C6
:103E0800032202FA03F3DB43BA691340BB613B6840
:103E1800DA68FB695B0002FA03F3BA691343BB6112
:103E28007B68BA699A607B685B68BB610122FB6941
:103E380002FA03F3DB43BA691340BB613B685B6872
:103E48001B0903F00102FB6902FA03F3BA69134381
:103E5800BB617B68BA695A603B685B6803F003031F
:103E6800032B17D07B68DB68BB61FB695B0003220F
:103E780002FA03F3DB43BA691340BB613B689A68F3
:103E8800FB695B0002FA03F3BA691343BB617B6801
:103E9800BA69DA603B685B6803F00303022B23D13D
:103EA800FB69DA087B68083253F82230BB61FB698A
:103EB80003F007039B000F2202FA03F3DB43BA69FE
:103EC8001340BB613B681A69FB6903F007039B0059
:103ED80002FA03F3BA691343BB61FB69DA087B682A
:103EE8000832B96943F822107B681B68BB61FB691B
:103EF8005B00032202FA03F3DB43BA691340BB6198
:103F08003B685B6803F00302FB695B0002FA03F39A
:103F1800BA691343BB617B68BA691A603B685B681E
:103F280003F44033002B00F0B4800023FB60604BA7
:103F38005B6C5F4A43F4804353645D4B5B6C03F4F2
:103F48008043FB60FB685B4AFB699B08023352F8BD
:103F58002330BB61FB6903F003039B000F2202FAC5
:103F680003F3DB43BA691340BB617B68524A93424F
:103F78002BD07B68514A934225D07B68504A9342A4
:103F88001FD07B684F4A934219D07B684E4A9342B0
:103F980013D07B684D4A93420DD07B684C4A9342BC
:103FA80007D07B684B4A934201D107230EE00823D0
:103FB8000CE006230AE0052308E0042306E00323B7
:103FC80004E0022302E0012300E00023FA6902F082
:103FD800030292009340BA691343BB613549FB69F8
:103FE8009B080233BA6941F823203B4B9B68BB61AD
:103FF8003B69DB43BA691340BB613B685B6803F408
:104008008013002B03D0BA693B691343BB61324A62
:10401800BB699360304BDB68BB613B69DB43BA69C2
:104028001340BB613B685B6803F40013002B03D0AB
:10403800BA693B691343BB61274ABB69D360264B06
:104048005B68BB613B69DB43BA691340BB613B6892
:104058005B6803F40033002B03D0BA693B69134350
:10406800BB611D4ABB6953601B4B1B68BB613B6945
:10407800DB43BA691340BB613B685B6803F4803378
:10408800002B03D0BA693B691343BB61124ABB6971
:104098001360FB690133FB61FB690F2B7FF690AE60
:1040A80000BF00BF2437BD465DF8047B704700BFE2
:1040B800003802400038014000000240000402407D
:1040C80000080240000C02400010024000140240A8
:1040D80000180240001C0240003C014080B485B03A
:1040E80000AF78600B467B807B681A697B88134039
:1040F800002B02D00123FB7301E00023FB73FB7B41
:1041080018461437BD465DF8047B704780B483B009
:1041180000AF78600B467B8013467B707B78002B62
:1041280003D07A887B689A6103E07B881A047B68ED
:104138009A6100BF0C37BD465DF8047B70470000EC
:1041480080B582B000AF0346FB80084B5A69FB88F4
:104158001340002B06D0054AFB885361FB8818469C
:10416800FDF7F8FC00BF0837BD4680BD003C0140A4
:1041780080B586B002AF78607B68002B01D101233F
:1041880059E07B681B68FB607B6893F8D533DBB22A
:10419800002B06D17B68002283F8D423786807F0C7
:1041A8006DFC7B68032283F8D523FB68B3F1A04F2D
:1041B80002D17B6800229A717B681B68184604F05C
:1041C8007AFA7B6818687B681A7C8DF800200433BB
:1041D8000ECB04F0FBF90346002B05D07B680222C6
:1041E80083F8D523012326E07B681B680121184644
:1041F80004F072FA0346002B05D07B68022283F88C
:10420800D523012317E07B6818687B681A7C8DF832
:10421800002004330ECB04F01BFC0346002B05D012
:104228007B68022283F8D523012304E07B680122FE
:1042380083F8D523002318461037BD4680BD90B5B6
:104248008BB004AF7860084611461A460346FB70E7
:104258000B46BB7013467B703B8E7B617B6893F883
:10426800D433012B01D102239DE07B68012283F81E
:10427800D423FA78796813461B019B1A9B000B44D8
:10428800193300221A70FA78796813461B019B1AB1
:104298009B000B4414337A781A70FA7879681346BD
:1042A8001B019B1A9B000B441533FA781A70FA7895
:1042B800796813461B019B1A9B000B44263397F819
:1042C8002C201A70FA78BB7803F07F03D8B279688B
:1042D80013461B019B1A9B000B44163302461A70A7
:1042E800FB781946786800F0A5FB97F90230002B97
:1042F8000ADAFA78796813461B019B1A9B000B446B
:10430800173301221A7009E0FA78796813461B01FD
:104318009B1A9B000B44173300221A707B681B689A
:10432800184604F0F9FC386197F82C30012B0BD1B2
:1043380097F82830012B07D13B69002B04D17B6902
:10434800BC2B01D9BC237B61FA78796813461B0121
:104358009B1A9B000B44183397F828201A70FA7898
:104368007B6998B2796813461B019B1A9B000B4422
:10437800283302461A807B6818687B699BB27C7870
:10438800BA78F978029397F82C30019397F8283087
:104398000093234604F0E8FC0346FB737B68002285
:1043A80083F8D423FB7B18461C37BD4690BD00001C
:1043B80080B582B000AF7860084611461A460346B9
:1043C800FB700B46BB7013467B70FA78796813460E
:1043D8001B019B1A9B000B441733BA781A70FA78A2
:1043E800796813461B019B1A9B000B4426337A7885
:1043F8001A703B7C002B14D1FA78796813461B019C
:104408009B1A9B000B442A3303221A70FA787968A6
:1044180013461B019B1A9B000B4419333A7F1A70F1
:1044280009E0FA78796813461B019B1A9B000B4434
:104438002A3302221A707B78032B00F2028101A230
:1044480052F823F05D44000835460008214500086D
:10445800AB4500083B7C012B40F0F580BB78002B76
:104468002DD13B8B002B09D1FA78796813461B01B3
:104478009B1A9B000B443D3301221A70FA78796825
:1044880013461B019B1A9B000B443D331B78002BE2
:104498000AD1FA78796813461B019B1A9B000B44D2
:1044A8002A3300221A70CEE0FA78796813461B0185
:1044B8009B1A9B000B442A3302221A70C3E0FA7835
:1044C800796813461B019B1A9B000B441A331B780F
:1044D800012B40F0B880FA78796813461B019B1AC3
:1044E8009B000B443C331B78002B0AD1FA7879687F
:1044F80013461B019B1A9B000B442A3300221A7097
:10450800A1E0FA78796813461B019B1A9B000B44BB
:104518002A3302221A7096E0BB78002B20D1FA7851
:10452800796813461B019B1A9B000B443D331B788B
:10453800002B0AD1FA78796813461B019B1A9B0055
:104548000B442A3300221A707EE0FA787968134601
:104558001B019B1A9B000B442A3302221A7073E03A
:10456800FA78796813461B019B1A9B000B443C336D
:104578001B78002B0AD1FA78796813461B019B1A1D
:104588009B000B442A3300221A705DE0FA787968A0
:1045980013461B019B1A9B000B442A3302221A70F4
:1045A80052E0BB78002B20D1FA78796813461B01BA
:1045B8009B1A9B000B443D331B78002B0AD1FA78D9
:1045C800796813461B019B1A9B000B442A3300226F
:1045D8001A7039E0FA78796813461B019B1A9B0018
:1045E8000B442A3302221A702EE0FA7879681346AF
:1045F8001B019B1A9B000B443C331B78002B0AD1F0
:10460800FA78796813461B019B1A9B000B442A33DE
:1046180000221A7018E0FA78796813461B019B1A71
:104628009B000B442A3302221A700DE0FA7879684D
:1046380013461B019B1A9B000B442A3300221A7055
:1046480002E000BF00E000BFFA78796813461B015A
:104658009B1A9B000B442C337A691A60FA78398BC1
:10466800786813461B019B1A9B0003443433196076
:10467800FA78796813461B019B1A9B000B444C334C
:1046880000221A70FA78796813461B019B1A9B005E
:104698000B44383300221A60FA78796813461B01F4
:1046A8009B1A9B000B441533FA781A70FA787968CC
:1046B80013461B019B1A9B000B444D3300221A70B2
:1046C8007B681868FA7813461B019B1A9B00103305
:1046D8007A681344191D7B689B791A4604F070FCAC
:1046E800034618460837BD4680BD00BF80B586B072
:1046F80000AF78607B681B683B613B69FB607B6847
:104708001B68184604F05EF90346012B40F0FB8055
:104718007B681B68184604F021F90346002B00F05B
:10472800F1807B681B68184604F018F9034603F407
:104738000013B3F5001F04D17B681B684FF4001207
:104748005A617B681B68184604F008F9034603F4AD
:104758008013B3F5801F04D17B681B684FF4801267
:104768005A617B681B68184604F0F8F8034603F0A2
:104778008063B3F1806F04D17B681B684FF080625F
:104788005A617B681B68184604F0E8F8034603F092
:104798000203022B03D17B681B6802225A617B68E3
:1047A8001B68184604F0DAF8034603F00053B3F127
:1047B800005F20D17B681B684FF000525A61FB688C
:1047C80003F588631B6803F00103002B13D1102144
:1047D800386903F0CDFF386903F0FCFF7B685B7A2A
:1047E800022B05D17B681B680121184604F0F4F9F7
:1047F800786807F0C1F97B681B68184604F0AEF8C2
:10480800034603F08073B3F1807F02D1786801F02A
:104818004DFD7B681B68184604F0A0F8034603F0BA
:104828000803082B06D1786807F08AF97B681B68AB
:1048380008225A617B681B68184604F08FF8034603
:1048480003F00073B3F1007F39D17B681B68184609
:1048580004F030FEB86000237B6125E07B6903F03B
:104868000F03BA6822FA03F303F00103002B18D0F0
:104878007B695A01FB68134403F5A0631B6803F4C2
:104888000043B3F5004F06D17B69DBB2194678685F
:1048980000F005F905E07B69DBB21946786800F09D
:1048A80067FF7B6901337B617B685B791A467B69AB
:1048B8009342D3D37B681B684FF000725A617B68C0
:1048C8001B68184604F04AF8034603F01003102B3F
:1048D80001D1012300E00023002B14D07B681B6862
:1048E8009A697B681B6822F010029A61786801F067
:1048F800FEFB7B681B689A697B681B6842F01002A4
:104908009A6100E000BF1837BD4680BD80B582B00F
:1049180000AF78607B6893F8D433012B01D1022370
:1049280013E07B68012283F8D4237B681B6801218C
:10493800184604F0B8F97B681B68184603F0AAFE0D
:104948007B68002283F8D423002318460837BD4625
:1049580080BD80B582B000AF78607B6893F8D433AF
:10496800012B01D102230DE07B68012283F8D423B7
:104978007B681B68184604F00BFF7B68002283F8ED
:10498800D423002318460837BD4680BD80B582B0C1
:1049980000AF78607B681B68184604F05AF9034634
:1049A80018460837BD4680BD80B483B000AF786034
:1049B8000B46FB70FA78796813461B019B1A9B001B
:1049C8000B444C331B7818460C37BD465DF8047B06
:1049D800704780B483B000AF78600B46FB70FA78FC
:1049E800796813461B019B1A9B000B4438331B68DC
:1049F80018460C37BD465DF8047B704780B582B019
:104A080000AF78607B681B68184604F09CF9034681
:104A180018460837BD4680BD80B582B000AF7860C3
:104A28007B681B68184604F077F903461846083770
:104A3800BD4680BD80B483B000AF78600B46FB7084
:104A4800FA78796813461B019B1A9B000B441A33AA
:104A580000221A70FA78796813461B019B1A9B008A
:104A68000B441B3300221A70FA78796813461B012D
:104A78009B1A9B000B44253300221A70FA78796838
:104A880013461B019B1A9B000B44243300221A7007
:104A9800002318460C37BD465DF8047B704780B587
:104AA80086B000AF78600B46FB707B681B687B6143
:104AB8007B693B617B681B68FA781146184603F0EE
:104AC80060FF034603F00403042B1AD1FB785A0154
:104AD8003B69134403F5A0631A4604239360FA78EC
:104AE800796813461B019B1A9B000B444D33072220
:104AF8001A707B681B68FA781146184604F0EBFCBC
:104B08009EE07B681B68FA781146184603F039FF67
:104B1800034603F48073B3F5807F1BD1FB785A01F9
:104B28003B69134403F5A0631A464FF480739360FE
:104B3800FA78796813461B019B1A9B000B444D3386
:104B480008221A707B681B68FA781146184604F028
:104B5800C2FC75E07B681B68FA781146184603F0BA
:104B680010FF034603F00803082B1AD1FB785A01FB
:104B78003B69134403F5A0631A4608239360FA7847
:104B8800796813461B019B1A9B000B444D33062280
:104B98001A707B681B68FA781146184604F09BFC6B
:104BA8004EE07B681B68FA781146184603F0E9FE68
:104BB800034603F48063B3F5806F1BD1FB785A0179
:104BC8003B69134403F5A0631A464FF4806393606E
:104BD800FA78796813461B019B1A9B000B444D33E6
:104BE80009221A707B681B68FA781146184604F087
:104BF80072FC25E07B681B68FA781146184603F0BA
:104C0800C0FE034603F08003802B19D1FB785A01BC
:104C18003B69134403F5A0631A4680239360FA782E
:104C2800796813461B019B1A9B000B444D330722DE
:104C38001A707B681B68FA781146184604F04BFC1A
:104C48007B681B68FA781146184603F09AFE0346FB
:104C580003F40073B3F5007F12D17B681B68FA7800
:104C68001146184604F037FCFB785A013B69134497
:104C780003F5A0631A464FF40073936000F075BD06
:104C88007B681B68FA781146184603F07AFE0346DB
:104C980003F00103012B40F02881FB785A013B699E
:104CA800134403F5A0631A4620239360FA787968C1
:104CB80013461B019B1A9B000B441B331B78012BCB
:104CC80019D1FA78796813461B019B1A9B000B448B
:104CD8001B3300221A70FB785A013B69134403F511
:104CE800A0635B68FA7851013A690A4402F5A06248
:104CF80023F4803353607B689B79002B1BD0FA78B0
:104D0800796813461B019B1A9B000B4430331968C2
:104D1800FB785A013B69134403F5A0631B69C3F38D
:104D28001203FA78C91A786813461B019B1A9B006C
:104D3800034438331960FA78796813461B019B1AC3
:104D48009B000B444D3301221A70FA787968134698
:104D58001B019B1A9B000B44443300221A60FB780A
:104D68005A013B69134403F5A0631A460123936073
:104D7800FA78796813461B019B1A9B000B4426336B
:104D88001B78002B0AD0FA78796813461B019B1A06
:104D98009B000B4426331B78022B10D17B681B68C1
:104DA800FA781146184604F096FBFB785A013B69DD
:104DB800134403F5A0631A46102393603DE0FA7884
:104DC800796813461B019B1A9B000B4426331B78FA
:104DD800032B0AD0FA78796813461B019B1A9B00AB
:104DE8000B4426331B78012B27D1FB785A013B69EA
:104DF800134403F5A0631B68FA7851013A690A4421
:104E080002F5A06243F000531360FA7879681346FC
:104E18001B019B1A9B000B444C3301221A70FA7831
:104E2800796813461B019B1A9B000B444C331A7874
:104E3800FB781946786806F0ADFE7B689B79012BF4
:104E48003BD1FA78796813461B019B1A9B000B44E7
:104E580038331968FA78786813461B019B1A9B0047
:104E6800034428331B880B44591EFA787868134684
:104E78001B019B1A9B00034428331B88B1FBF3F3E7
:104E880003F00103002B00F07084FA787968134668
:104E98001B019B1A9B000B443C331B78FA7883F068
:104EA8000103D8B2796813461B019B1A9B000B4477
:104EB8003C3302461A7000F058BCFA7879681346F9
:104EC8001B019B1A9B000B443C331B78FA7883F038
:104ED8000103D8B2796813461B019B1A9B000B4447
:104EE8003C3302461A7000F040BC7B681B68FA78B5
:104EF8001146184603F045FD034603F02003202B16
:104F080031D1FB785A013B69134403F5A0631A4673
:104F180020239360FA78796813461B019B1A9B003B
:104F28000B441A331B78012B40F01F84FA787968F8
:104F380013461B019B1A9B000B441B3301221A705A
:104F4800FA78796813461B019B1A9B000B444D3372
:104F580003221A707B681B68FA781146184604F019
:104F6800BAFA00F002BC7B681B68FA78114618464A
:104F780003F007FD034603F00203022B40F005830C
:104F8800FB785A013B69134403F5A0631A460223D0
:104F98009360FA78796813461B019B1A9B000B44AF
:104FA8004D331B78012B14D1FA78796813461B010D
:104FB8009B1A9B000B444D3302221A70FA787968C9
:104FC80013461B019B1A9B000B444C3301221A7099
:104FD800CCE2FA78796813461B019B1A9B000B44B4
:104FE8004D331B78062B14D1FA78796813461B01C8
:104FF8009B1A9B000B444D3302221A70FA78796889
:1050080013461B019B1A9B000B444C3305221A7054
:10501800ACE2FA78796813461B019B1A9B000B4493
:105028004D331B78072B0BD0FA78796813461B0190
:105038009B1A9B000B444D331B78092B40F0A6802C
:10504800FA78796813461B019B1A9B000B444D3371
:1050580002221A70FA78796813461B019B1A9B0082
:105068000B4444331B68591C786813461B019B1A70
:105078009B00034444331960FA78796813461B018E
:105088009B1A9B000B4444331B68022B43D9FA78C4
:10509800796813461B019B1A9B000B44443300227A
:1050A8001A60FA78796813461B019B1A9B000B4417
:1050B8001A331B78012B23D1FA78796813461B0120
:1050C8009B1A9B000B441B3300221A70FA787968EC
:1050D80013461B019B1A9B000B441C3300221A70B9
:1050E800FB785A013B69134403F5A0635B68FA78BF
:1050F80051013A690A4402F5A06223F480335360EF
:10510800FA78796813461B019B1A9B000B444C33B1
:1051180004221A7029E2FA78796813461B019B1A4F
:105128009B000B444C3302221A70FA7879681346B4
:105138001B019B1A9B000B4426331B78002B0BD0BA
:10514800FA78796813461B019B1A9B000B44263397
:105158001B78022B40F00982FB785A013B69134403
:1051680003F5A0631B68FB60FB6823F08043FB60CA
:10517800FB6843F00043FB60FB785A013B6913442A
:1051880003F5A0631A46FB681360EEE1FA787968C4
:1051980013461B019B1A9B000B444D331B78052BB0
:1051A80040F0C880FA78796813461B019B1A9B0067
:1051B8000B444D3302221A70FA78796813461B01A2
:1051C8009B1A9B000B441B331B78012B40F0CE81AC
:1051D800FA78796813461B019B1A9B000B44263307
:1051E8001B78032B6BD1FA78796813461B019B1A3D
:1051F8009B000B4448331B68591C786813461B01F5
:105208009B1A9B00034448331960FA78796813465F
:105218001B019B1A9B000B4448331B68022B43D984
:10522800FA78796813461B019B1A9B000B44483394
:1052380000221A60FA78796813461B019B1A9B00B2
:105248000B441B3300221A70FA78796813461B0145
:105258009B1A9B000B4444331B68022B09D8FA782D
:10526800796813461B019B1A9B000B441C330122CF
:105278001A70FB785A013B69134403F5A0635B6815
:10528800FA7851013A690A4402F5A06223F480339E
:105298005360FA78796813461B019B1A9B000B44EC
:1052A8004C3304221A7014E0FA78796813461B010B
:1052B8009B1A9B000B444C3302221A7009E0FA78BF
:1052C800796813461B019B1A9B000B444C3302223E
:1052D8001A70FA78796813461B019B1A9B000B44D5
:1052E80026331B78002B0BD0FA78796813461B01FC
:1052F8009B1A9B000B4426331B78022B40F0368107
:10530800FB785A013B69134403F5A0631B68FB60F3
:10531800FB6823F08043FB60FB6843F00043FB60BD
:10532800FB785A013B69134403F5A0631A46FB68EE
:1053380013601BE1FA78796813461B019B1A9B00DE
:105348000B444D331B78032B40F08180FA78796841
:1053580013461B019B1A9B000B444D3302221A7003
:10536800FA78796813461B019B1A9B000B441B3380
:105378001B78012B40F0FA80FA78796813461B01F4
:105388009B1A9B000B444C3302221A70FB785A017B
:105398003B69134403F5A0635B68FA7851013A69E5
:1053A8000A4402F5A06243F480335360FB785A0143
:1053B8003B69134403F5A063DB68FA7851013A6945
:1053C8000A4402F5A06243F04003D360FB785A0117
:1053D8003B69134403F5A063DB68FA7851013A6925
:1053E8000A4402F5A06223F02003D360FA787968B2
:1053F80013461B019B1A9B000B4426331B78002B7A
:105408000BD0FA78796813461B019B1A9B000B4452
:1054180026331B78022B40F0A980FB785A013B69A0
:10542800134403F5A0631B68FB60FB6823F080430B
:10543800FB60FB6843F00043FB60FB785A013B6963
:10544800134403F5A0631A46FB6813608EE0FA78EC
:10545800796813461B019B1A9B000B444D331B783C
:10546800042B43D1FA78796813461B019B1A9B00D9
:105478000B444D3302221A70FA78796813461B01DF
:105488009B1A9B000B444C3302221A70FA787968F5
:1054980013461B019B1A9B000B4426331B78002BD9
:1054A8000AD0FA78796813461B019B1A9B000B44B3
:1054B80026331B78022B59D1FB785A013B691344D8
:1054C80003F5A0631B68FB60FB6823F08043FB6067
:1054D800FB6843F00043FB60FB785A013B691344C7
:1054E80003F5A0631A46FB6813603FE0FA78796811
:1054F80013461B019B1A9B000B444D331B78082B4A
:1055080026D1FA78796813461B019B1A9B000B4435
:105518004D3302221A70FA78796813461B019B1AD8
:105528009B000B4444331B68591C786813461B01C5
:105538009B1A9B00034444331960FA787968134630
:105548001B019B1A9B000B444C3304221A700DE07C
:10555800FA78796813461B019B1A9B000B444D335C
:105568001B78022B00F0008100E000BFFA78796810
:1055780013461B019B1A9B000B444C331A78FB788B
:105588001946786806F006FBEFE07B681B68FA7836
:105598001146184603F0F5F9034603F04003402B83
:1055A8002FD1FB785A013B69134403F5A0631A46CF
:1055B80040239360FA78796813461B019B1A9B0075
:1055C8000B444D3305221A70FA78796813461B018B
:1055D8009B1A9B000B441A331B78002B09D1FA78CD
:1055E800796813461B019B1A9B000B444433002225
:1055F8001A607B681B68FA781146184603F06BFF3F
:10560800B3E07B681B68FA781146184603F0B9F9CD
:10561800034603F01003102B40F0A780FA7879684E
:1056280013461B019B1A9B000B4426331B78032B44
:105638001BD1FA78796813461B019B1A9B000B440F
:10564800443300221A60FA78796813461B019B1AC2
:105658009B000B444D3304221A707B681B68FA7850
:105668001146184603F037FF3FE0FA787968134689
:105678001B019B1A9B000B4426331B78002B0AD076
:10568800FA78796813461B019B1A9B000B44263352
:105698001B78022B29D1FA78796813461B019B1ACB
:1056A8009B000B44443300221A607B689B79002BD3
:1056B8000AD0FA78796813461B019B1A9B000B44A1
:1056C8001B331B78012B10D1FA78796813461B011C
:1056D8009B1A9B000B444D3304221A707B681B688D
:1056E800FA781146184603F0F6FEFA7879681346F8
:1056F8001B019B1A9B000B441B331B78012B29D1E0
:10570800FA78796813461B019B1A9B000B441B33DC
:1057180000221A70FB785A013B69134403F5A06311
:105728005B68FA7851013A690A4402F5A06223F4E9
:1057380080335360FB785A013B69134403F5A06337
:10574800DB68FA7851013A690A4402F5A06243F02D
:105758002003D360FB785A013B69134403F5A06327
:105768001A461023936000E000BF1837BD4680BD7D
:1057780080B586B000AF78600B46FB707B681B680D
:105788007B617B693B617B681B68FA781146184628
:1057980003F0F7F8034603F00403042B1BD1FB784E
:1057A8005A013B69134403F5A0631A460423936026
:1057B800FA78796813461B019B1A9B000B444D33FA
:1057C80007221A707B681B68FA781146184603F09E
:1057D80082FE00F089BC7B681B68FA78114618467F
:1057E80003F0CFF8034603F02003202B40F082801B
:1057F800FB785A013B69134403F5A0631A4620233A
:105808009360FA78796813461B019B1A9B000B4436
:1058180019331B78012B24D1FA78796813461B01B8
:105828009B1A9B000B44193300221A70FA78796886
:1058380013461B019B1A9B000B444C3302221A701F
:10584800FA78796813461B019B1A9B000B444D3369
:1058580003221A707B681B68FA781146184603F011
:105868003AFEFA78796813461B019B1A9B000B4491
:105878001A331B78012B40F03784FA78796813467D
:105888001B019B1A9B000B441B331B78002B40F019
:105898002B84FA78796813461B019B1A9B000B44EA
:1058A80026331B78012B09D0FA78796813461B0137
:1058B8009B1A9B000B441B3301221A70FA787968F3
:1058C80013461B019B1A9B000B444D3303221A708D
:1058D8007B681B68FA781146184603F0FCFDFA78D5
:1058E800796813461B019B1A9B000B444433002222
:1058F8001A60F9E37B681B68FA781146184603F0CA
:1059080040F8034603F40073B3F5007F11D1FB7828
:105918005A013B69134403F5A0631A464FF4007318
:1059280093607B681B68FA781146184603F0D3FD2C
:10593800DAE37B681B68FA781146184603F021F809
:10594800034603F00103012B68D1FA7879681346FE
:105958001B019B1A9B000B44443300221A607B688E
:105968001B68FA781146184603F00BF8034603F053
:105978004003402B12D1FA78796813461B019B1A11
:105988009B000B44193301221A70FB785A013B69BA
:10599800134403F5A0631A4640239360FA787968A4
:1059A80013461B019B1A9B000B441B331B78002BCF
:1059B80019D0FA78796813461B019B1A9B000B448F
:1059C8001B3300221A70FB785A013B69134403F514
:1059D800A0635B68FA7851013A690A4402F5A0624B
:1059E80023F480335360FB785A013B69134403F571
:1059F800A0631A4601239360FA78796813461B015D
:105A08009B1A9B000B444D3301221A707B681B685C
:105A1800FA781146184603F05EFD65E37B681B685B
:105A2800FA781146184602F0ACFF034603F040032B
:105A3800402B39D1FA78796813461B019B1A9B00D1
:105A48000B444D3305221A70FA78796813461B0106
:105A58009B1A9B000B441A331B78002B09D1FA7848
:105A6800796813461B019B1A9B000B4419330122CA
:105A78001A70FA78796813461B019B1A9B000B442D
:105A8800443300221A607B681B68FA78114618466E
:105A980003F021FDFB785A013B69134403F5A06329
:105AA8001A46402393601FE37B681B68FA78114607
:105AB800184602F066FF034603F00803082B1AD1C4
:105AC800FB785A013B69134403F5A0631A4608237F
