:020000040800F2
:1000000000000220611B00080915000811150008F6
:100010001915000821150008291500080000000026
:100020000000000000000000000000003115000882
:100030003F150008000000004D1500085B15000882
:10004000B11B0008B11B0008B11B0008B11B000860
:10005000B11B0008B11B0008B11B0008B11B000850
:10006000B11B0008B11B0008B11B0008B11B000840
:10007000B11B0008B11B0008B11B0008B11B000830
:10008000B11B0008B11B0008B11B0008B11B000820
:10009000B11B0008B11B0008B11B0008B11B000810
:1000A000B11B0008B11B0008B11B0008B11B000800
:1000B000B11B0008B11B0008B11B0008B11B0008F0
:1000C000B11B0008B11B0008B11B0008B11B0008E0
:1000D000B11B0008B11B0008B11B0008B11B0008D0
:1000E000B11B0008B11B0008B11B0008B11B0008C0
:1000F000B11B000869150008B11B0008B11B0008FE
:10010000B11B0008B11B0008B11B0008B11B00089F
:10011000B11B0008B11B0008B11B0008B11B00088F
:10012000B11B0008B11B0008B11B0008B11B00087F
:10013000B11B0008B11B0008B11B0008B11B00086F
:10014000B11B0008B11B0008B11B00087D15000899
:10015000B11B0008B11B0008B11B0008B11B00084F
:10016000B11B0008B11B0008B11B0008B11B00083F
:10017000B11B0008B11B0008B11B00080000000003
:08018000B11B0008B11B0008CF
:1001880010B5054C237833B9044B13B10448AFF3C9
:1001980000800123237010BD5C06002000000000D1
:1001A80054A1000808B5034B1BB103490348AFF33A
:1001B800008008BD000000006006002054A100086F
:1001C80053B94AB9002908BF00281CBF4FF0FF31B6
:1001D8004FF0FF3000F088B9ADF1080C6DE904CE9E
:1001E80000F006F8DDF804E0DDE9022304B070470A
:1001F8002DE9F047089D8E4604468846002B4AD1D3
:100208008A42174662D9B2FA82F64EB1C6F1200385
:1002180001FA06F820FA03F3B74043EA0808B440A5
:100228004FEA174E1FFA87FCB8FBFEF1230C0EFBB2
:10023800118843EA084301FB0CF29A4209D9FB18DA
:1002480001F1FF3080F0EA809A4240F2E7800239FB
:100258003B449A1AA3B2B2FBFEF00EFB102243EA0B
:10026800024300FB0CFC9C4509D9FB1800F1FF3246
:1002780080F0D6809C4540F2D3803B44023840EA67
:100288000140A3EB0C0300211DB1F3400022C5E996
:100298000032BDE8F0878B4205D90DB1C5E90001F0
:1002A80000210846F5E7B3FA83F1002946D17345E2
:1002B80002D3824200F20581841A6EEB0302012008
:1002C8009046002DE5D0C5E90048E2E7002A00F095
:1002D8009080B2FA82F6002E40F0A4808A1A030CAD
:1002E8004FEA174E80B2BCB20121B2FBFEFC0EFBF6
:1002F8001C2243EA024304FB0CF29A4207D9FB187A
:100308000CF1FF3802D29A4200F2E080C4469B1AF0
:10031800B3FBFEF20EFB123340EA034302FB04F484
:100328009C4207D9FB1802F1FF3002D29C4200F22E
:10033800CA8002461B1B42EA0C40A5E7C1F1200611
:100348008B4022FA06F71F430EFA01F420FA06F34F
:100358002EFA06FE4FEA1749234300FA01F81FFA5E
:1003680087FCBEFBF9F01C0C09FB10EE44EA0E44B6
:1003780000FB0CFEA64502FA01F209D93C1900F16E
:10038800FF3A80F09C80A64540F2998002383C44B0
:10039800A4EB0E041FFA83FEB4FBF9F309FB134424
:1003A8004EEA044403FB0CFCA44508D93C1903F1AC
:1003B800FF3E80F08280A4457FD9023B3C4443EA5B
:1003C8000040A4EB0C04A0FB02EC64457346E14634
:1003D80062D35FD05DB1B8EB030264EB090404FAA1
:1003E80006F622FA01F31E43CC40C5E90064002159
:1003F8004FE7B1FBF2FC010C41EA0E4180B240EA42
:1004080001423B4638463C46B846BE462026B1FB2C
:10041800F7F1A2EB080241EA0C4166E7014618E74A
:1004280010462CE7C6F120022EFA02F3B740B1407D
:1004380020FA02F24FEA174E0A43B3FBFEF8BCB2A9
:100448000EFB1833110C41EA034108FB04F9B040D4
:1004580089454FEA104380B23ED9791808F1FF3C2C
:1004680001D289451FD8A1EB0901B1FBFEF909FBAF
:1004780004F80EFB191192B242EA0142424529D210
:10048800BA1809F1FF31C4D24245C2D2A9F102011A
:100498003A44BEE7F0459DD2BEEB02036CEB070C75
:1004A8000138E14696E7A7EB09094944A8F1020C8F
:1004B800B1FBFEF909FB04F8DBE773467FE750461A
:1004C80066E70846FDE63B44023A33E7ACF1020C26
:1004D8003B441CE749469CE7A1EB0901C446B1FB34
:1004E800FEF909FB04F8C4E7704700BF80B584B083
:1004F80000AF03460A46FB711346BB710422012173
:10050800002000F0CBF90346FB7306E0042201212A
:10051800002000F0C3F90346FB7397F90F30002B56
:10052800F4DBFB7903F00B03DBB2B879012200217D
:1005380000F046FB00BF1037BD4680BD80B500AF58
:100548003E210220FFF7D2FFC0210220FFF7CEFF95
:10055800B8210220FFF7CAFF40210220FFF7C6FF9B
:100568003F210220FFF7C2FF3E210120FFF7BEFF17
:10057800C0210120FFF7BAFFB8210120FFF7B6FF1D
:1005880040210120FFF7B2FF3F210120FFF7AEFF16
:1005980000BF80BD80B584B000AF0346FB71002367
:1005A800BB602EE0BB68DBB2483BDBB219460120DA
:1005B800FFF79CFFBB68DBB2483BDBB21946022061
:1005C800FFF794FF0023FB6007E0FB7919460A2038
:1005D800FFF78CFFFB680133FB60FB683F2BF4DD02
:1005E8000023FB6007E0FB7919460920FFF77EFF2F
:1005F800FB680133FB60FB683F2BF4DDBB6801330C
:10060800BB60BB68072BCDDD00BF00BF1037BD4600
:1006180080BD000090B585B000AF0446084611467D
:100628001A462346FB710346BB710B467B71134682
:100638003B71FB79203BDBB23B733B79032B02D147
:100648007B799B007B733B79052B07D17B791A4615
:10065800520013445B00DBB204337B733B79072BF6
:1006680002D17B79DB007B737B7B3F2B05D9092388
:10067800FB737B7B403B7B7301E00A23FB737B7B33
:1006880043F04003FB72FB7B03F00703DBB2FA7A0B
:1006980011461846FFF72AFFBB7963F04703FB7240
:1006A800FB7B03F00703DBB2FA7A11461846FFF723
:1006B8001DFF3B79032B21D10023BB731AE097F967
:1006C8000C2097F90E10344813465B00134403447A
:1006D8000B441B78FB72FB7B43F00803DBB2FA7A0E
:1006E80011461846FFF702FF97F90E30DBB20133C7
:1006F800DBB2BB7397F90E30022BE0DD3B79052B9B
:1007080021D10023BB731AE097F90C2097F90E103A
:10071800224813469B00134403440B441B78FB7286
:10072800FB7B43F00803DBB2FA7A11461846FFF761
:10073800DDFE97F90E30DBB20133DBB2BB7397F9FC
:100748000E30042BE0DD3B79072B21D10023BB734E
:100758001AE097F90C2097F90E1011481346DB00A0
:100768009B1A03440B441B78FB72FB7B43F0080382
:10077800DBB2FA7A11461846FFF7B8FE97F90E3041
:10078800DBB20133DBB2BB7397F90E30062BE0DD29
:1007980000BF1437BD4690BD00000020C4000020F3
:1007A800AC02002080B584B000AF78600B46FB70C7
:1007B8001346BB70BB78032B12D10023FB600CE0FF
:1007C800FB687A6813441878F978FB68DAB203236F
:1007D800FFF720FFFB680133FB60FB681F2BEFDD91
:1007E800BB78052B12D10023FB600CE0FB687A680C
:1007F80013441878F978FB68DAB20523FFF70AFF83
:10080800FB680133FB60FB68132BEFDDBB78072B1C
:1008180012D10023FB600CE0FB687A681344187857
:10082800F978FB68DAB20723FFF7F4FEFB680133B7
:10083800FB60FB680F2BEFDD00BF1037BD4680BDA6
:1008480080B586B000AF4FF47F437B600023BB6068
:100858000023FB603B1D1946034801F04BFC00BF19
:100868001837BD4680BD00BF0010024080B586B075
:1008780000AF4FF47F437B600123BB600023FB6024
:1008880000233B613B1D1946034801F033FC00BFC0
:100898001837BD4680BD00BF0010024080B584B047
:1008A80000AF0346FB710B46BB7113467B71FFF724
:1008B800C7FF7B7903F00103002B06D001224FF418
:1008C8008071BC4801F0CAFD05E000224FF4807138
:1008D800B84801F0C3FD7B7903F00203002B06D072
:1008E80001224FF40071B34801F0B8FD05E0002281
:1008F8004FF40071AF4801F0B1FD7B7903F00403B8
:10090800002B06D001224FF48061AA4801F0A6FD11
:1009180005E000224FF48061A64801F09FFD7B7935
:1009280003F00803002B06D001224FF40061A14810
:1009380001F094FD05E000224FF400619D4801F0AC
:100948008DFD7B7903F01003002B05D001220221D5
:10095800994801F083FD04E000220221964801F045
:100968007DFDFB79032B4FD801A252F823F000BF7D
:1009780089090008AB090008CD090008EF0900083B
:10098800BB79002B06D100224FF400618A4801F0A0
:1009980065FD3AE001224FF40061874801F05EFDF1
:1009A80033E0BB79002B06D100224FF480518248F6
:1009B80001F054FD29E001224FF480517E4801F0F6
:1009C8004DFD22E0BB79002B06D100224FF40051E7
:1009D800794801F043FD18E001224FF400517648B0
:1009E80001F03CFD11E0BB79002B06D100224FF449
:1009F8008041714801F032FD07E001224FF4804147
:100A08006D4801F02BFD00E000BF002201216A487B
:100A180001F024FD4FF48071684801F007FD03469A
:100A2800DB015BB2DB115AB23B7A62F300033B7223
:100A38004FF40071614801F0F9FC0346DB015BB239
:100A4800DB115AB23B7A62F341033B724FF4806187
:100A58005A4801F0EBFC0346DB015BB2DB115AB2EA
:100A68003B7A62F382033B724FF40061534801F012
:100A7800DDFC0346DB015BB2DB115AB23B7A62F361
:100A8800C3033B724FF480514C4801F0CFFC03463E
:100A9800DB015BB2DB115AB23B7A62F304133B729F
:100AA8004FF40051454801F0C1FC0346DB015BB23D
:100AB800DB115AB23B7A62F345133B724FF4804123
:100AC8003E4801F0B3FC0346DB015BB2DB115AB2CE
:100AD8003B7A62F386133B724FF40041374801F0CA
:100AE800A5FC0346DB015BB2DB115AB23B7A62F329
:100AF800C7133B72012201212F4801F0AFFCFB799B
:100B0800032B4FD801A252F823F000BF250B000891
:100B1800470B0008690B00088B0B0008BB79002BFA
:100B280006D101224FF40061234801F097FC3AE016
:100B380000224FF40061204801F090FC33E0BB79BB
:100B4800002B06D101224FF480511B4801F086FC8E
:100B580029E000224FF48051174801F07FFC22E081
:100B6800BB79002B06D101224FF40051124801F045
:100B780075FC18E000224FF400510F4801F06EFC9C
:100B880011E0BB79002B06D101224FF480410A48BD
:100B980001F064FC07E000224FF48041064801F0B0
:100BA8005DFC00E000BF3B7AFB73FB7B1846103707
:100BB800BD4680BD000C0240000402400010024007
:100BC80090B585B000AF0446084611461A4623463C
:100BD800FB710346BB710B467B7113463B71FFF7F4
:100BE80045FEFB793B733B7B03F00103DBB2002B33
:100BF80006D100224FF48071B54801F02FFC05E0C2
:100C080001224FF48071B24801F028FC3B7B03F0CD
:100C18000203DBB2002B06D100224FF40071AC486E
:100C280001F01CFC05E001224FF40071A84801F016
:100C380015FC3B7B03F00403DBB2002B06D100223A
:100C48004FF48061A24801F009FC05E001224FF44D
:100C580080619F4801F002FC3B7B03F00803DBB294
:100C6800002B06D100224FF40061994801F0F6FBF1
:100C780005E001224FF40061954801F0EFFB3B7B52
:100C880003F01003DBB2002B06D100224FF4805191
:100C98008F4801F0E3FB05E001224FF480518C48B6
:100CA80001F0DCFB3B7B03F02003DBB2002B06D119
:100CB80000224FF40051864801F0D0FB05E00122E4
:100CC8004FF40051824801F0C9FB3B7B03F040031D
:100CD800DBB2002B06D100224FF480417C4801F0A2
:100CE800BDFB05E001224FF48041794801F0B6FBD5
:100CF8003B7B23F07F03DBB2002B06D100224FF4AD
:100D08000041734801F0AAFB05E001224FF40041BD
:100D18006F4801F0A3FB3B7903F00103002B06D0D9
:100D280001224FF480716B4801F098FB05E0002226
:100D38004FF48071674801F091FB3B7903F002039F
:100D4800002B06D001224FF40071624801F086FBA7
:100D580005E000224FF400715E4801F07FFB3B790B
:100D680003F00403002B06D001224FF48061594898
:100D780001F074FB05E000224FF48061554801F052
:100D88006DFB3B7903F00803002B06D001224FF4DA
:100D98000061504801F062FB05E000224FF4006159
:100DA8004C4801F05BFB3B7903F01003002B05D0A6
:100DB80001220221484801F051FB04E000220221EF
:100DC800454801F04BFBBB79032B4FD801A252F8E1
:100DD80023F000BFED0D00080F0E0008310E0008CB
:100DE800530E00087B79002B06D100224FF40061D6
:100DF800394801F033FB3AE001224FF400613648EC
:100E080001F02CFB33E07B79002B06D100224FF454
:100E18008051314801F022FB29E001224FF4805132
:100E28002D4801F01BFB22E07B79002B06D1002224
:100E38004FF40051284801F011FB18E001224FF44B
:100E48000051254801F00AFB11E07B79002B06D1FF
:100E580000224FF48041204801F000FB07E0012206
:100E68004FF480411C4801F0F9FA00E000BFBB795B
:100E7800032B55D801A252F823F000BF950E0008A5
:100E8800B70E0008E50E0008070F00087B79002B55
:100E980006D101224FF400610F4801F0DFFA40E06B
:100EA80000224FF400610C4801F0D8FA39E07B7950
:100EB800002B06D101224FF48051074801F0CEFAE9
:100EC8002FE000224FF48051034801F0C7FA28E0D0
:100ED80000100240000C0240000402407B79002B05
:100EE80006D101224FF40051104801F0B7FA18E07A
:100EF80000224FF400510D4801F0B0FA11E07B795F
:100F0800002B06D101224FF48041084801F0A6FACF
:100F180007E000224FF48041044801F09FFA00E006
:100F280000BF00BF1437BD4690BD00BF000402409B
:100F380080B500AF00F0EEFB00F0ECFD00F0FEFB2A
:100F480000F018FC00F074FD00BF80BD80B400AF55
:100F580000BFBD465DF8047B704780B500AF00F068
:100F680025FE00F011F800F0FFF800F0ABF808F0EB
:100F7800A9FC00F073F800F0D3F8FFF7D9FF00F0F0
:100F8800BFFB08F0C5FCFCE780B594B000AF07F1E3
:100F9800200330220021184609F04AF807F10C0313
:100FA80000221A605A609A60DA601A610023BB60F6
:100FB800284B1B6C274A43F080531364254B1B6C4A
:100FC80003F08053BB60BB6800237B60224B1B6827
:100FD800214A43F4804313601F4B1B6803F480438A
:100FE8007B607B6801233B624FF480337B62022382
:100FF800BB634FF48003FB6308233B644FF4A8737F
:101008007B640223BB640723FB6407F120031846B3
:1010180004F048FB0346002B01D000F08BF90F23A6
:10102800FB6002233B6100237B614FF4A053BB614B
:101038004FF48053FB6107F10C030521184604F0B7
:10104800A9FD0346002B01D000F074F900BF50370A
:10105800BD4680BD003802400070004080B500AF3A
:10106800164B174A1A60154B10225A60134B002270
:101078009A60124B0022DA60104B00221A610F4B63
:1010880000225A610D4B00221A760C4B00225A7628
:101098000A4B00229A76094B0022DA76074B002287
:1010A8001A77064B00225A77044800F015FE0346CB
:1010B800002B01D000F03EF900BF80BD780600206B
:1010C8000064004080B500AF124B134A1A60114B00
:1010D800124A5A600F4B00229A600E4B0022DA60C7
:1010E8000C4B4FF480421A610A4B00225A61094B9B
:1010F80000229A61074B0022DA61064B00221A622D
:10110800044803F0D5FA0346002B01D000F012F989
:1011180000BF80BDA006002000540040A08601004A
:1011280080B500AF0E4B0F4A1A600D4B40F24F12BC
:101138005A600B4B00229A60094B4DF6BF22DA60C9
:10114800074B00221A61064B00229A61044804F0FA
:101158002DFF0346002B01D000F0ECF800BF80BD46
:10116800F40600200020004080B58CB000AF07F1E5
:101178001C0300221A605A609A60DA601A61002320
:10118800BB61664B1B6B654A43F004031363634BF7
:101198001B6B03F00403BB61BB6900237B615F4BDE
:1011A8001B6B5E4A43F0800313635C4B1B6B03F0BD
:1011B80080037B617B6900233B61584B1B6B574A5B
:1011C80043F001031363554B1B6B03F001033B61B1
:1011D8003B690023FB60514B1B6B504A43F00203F1
:1011E80013634E4B1B6B03F00203FB60FB68002389
:1011F800BB604A4B1B6B494A43F010031363474BD0
:101208001B6B03F01003BB60BB6800237B60434B80
:101218001B6B424A43F008031363404B1B6B03F0FC
:1012280008037B607B68012201213D4801F016F923
:10123800002247F603013B4801F010F900224FF461
:101248007F41394801F00AF900224FF47F413748BD
:1012580001F004F90123FB6101233B6200237B6257
:101268000023BB6207F11C0319462D4800F042FF1A
:101278000123FB614FF490133B6200237B6207F16B
:101288001C0319462A4800F035FF47F60303FB61A3
:1012980001233B6200237B620023BB6207F11C032E
:1012A8001946204800F026FF0423FB6100233B6217
:1012B80000237B6207F11C0319461A4800F01AFF45
:1012C8004FF47F43FB6101233B6200237B620023D1
:1012D800BB6207F11C031946134800F00BFF4FF4DB
:1012E8007F43FB6101233B6200237B620023BB62D7
:1012F80007F11C0319460D4800F0FCFE2023FB6192
:1013080000233B6200237B6207F11C031946074850
:1013180000F0F0FE00BF3037BD4680BD0038024007
:10132800000802400004024000100240000C024085
:101338000000024080B400AF72B600BF00BFFDE7F6
:1013480080B582B000AF00237B60104B5B6C0F4A06
:1013580043F4804353640D4B5B6C03F480437B6020
:101368007B6800233B60094B1B6C084A43F08053A1
:101378001364064B1B6C03F080533B603B680720EB
:1013880000F076FE00BF0837BD4680BD0038024039
:1013980080B58AB000AF786007F1140300221A60A4
:1013A8005A609A60DA601A617B681B68194A93422E
:1013B8002BD100233B61184B1B6C174A43F0007379
:1013C8001364154B1B6C03F000733B613B690023EE
:1013D800FB60114B1B6B104A43F0080313630E4B61
:1013E8001B6B03F00803FB60FB6803237B6102238C
:1013F800BB610023FB6103233B6209237B6207F186
:1014080014031946054800F075FE00BF2837BD468D
:1014180080BD00BF0064004000380240000C02405C
:1014280080B58AB000AF786007F1140300221A6013
:101438005A609A60DA601A617B681B68194A93429D
:101448002CD100233B61184B1B6B174A43F0020356
:101458001363154B1B6B03F002033B613B694FF4AD
:1014680010737B611223BB610123FB6100233B6284
:1014780004237B6207F1140319460C4800F03AFE76
:101488000023FB60084B1B6C074A43F400131364EA
:10149800054B1B6C03F40013FB60FB6800BF283787
:1014A800BD4680BD005400400038024000040240A0
:1014B80080B584B000AF78607B681B680E4A9342A1
:1014C80015D10023FB600D4B1B6C0C4A43F4807351
:1014D80013640A4B1B6C03F48073FB60FB680022E7
:1014E80000212D2000F0CFFD2D2000F0E8FD00BFE9
:1014F8001037BD4680BD00BF0020004000380240C4
:1015080080B400AF00BFFDE780B400AF00BFFDE7C7
:1015180080B400AF00BFFDE780B400AF00BFFDE7B7
:1015280080B400AF00BFFDE780B400AF00BFBD4688
:101538005DF8047B704780B400AF00BFBD465DF81E
:10154800047B704780B400AF00BFBD465DF8047BE4
:10155800704780B500AF00F07BFB00BF80BD000086
:1015680080B500AF024804F0E1FD00BF80BD00BFB8
:10157800F406002080B500AF024801F045FA00BF2C
:1015880080BD00BF3C0B002080B586B000AF7860FE
:10159800144A154BD31A7B617B693B61134B1B685B
:1015A800002B02D1114B124A1A60104B1A687B6843
:1015B80013443A699A4207D208F052FD03460C22B6
:1015C8001A604FF0FF3309E0084B1B68FB60074BBC
:1015D8001A687B681344054A1360FB681846183775
:1015E800BD4680BD00000220000400003C0700202A
:1015F8006810002080B400AF064BD3F88830054A45
:1016080043F47003C2F8883000BFBD465DF8047B20
:10161800704700BF00ED00E080B582B002AF012343
:1016280000930123164A7021164803F083FA0346F3
:10163800002B03D1124B1A78134B5A7001230093D5
:101648000123124A74210F4803F074FA0346002B51
:1016580003D10E4B1A780C4B9A7001230093012387
:101668000B4A7621074803F065FA0346002B03D19D
:10167800074B1A78044BDA7000BFBD4680BD00BF27
:1016880046070020A006002040070020470700204A
:101698004807002080B584B002AF0D4B1B79FB7161
:1016A8000B4B5B79BB71FA1D012300930123782151
:1016B800084803F041F9BA1D0123009301237A2158
:1016C800044803F039F900BF0837BD4680BD00BFA4
:1016D80040070020A006002080B582B000AF7860E7
:1016E8007B68054A934202D1044B1B68984700BFA8
:1016F8000837BD4680BD00BFF40600204C07002017
:1017080080B500AF024804F0A1FC00BF80BD00BF57
:10171800F406002080B400AF034B044A1A6000BFEF
:10172800BD465DF8047B70474C070020550F000844
:1017380080B500AFFFF770FF00BF80BD80B400AF79
:10174800034B044A1A6000BFBD465DF8047B70472E
:10175800500700203917000880B500AF044BFE225F
:101768001A71034B7F225A71FFF794FF00BF80BDA7
:101778004007002080B400AF034B044A5A6000BF02
:10178800BD465DF8047B70475007002061170008CC
:1017980080B485B000AF03463960FB710023FB605D
:1017A80014E0FA79FB68C3F1070342FA03F303F084
:1017B8000103002B01D0312100E03021FB683A6899
:1017C80013440A461A70FB680133FB60FB68072B59
:1017D800E7DD00BF00BF1437BD465DF8047B7047E6
:1017E80080B58AB000AF914B5B7807F120021146B3
:1017F8001846FFF7CDFF8D4B9B7807F1180211466D
:101808001846FFF7C5FF894BDB7807F11002114630
:101818001846FFF7BDFF854B1B7907F108021146F3
:101828001846FFF7B5FF814B5B793A4611461846D3
:10183800FFF7AEFF387A052305220121FEF7EAFEFD
:10184800787A052306220121FEF7E4FEB87A0523FB
:1018580007220121FEF7DEFEF87A0523082201217E
:10186800FEF7D8FE387B05230C220121FEF7D2FEB5
:10187800787B05230D220121FEF7CCFEB87B0523DA
:101888000E220121FEF7C6FEF87B05230F22012157
:10189800FEF7C0FE3878052305220221FEF7BAFEBE
:1018A8007878052306220221FEF7B4FEB8780523CE
:1018B80007220221FEF7AEFEF8780523082202214E
:1018C800FEF7A8FE387905230C220221FEF7A2FEB6
:1018D800787905230D220221FEF79CFEB8790523AD
:1018E8000E220221FEF796FEF87905230F22022127
:1018F800FEF790FE97F82000052305220321FEF746
:1019080089FE97F82100052306220321FEF782FEAF
:1019180097F82200052307220321FEF77BFE97F89C
:101928002300052308220321FEF774FE97F82400FC
:1019380005230C220321FEF76DFE97F825000523E9
:101948000D220321FEF766FE97F8260005230E22D6
:101958000321FEF75FFE97F8270005230F220321D6
:10196800FEF758FE387E052305220421FEF752FEB5
:10197800787E052306220421FEF74CFEB87E052357
:1019880007220421FEF746FEF87E052308220421DB
:10199800FEF740FE387F05230C220421FEF73AFEAD
:1019A800787F05230D220421FEF734FEB87F052336
:1019B8000E220421FEF72EFEF87F05230F220421B4
:1019C800FEF728FE387C052305220521FEF722FEB6
:1019D800787C052306220521FEF71CFEB87C05232A
:1019E80007220521FEF716FEF87C052308220521AB
:1019F800FEF710FE387D05230C220521FEF70AFEAE
:101A0800787D05230D220521FEF704FEB87D052308
:101A18000E220521FEF7FEFDF87D05230F22052184
:101A2800FEF7F8FD00BF2837BD4680BD40070020FF
:101A380080B500AF00224FF40061214800F00EFD90
:101A480001224FF480511E4800F008FD01224FF496
:101A580000511B4800F002FD01224FF48041184854
:101A680000F0FCFC642000F013F9FEF767FD642029
:101A780000F00EF90020FEF78DFD05220021114827
:101A8800FEF790FE052201210F48FEF78BFE052286
:101A980002210E48FEF786FE052203210C48FEF7B8
:101AA80081FE052204210B48FEF77CFE0522052154
:101AB8000948FEF777FE094B094A9A6000BF80BDC6
:101AC80000040240580500206F050020860500200C
:101AD8009D050020B4050020CB05002050070020FC
:101AE800E917000880B582B000AF0023FB7107E05A
:101AF800FB79074A52F823309847FB790133FB7189
:101B0800FB79022BF4D900BF00BF0837BD4680BD62
:101B18005007002080B483B000AF0023FB7107E0BA
:101B2800FB79094A094942F82310FB790133FB7113
:101B3800FB79022BF4D9064B064A1A6000BF0C3712
:101B4800BD465DF8047B704750070020550F00081C
:101B58004C070020ED1A0008DFF834D0FFF74AFDE3
:101B68000C480D490D4A002302E0D458C4500433F0
:101B7800C4188C42F9D30A4A0A4C002301E01360C6
:101B88000432A242FBD308F071FAFFF7E6F9704776
:101B980000000220000000205C06002098A1000838
:101BA8005C06002064100020FEE7000080B500AF4E
:101BB8000E4B1B680D4A43F4007313600B4B1B68F4
:101BC8000A4A43F480631360084B1B68074A43F4CE
:101BD80080731360032000F04BFA002000F008F82F
:101BE800FFF7AEFB0023184680BD00BF003C024053
:101BF80080B582B000AF7860124B1A68124B1B7820
:101C080019464FF47A73B3FBF1F3B2FBF3F31846BA
:101C180000F063FA0346002B01D001230EE07B6835
:101C28000F2B0AD8002279684FF0FF3000F02BFA0A
:101C3800064A7B681360002300E001231846083732
:101C4800BD4680BD54050020E8050020E4050020BD
:101C580080B400AF064B1B781A46064B1B6813442A
:101C6800044A136000BFBD465DF8047B704700BF9F
:101C7800E80500205C07002080B400AF034B1B6818
:101C88001846BD465DF8047B704700BF5C0700201E
:101C980080B584B000AF7860FFF7EEFFB8607B686E
:101CA800FB60FB68B3F1FF3F05D00A4B1B781A466F
:101CB800FB681344FB6000BFFFF7DEFF0246BB680A
:101CC800D31AFA689A42F7D800BF00BF1037BD464A
:101CD80080BD00BFE805002080B584B000AF786003
:101CE8007B68002B01D10123EDE07B6893F820305D
:101CF800DBB2002B02D17868FFF74AFB7B681B68D0
:101D08001A687B681B6842F001021A60FFF7B4FF8B
:101D1800F86012E0FFF7B0FF0246FB68D31A0A2BFF
:101D28000BD97B685B6A43F400327B685A627B6834
:101D3800052283F820200123C5E07B681B685B68C7
:101D480003F00103002BE5D07B681B681A687B68E9
:101D58001B6822F002021A60FFF78EFFF86012E09B
:101D6800FFF78AFF0246FB68D31A0A2B0BD97B6858
:101D78005B6A43F400327B685A627B68052283F809
:101D8800202001239FE07B681B685B6803F0020347
:101D9800002BE5D17B681B7E012B08D17B681B6873
:101DA8001A687B681B6842F080021A6007E07B684B
:101DB8001B681A687B681B6822F080021A607B68BF
:101DC8005B7E012B08D17B681B681A687B681B68DF
:101DD80042F040021A6007E07B681B681A687B685B
:101DE8001B6822F040021A607B689B7E012B08D199
:101DF8007B681B681A687B681B6842F020021A60BF
:101E080007E07B681B681A687B681B6822F0200261
:101E18001A607B68DB7E012B08D17B681B681A6817
:101E28007B681B6822F010021A6007E07B681B6859
:101E38001A687B681B6842F010021A607B681B7F77
:101E4800012B08D17B681B681A687B681B6842F005
:101E580008021A6007E07B681B681A687B681B68C1
:101E680022F008021A607B685B7F012B08D17B682F
:101E78001B681A687B681B6842F004021A6007E056
:101E88007B681B681A687B681B6822F004021A606A
:101E98007B689A687B68DB681A437B681B691A430E
:101EA8007B685B6942EA03017B685B685A1E7B6852
:101EB8001B680A43DA617B6800225A627B68012248
:101EC80083F82020002318461037BD4680BD000047
:101ED80080B485B000AF78607B6803F00703FB60CF
:101EE8000C4BDB68BB60BA684FF6FF031340BB605E
:101EF800FB681A02BB68134343F0BF6343F4003323
:101F0800BB60044ABB68D36000BF1437BD465DF8A8
:101F1800047B704700ED00E080B400AF044BDB6841
:101F28001B0A03F007031846BD465DF8047B70479B
:101F380000ED00E080B483B000AF0346FB7197F971
:101F48000730002B0BDBFB7903F01F02074997F9D9
:101F580007305B09012000FA02F241F8232000BF94
:101F68000C37BD465DF8047B704700BF00E100E018
:101F780080B483B000AF03463960FB7197F907302E
:101F8800002B0ADB3B68DAB20C4997F907301201DB
:101F9800D2B20B4483F800230AE03B68DAB208495E
:101FA800FB7903F00F03043B1201D2B20B441A76FB
:101FB80000BF0C37BD465DF8047B704700E100E0C8
:101FC80000ED00E080B489B000AFF860B9607A60D5
:101FD800FB6803F00703FB61FB69C3F10703042BEC
:101FE80028BF0423BB61FB690433062B02D9FB69B4
:101FF800033B00E000237B614FF0FF32BB6902FA2C
:1020080003F3DA43BB681A407B699A404FF0FF310B
:102018007B6901FA03F3D9437B680B4013431846E5
:102028002437BD465DF8047B7047000080B582B058
:1020380000AF78607B68013BB3F1807F01D3012357
:102048000FE00A4A7B68013B53600F214FF0FF30D5
:10205800FFF78EFF054B00229A60044B07221A6097
:10206800002318460837BD4680BD00BF10E000E0D9
:1020780080B582B000AF78607868FFF729FF00BFAD
:102088000837BD4680BD80B586B000AF0346B9604D
:102098007A60FB7300237B61FFF73EFF78617A6803
:1020A800B9687869FFF78EFF024697F90F30114635
:1020B8001846FFF75DFF00BF1837BD4680BD80B5E5
:1020C80082B000AF0346FB7197F907301846FFF757
:1020D80031FF00BF0837BD4680BD80B582B000AF74
:1020E80078607868FFF7A2FF034618460837BD46B0
:1020F80080BD000080B489B000AF786039600023EB
:102108007B6100233B610023BB610023FB616BE122
:102118000122FB6902FA03F37B613B681B687A6959
:1021280013403B613A697B699A4240F05A813B68A7
:102138005B6803F00303012B05D03B685B6803F081
:102148000303022B30D17B689B68BB61FB695B0092
:10215800032202FA03F3DB43BA691340BB613B680D
:10216800DA68FB695B0002FA03F3BA691343BB61DF
:102178007B68BA699A607B685B68BB610122FB690E
:1021880002FA03F3DB43BA691340BB613B685B683F
:102198001B0903F00102FB6902FA03F3BA6913434E
:1021A800BB617B68BA695A603B685B6803F00303EC
:1021B800032B17D07B68DB68BB61FB695B000322DC
:1021C80002FA03F3DB43BA691340BB613B689A68C0
:1021D800FB695B0002FA03F3BA691343BB617B68CE
:1021E800BA69DA603B685B6803F00303022B23D10A
:1021F800FB69DA087B68083253F82230BB61FB6957
:1022080003F007039B000F2202FA03F3DB43BA69CA
:102218001340BB613B681A69FB6903F007039B0025
:1022280002FA03F3BA691343BB61FB69DA087B68F6
:102238000832B96943F822107B681B68BB61FB69E7
:102248005B00032202FA03F3DB43BA691340BB6164
:102258003B685B6803F00302FB695B0002FA03F367
:10226800BA691343BB617B68BA691A603B685B68EB
:1022780003F44033002B00F0B4800023FB60604B74
:102288005B6C5F4A43F4804353645D4B5B6C03F4BF
:102298008043FB60FB685B4AFB699B08023352F88A
:1022A8002330BB61FB6903F003039B000F2202FA92
:1022B80003F3DB43BA691340BB617B68524A93421C
:1022C8002BD07B68514A934225D07B68504A934271
:1022D8001FD07B684F4A934219D07B684E4A93427D
:1022E80013D07B684D4A93420DD07B684C4A934289
:1022F80007D07B684B4A934201D107230EE008239D
:102308000CE006230AE0052308E0042306E0032383
:1023180004E0022302E0012300E00023FA6902F04E
:10232800030292009340BA691343BB613549FB69C4
:102338009B080233BA6941F823203B4B9B68BB6179
:102348003B69DB43BA691340BB613B685B6803F4D4
:102358008013002B03D0BA693B691343BB61324A2F
:10236800BB699360304BDB68BB613B69DB43BA698F
:102378001340BB613B685B6803F40013002B03D078
:10238800BA693B691343BB61274ABB69D360264BD3
:102398005B68BB613B69DB43BA691340BB613B685F
:1023A8005B6803F40033002B03D0BA693B6913431D
:1023B800BB611D4ABB6953601B4B1B68BB613B6912
:1023C800DB43BA691340BB613B685B6803F4803345
:1023D800002B03D0BA693B691343BB61124ABB693E
:1023E8001360FB690133FB61FB690F2B7FF690AE2D
:1023F80000BF00BF2437BD465DF8047B704700BFAF
:102408000038024000380140000002400004024049
:1024180000080240000C0240001002400014024074
:1024280000180240001C0240003C014080B485B006
:1024380000AF78600B467B807B681A697B88134005
:10244800002B02D00123FB7301E00023FB73FB7B0D
:1024580018461437BD465DF8047B704780B483B0D6
:1024680000AF78600B467B8013467B707B78002B2F
:1024780003D07A887B689A6103E07B881A047B68BA
:102488009A6100BF0C37BD465DF8047B704780B584
:1024980086B002AF78607B68002B01D1012359E038
:1024A8007B681B68FB607B6893F8D533DBB2002B35
:1024B80006D17B68002283F8D423786807F060FA95
:1024C8007B68032283F8D523FB68B3F1A04F02D1C0
:1024D8007B6800229A717B681B68184604F06DF8C7
:1024E8007B6818687B681A7C8DF8002004330ECB53
:1024F80003F0EEFF0346002B05D07B68022283F829
:10250800D523012326E07B681B680121184604F0C7
:1025180065F80346002B05D07B68022283F8D52393
:10252800012317E07B6818687B681A7C8DF8002007
:1025380004330ECB04F00EFA0346002B05D07B685B
:10254800022283F8D523012304E07B68012283F863
:10255800D523002318461037BD4680BD90B58BB0F3
:1025680004AF7860084611461A460346FB700B46CE
:10257800BB7013467B703B8E7B617B6893F8D433CA
:10258800012B01D102239DE07B68012283F8D4232B
:10259800FA78796813461B019B1A9B000B44193380
:1025A80000221A70FA78796813461B019B1A9B005F
:1025B8000B4414337A781A70FA78796813461B0139
:1025C8009B1A9B000B441533FA781A70FA787968CD
:1025D80013461B019B1A9B000B44263397F82C20AB
:1025E8001A70FA78BB7803F07F03D8B2796813467B
:1025F8001B019B1A9B000B44163302461A70FB788A
:102608001946786800F0A4FB97F90230002B0ADA23
:10261800FA78796813461B019B1A9B000B44173301
:1026280001221A7009E0FA78796813461B019B1A8F
:102638009B000B44173300221A707B681B681846EE
:1026480004F0ECFA386197F82C30012B0BD197F88D
:102658002830012B07D13B69002B04D17B69BC2BA7
:1026680001D9BC237B61FA78796813461B019B1A50
:102678009B000B44183397F828201A70FA787B6966
:1026880098B2796813461B019B1A9B000B442833A8
:1026980002461A807B6818687B699BB27C78BA7896
:1026A800F978029397F82C30019397F82830009323
:1026B800234604F0DBFA0346FB737B68002283F8A9
:1026C800D423FB7B18461C37BD4690BD80B582B02D
:1026D80000AF7860084611461A460346FB700B4661
:1026E800BB7013467B70FA78796813461B019B1AF6
:1026F8009B000B441733BA781A70FA787968134636
:102708001B019B1A9B000B4426337A781A703B7C7A
:10271800002B14D1FA78796813461B019B1A9B0089
:102728000B442A3303221A70FA78796813461B017E
:102738009B1A9B000B4419333A7F1A7009E0FA7808
:10274800796813461B019B1A9B000B442A3302220B
:102758001A707B78032B00F2028101A252F823F051
:1027680079270008512900083D280008C7280008D3
:102778003B7C012B40F0F580BB78002B2DD13B8BA7
:10278800002B09D1FA78796813461B019B1A9B0024
:102798000B443D3301221A70FA78796813461B01FD
:1027A8009B1A9B000B443D331B78002B0AD1FA7807
:1027B800796813461B019B1A9B000B442A3300229D
:1027C8001A70CEE0FA78796813461B019B1A9B00B1
:1027D8000B442A3302221A70C3E0FA787968134648
:1027E8001B019B1A9B000B441A331B78012B40F0EA
:1027F800B880FA78796813461B019B1A9B000B4432
:102808003C331B78002B0AD1FA78796813461B01F0
:102818009B1A9B000B442A3300221A70A1E0FA7815
:10282800796813461B019B1A9B000B442A3302222A
:102838001A7096E0BB78002B20D1FA787968134695
:102848001B019B1A9B000B443D331B78002B0AD1BC
:10285800FA78796813461B019B1A9B000B442A33AC
:1028680000221A707EE0FA78796813461B019B1AD9
:102878009B000B442A3302221A7073E0FA787968B5
:1028880013461B019B1A9B000B443C331B78002BFF
:102898000AD1FA78796813461B019B1A9B000B44EE
:1028A8002A3300221A705DE0FA78796813461B0112
:1028B8009B1A9B000B442A3302221A7052E0BB7801
:1028C800002B20D1FA78796813461B019B1A9B00CC
:1028D8000B443D331B78002B0AD1FA7879681346EC
:1028E8001B019B1A9B000B442A3300221A7039E003
:1028F800FA78796813461B019B1A9B000B442A330C
:1029080002221A702EE0FA78796813461B019B1A86
:102918009B000B443C331B78002B0AD1FA7879686A
:1029280013461B019B1A9B000B442A3300221A7082
:1029380018E0FA78796813461B019B1A9B000B4430
:102948002A3302221A700DE0FA78796813461B01BF
:102958009B1A9B000B442A3300221A7002E000BF26
:1029680000E000BFFA78796813461B019B1A9B00A8
:102978000B442C337A691A60FA78398B78681346D5
:102988001B019B1A9B00034434331960FA78796859
:1029980013461B019B1A9B000B444C3300221A70F0
:1029A800FA78796813461B019B1A9B000B4438334D
:1029B80000221A60FA78796813461B019B1A9B005B
:1029C8000B441533FA781A70FA78796813461B01A4
:1029D8009B1A9B000B444D3300221A707B681868C1
:1029E800FA7813461B019B1A9B0010337A6813442C
:1029F800191D7B689B791A4604F064FA0346184649
:102A08000837BD4680BD00BF80B586B000AF78608E
:102A18007B681B683B613B69FB607B681B681846E9
:102A280003F052FF0346012B40F0FB807B681B68D4
:102A3800184603F015FF0346002B00F0F1807B6871
:102A48001B68184603F00CFF034603F40013B3F5A4
:102A5800001F04D17B681B684FF400125A617B6821
:102A68001B68184603F0FCFE034603F48013B3F515
:102A7800801F04D17B681B684FF480125A617B6801
:102A88001B68184603F0ECFE034603F08063B3F1BD
:102A9800806F04D17B681B684FF080625A617B6845
:102AA8001B68184603F0DCFE034603F00203022B02
:102AB80003D17B681B6802225A617B681B68184631
:102AC80003F0CEFE034603F00053B3F1005F20D1BC
:102AD8007B681B684FF000525A61FB6803F58863F6
:102AE8001B6803F00103002B13D11021386903F090
:102AF800C1FD386903F0F0FD7B685B7A022B05D1D4
:102B08007B681B680121184603F0E8FF786806F027
:102B1800B5FF7B681B68184603F0A2FE034603F066
:102B28008073B3F1807F02D1786801F04DFD7B6836
:102B38001B68184603F094FE034603F00803082BAD
:102B480006D1786806F07EFF7B681B6808225A6108
:102B58007B681B68184603F083FE034603F0007386
:102B6800B3F1007F39D17B681B68184604F024FC58
:102B7800B86000237B6125E07B6903F00F03BA6826
:102B880022FA03F303F00103002B18D07B695A01E2
:102B9800FB68134403F5A0631B6803F40043B3F513
:102BA800004F06D17B69DBB21946786800F005F959
:102BB80005E07B69DBB21946786800F067FF7B693E
:102BC80001337B617B685B791A467B699342D3D377
:102BD8007B681B684FF000725A617B681B68184657
:102BE80003F03EFE034603F01003102B01D101232E
:102BF80000E00023002B14D07B681B689A697B686F
:102C08001B6822F010029A61786801F0FEFB7B686D
:102C18001B689A697B681B6842F010029A6100E0A1
:102C280000BF1837BD4680BD80B582B000AF786060
:102C38007B6893F8D433012B01D1022313E07B681E
:102C4800012283F8D4237B681B680121184603F00E
:102C5800ACFF7B681B68184603F09EFC7B6800226B
:102C680083F8D423002318460837BD4680BD80B5B5
:102C780082B000AF78607B6893F8D433012B01D120
:102C880002230DE07B68012283F8D4237B681B684C
:102C9800184604F0FFFC7B68002283F8D423002345
:102CA80018460837BD4680BD80B582B000AF786051
:102CB8007B681B68184603F04EFF03461846083722
:102CC800BD4680BD80B483B000AF78600B46FB7012
:102CD800FA78796813461B019B1A9B000B444C3306
:102CE8001B7818460C37BD465DF8047B704780B4E6
:102CF80083B000AF78600B46FB70FA7879681346AA
:102D08001B019B1A9B000B4438331B6818460C3771
:102D1800BD465DF8047B704780B582B000AF78602F
:102D28007B681B68184603F090FF0346184608376F
:102D3800BD4680BD80B582B000AF78607B681B68F7
:102D4800184603F06BFF034618460837BD4680BD9A
:102D580080B483B000AF78600B46FB70FA7879686E
:102D680013461B019B1A9B000B441A3300221A704E
:102D7800FA78796813461B019B1A9B000B441B3396
:102D880000221A70FA78796813461B019B1A9B0077
:102D98000B44253300221A70FA78796813461B0110
:102DA8009B1A9B000B44243300221A7000231846F8
:102DB8000C37BD465DF8047B704780B586B000AF20
:102DC80078600B46FB707B681B687B617B693B61A5
:102DD8007B681B68FA781146184603F054FD0346D1
:102DE80003F00403042B1AD1FB785A013B691344FE
:102DF80003F5A0631A4604239360FA7879681346AA
:102E08001B019B1A9B000B444D3307221A707B68E9
:102E18001B68FA781146184604F0DFFA9EE07B68D2
:102E28001B68FA781146184603F02DFD034603F493
:102E38008073B3F5807F1BD1FB785A013B6913443B
:102E480003F5A0631A464FF480739360FA787968A3
:102E580013461B019B1A9B000B444D3308221A7022
:102E68007B681B68FA781146184604F0B6FA75E0D4
:102E78007B681B68FA781146184603F004FD034680
:102E880003F00803082B1AD1FB785A013B69134455
:102E980003F5A0631A4608239360FA787968134605
:102EA8001B019B1A9B000B444D3306221A707B684A
:102EB8001B68FA781146184604F08FFA4EE07B68D2
:102EC8001B68FA781146184603F0DDFC034603F444
:102ED8008063B3F5806F1BD1FB785A013B691344BB
:102EE80003F5A0631A464FF480639360FA78796813
:102EF80013461B019B1A9B000B444D3309221A7081
:102F08007B681B68FA781146184604F066FA25E0D3
:102F18007B681B68FA781146184603F0B4FC034630
:102F280003F08003802B19D1FB785A013B691344C5
:102F380003F5A0631A4680239360FA7879681346EC
:102F48001B019B1A9B000B444D3307221A707B68A8
:102F58001B68FA781146184604F03FFA7B681B682C
:102F6800FA781146184603F08EFC034603F4007302
:102F7800B3F5007F12D17B681B68FA7811461846B2
:102F880004F02BFAFB785A013B69134403F5A0635C
:102F98001A464FF40073936000F075BD7B681B6898
:102FA800FA781146184603F06EFC034603F0010355
:102FB800012B40F02881FB785A013B69134403F543
:102FC800A0631A4620239360FA78796813461B0198
:102FD8009B1A9B000B441B331B78012B19D1FA78E1
:102FE800796813461B019B1A9B000B441B33002274
:102FF8001A70FB785A013B69134403F5A0635B68B8
:10300800FA7851013A690A4402F5A06223F4803340
:1030180053607B689B79002B1BD0FA78796813463C
:103028001B019B1A9B000B4430331968FB785A012B
:103038003B69134403F5A0631B69C3F31203FA78D1
:10304800C91A786813461B019B1A9B00034438333E
:103058001960FA78796813461B019B1A9B000B4488
:103068004D3301221A70FA78796813461B019B1AAE
:103078009B000B44443300221A60FB785A013B69D9
:10308800134403F5A0631A4601239360FA7879681C
:1030980013461B019B1A9B000B4426331B78002BFD
:1030A8000AD0FA78796813461B019B1A9B000B44D7
:1030B80026331B78022B10D17B681B68FA781146DF
:1030C800184604F08AF9FB785A013B69134403F562
:1030D800A0631A46102393603DE0FA787968134696
:1030E8001B019B1A9B000B4426331B78032B0AD029
:1030F800FA78796813461B019B1A9B000B44263308
:103108001B78012B27D1FB785A013B69134403F53F
:10311800A0631B68FA7851013A690A4402F5A06273
:1031280043F000531360FA78796813461B019B1A21
:103138009B000B444C3301221A70FA7879681346C5
:103148001B019B1A9B000B444C331A78FB781946D9
:10315800786806F0A1FC7B689B79012B3BD1FA7853
:10316800796813461B019B1A9B000B443833196876
:10317800FA78786813461B019B1A9B00034428338E
:103188001B880B44591EFA78786813461B019B1A52
:103198009B00034428331B88B1FBF3F303F00103BE
:1031A800002B00F07084FA78796813461B019B1A8B
:1031B8009B000B443C331B78FA7883F00103D8B2A8
:1031C800796813461B019B1A9B000B443C3302464B
:1031D8001A7000F058BCFA78796813461B019B1ADC
:1031E8009B000B443C331B78FA7883F00103D8B278
:1031F800796813461B019B1A9B000B443C3302461B
:103208001A7000F040BC7B681B68FA7811461846B3
:1032180003F039FB034603F02003202B31D1FB7860
:103228005A013B69134403F5A0631A4620239360AF
:10323800FA78796813461B019B1A9B000B441A33D2
:103248001B78012B40F01F84FA78796813461B011C
:103258009B1A9B000B441B3301221A70FA78796879
:1032680013461B019B1A9B000B444D3303221A7013
:103278007B681B68FA781146184604F0AEF800F02F
:1032880002BC7B681B68FA781146184603F0FBFA03
:10329800034603F00203022B40F00583FB785A0132
:1032A8003B69134403F5A0631A4602239360FA7836
:1032B800796813461B019B1A9B000B444D331B78FE
:1032C800012B14D1FA78796813461B019B1A9B00CD
:1032D8000B444D3302221A70FA78796813461B01A1
:1032E8009B1A9B000B444C3301221A70CCE2FA78EB
:1032F800796813461B019B1A9B000B444D331B78BE
:10330800062B14D1FA78796813461B019B1A9B0087
:103318000B444D3302221A70FA78796813461B0160
:103328009B1A9B000B444C3305221A70ACE2FA78C6
:10333800796813461B019B1A9B000B444D331B787D
:10334800072B0BD0FA78796813461B019B1A9B0050
:103358000B444D331B78092B40F0A680FA78796826
:1033680013461B019B1A9B000B444D3302221A7013
:10337800FA78796813461B019B1A9B000B44443367
:103388001B68591C786813461B019B1A9B00034451
:1033980044331960FA78796813461B019B1A9B001D
:1033A8000B4444331B68022B43D9FA7879681346D7
:1033B8001B019B1A9B000B44443300221A60FA78C5
:1033C800796813461B019B1A9B000B441A331B7820
:1033D800012B23D1FA78796813461B019B1A9B00AD
:1033E8000B441B3300221A70FA78796813461B01C4
:1033F8009B1A9B000B441C3300221A70FB785A015D
:103408003B69134403F5A0635B68FA7851013A6994
:103418000A4402F5A06223F480335360FA7879688D
:1034280013461B019B1A9B000B444C3304221A7051
:1034380029E2FA78796813461B019B1A9B000B4412
:103448004C3302221A70FA78796813461B019B1ACA
:103458009B000B4426331B78002B0BD0FA78796835
:1034680013461B019B1A9B000B4426331B78022B27
:1034780040F00982FB785A013B69134403F5A063C5
:103488001B68FB60FB6823F08043FB60FB6843F02C
:103498000043FB60FB785A013B69134403F5A063C2
:1034A8001A46FB681360EEE1FA78796813461B0147
:1034B8009B1A9B000B444D331B78052B40F0C880AA
:1034C800FA78796813461B019B1A9B000B444D330D
:1034D80002221A70FA78796813461B019B1A9B001E
:1034E8000B441B331B78012B40F0CE81FA787968A6
:1034F80013461B019B1A9B000B4426331B78032B96
:103508006BD1FA78796813461B019B1A9B000B4410
:1035180048331B68591C786813461B019B1A9B008B
:10352800034448331960FA78796813461B019B1ADB
:103538009B000B4448331B68022B43D9FA787968FF
:1035480013461B019B1A9B000B44483300221A6048
:10355800FA78796813461B019B1A9B000B441B33AE
:1035680000221A70FA78796813461B019B1A9B008F
:103578000B4444331B68022B09D8FA787968134640
:103588001B019B1A9B000B441C3301221A70FB7809
:103598005A013B69134403F5A0635B68FA7851014B
:1035A8003A690A4402F5A06223F480335360FA783A
:1035B800796813461B019B1A9B000B444C33042269
:1035C8001A7014E0FA78796813461B019B1A9B005D
:1035D8000B444C3302221A7009E0FA7879681346D2
:1035E8001B019B1A9B000B444C3302221A70FA7879
:1035F800796813461B019B1A9B000B4426331B78E2
:10360800002B0BD0FA78796813461B019B1A9B0094
:103618000B4426331B78022B40F03681FB785A0185
:103628003B69134403F5A0631B68FB60FB6823F048
:103638008043FB60FB6843F00043FB60FB785A0162
:103648003B69134403F5A0631A46FB6813601BE14A
:10365800FA78796813461B019B1A9B000B444D337B
:103668001B78032B40F08180FA78796813461B0198
:103678009B1A9B000B444D3302221A70FA78796822
:1036880013461B019B1A9B000B441B331B78012B11
:1036980040F0FA80FA78796813461B019B1A9B0060
:1036A8000B444C3302221A70FB785A013B691344CD
:1036B80003F5A0635B68FA7851013A690A4402F598
:1036C800A06243F480335360FB785A013B6913448A
:1036D80003F5A063DB68FA7851013A690A4402F5F8
:1036E800A06243F04003D360FB785A013B6913445E
:1036F80003F5A063DB68FA7851013A690A4402F5D8
:10370800A06223F02003D360FA78796813461B017E
:103718009B1A9B000B4426331B78002B0BD0FA789E
:10372800796813461B019B1A9B000B4426331B78B0
:10373800022B40F0A980FB785A013B69134403F53A
:10374800A0631B68FB60FB6823F08043FB60FB6899
:1037580043F00043FB60FB785A013B69134403F5CF
:10376800A0631A46FB6813608EE0FA7879681346FE
:103778001B019B1A9B000B444D331B78042B43D130
:10378800FA78796813461B019B1A9B000B444D334A
:1037980002221A70FA78796813461B019B1A9B005B
:1037A8000B444C3302221A70FA78796813461B01CD
:1037B8009B1A9B000B4426331B78002B0AD0FA78FF
:1037C800796813461B019B1A9B000B4426331B7810
:1037D800022B59D1FB785A013B69134403F5A063C6
:1037E8001B68FB60FB6823F08043FB60FB6843F0C9
:1037F8000043FB60FB785A013B69134403F5A0635F
:103808001A46FB6813603FE0FA78796813461B0193
:103818009B1A9B000B444D331B78082B26D1FA7852
:10382800796813461B019B1A9B000B444D330222F7
:103838001A70FA78796813461B019B1A9B000B448F
:1038480044331B68591C786813461B019B1A9B005C
:10385800034444331960FA78796813461B019B1AAC
:103868009B000B444C3304221A700DE0FA787968F7
:1038780013461B019B1A9B000B444D331B78022BEC
:1038880000F0008100E000BFFA78796813461B0158
:103898009B1A9B000B444C331A78FB7819467868BE
:1038A80006F0FAF8EFE07B681B68FA7811461846CC
:1038B80002F0E9FF034603F04003402B2FD1FB78C9
:1038C8005A013B69134403F5A0631A4640239360E9
:1038D800FA78796813461B019B1A9B000B444D33F9
:1038E80005221A70FA78796813461B019B1A9B0007
:1038F8000B441A331B78002B09D1FA7879681346E0
:103908001B019B1A9B000B44443300221A607B68FE
:103918001B68FA781146184603F05FFDB3E07B6830
:103928001B68FA781146184602F0ADFF034603F00B
:103938001003102B40F0A780FA78796813461B0112
:103948009B1A9B000B4426331B78032B1BD1FA7858
:10395800796813461B019B1A9B000B4444330022D1
:103968001A60FA78796813461B019B1A9B000B446E
:103978004D3304221A707B681B68FA781146184682
:1039880003F02BFD3FE0FA78796813461B019B1A78
:103998009B000B4426331B78002B0AD0FA787968F1
:1039A80013461B019B1A9B000B4426331B78022BE2
:1039B80029D1FA78796813461B019B1A9B000B449E
:1039C800443300221A607B689B79002B0AD0FA786E
:1039D800796813461B019B1A9B000B441B331B7809
:1039E800012B10D1FA78796813461B019B1A9B00AA
:1039F8000B444D3304221A707B681B68FA78114611
:103A0800184603F0EAFCFA78796813461B019B1AFA
:103A18009B000B441B331B78012B29D1FA7879685A
:103A280013461B019B1A9B000B441B3300221A7080
:103A3800FB785A013B69134403F5A0635B68FA7885
:103A480051013A690A4402F5A06223F480335360B5
:103A5800FB785A013B69134403F5A063DB68FA78E5
:103A680051013A690A4402F5A06243F02003D36089
:103A7800FB785A013B69134403F5A0631A461023E7
:103A8800936000E000BF1837BD4680BD80B586B0A2
:103A980000AF78600B46FB707B681B687B617B69B5
:103AA8003B617B681B68FA781146184602F0EBFE0A
:103AB800034603F00403042B1BD1FB785A013B692E
:103AC800134403F5A0631A4604239360FA787968CF
:103AD80013461B019B1A9B000B444D3307221A7097
:103AE8007B681B68FA781146184603F076FC00F0EC
:103AF80089BC7B681B68FA781146184602F0C3FE39
:103B0800034603F02003202B40F08280FB785A0103
:103B18003B69134403F5A0631A4620239360FA789F
:103B2800796813461B019B1A9B000B4419331B78B9
:103B3800012B24D1FA78796813461B019B1A9B0044
:103B48000B44193300221A70FA78796813461B015E
:103B58009B1A9B000B444C3302221A70FA7879683E
:103B680013461B019B1A9B000B444D3303221A700A
:103B78007B681B68FA781146184603F02EFCFA7821
:103B8800796813461B019B1A9B000B441A331B7858
:103B9800012B40F03784FA78796813461B019B1A89
:103BA8009B000B441B331B78002B40F02B84FA78C6
:103BB800796813461B019B1A9B000B4426331B781C
:103BC800012B09D0FA78796813461B019B1A9B00D0
:103BD8000B441B3301221A70FA78796813461B01CB
:103BE8009B1A9B000B444D3303221A707B681B6899
:103BF800FA781146184603F0F0FBFA78796813460C
:103C08001B019B1A9B000B44443300221A60F9E302
:103C18007B681B68FA781146184602F034FE0346A2
:103C280003F40073B3F5007F11D1FB785A013B69A7
:103C3800134403F5A0631A464FF4007393607B683E
:103C48001B68FA781146184603F0C7FBDAE37B686D
:103C58001B68FA781146184602F015FE034603F071
:103C68000103012B68D1FA78796813461B019B1A66
:103C78009B000B44443300221A607B681B68FA7867
:103C88001146184602F0FFFD034603F04003402B9F
:103C980012D1FA78796813461B019B1A9B000B44D2
:103CA800193301221A70FB785A013B69134403F552
:103CB800A0631A4640239360FA78796813461B017B
:103CC8009B1A9B000B441B331B78002B19D0FA78E6
:103CD800796813461B019B1A9B000B441B33002277
:103CE8001A70FB785A013B69134403F5A0635B68BB
:103CF800FA7851013A690A4402F5A06223F4803344
:103D08005360FB785A013B69134403F5A0631A46D4
:103D180001239360FA78796813461B019B1A9B006C
:103D28000B444D3301221A707B681B68FA781146E0
:103D3800184603F052FB65E37B681B68FA78114666
:103D4800184602F0A0FD034603F04003402B39D18A
:103D5800FA78796813461B019B1A9B000B444D3374
:103D680005221A70FA78796813461B019B1A9B0082
:103D78000B441A331B78002B09D1FA78796813465B
:103D88001B019B1A9B000B44193301221A70FA7805
:103D9800796813461B019B1A9B000B44443300228D
:103DA8001A607B681B68FA781146184603F015FB01
:103DB800FB785A013B69134403F5A0631A46402374
:103DC80093601FE37B681B68FA781146184602F077
:103DD8005AFD034603F00803082B1AD1FB785A0151
:103DE8003B69134403F5A0631A4608239360FA78E5
:103DF800796813461B019B1A9B000B444D3306221E
:103E08001A707B681B68FA781146184603F0E5FAC1
:103E1800F8E27B681B68FA781146184602F033FD11
:103E2800034603F01003102B44D1FA78796813463F
:103E38001B019B1A9B000B44443300221A60FA783A
:103E4800796813461B019B1A9B000B444D330422CF
:103E58001A70FA78796813461B019B1A9B000B4469
:103E680019331B78002B14D1FA78796813461B0193
:103E78009B1A9B000B4418331B78002B09D1FA7846
:103E8800796813461B019B1A9B000B4419330122C6
:103E98001A707B681B68FA781146184603F09DFA79
:103EA800FB785A013B69134403F5A0631A461023B3
:103EB8009360A7E27B681B68FA781146184602F0FF
:103EC800E2FC034603F08003802B40F083807B688C
:103ED8009B79002B11D1FA78796813461B019B1A3C
:103EE8009B000B444D3307221A707B681B68FA78D5
:103EF8001146184603F071FA62E0FA7879681346B9
:103F08001B019B1A9B000B4444331B68591C78689F
:103F180013461B019B1A9B00034444331960FA782B
:103F2800796813461B019B1A9B000B4444331B689A
:103F3800022B22D9FA78796813461B019B1A9B0039
:103F48000B44443300221A60FA78796813461B013F
:103F58009B1A9B000B444C3304221A70FA78796838
:103F680013461B019B1A9B000B444C331A78FB78B1
:103F78001946786805F090FD22E0FA7879681346CA
:103F88001B019B1A9B000B444C3302221A70FB78CE
:103F98005A013B69134403F5A0631B68FB60FB6887
:103FA80023F08043FB60FB6843F00043FB60FB7831
:103FB8005A013B69134403F5A0631A46FB68136072
:103FC800FB785A013B69134403F5A0631A46802322
:103FD800936017E27B681B68FA781146184602F06E
:103FE80052FC034603F48063B3F5806F1BD1FA7863
:103FF800796813461B019B1A9B000B444D33092219
:104008001A707B681B68FA781146184603F0E5F9C0
:10401800FB785A013B69134403F5A0631A464FF431
:1040280080639360EEE17B681B68FA781146184656
:1040380002F029FC034603F00203022B40F0DF8163
:10404800FB785A013B69134403F5A0631A4602231F
:104058009360FA78796813461B019B1A9B000B44FE
:104068004D331B78012B40F09380FA78796813461A
:104078001B019B1A9B000B444D3302221A70FA78DD
:10408800796813461B019B1A9B000B444C33012291
:104098001A70FA78796813461B019B1A9B000B4427
:1040A80026331B78022B0BD0FA78796813461B014C
:1040B8009B1A9B000B4426331B78032B40F09081FE
:1040C8007B689B79002B15D1FA78796813461B0118
:1040D8009B1A9B000B443D331B78FA7883F001034D
:1040E800D8B2796813461B019B1A9B000B443D33D9
:1040F80002461A707B689B79012B40F07181FA782F
:10410800796813461B019B1A9B000B4434331B68C8
:10411800002B00F06581FA78796813461B019B1A19
:104128009B000B4434331968FA78786813461B01EE
:104138009B1A9B00034428331B880B44591EFA78AA
:10414800786813461B019B1A9B00034428331B887D
:10415800B1FBF3F3BB60BB6803F00103002B00F075
:104168003F81FA78796813461B019B1A9B000B4420
:104178003D331B78FA7883F00103D8B27968134687
:104188001B019B1A9B000B443D3302461A7027E122
:10419800FA78796813461B019B1A9B000B444D3330
:1041A8001B78032B20D1FA78796813461B019B1AD8
:1041B8009B000B444D3302221A70FA787968134633
:1041C8001B019B1A9B000B441B331B78012B40F0EF
:1041D8000781FA78796813461B019B1A9B000B44E8
:1041E8004C3302221A70FBE0FA78796813461B01F7
:1041F8009B1A9B000B444D331B78042B3AD1FA7859
:10420800796813461B019B1A9B000B444D3302220D
:104218001A70FA78796813461B019B1A9B000B44A5
:104228004C3302221A70FA78796813461B019B1ADC
:104238009B000B441B331B78012B40F0D180FA788C
:10424800796813461B019B1A9B000B441B33002201
:104258001A70FB785A013B69134403F5A0635B6845
:10426800FA7851013A690A4402F5A06223F48033CE
:104278005360B5E0FA78796813461B019B1A9B00D6
:104288000B444D331B78052B14D1FA787968134603
:104298001B019B1A9B000B444D3302221A70FA78BB
:1042A800796813461B019B1A9B000B444C3302226E
:1042B8001A7095E0FA78796813461B019B1A9B00DF
:1042C8000B444D331B78062B14D1FA7879681346C2
:1042D8001B019B1A9B000B444D3302221A70FA787B
:1042E800796813461B019B1A9B000B444C3305222B
:1042F8001A7075E0FA78796813461B019B1A9B00BF
:104308000B444D331B78072B0AD0FA78796813468B
:104318001B019B1A9B000B444D331B78092B70D152
:10432800FA78796813461B019B1A9B000B444D339E
:1043380002221A70FA78796813461B019B1A9B00AF
:104348000B4444331B68591C786813461B019B1A9D
:104358009B00034444331960FA78796813461B01BB
:104368009B1A9B000B4444331B68022B14D9FA7820
:10437800796813461B019B1A9B000B4444330022A7
:104388001A60FA78796813461B019B1A9B000B4444
:104398004C3304221A7022E0FA78796813461B011C
:1043A8009B1A9B000B444C3302221A70FB785A016B
:1043B8003B69134403F5A0631B68FB60FB6823F0AB
:1043C8008043FB60FB6843F00043FB60FB785A01C5
:1043D8003B69134403F5A0631A46FB68136000BFEA
:1043E800FA78796813461B019B1A9B000B444C33DF
:1043F8001A78FB781946786805F04EFB02E000BF92
:1044080000E000BF1837BD4680BD80B58AB000AF58
:1044180078607B681B687B627B6A3B627B681B6891
:104428001B6AFB61FB6903F00F03BB61FB695B0C53
:1044380003F00F037B61FB691B09C3F30A033B61AC
:104448007B69022B04D07B69052B00F0B680B7E0AE
:104458003B69002B00F0B3807968BA6913461B01E9
:104468009B1A9B000B442C331B68002B00F0A78081
:104478007968BA6913461B019B1A9B000B443833B1
:104488001A683B69D1187868BA6913461B019B1AE8
:104498009B00034434331B68994200F283807B6895
:1044A80018687968BA6913461B019B1A9B000B446C
:1044B8002C331B683A6992B2194602F079F9796887
:1044C800BA6913461B019B1A9B000B442C331A68CC
:1044D8003B69D1187868BA6913461B019B1A9B007F
:1044E80003442C3319607968BA6913461B019B1A77
:1044F8009B000B4438331A683B69D1187868BA694D
:1045080013461B019B1A9B00034438331960BB698F
:104518005A013B6A134403F5A0631B69DB0CC3F320
:104528000903FB607968BA6913461B019B1A9B0053
:104538000B4428331B881A463B6993423FD1FB68DA
:10454800002B3CD0BB695A013B6A134403F5A063B6
:104558001B68BB60BB6823F08043BB60BB6843F04B
:104568000043BB60BB695A013B6A134403F5A0636F
:104578001A46BB6813607968BA6913461B019B1A0F
:104588009B000B443C331B7883F00103D8B2796855
:10459800BA6913461B019B1A9B000B443C33024625
:1045A8001A700CE07968BA6913461B019B1A9B00C4
:1045B8000B444C3304221A7001E000BF00E000BF36
:1045C80000BF2837BD4680BD80B586B000AF786093
:1045D8007B681B687B617B693B613B6903F588638A
:1045E8001B68FB603B6903F588631B68BB60BB689D
:1045F80023F02E03BB60FB6803F00203022B0BD1F0
:10460800FB6803F00103012B02D1786805F028FA52
:10461800BB6843F00203BB60FB6803F00803082B88
:1046280032D1BB6843F00803BB60FB6803F00403A6
:10463800042B26D17B685B7A022B13D1FB6803F429
:10464800C023B3F5802F06D17B681B68022118466A
:1046580002F044FA11E07B681B680121184602F059
:104668003DFA0AE07B68DB79012B06D13B6903F54B
:1046780080631A464EF660235360786805F01AFA8C
:1046880002E0786805F024FAFB6803F02003202B89
:1046980003D1BB6843F02003BB603B6903F5886323
:1046A8001A46BB68136000BF1837BD4680BD0000BE
:1046B80080B584B000AF78607B68002B01D10123FE
:1046C8002BE17B6893F83D30DBB2002B06D17B6889
:1046D800002283F83C207868FCF7A2FE7B6824223D
:1046E80083F83D207B681B681A687B681B6822F08A
:1046F80001021A607B681B681A687B681B6842F4B1
:1047080000421A607B681B681A687B681B6822F481
:1047180000421A6001F036FCF8607B685B68814AE9
:10472800934207D8FB68804A934294BF0123002331
:10473800DBB206E0FB687D4A934294BF0123002365
:10474800DBB2002B01D00123E7E0FB68784AA2FB2B
:1047580003239B0CBB607B681B685B6823F03F01ED
:104768007B681B68BA680A435A607B681B681B6AC7
:1047780023F03F017B685B686A4A934202D8BB68B2
:10478800013309E0BB684FF4967202FB03F3694AF0
:10479800A2FB03239B0901337A6812680B43136257
:1047A8007B681B68DB6923F44F4222F0FF027B68B9
:1047B8005B685C498B4219D8FB68591E7B685B684B
:1047C8005B00B1FBF3F3591C40F6FC730B40002B64
:1047D8000AD0FB68591E7B685B685B00B1FBF3F38A
:1047E8000133C3F30B0351E004234FE07B689B685C
:1047F800002B11D1FB68581E7B6859680B465B007B
:104808000B44B0FBF3F30133C3F30B03002B0CBFD2
:1048180001230023DBB212E0FB68581E7B6859684D
:104828000B469B000B4499000B44B0FBF3F3013398
:10483800C3F30B03002B0CBF01230023DBB2002BB7
:1048480001D0012322E07B689B68002B0ED1FB6816
:10485800581E7B6859680B465B000B44B0FBF3F3AA
:104868000133C3F30B0343F400430FE0FB68581E06
:104878007B6859680B469B000B4499000B44B0FBBE
:10488800F3F30133C3F30B0343F440437968096836
:104898001343CB617B681B681B6823F0C0017B68EE
:1048A800DA697B681B6A1A437B681B680A431A60CB
:1048B8007B681B689B6823F4034323F0FF037A6833
:1048C80011697A68D26811437A6812680B43936059
:1048D8007B681B68DB6823F0FF017B685A697B688B
:1048E8009B691A437B681B680A43DA607B681B680C
:1048F8001A687B681B6842F001021A607B68002214
:104908001A647B68202283F83D207B6800221A63A2
:104918007B68002283F83E20002318461037BD46E6
:1049280080BD00BFA08601007F841E00FF083D00F7
:1049380083DE1B43D34D621080B588B002AFF860A8
:104948007A601A460B467B8113463B81FDF794F942
:104958007861FB6893F83D30DBB2202B40F0E080B3
:104968007B690093192301227049F86800F064FC00
:104978000346002B01D00223D3E0FB6893F83C30B8
:10498800012B01D10223CCE0FB68012283F83C20F3
:10499800FB681B681B6803F00103012B07D0FB6849
:1049A8001B681A68FB681B6842F001021A60FB6802
:1049B8001B681A68FB681B6822F400621A60FB68AF
:1049C800212283F83D20FB68102283F83E20FB68F3
:1049D80000221A64FB687A685A62FB683A895A8529
:1049E800FB685B8D9AB2FB681A85FB68504ADA62ED
:1049F80079897B693A6AF86800F0CEFA0346002B99
:104A080001D001238DE000233B61FB681B685B69D3
:104A18003B61FB681B689B693B613B6966E07A699F
:104A2800396AF86800F022FD0346002B0DD0FB68B8
:104A38001B6C042B07D1FB681B681A68FB681B6892
:104A480042F400721A6001236BE0FB685B6A1A7813
:104A5800FB681B681A61FB685B6A5A1CFB685A6230
:104A6800FB685B8D9BB2013B9AB2FB685A85FB6879
:104A78001B8D013B9AB2FB681A85FB681B685B6952
:104A880003F00403042B1BD1FB681B8D002B17D0EC
:104A9800FB685B6A1A78FB681B681A61FB685B6ACB
:104AA8005A1CFB685A62FB685B8D9BB2013B9AB249
:104AB800FB685A85FB681B8D013B9AB2FB681A8517
:104AC8007A69396AF86800F019FD0346002B0DD0A1
:104AD800FB681B6C042B07D1FB681B681A68FB6812
:104AE8001B6842F400721A6001231AE0FB681B8DF0
:104AF800002B94D1FB681B681A68FB681B6842F49A
:104B080000721A60FB68202283F83D20FB680022AF
:104B180083F83E20FB68002283F83C20002300E055
:104B2800022318461837BD4680BD00BF020010009A
:104B38000000FFFF80B58CB002AFF8607A601A46BB
:104B48000B467B8113463B81FDF796F87862FB683C
:104B580093F83D30DBB2202B40F017827B6A00933C
:104B6800192301227C49F86800F066FB0346002BF4
:104B780001D002230AE2FB6893F83C30012B01D1F3
:104B8800022303E2FB68012283F83C20FB681B68D0
:104B98001B6803F00103012B07D0FB681B681A6828
:104BA800FB681B6842F001021A60FB681B681A6800
:104BB800FB681B6822F400621A60FB68222283F8F3
:104BC8003D20FB68102283F83E20FB6800221A640F
:104BD800FB687A685A62FB683A895A85FB685B8D7C
:104BE8009AB2FB681A85FB685C4ADA6279897B6A43
:104BF8003A6BF86800F052FA0346002B01D0012303
:104C0800C4E1FB681B8D002B13D100233B62FB68BA
:104C18001B685B693B62FB681B689B693B623B6A7C
:104C2800FB681B681A68FB681B6842F400721A600C
:104C380098E1FB681B8D012B1BD1FB681B681A6868
:104C4800FB681B6822F480621A600023FB61FB6822
:104C58001B685B69FB61FB681B689B69FB61FB69FF
:104C6800FB681B681A68FB681B6842F400721A60CC
:104C780078E1FB681B8D022B1BD1FB681B681A6847
:104C8800FB681B6822F480621A60FB681B681A685C
:104C9800FB681B6842F400621A600023BB61FB6872
:104CA8001B685B69BB61FB681B689B69BB61BB696F
:104CB80058E1FB681B681A68FB681B6842F480624D
:104CC8001A6000237B61FB681B685B697B61FB687A
:104CD8001B689B697B617B6944E1FB681B8D032B27
:104CE80000F2F180FB681B8D012B23D17A6A396BA6
:104CF800F86800F04BFC0346002B01D0012345E186
:104D0800FB681B681A69FB685B6AD2B21A70FB6899
:104D18005B6A5A1CFB685A62FB681B8D013B9AB29E
:104D2800FB681A85FB685B8D9BB2013B9AB2FB68F6
:104D38005A8517E1FB681B8D022B4ED17B6A0093C5
:104D48003B6B00220649F86800F076FA0346002B10
:104D580008D001231AE100BF020010000000FFFF85
:104D680004000100FB681B681A68FB681B6842F4B2
:104D780000721A60FB681B681A69FB685B6AD2B22A
:104D88001A70FB685B6A5A1CFB685A62FB681B8DC9
:104D9800013B9AB2FB681A85FB685B8D9BB2013BAD
:104DA8009AB2FB685A85FB681B681A69FB685B6ADC
:104DB800D2B21A70FB685B6A5A1CFB685A62FB68BD
:104DC8001B8D013B9AB2FB681A85FB685B8D9BB211
:104DD800013B9AB2FB685A85C4E07B6A00933B6B3F
:104DE80000226C49F86800F027FA0346002B01D02E
:104DF8000123CBE0FB681B681A68FB681B6822F478
:104E080080621A60FB681B681A69FB685B6AD2B229
:104E18001A70FB685B6A5A1CFB685A62FB681B8D38
:104E2800013B9AB2FB681A85FB685B8D9BB2013B1C
:104E38009AB2FB685A857B6A00933B6B00225549FE
:104E4800F86800F0F9F90346002B01D001239DE032
:104E5800FB681B681A68FB681B6842F400721A60DA
:104E6800FB681B681A69FB685B6AD2B21A70FB6838
:104E78005B6A5A1CFB685A62FB681B8D013B9AB23D
:104E8800FB681A85FB685B8D9BB2013B9AB2FB6895
:104E98005A85FB681B681A69FB685B6AD2B21A708C
:104EA800FB685B6A5A1CFB685A62FB681B8D013BF6
:104EB8009AB2FB681A85FB685B8D9BB2013B9AB27C
:104EC800FB685A854EE07A6A396BF86800F05EFB39
:104ED8000346002B01D0012358E0FB681B681A69C0
:104EE800FB685B6AD2B21A70FB685B6A5A1CFB6883
:104EF8005A62FB681B8D013B9AB2FB681A85FB68F6
:104F08005B8D9BB2013B9AB2FB685A85FB681B68B4
:104F18005B6903F00403042B24D1FB681B8D032B6E
:104F280007D1FB681B681A68FB681B6822F480625B
:104F38001A60FB681B681A69FB685B6AD2B21A7050
:104F4800FB685B6A5A1CFB685A62FB681B8D013B55
:104F58009AB2FB681A85FB685B8D9BB2013B9AB2DB
:104F6800FB685A85FB681B8D002B7FF4B6AEFB6887
:104F7800202283F83D20FB68002283F83E20FB684E
:104F8800002283F83C20002300E00223184628373B
:104F9800BD4680BD0400010080B588B002AFF8604E
:104FA8007A603B600B467B81FB68DB6A7B617B69CF
:104FB800082B06D07B69012B03D07B6913F5803F52
:104FC80008D1FB681B681A68FB681B6842F480728A
:104FD8001A600BE0FB681B6B122B07D1FB681B6880
:104FE8001A68FB681B6842F480721A603B68009379
:104FF8007B6800224FF00111F86800F01DF90346A4
:10500800002B0DD0FB681B681B6803F48073B3F595
:10501800807F03D1FB684FF400721A64032335E0E4
:10502800FB681B69B3F5804F08D17B89DBB21A4650
:10503800FB681B6802F0FE021A611BE07B89DB112A
:10504800DBB203F00603DBB263F00F03DAB2FB68EE
:105058001B681A613B687A680E49F86800F066F9BF
:105068000346002B01D0012310E07B89DAB2FB68EC
:105078001B681A613B687A680749F86800F056F9B6
:105088000346002B01D0012300E0002318461837FF
:10509800BD4680BD080001000200010080B588B04F
:1050A80002AFF8607A603B600B467B81FB68DB6A85
:1050B8007B61FB681B681A68FB681B6842F48062A6
:1050C8001A607B69082B06D07B69012B03D07B69AA
:1050D80013F5803F08D1FB681B681A68FB681B68DA
:1050E80042F480721A600BE0FB681B6B112B07D12E
:1050F800FB681B681A68FB681B6842F480721A60B8
:105108003B6800937B6800224FF00111F86800F0BB
:1051180093F80346002B0DD0FB681B681B6803F44B
:105128008073B3F5807F03D1FB684FF400721A6473
:10513800032379E0FB681B69B3F5804F08D17B89AD
:10514800DBB243F00103DAB2FB681B681A615FE067
:105158007B89DB11DBB203F00603DBB263F00F03DC
:10516800DAB2FB681B681A613B687A683049F868EC
:1051780000F0DCF80346002B01D0012354E07B89C2
:10518800DAB2FB681B681A613B687A682949F868D3
:1051980000F0CCF80346002B01D0012344E00023A3
:1051A8003B61FB681B685B693B61FB681B689B692B
:1051B8003B613B69FB681B681A68FB681B6842F423
:1051C80080721A603B6800937B6800224FF00111DF
:1051D800F86800F031F80346002B0DD0FB681B6817
:1051E8001B6803F48073B3F5807F03D1FB684FF429
:1051F80000721A64032317E07B89DB11DBB203F02A
:105208000603DBB263F00E03DAB2FB681B681A61AF
:105218003B687A680749F86800F088F80346002B6D
:1052280001D0012300E0002318461837BD4680BD91
:10523800080001000200010080B584B000AFF860EA
:10524800B9603B601346FB7148E03B68B3F1FF3F30
:1052580044D0FCF711FD0246BB69D31A3A689A425A
:1052680002D33B68002B39D1BB681B0CDBB2012B86
:105278000DD1FB681B685B69DA43BB6813409BB2BE
:10528800002B0CBF01230023DBB21A460CE0FB689D
:105298001B689B69DA43BB6813409BB2002B0CBFA9
:1052A80001230023DBB21A46FB799A4216D1FB6828
:1052B80000221A63FB68202283F83D20FB68002245
:1052C80083F83E20FB681B6C43F02002FB681A64DD
:1052D800FB68002283F83C20012323E0BB681B0CF9
:1052E800DBB2012B0DD1FB681B685B69DA43BB6835
:1052F80013409BB2002B0CBF01230023DBB21A46DC
:105308000CE0FB681B689B69DA43BB6813409BB2DF
:10531800002B0CBF01230023DBB21A46FB799A420B
:1053280093D0002318461037BD4680BD80B584B0A1
:1053380000AFF860B9607A603B6071E0FB681B6899
:105348005B6903F48063B3F5806F23D1FB681B6846
:105358001A68FB681B6842F400721A60FB681B68D5
:105368006FF480625A61FB6800221A63FB6820228E
:1053780083F83D20FB68002283F83E20FB681B6C05
:1053880043F00402FB681A64FB68002283F83C209F
:10539800012367E07B68B3F1FF3F41D0FCF76CFC69
:1053A80002463B68D31A7A689A4202D37B68002B7C
:1053B80036D1BB681B0CDBB2012B0CD1FB681B6818
:1053C8005B69DA43BB6813409BB2002B14BF01230F
:1053D8000023DBB20BE0FB681B689B69DA43BB6800
:1053E80013409BB2002B14BF01230023DBB2002B18
:1053F80016D0FB6800221A63FB68202283F83D2040
:10540800FB68002283F83E20FB681B6C43F02002F7
:10541800FB681A64FB68002283F83C20012321E022
:10542800BB681B0CDBB2012B0CD1FB681B685B69EA
:10543800DA43BB6813409BB2002B14BF012300233F
:10544800DBB20BE0FB681B689B69DA43BB6813405F
:105458009BB2002B14BF01230023DBB2002B7FF487
:105468006DAF002318461037BD4680BD80B584B0A7
:1054780000AFF860B9607A6034E0F86800F0E3F8EB
:105488000346002B01D0012334E0BB68B3F1FF3F92
:1054980028D0FCF7F1FB02467B68D31ABA689A4217
:1054A80002D3BB68002B1DD1FB681B685B6903F046
:1054B8008003802B16D0FB6800221A63FB68202229
:1054C80083F83D20FB68002283F83E20FB681B6CB4
:1054D80043F02002FB681A64FB68002283F83C2032
:1054E800012307E0FB681B685B6903F08003802BDE
:1054F800C3D1002318461037BD4680BD80B584B09F
:1055080000AFF860B9607A6034E0F86800F09BF8A2
:105518000346002B01D0012334E0BB68B3F1FF3F01
:1055280028D0FCF7A9FB02467B68D31ABA689A42CE
:1055380002D3BB68002B1DD1FB681B685B6903F0B5
:105548000403042B16D0FB6800221A63FB68202290
:1055580083F83D20FB68002283F83E20FB681B6C23
:1055680043F02002FB681A64FB68002283F83C20A1
:10557800012307E0FB681B685B6903F00403042B45
:10558800C3D1002318461037BD4680BD80B584B00E
:1055980000AFF860B9607A6049E0FB681B685B6936
:1055A80003F01003102B19D1FB681B686FF0100271
:1055B8005A61FB6800221A63FB68202283F83D20A9
:1055C800FB68002283F83E20FB681A6CFB681A64AB
:1055D800FB68002283F83C20012330E0FCF74CFBF9
:1055E80002467B68D31ABA689A4202D3BB68002B7A
:1055F8001DD1FB681B685B6903F04003402B16D084
:10560800FB6800221A63FB68202283F83D20FB68B0
:10561800002283F83E20FB681B6C43F02002FB68E5
:105628001A64FB68002283F83C20012307E0FB682A
:105638001B685B6903F04003402BAED1002318467A
:105648001037BD4680BD80B483B000AF78607B68FA
:105658001B685B6903F48063B3F5806F1BD17B68BB
:105668001B686FF480625A617B6800221A637B684A
:10567800202283F83D207B68002283F83E207B6847
:105688001B6C43F004027B681A647B68002283F871
:105698003C20012300E0002318460C37BD465DF886
:1056A800047B704780B586B000AF78607B68002BBC
:1056B80001D1012367E27B681B6803F00103002B1B
:1056C80075D0884B9B6803F00C03042B0CD0854BDA
:1056D8009B6803F00C03082B12D1824B5B6803F420
:1056E8008003B3F5800F0BD17E4B1B6803F40033A6
:1056F800002B5BD07B685B68002B57D1012342E20B
:105708007B685B68B3F5803F06D1764B1B68754AAA
:1057180043F4803313601DE07B685B68B3F5A02F0A
:105728000CD1704B1B686F4A43F4802313606D4B98
:105738001B686C4A43F4803313600BE0694B1B68A9
:10574800684A23F480331360664B1B68654A23F468
:10575800802313607B685B68002B13D0FCF78CFAFE
:10576800386108E0FCF788FA02463B69D31A642BD3
:1057780001D9032307E25B4B1B6803F40033002BBA
:10578800F0D014E0FCF778FA386108E0FCF774FA16
:1057980002463B69D31A642B01D90323F3E1514B29
:1057A8001B6803F40033002BF0D100E000BF7B68D6
:1057B8001B6803F00203002B63D04A4B9B6803F07D
:1057C8000C03002B0BD0474B9B6803F00C03082BF2
:1057D8001CD1444B5B6803F48003002B16D1414B6A
:1057E8001B6803F00203002B05D07B68DB68012BE4
:1057F80001D00123C7E13B4B1B6823F0F8027B680B
:105808001B69DB00374913430B603AE07B68DB68B0
:10581800002B20D0344B01221A60FCF72DFA386196
:1058280008E0FCF729FA02463B69D31A022B01D992
:105838000323A8E12B4B1B6803F00203002BF0D0D5
:10584800284B1B6823F0F8027B681B69DB0025499D
:1058580013430B6015E0244B00221A60FCF70CFA86
:10586800386108E0FCF708FA02463B69D31A022BB4
:1058780001D9032387E11B4B1B6803F00203002BAC
:10588800F0D17B681B6803F00803002B36D07B68D7
:105898005B69002B16D0154B01221A60FCF7ECF956
:1058A800386108E0FCF7E8F902463B69D31A022B95
:1058B80001D9032367E10B4B5B6F03F00203002B55
:1058C800F0D01BE0094B00221A60FCF7D5F93861CB
:1058D8000EE0FCF7D1F902463B69D31A022B07D92F
:1058E800032350E10038024000004742800E47423F
:1058F800884B5B6F03F00203002BEAD17B681B68BF
:1059080003F00403002B00F097800023FB75814B04
:105918001B6C03F08053002B0FD10023BB607D4B21
:105928001B6C7C4A43F0805313647A4B1B6C03F066
:105938008053BB60BB680123FB75774B1B6803F47E
:105948008073002B18D1744B1B68734A43F480731F
:105958001360FCF791F9386108E0FCF78DF902460D
:105968003B69D31A022B01D903230CE16A4B1B684C
:1059780003F48073002BF0D07B689B68012B06D161
:10598800644B1B6F634A43F0010313671CE07B6899
:105998009B68052B0CD15F4B1B6F5E4A43F00403D9
:1059A80013675C4B1B6F5B4A43F0010313670BE003
:1059B800584B1B6F574A23F001031367554B1B6F56
:1059C800544A23F0040313677B689B68002B15D0A7
:1059D800FCF752F938610AE0FCF74EF902463B69D8
:1059E800D31A41F28832934201D90323CBE0494BC1
:1059F8001B6F03F00203002BEED014E0FCF73CF918
:105A080038610AE0FCF738F902463B69D31A41F2DB
:105A18008832934201D90323B5E03E4B1B6F03F054
:105A28000203002BEED1FB7D012B05D1394B1B6CFA
:105A3800384A23F0805313647B689B69002B00F07D
:105A4800A180344B9B6803F00C03082B5CD07B6867
:105A58009B69022B41D1314B00221A60FCF70CF9EB
:105A6800386108E0FCF708F902463B69D31A022BB3
:105A780001D9032387E0274B1B6803F00073002B31
:105A8800F0D17B68DA697B681B6A1A437B685B6ABA
:105A98009B011A437B689B6A5B08013B1B041A4302
:105AA8007B68DB6A1B061B4913434B601B4B0122B7
:105AB8001A60FCF7E1F8386108E0FCF7DDF8024607
:105AC8003B69D31A022B01D903235CE0114B1B68F5
