:020000040800F2
:1000000000000220994B0008751600087D160008B4
:10001000851600088D1600089516000800000000DF
:100020000000000000000000000000009D16000815
:10003000AB16000800000000B9160008C71600083B
:10004000E94B0008E94B0008E94B0008E94B0008C0
:10005000E94B0008E94B0008E94B0008E94B0008B0
:10006000E94B0008E94B0008E94B0008E94B0008A0
:10007000E94B0008E94B0008E94B0008E94B000890
:10008000E94B0008E94B0008E94B0008E94B000880
:10009000E94B0008E94B0008E94B0008E94B000870
:1000A000E94B0008E94B0008E94B0008E94B000860
:1000B000D5160008E94B0008E94B0008E94B000899
:1000C000E94B0008E94B0008E94B0008E94B000840
:1000D000E94B0008E94B0008E94B0008E94B000830
:1000E000E9160008E94B0008E94B0008E94B000855
:1000F000E94B0008F9160008E94B0008E94B000835
:10010000E94B0008E94B0008E94B0008E94B0008FF
:10011000E94B0008E94B0008E94B0008E94B0008EF
:10012000E94B0008E94B0008E94B0008E94B0008DF
:10013000E94B0008E94B0008E94B0008E94B0008CF
:10014000E94B0008E94B0008E94B00080D170008CF
:10015000E94B0008E94B0008E94B0008E94B0008AF
:10016000E94B0008E94B0008E94B0008E94B00089F
:10017000E94B0008E94B0008E94B000800000000CB
:08018000E94B0008E94B0008FF
:1001880010B5054C237833B9044B13B10448AFF3C9
:1001980000800123237010BDB0060020000000007D
:1001A80094DC000808B5034B1BB103490348AFF3BF
:1001B800008008BD00000000B406002094DC0008A0
:1001C80053B94AB9002908BF00281CBF4FF0FF31B6
:1001D8004FF0FF3000F088B9ADF1080C6DE904CE9E
:1001E80000F006F8DDF804E0DDE9022304B070470A
:1001F8002DE9F047089D8E4604468846002B4AD1D3
:100208008A42174662D9B2FA82F64EB1C6F1200385
:1002180001FA06F820FA03F3B74043EA0808B440A5
:100228004FEA174E1FFA87FCB8FBFEF1230C0EFBB2
:10023800118843EA084301FB0CF29A4209D9FB18DA
:1002480001F1FF3080F0EA809A4240F2E7800239FB
:100258003B449A1AA3B2B2FBFEF00EFB102243EA0B
:10026800024300FB0CFC9C4509D9FB1800F1FF3246
:1002780080F0D6809C4540F2D3803B44023840EA67
:100288000140A3EB0C0300211DB1F3400022C5E996
:100298000032BDE8F0878B4205D90DB1C5E90001F0
:1002A80000210846F5E7B3FA83F1002946D17345E2
:1002B80002D3824200F20581841A6EEB0302012008
:1002C8009046002DE5D0C5E90048E2E7002A00F095
:1002D8009080B2FA82F6002E40F0A4808A1A030CAD
:1002E8004FEA174E80B2BCB20121B2FBFEFC0EFBF6
:1002F8001C2243EA024304FB0CF29A4207D9FB187A
:100308000CF1FF3802D29A4200F2E080C4469B1AF0
:10031800B3FBFEF20EFB123340EA034302FB04F484
:100328009C4207D9FB1802F1FF3002D29C4200F22E
:10033800CA8002461B1B42EA0C40A5E7C1F1200611
:100348008B4022FA06F71F430EFA01F420FA06F34F
:100358002EFA06FE4FEA1749234300FA01F81FFA5E
:1003680087FCBEFBF9F01C0C09FB10EE44EA0E44B6
:1003780000FB0CFEA64502FA01F209D93C1900F16E
:10038800FF3A80F09C80A64540F2998002383C44B0
:10039800A4EB0E041FFA83FEB4FBF9F309FB134424
:1003A8004EEA044403FB0CFCA44508D93C1903F1AC
:1003B800FF3E80F08280A4457FD9023B3C4443EA5B
:1003C8000040A4EB0C04A0FB02EC64457346E14634
:1003D80062D35FD05DB1B8EB030264EB090404FAA1
:1003E80006F622FA01F31E43CC40C5E90064002159
:1003F8004FE7B1FBF2FC010C41EA0E4180B240EA42
:1004080001423B4638463C46B846BE462026B1FB2C
:10041800F7F1A2EB080241EA0C4166E7014618E74A
:1004280010462CE7C6F120022EFA02F3B740B1407D
:1004380020FA02F24FEA174E0A43B3FBFEF8BCB2A9
:100448000EFB1833110C41EA034108FB04F9B040D4
:1004580089454FEA104380B23ED9791808F1FF3C2C
:1004680001D289451FD8A1EB0901B1FBFEF909FBAF
:1004780004F80EFB191192B242EA0142424529D210
:10048800BA1809F1FF31C4D24245C2D2A9F102011A
:100498003A44BEE7F0459DD2BEEB02036CEB070C75
:1004A8000138E14696E7A7EB09094944A8F1020C8F
:1004B800B1FBFEF909FB04F8DBE773467FE750461A
:1004C80066E70846FDE63B44023A33E7ACF1020C26
:1004D8003B441CE749469CE7A1EB0901C446B1FB34
:1004E800FEF909FB04F8C4E7704700BF80B584B083
:1004F80000AF03460A46FB711346BB710422012173
:10050800002000F0CBF90346FB7306E0042201212A
:10051800002000F0C3F90346FB7397F90F30002B56
:10052800F4DBFB7903F00B03DBB2B879012200217D
:1005380000F046FB00BF1037BD4680BD80B500AF58
:100548003E210220FFF7D2FFC0210220FFF7CEFF95
:10055800B8210220FFF7CAFF40210220FFF7C6FF9B
:100568003F210220FFF7C2FF3E210120FFF7BEFF17
:10057800C0210120FFF7BAFFB8210120FFF7B6FF1D
:1005880040210120FFF7B2FF3F210120FFF7AEFF16
:1005980000BF80BD80B584B000AF0346FB71002367
:1005A800BB602EE0BB68DBB2483BDBB219460120DA
:1005B800FFF79CFFBB68DBB2483BDBB21946022061
:1005C800FFF794FF0023FB6007E0FB7919460A2038
:1005D800FFF78CFFFB680133FB60FB683F2BF4DD02
:1005E8000023FB6007E0FB7919460920FFF77EFF2F
:1005F800FB680133FB60FB683F2BF4DDBB6801330C
:10060800BB60BB68072BCDDD00BF00BF1037BD4600
:1006180080BD000090B585B000AF0446084611467D
:100628001A462346FB710346BB710B467B71134682
:100638003B71FB79203BDBB23B733B79032B02D147
:100648007B799B007B733B79052B07D17B791A4615
:10065800520013445B00DBB204337B733B79072BF6
:1006680002D17B79DB007B737B7B3F2B05D9092388
:10067800FB737B7B403B7B7301E00A23FB737B7B33
:1006880043F04003FB72FB7B03F00703DBB2FA7A0B
:1006980011461846FFF72AFFBB7963F04703FB7240
:1006A800FB7B03F00703DBB2FA7A11461846FFF723
:1006B8001DFF3B79032B21D10023BB731AE097F967
:1006C8000C2097F90E10344813465B00134403447A
:1006D8000B441B78FB72FB7B43F00803DBB2FA7A0E
:1006E80011461846FFF702FF97F90E30DBB20133C7
:1006F800DBB2BB7397F90E30022BE0DD3B79052B9B
:1007080021D10023BB731AE097F90C2097F90E103A
:10071800224813469B00134403440B441B78FB7286
:10072800FB7B43F00803DBB2FA7A11461846FFF761
:10073800DDFE97F90E30DBB20133DBB2BB7397F9FC
:100748000E30042BE0DD3B79072B21D10023BB734E
:100758001AE097F90C2097F90E1011481346DB00A0
:100768009B1A03440B441B78FB72FB7B43F0080382
:10077800DBB2FA7A11461846FFF7B8FE97F90E3041
:10078800DBB20133DBB2BB7397F90E30062BE0DD29
:1007980000BF1437BD4690BD00000020C4000020F3
:1007A800AC02002080B584B000AF78600B46FB70C7
:1007B8001346BB70BB78032B12D10023FB600CE0FF
:1007C800FB687A6813441878F978FB68DAB203236F
:1007D800FFF720FFFB680133FB60FB681F2BEFDD91
:1007E800BB78052B12D10023FB600CE0FB687A680C
:1007F80013441878F978FB68DAB20523FFF70AFF83
:10080800FB680133FB60FB68132BEFDDBB78072B1C
:1008180012D10023FB600CE0FB687A681344187857
:10082800F978FB68DAB20723FFF7F4FEFB680133B7
:10083800FB60FB680F2BEFDD00BF1037BD4680BDA6
:1008480080B586B000AF4FF47F437B600023BB6068
:100858000023FB603B1D1946034804F0D9FF00BF85
:100868001837BD4680BD00BF0010024080B586B075
:1008780000AF4FF47F437B600123BB600023FB6024
:1008880000233B613B1D1946034804F0C1FF00BF2C
:100898001837BD4680BD00BF0010024080B584B047
:1008A80000AF0346FB710B46BB7113467B71FFF724
:1008B800C7FF7B7903F00103002B06D001224FF418
:1008C8008071BC4805F058F905E000224FF48071AA
:1008D800B84805F051F97B7903F00203002B06D0E4
:1008E80001224FF40071B34805F046F905E00022F3
:1008F8004FF40071AF4805F03FF97B7903F004032A
:10090800002B06D001224FF48061AA4805F034F983
:1009180005E000224FF48061A64805F02DF97B79A7
:1009280003F00803002B06D001224FF40061A14810
:1009380005F022F905E000224FF400619D4805F01A
:100948001BF97B7903F01003002B05D0012202214B
:10095800994805F011F904E000220221964805F0B3
:100968000BF9FB79032B4FD801A252F823F000BFF3
:1009780089090008AB090008CD090008EF0900083B
:10098800BB79002B06D100224FF400618A4805F09C
:10099800F3F83AE001224FF40061874805F0ECF8DB
:1009A80033E0BB79002B06D100224FF480518248F6
:1009B80005F0E2F829E001224FF480517E4805F065
:1009C800DBF822E0BB79002B06D100224FF400515E
:1009D800794805F0D1F818E001224FF40051764823
:1009E80005F0CAF811E0BB79002B06D100224FF4BC
:1009F8008041714805F0C0F807E001224FF48041BA
:100A08006D4805F0B9F800E000BF002201216A48EE
:100A180005F0B2F84FF48071684805F095F8034680
:100A2800DB015BB2DB115AB23B7A62F300033B7223
:100A38004FF40071614805F087F80346DB015BB2AB
:100A4800DB115AB23B7A62F341033B724FF4806187
:100A58005A4805F079F80346DB015BB2DB115AB25C
:100A68003B7A62F382033B724FF40061534805F00E
:100A78006BF80346DB015BB2DB115AB23B7A62F3D7
:100A8800C3033B724FF480514C4805F05DF80346B0
:100A9800DB015BB2DB115AB23B7A62F304133B729F
:100AA8004FF40051454805F04FF80346DB015BB2AF
:100AB800DB115AB23B7A62F345133B724FF4804123
:100AC8003E4805F041F80346DB015BB2DB115AB240
:100AD8003B7A62F386133B724FF40041374805F0C6
:100AE80033F80346DB015BB2DB115AB23B7A62F39F
:100AF800C7133B72012201212F4805F03DF8FB790D
:100B0800032B4FD801A252F823F000BF250B000891
:100B1800470B0008690B00088B0B0008BB79002BFA
:100B280006D101224FF40061234805F025F83AE088
:100B380000224FF40061204805F01EF833E0BB792D
:100B4800002B06D101224FF480511B4805F014F800
:100B580029E000224FF48051174805F00DF822E0F3
:100B6800BB79002B06D101224FF40051124805F041
:100B780003F818E000224FF400510F4804F0FCFF7E
:100B880011E0BB79002B06D101224FF480410A48BD
:100B980004F0F2FF07E000224FF48041064804F019
:100BA800EBFF00E000BF3B7AFB73FB7B1846103776
:100BB800BD4680BD000C0240000402400010024007
:100BC80090B585B000AF0446084611461A4623463C
:100BD800FB710346BB710B467B7113463B71FFF7F4
:100BE80045FEFB793B733B7B03F00103DBB2002B33
:100BF80006D100224FF48071B54804F0BDFF05E02E
:100C080001224FF48071B24804F0B6FF3B7B03F039
:100C18000203DBB2002B06D100224FF40071AC486E
:100C280004F0AAFF05E001224FF40071A84804F07F
:100C3800A3FF3B7B03F00403DBB2002B06D10022A9
:100C48004FF48061A24804F097FF05E001224FF4B9
:100C580080619F4804F090FF3B7B03F00803DBB200
:100C6800002B06D100224FF40061994804F084FF5C
:100C780005E001224FF40061954804F07DFF3B7BBD
:100C880003F01003DBB2002B06D100224FF4805191
:100C98008F4804F071FF05E001224FF480518C4821
:100CA80004F06AFF3B7B03F02003DBB2002B06D184
:100CB80000224FF40051864804F05EFF05E001224F
:100CC8004FF40051824804F057FF3B7B03F0400388
:100CD800DBB2002B06D100224FF480417C4804F09F
:100CE8004BFF05E001224FF48041794804F044FFAE
:100CF8003B7B23F07F03DBB2002B06D100224FF4AD
:100D08000041734804F038FF05E001224FF4004128
:100D18006F4804F031FF3B7903F00103002B06D044
:100D280001224FF480716B4804F026FF05E0002291
:100D38004FF48071674804F01FFF3B7903F002030A
:100D4800002B06D001224FF40071624804F014FF12
:100D580005E000224FF400715E4804F00DFF3B7976
:100D680003F00403002B06D001224FF48061594898
:100D780004F002FF05E000224FF48061554804F0BA
:100D8800FBFE3B7903F00803002B06D001224FF449
:100D98000061504804F0F0FE05E000224FF40061C5
:100DA8004C4804F0E9FE3B7903F01003002B05D012
:100DB80001220221484804F0DFFE04E0002202215B
:100DC800454804F0D9FEBB79032B4FD801A252F84D
:100DD80023F000BFED0D00080F0E0008310E0008CB
:100DE800530E00087B79002B06D100224FF40061D6
:100DF800394804F0C1FE3AE001224FF40061364858
:100E080004F0BAFE33E07B79002B06D100224FF4C0
:100E18008051314804F0B0FE29E001224FF480519E
:100E28002D4804F0A9FE22E07B79002B06D1002290
:100E38004FF40051284804F09FFE18E001224FF4B7
:100E48000051254804F098FE11E07B79002B06D16B
:100E580000224FF48041204804F08EFE07E0012272
:100E68004FF480411C4804F087FE00E000BFBB79C6
:100E7800032B55D801A252F823F000BF950E0008A5
:100E8800B70E0008E50E0008070F00087B79002B55
:100E980006D101224FF400610F4804F06DFE40E0D6
:100EA80000224FF400610C4804F066FE39E07B79BB
:100EB800002B06D101224FF48051074804F05CFE54
:100EC8002FE000224FF48051034804F055FE28E03B
:100ED80000100240000C0240000402407B79002B05
:100EE80006D101224FF40051104804F045FE18E0E5
:100EF80000224FF400510D4804F03EFE11E07B79CA
:100F0800002B06D101224FF48041084804F034FE3A
:100F180007E000224FF48041044804F02DFE00E071
:100F280000BF00BF1437BD4690BD00BF000402409B
:100F380080B500AF01F058F803F0AEFB00F042FEB8
:100F480000F0BCFD00F03EFC03F090F800F094FCCB
:100F580003F0C4F803F0E0F803F01EFB02F0DEFF34
:100F680000F0A2FE03F058FC03F064FD03F070FDEE
:100F780001F06CF800BF80BD80B400AF00BFBD4673
:100F88005DF8047B704780B500AF03F02BFE00F0DE
:100F980015F800F051F900F0B1F80CF033FA00F050
:100FA80077F800F025F900F0D7F8FFF7C1FF01F056
:100FB80007F801F00FF80CF04BFAFCE780B594B095
:100FC80000AF07F120033022002118460CF0D0FDB5
:100FD80007F10C0300221A605A609A60DA601A61FD
:100FE8000023BB60284B1B6C274A43F080531364D3
:100FF800254B1B6C03F08053BB60BB6800237B60F0
:10100800224B1B68214A43F4804313601F4B1B6823
:1010180003F480437B607B6801233B624FF4803399
:101028007B620223BB634FF48003FB6308233B64AA
:101038004FF4A8737B640223BB640723FB6407F1A6
:101048002003184607F0F0FE0346002B01D000F0FD
:101058000BFA0F23FB6002233B6100237B614FF4F3
:10106800A053BB614FF48053FB6107F10C030521CA
:10107800184608F051F90346002B01D000F0F4F9A6
:1010880000BF5037BD4680BD0038024000700040A8
:1010980080B500AF174B184A1A60164B15225A60D4
:1010A800144B00229A60134B0022DA60114B4FF464
:1010B80040221A610F4B4FF480125A610D4B0022E7
:1010C8001A760C4B00225A760A4B00229A76094B64
:1010D8000022DA76074B00221A77064B00225A774D
:1010E800044803F015FE0346002B01D000F0BCF9BC
:1010F80000BF80BDCC0600200064004080B500AF72
:10110800124B134A1A60114B124A5A600F4B0022B5
:101118009A600E4B0022DA600C4B4FF480421A6141
:101128000A4B00225A61094B00229A61074B0022A0
:10113800DA61064B00221A62044806F07BFE034679
:10114800002B01D000F090F900BF80BDF40600200C
:1011580000540040A086010080B586B000AF07F1BA
:10116800080300221A605A609A60DA603B4600223F
:101178001A605A601D4B4FF080421A601B4B0022C8
:101188005A601A4B00229A60184B44F29F12DA6098
:10119800164B00221A61154B00229A61134808F079
:1011A800C7FA0346002B01D000F05EF94FF48053D4
:1011B800BB6007F1080319460C4808F069FC0346B0
:1011C800002B01D000F050F900233B6000237B6026
:1011D8003B461946054808F08BFE0346002B01D014
:1011E80000F042F900BF1837BD4680BD480700200F
:1011F80080B500AF0E4B0F4A1A600D4B02225A60A1
:101208000B4B00229A600A4B4DF6BF22DA60084B5E
:1012180000221A61064B00229A61054808F088FAF4
:101228000346002B01D000F01FF900BF80BD00BFAE
:10123800900700200020004080B58CB000AF07F177
:101248001C0300221A605A609A60DA601A6100234F
:10125800BB617F4B1B6B7E4A43F0100313637C4BCF
:101268001B6B03F01003BB61BB6900237B61784BE8
:101278001B6B774A43F004031363754B1B6B03F036
:1012880004037B617B6900233B61714B1B6B704AD4
:1012980043F0800313636E4B1B6B03F080033B61C9
:1012A8003B690023FB606A4B1B6B694A43F00103EF
:1012B8001363674B1B6B03F00103FB60FB680023A0
:1012C800BB60634B1B6B624A43F002031363604BC2
:1012D8001B6B03F00203BB60BB6800237B605C4BA5
:1012E8001B6B5B4A43F008031363594B1B6B03F0FA
:1012F80008037B607B6800224FF64171554804F073
:101308003BFC01220121544804F036FC002248F23B
:10131800E011524804F030FC002247F6030150481F
:1013280004F02AFC00224FF47F414E4804F024FCCC
:1013380000224FF40071484804F01EFC4FF6417338
:10134800FB6101233B6200237B620023BB6207F140
:101358001C0319463F4804F05BFA4FF40053FB6145
:101368004FF404133B6200237B6207F11C03194608
:10137800394804F04DFA40F20123FB6101233B6236
:1013880000237B620023BB6207F11C031946324825
:1013980004F03EFA0123FB6100233B6200237B62D9
:1013A80007F11C0319462D4804F032FA48F2E013FD
:1013B800FB6101233B6200237B620023BB6207F1D0
:1013C8001C031946254804F023FA47F60303FB617A
:1013D80001233B6200237B620023BB6207F11C03ED
:1013E80019461F4804F014FA0423FB6100233B62EA
:1013F80000237B6207F11C031946194804F008FA18
:101408004FF47F43FB6101233B6200237B6200238F
:10141800BB6207F11C031946124804F0F9F92023AE
:10142800FB6100233B6200237B6207F11C03194622
:101438000C4804F0EDF900220021282004F0B1F94D
:10144800282004F0CAF900BF3037BD4680BD00BF70
:10145800003802400010024000080240000002402C
:1014680000040240000C024080B400AF72B600BF16
:1014780000BFFDE780B582B000AF00237B60104B52
:101488005B6C0F4A43F4804353640D4B5B6C03F46D
:1014980080437B607B6800233B60094B1B6C084AD8
:1014A80043F080531364064B1B6C03F080533B607E
:1014B8003B68072004F06AF900BF0837BD4680BDC5
:1014C8000038024080B58AB000AF786007F1140395
:1014D80000221A605A609A60DA601A617B681B6899
:1014E800194A93422BD100233B61184B1B6C174AB6
:1014F80043F000731364154B1B6C03F000733B61DE
:101508003B690023FB60114B1B6B104A43F0080337
:1015180013630E4B1B6B03F00803FB60FB6803238C
:101528007B610223BB610023FB6103233B62092328
:101538007B6207F114031946054804F069F900BFF6
:101548002837BD4680BD00BF006400400038024017
:10155800000C024080B58AB000AF786007F1140330
:1015680000221A605A609A60DA601A617B681B6808
:10157800194A93422CD100233B61184B1B6B174A25
:1015880043F002031363154B1B6B03F002033B612B
:101598003B694FF410737B611223BB610123FB612C
:1015A80000233B6204237B6207F1140319460C48AD
:1015B80004F02EF90023FB60084B1B6C074A43F428
:1015C80000131364054B1B6C03F40013FB60FB68EA
:1015D80000BF2837BD4680BD005400400038024097
:1015E8000004024080B584B000AF78607B681B6857
:1015F800B3F1804F16D10023FB601A4B1B6C194ABC
:1016080043F001031364174B1B6C03F00103FB60E9
:10161800FB68002200211C2004F0C3F81C2004F001
:10162800DCF81AE07B681B680F4A934215D1002347
:10163800BB600C4B1B6C0B4A43F480731364094B5F
:101648001B6C03F48073BB60BB68002200212D2053
:1016580004F0A7F82D2004F0C0F800BF1037BD46ED
:1016680080BD00BF003802400020004080B400AFB9
:1016780000BFFDE780B400AF00BFFDE780B400AF56
:1016880000BFFDE780B400AF00BFFDE780B400AF46
:1016980000BFFDE780B400AF00BFBD465DF8047B26
:1016A800704780B400AF00BFBD465DF8047B70474B
:1016B80080B400AF00BFBD465DF8047B704780B5BD
:1016C80000AF03F0E1FA00BF80BD000080B500AFB5
:1016D800024808F0EDF800BF80BD00BF48070020B1
:1016E80080B500AF4FF4005004F07AFA00BF80BD17
:1016F80080B500AF024808F0DBF800BF80BD00BF2E
:101708009007002080B500AF024804F03FFD00BFFD
:1017180080BD00BFB00C002080B586B000AF7860F7
:10172800144A154BD31A7B617B693B61134B1B68C9
:10173800002B02D1114B124A1A60104B1A687B68B1
:1017480013443A699A4207D20CF02AFA03460C224B
:101758001A604FF0FF3309E0084B1B68FB60074B2A
:101768001A687B681344054A1360FB6818461837E3
:10177800BD4680BD0000022000040000D8070020FC
:10178800D811002080B400AF064BD3F88830054A42
:1017980043F47003C2F8883000BFBD465DF8047B8F
:1017A800704700BF00ED00E080B500AF9A2000F060
:1017B800DDFA03461A46024B5A8000BF80BD00BFBF
:1017C800DC07002080B400AF034B00221A7000BF72
:1017D800BD465DF8047B7047DC07002080B500AF8C
:1017E800224B1B8801339AB2204B1A801F4B1B884F
:1017F800092B31D91D4B00221A8000F0F3F903465A
:10180800012B14D11A4B1B88022B27D0184B1B888D
:1018180001339AB2164B1A80154B1B88012B1FD91E
:10182800144B01221A70134B01225A701DE0104B01
:101838001B88002B16D00E4B1B88013B9AB20C4B11
:101848001A800B4B1B88002B0ED10A4B00221A70F2
:10185800084B01225A7008E000BF06E000BF04E010
:1018680000BF02E000BF00E000BF80BDE00700202D
:10187800E2070020E407002080B400AF094B0022F3
:101888005A70084B02221A70074B00221A80074B25
:1018980001221A80064B074A1A6100BFBD465DF84F
:1018A800047B7047E4070020E0070020E2070020DF
:1018B80084080020E517000880B582B000AF034611
:1018C800FB71FB79032B09D0032B0DDC012B02D014
:1018D800022B06D008E000F0AFFA05E000F088FA25
:1018E80002E000F0CDFA00BF00BF0837BD4680BD5A
:1018F80080B582B000AF0346FB71FB79032B09D09A
:10190800032B0DDC012B02D0022B06D008E000F0DF
:101918009FFA05E000F078FA02E000F0BDFA00BF97
:1019280000BF0837BD4680BD80B582B000AF034612
:10193800FB71124B1B780133DAB2104B1A700F4B44
:101948001B78312B15D90D4B00221A70FB79032B0C
:1019580009D0032B0DDC012B02D0022B06D008E0A6
:1019680000F082FA05E000F05BFA02E000F0A0FA6D
:1019780000BF00BF0837BD4680BD00BFE607002096
:1019880090B583B000AF0446084611461A46234670
:10199800FB710346BB710B467B7113463B71FB79A8
:1019A800012B02D100F090FA01E000F099FABB791E
:1019B800012B02D100F0A0FA01E000F0A9FA7B792E
:1019C800012B02D100F0B0FA01E000F0B9FA3B793E
:1019D800012B02D100F0C0FA01E000F0C9FA00BF03
:1019E8000C37BD4690BD000098B500AF2F4B9B78D3
:1019F800012B58D12E4B1B780133DAB22C4B1A70BD
:101A08002A4B5A782A4B1B789A424DD8274B9B88E9
:101A1800013B9AB2254B9A80244B9B88002B03D11B
:101A2800224B00229A703FE0214B00221A701F4B74
:101A380093F90030DAB21F4B93F90030DBB213444C
:101A4800DBB25AB21B4B1A701A4B93F90030072BB2
:101A580002DD184B00221A70164B93F90030002B48
:101A680002DA144B07221A70124B93F900301A4607
:101A7800114B13F822000F4B93F900300E4A9B00CC
:101A8800134459780B4B93F900300B4A9B001344CD
:101A98009A78084B93F90030074C9B002344DB7875
:101AA800FFF76EFF00E000BF98BD00BFE807002009
:101AB800E7070020EE0700205805002080B500AF9A
:101AC80000F00EFA00F024FA00F03AFA00F050FAAA
:101AD8000A4B01229A70094B01221A70074B012206
:101AE8005A70074B00221A70044B40F2F6429A8053
:101AF800044B054A5A6100BF80BD00BFE8070020BB
:101B0800E707002084080020F119000880B485B098
:101B180000AF0346FB710023FB730023BB6012E098
:101B2800FB7B5B00FB7397F9073003F001035AB2A4
:101B380097F90F3013435BB2FB73FB795B08FB71BA
:101B4800BB680133BB60BB68072BE9DDFB7B18462C
:101B58001437BD465DF8047B7047000080B500AFC0
:101B6800702000F0E7F803461A460C4B9A70742070
:101B780000F0E0F80346DB43DBB21846FFF7C6FF88
:101B880003461A46054BDA70762000F0D3F8034670
:101B9800DB43DAB2014B1A7100BF80BDF0070020A9
:101BA80080B500AF064B5B791946782000F008F93C
:101BB800034B9B7919467A2000F002F900BF80BDDB
:101BC800F007002080B400AF054B00221A70044BC8
:101BD80001225A7000BFBD465DF8047B704700BF04
:101BE800F007002080B500AF0121054803F0ACFFE5
:101BF8000346012B01D1012300E00023184680BDD4
:101C08000000024080B500AF0021034803F0C5FC86
:101C18000346184680BD00BFCC06002080B500AF43
:101C2800024803F063FB0346184680BDCC0600203B
:101C380080B582B000AF78607B68074A002107480A
:101C480003F089FB0346002B01D0002300E00123A9
:101C580018460837BD4680BDF8070020CC0600208E
:101C680080B584B000AFF860B9601346FB710B4AC9
:101C7800FB681360FB79094A1361094BBA68074985
:101C8800084803F063FA0346002B01D0012300E063
:101C9800002318461037BD4680BD00BF1408002039
:101CA80054080020CC06002080B500AF1E4B00224F
:101CB8005A601D4B00229A601B4B0022DA601A4BB7
:101CC80000221A75194B4FF400521A60174B002264
:101CD8005A60164B4FF47F429A60144B0022DA6028
:101CE800124B00221A61114B0D225A610F4B002230
:101CF8009A610E4B0122DA610C4B01221A620B49E0
:101D08000B4803F001F90346002B01D0012308E03A
:101D1800074803F0D7F90346002B01D0012300E060
:101D28000023184680BD00BF140800202C0800209E
:101D3800CC06002080B586B002AF0346FB71FB7964
:101D480099B207F10F02012300930123064806F018
:101D5800B3FA0346002B01D1FB7B00E000231846B1
:101D68001037BD4680BD00BFF406002080B586B0A0
:101D780002AF0346FB71FB7999B207F10C0201230C
:101D8800009302230D4806F097FA0346002B0FD163
:101D98003B7B1BB29B011BB203F470731AB27B7BB3
:101DA8009B08DBB21BB213431BB2FB81FB8900E02B
:101DB800002318461037BD4680BD00BFF40600203A
:101DC80080B584B002AF03460A46FB711346BB7167
:101DD800FB7999B2BA1D012300930123034806F049
:101DE8006DF900BF0837BD4680BD00BFF40600206E
:101DF80080B500AF01224FF48071024803F0BCFEA9
:101E080000BF80BD0000024080B500AF00224FF443
:101E18008071024803F0B0FE00BF80BD00000240A0
:101E280080B500AF4FF48071024803F0BEFE00BFDA
:101E380080BD00BF0000024080B500AF01224FF412
:101E48000041024803F098FE00BF80BD0000024038
:101E580080B500AF00224FF40041024803F08CFE29
:101E680000BF80BD0000024080B500AF4FF40041C4
:101E7800024803F09AFE00BF80BD00BF0000024088
:101E880080B500AF01224FF40071024803F074FEE0
:101E980000BF80BD0008024080B500AF00224FF4AB
:101EA8000071024803F068FE00BF80BD00080240D0
:101EB80080B500AF4FF40071024803F076FE00BF12
:101EC80080BD00BF0008024080B500AF012201219B
:101ED800024803F051FE00BF80BD00BF0010024061
:101EE80080B500AF00220121024803F045FE00BF83
:101EF80080BD00BF0010024080B500AF0122402124
:101F0800024803F039FE00BF80BD00BF0000024058
:101F180080B500AF00224021024803F02DFE00BF2B
:101F280080BD00BF0000024080B500AF01228021C3
:101F3800024803F021FE00BF80BD00BF0000024040
:101F480080B500AF00228021024803F015FE00BFD3
:101F580080BD00BF0000024080B500AF01222021F3
:101F6800024803F009FE00BF80BD00BF0000024028
:101F780080B500AF00222021024803F0FDFD00BF1C
:101F880080BD00BF0000024080B582B000AF78601D
:101F98007B68084A934202D1074B1B6898477B68C5
:101FA800064A934201D102F0B5FD00BF0837BD468D
:101FB80080BD00BF90070020580800204807002077
:101FC80080B500AF024807F003FC00BF80BD00BF2A
:101FD8009007002080B500AF024807F0F9FB00BF6A
:101FE80080BD00BF4807002080B400AF034B044AFF
:101FF8001A6000BFBD465DF8047B70475808002092
:10200800810F000880B483B000AF0346FB8000BF97
:102018000C37BD465DF8047B7047000080B500AF03
:1020280001224021024803F0A7FD00BF80BD00BF88
:102038000010024080B500AF00224021024803F0A2
:102048009BFD00BF80BD00BF0010024080B500AFFF
:10205800094B00221A70094B01221A70084B002202
:102068001A70002002F020FD00F010F8054B064A17
:102078009A6200BF80BD00BF5C0800207805002080
:102088005D08002084080020AD20000880B500AF5E
:10209800034B01221A7002F0FBFC00BF80BD00BF99
:1020A8005D08002080B500AF244B1B78002B41D081
:1020B800234B1B680133224A1360214B1B684F2BAB
:1020C8003AD91F4B00221A601E4B1B78002B15D0E3
:1020D8001D4B1B785D2B0DD81B4B1B780133DAB2D7
:1020E800194B1A70184B1B785E2B1DD9164B5E22A4
:1020F8001A7019E0134B00221A7015E0124B1B7866
:10210800002B0ED0104B1B78002B06D00E4B1B78E3
:10211800013BDAB20C4B1A7006E00B4B00221A7026
:1021280002E0084B01221A70074B1B78184602F090
:10213800BBFC02E000BF00E000BF80BD5D080020DE
:1021480060080020780500205C08002080B483B077
:1021580000AF0F4B4FF480725A610023FB7107E008
:10216800FB790B4A134430221A73FB790133FB7154
:10217800FB79072BF4D9064B0822DA72044B0122AB
:102188009A7200BF0C37BD465DF8047B704700BFEC
:10219800AC08002080B483B000AF0F4B40F20112AE
:1021A8005A610023FB7107E0FB790B4A1344312283
:1021B8001A73FB790133FB71FB79072BF4D9064BB2
:1021C8000822DA72044B01229A7200BF0C37BD460E
:1021D8005DF8047B704700BFAC08002080B483B072
:1021E80000AF244B40F203125A61234BDB78032BD8
:1021F80024D0032B31DC012B02D0022B0FD02CE092
:102208000023FB7107E0FB791A4A13444E221A7324
:10221800FB790133FB71FB79072BF4D91DE000230F
:10222800BB7107E0BB79134A13444F221A73BB7979
:102238000133BB71BB79072BF4D90EE000237B7106
:1022480007E07B790B4A13444D221A737B790133DB
:102258007B717B79072BF4D900BF064B0822DA7211
:10226800044B01229A7200BF0C37BD465DF8047B0F
:10227800704700BFAC0800206808002080B483B015
:1022880000AF234B4FF482725A61224BDB78012B4B
:1022980024D0204B1B78012B02D0032B0FD02BE02E
:1022A8000023FB7107E0FB79194A134446221A738D
:1022B800FB790133FB71FB79072BF4D91CE0002370
:1022C800BB7107E0BB79124A134445221A73BB79E4
:1022D8000133BB71BB79072BF4D90DE000237B7167
:1022E80007E07B790A4A134452221A737B79013337
:1022F8007B717B79072BF4D9054B0822DA72044BE2
:1023080001229A7200BF0C37BD465DF8047B704706
:10231800AC0800206808002080B483B000AF124BDE
:102328004FF483725A610023FB710DE0FB790E4A6A
:10233800134445221A73FB7901330B4A1344522282
:102348001A73FB790233FB71FB79072BEED9064B25
:102358000822DA72044B01229A7200BF0C37BD467C
:102368005DF8047B704700BFAC08002080B400AF64
:102378001C4B5B78012B01D000232EE0194B5B7EB0
:10238800002B04D0174B00225A70002325E0154B70
:102398009B78312B20D1134BDB78312B1CD1114B7F
:1023A8001B79312B18D10F4B5B79312B14D10D4B85
:1023B8009B79312B10D10B4BDB79312B0CD1094B8D
:1023C8001B7A312B08D1074B5B7A312B04D1054B93
:1023D80000225A70012300E000231846BD465DF82C
:1023E800047B7047AC08002080B400AF1C4B5B78BE
:1023F800012B01D000232EE0194B5B7E002B04D06B
:10240800174B00225A70002325E0154B9B78302B80
:1024180020D1134BDB78302B1CD1114B1B79302B7F
:1024280018D10F4B5B79302B14D10D4B9B79302B86
:1024380010D10B4BDB79302B0CD1094B1B7A302B8D
:1024480008D1074B5B7A302B04D1054B00225A7018
:10245800012300E000231846BD465DF8047B704761
:10246800AC08002080B400AF1C4B5B78012B01D076
:1024780000232EE0194B5B7E002B04D0174B002263
:102488005A70002325E0154B9B78452B20D1134B20
:10249800DB78522B1CD1114B1B79452B18D10F4BD4
:1024A8005B79522B14D10D4B9B79452B10D10B4BDB
:1024B800DB79522B0CD1094B1B7A452B08D1074BE2
:1024C8005B7A522B04D1054B00225A70012300E09D
:1024D80000231846BD465DF8047B7047AC08002011
:1024E80080B500AF764B01221A70764B1B78012B12
:1024F8001DD1744B9B7823F05503002B0BD1714BE6
:10250800DB7823F03403002B05D16E4B1B7903F0E5
:102518000203002B0BD16B4B00221A706A4B00226E
:102528001A70FFF7F9FE694B694A1A60C6E0FFF7AF
:1025380099FF0346012B09D1624B00221A70624BA6
:1025480000221A70614B624A1A60B7E0614B1B782F
:10255800012B2DD1604B1B780133DAB25E4B1A7018
:102568005D4B1B78012B09D1564B01225A70554BF4
:102578009B7903F07F03DAB2524B9A71564B1B7862
:10258800C72B15D94F4B1B7903F00103002B0FD034
:102598004C4B01225A704B4B9B7963F07F03DAB2A4
:1025A800484B9A714B4B00221A704B4B00221A7001
:1025B800FFF71AFF0346012B09D1424B00221A707C
:1025C800414B00221A70414B444A1A6076E03D4B59
:1025D8001B78012B13D13B4BDB785B09DBB203F093
:1025E8000103002B0BD0374B00221A70364B002208
:1025F8001A70FFF7ABFD354B384A1A605EE0384B6E
:102608005B78012B16D1364B1B78012B12D12D4B41
:1026180000221A702C4B00221A70314B00225A707B
:102628002A4B304A1A60304B01229A702E4B0122F5
:102638001A7043E0234B1B78012B1DD1214BDB780B
:102648001B09DBB203F00103002B15D01D4B002240
:102658001A701D4B00221A701A4B01225A70194B1E
:102668005B7923F00103DAB2164B5A71FFF792FD3A
:10267800164B1E4A1A6021E0FFF778FE0346012B2D
:1026880013D1104B00221A700F4B00221A700D4BF9
:1026980001225A700B4B5B7923F00103DAB2094B24
:1026A8005A710A4B114A1A6008E0114B00225A70FD
:1026B800044B00221A70044B00221A7080BD00BF20
:1026C80068080020F0070020DC07002084080020AC
:1026D800F13E0008640800206C080020FD26000870
:1026E800E407002069280008E8070020B93200083C
:1026F800AC08002080B582B000AF374BDB781B09EF
:10270800DBB203F00103FB71344B02221A70324B27
:1027180000221A70324B00221A70324B1B78FA7959
:102728009A4210D0304B1B780133DAB22E4B1A7014
:102738002D4B1B78022B09D92A4AFB7913702A4B97
:1027480000221A7002E0284B00221A70274B1B78CF
:10275800002B27D1234B1B78012B23D1244B1B782B
:102768000133DAB2224B1A70214B1B78012B03D1AB
:10277800204B00221A8015E01D4B1B78022B11D12B
:102788001C4B1B88B3F57A7F0CD2FFF703FD1A4B5D
:102798001A4A1A60164B00221A70124B1A78134BF9
:1027A8001A7015E00F4B1A78104B1A70104B1B78E3
:1027B800002B0DD00F4B1B880A339AB20D4B1A8091
:1027C8000C4B1B88B3F57A7F02D3094B00221A7091
:1027D8000837BD4680BD00BFF0070020680800200C
:1027E800DC0700206D0800206E0800206F0800201C
:1027F800700800207208002084080020B932000800
:1028080080B400AF144B1B780133DAB2124B1A7044
:10281800114B1B78312B1AD90F4B00221A700F4B12
:1028280001225A700D4B5B7903F00103002B07D08E
:102838000A4B5B7923F00103DAB2084B5A7106E0C0
:10284800064B5B7943F00103DAB2044B5A7100BFBF
:10285800BD465DF8047B704774080020F00700202F
:1028680080B400AF054B04221A70054B054A1A6064
:1028780000BFBD465DF8047B704700BF68080020B4
:10288800840800209128000880B500AFFFF7B8FF42
:102898002E4B1B78012B15D12C4B9B7823F055031D
:1028A800002B05D1294BDB7823F03003002B09D00E
:1028B800264B00221A70264B00221A70254B264AF6
:1028C8001A6042E0214B1B78012B11D11F4BDB789A
:1028D8005B09DBB203F00103002B09D01B4B00227C
:1028E8001A701B4B00221A701A4B1C4A1A602CE0F3
:1028F800164B1B78012B22D1144BDB781B09DBB25A
:1029080003F00103002B1AD0104B00221A700F4B52
:1029180001225A700D4B5B7923F04003DAB20B4B5E
:102928005A710A4B5B7963F07F03DAB2074B5A712D
:10293800074B00221A70074B094A1A6005E0034B3F
:1029480000221A70024B00221A7080BDF007002086
:10295800DC07002084080020F13E0008FD2600085E
:102968006D29000880B400AF4B4B1B780133DAB2F5
:10297800494B1A70494B1B78012B18D1474B9B7850
:1029880023F05903002B05D1444BDB7823F03403A3
:10299800002B0CD0404B00221A70404B00221A70BA
:1029A8003F4B00221A703F4B3F4A1A606FE03B4B87
:1029B8001B78012B25D1394BDB785B09DBB203F09F
:1029C8000103002B1DD0344B00221A70334B002218
:1029D8001A70324B01225A70304B5B7903F07F0337
:1029E800DAB22E4B5A712D4B5B7943F04003DAB2C1
:1029F8002A4B5A712A4B00221A702A4B2B4A1A600A
:102A080045E0254B1B78C82B0ED1244B5B7903F08E
:102A18007F03DAB2214B5A71204B5B7943F04003B4
:102A2800DAB21E4B5A7132E01B4B1B78C82B28D9DF
:102A38001A4B1B78012B24D1184BDB781B09DBB20E
:102A480003F00103002B1CD0134B00221A70134B08
:102A580000221A70114B01225A70104B5B7923F037
:102A68002003DAB20D4B5A710C4B5B7943F010031B
:102A7800DAB20A4B5A710A4B00221A70094B0C4AF7
:102A88001A60064B00221A70054B00221A70BD46C8
:102A98005DF8047B704700BF75080020F007002030
:102AA800DC07002084080020F13E0008FD2600080D
:102AB800BD2A000880B500AFFFF7A2FE384B1B788F
:102AC8000133DAB2364B1A70364B1B78012B18D10A
:102AD800344B9B7823F07D03002B05D1314BDB78F9
:102AE80023F03503002B0CD02D4B00221A702D4BF0
:102AF80000221A702C4B00221A702C4B2C4A1A6098
:102B08004CE0284B1B78012B14D1264BDB785B0952
:102B1800DBB203F00103002B0CD0214B00221A700A
:102B2800204B00221A70204B00221A701F4B214A9A
:102B38001A6033E01A4B1B78C72B29D9194B9B789D
:102B48005B09DBB203F00103002B21D0144B0022F8
:102B58001A70144B01225A70124B5B7943F0200310
:102B6800DAB2104B5A710F4B5B7923F01003DAB2CB
:102B78000C4B5A710B4B9B7923F00203DAB2094BC9
:102B88009A71094B00221A70084B0B4A1A6005E02B
:102B9800044B00221A70044B00221A7080BD00BF3B
:102BA80076080020F0070020DC07002084080020B9
:102BB800F13E0008FD260008C52B000880B500AFCF
:102BC800FFF71EFE324B1B78012B13D1304B9B783D
:102BD80023F07503002B03D12D4BDB783F2B09D94C
:102BE8002B4B00221A702B4B00221A702A4B2B4AAF
:102BF8001A604CE0264B1B78012B1BD1244BDB7849
:102C08005B09DBB203F00103002B13D0204B002239
:102C18001A701F4B01225A701D4B9B7943F0020317
:102C2800DAB21B4B9A711B4B00221A701A4B1C4AC2
:102C38001A602CE0164B1B78012B22D1144BDB7841
:102C48001B09DBB203F00103002B1AD0104B002242
:102C58001A700F4B01225A700D4B9B7943F00203F7
:102C6800DAB20B4B9A710A4B9B7923F00103DAB263
:102C7800074B9A71074B00221A70074B094A1A60D2
:102C880005E0034B00221A70024B00221A7080BD27
:102C9800F0070020DC07002084080020F13E00082F
:102CA800FD260008B12C000880B500AFFFF7A8FD8D
:102CB8003B4B1B780133DAB2394B1A70394B1B780E
:102CC800012B18D1374B9B7823F09503002B05D1A6
:102CD800344BDB7823F03003002B0CD0304B002230
:102CE8001A70304B00221A702F4B00221A702F4B8B
:102CF8002F4A1A6052E02B4B1B78012B1ED1294B0F
:102D0800DB785B09DBB203F00103002B16D0244B00
:102D180000221A70234B00221A70224B01225A708B
:102D2800204B9B7943F00103DAB21E4B9A711E4B7C
:102D380000221A701D4B1F4A1A602FE0184B1B788F
:102D4800C72B25D9174B9B78DB09DBB203F00103AE
:102D5800002B1DD0124B00221A70124B00221A7041
:102D6800104B01225A700F4B9B7943F00103DAB2E2
:102D78000C4B9A710B4B5B7923F00803DAB2094BC1
:102D88005A71094B00221A70084B0B4A1A6005E069
:102D9800044B00221A70044B00221A7080BD00BF39
:102DA80077080020F0070020DC07002084080020B6
:102DB800F13E0008FD260008C52D000880B500AFCB
:102DC800FFF71EFD374B1B78012B15D1354B9B7830
:102DD80023F05503002B05D1324BDB7823F0700329
:102DE800002B09D02F4B00221A702F4B00221A708B
:102DF8002E4B2F4A1A6053E02A4B1B78012B1BD10C
:102E0800284BDB785B09DBB203F00103002B13D0FE
:102E1800244B00221A70234B01225A70214B5B79F4
:102E280043F00803DAB21F4B5A711F4B00221A7085
:102E38001E4B204A1A6033E01A4B1B78012B29D10C
:102E4800184BDB781B09DBB203F00103002B21D000
:102E5800144B00221A70134B01225A70114B5B79E4
:102E680043F00803DAB20F4B5A710E4B5B7923F02B
:102E78000203DAB20B4B5A710A4B5B7943F0040335
:102E8800DAB2084B5A71084B00221A70074B0A4AEB
:102E98001A6005E0034B00221A70034B00221A70D7
:102EA80080BD00BFF0070020DC0700208408002058
:102EB800F13E0008FD260008C52E000880B400AFCA
:102EC800404B1B780133DAB23E4B1A703E4B1B78ED
:102ED800012B18D13C4B9B7823F05603002B05D1CE
:102EE800394BDB7823F03803002B0CD0354B00220C
:102EF8001A70354B00221A70344B00221A70344B6A
:102F0800344A1A6059E0304B1B78012B25D12E4BDF
:102F1800DB785B09DBB203F00103002B1DD0294BE2
:102F280000221A70284B00221A70274B01225A706F
:102F3800254B5B7943F00203DAB2234B5A71224BDB
:102F48005B7923F00403DAB21F4B5A711F4B00223E
:102F58001A701F4B204A1A602FE01A4B1B78C72B98
:102F680025D9194B9B785B08DBB203F00103002BD2
:102F78001DD0144B00221A70134B00221A70124BEA
:102F880001225A70104B5B7943F00203DAB20E4B00
:102F98005A710D4B5B7923F00403DAB20A4B5A716C
:102FA8000A4B00221A700A4B0C4A1A6005E0064BBD
:102FB80000221A70054B00221A70BD465DF8047B8A
:102FC800704700BF78080020F0070020DC070020C9
:102FD80084080020F13E0008FD260008E92F0008BB
:102FE80080B500AFFFF70CFC904B1B78012B5BD131
:102FF8008F4B1B780133DAB28D4B1A708C4B1B78D0
:10300800012B0AD18B4B01225A708A4B9B7903F012
:103018007F03DAB2874B9A7143E1854B1B78C72B44
:103028003ED9844B1B7903F00103002B38D0814B28
:1030380001225A707F4B5B7943F00103DAB27D4B72
:103048005A717C4B9B7963F07F03DAB2794B9A71A2
:10305800764B00221A70764B00221A70764B1B783A
:10306800012B02D0022B0AD01AE0744B744A1A6062
:10307800704B00221A70734B00221A7011E1724BC8
:103088001B78032B05D1704B00221A706B4B6F4ACB
:103098001A60684B00221A706A4B00221A7000E10D
:1030A800644B00221A70FCE0624B1B78012B1BD189
:1030B800604B9B7823F05503002B0BD15D4BDB78DD
:1030C80023F03003002B05D15A4B1B7903F0020380
:1030D800002B09D15C4B00221A70564B00221A7043
:1030E800564B5B4A1A60DCE0524B1B78012B30D1FF
:1030F800504BDB785B09DBB203F00103002B28D0CF
:10310800514B00221A704B4B00221A70494B012276
:103118005A70484B9B7923F01003DAB2454B9A71E9
:10312800444B9B7943F02003DAB2424B9A71414BEE
:103138009B7943F04003DAB23E4B9A713D4B9B7941
:1031480003F07F03DAB23B4B9A713B4B01221A70B2
:10315800A7E0384B1B78012B40F09D80354BDB787E
:103168001B09DBB203F00103002B00F09480314B04
:103178001B7903F00103002B00F08D80324B1B7884
:103188000133DAB2304B1A702E4B00221A70294BD9
:1031980000221A70274B01225A70244B01221A7000
:1031A800294B1B78032B55D0032B70DC012B02D045
:1031B800022B1DD06BE01F4B9B7943F01003DAB252
:1031C8001C4B9A711B4B9B7923F02003DAB2194BE5
:1031D8009A71184B9B7943F04003DAB2154B9A71F8
:1031E800144B9B7963F07F03DAB2124B9A714EE06D
:1031F800104B9B7943F01003DAB20E4B9A710D4BCA
:103208009B7943F02003DAB20A4B9A71094B9B79F8
:1032180023F04003DAB2074B9A71064B9B7963F0AF
:103228007F03DAB2034B9A7131E000BF64080020D3
:1032380079080020F00700207A0800208408002080
:10324800FD260008DC0700207B080020E924000890
:10325800F13E0008134B9B7923F01003DAB2114BAF
:103268009A71104B9B7943F02003DAB20D4B9A7197
:103278000C4B9B7943F04003DAB20A4B9A71094B25
:103288009B7963F07F03DAB2064B9A7100BF064B55
:1032980002221A7005E0034B00221A70034B002229
:1032A8001A7080BDF00700207A080020DC07002093
:1032B80080B500AF414B03221A70414B1B78012B9C
:1032C8001DD13F4B9B7823F0D503002B0BD13C4BF2
:1032D800DB7823F03703002B05D1394B1B7903F03A
:1032E8000203002B0BD1364B00221A70354B0022FB
:1032F8001A70FFF711F8344B344A1A605DE0FFF793
:10330800B1F80346012B09D12D4B00221A702D4B21
:1033180000221A702C4B2D4A1A604EE0FFF764F811
:103328000346012B09D1264B00221A70254B002297
:103338001A70254B264A1A603FE0214B9B789B095F
:10334800DBB203F00103002B12D01D4B9B78DB0985
:10335800DBB203F00103002B0AD1194B01225A708A
:10336800174B9B7923F00103DAB2154B9A711EE0D3
:10337800134B9B789B09DBB203F00103002B16D19A
:103388000F4B9B78DB09DBB203F00103002B0ED057
:103398000B4B01225A700A4B9B7943F00103DAB2B6
:1033A800074B9A71FEF76AFF074B0A4A1A60044BEB
:1033B80000221A70034B00221A7080BD6808002092
:1033C800F0070020DC07002084080020F13E0008F8
:1033D800FD260008E133000880B500AF454B1B7897
:1033E800012B1DD1434B9B7823F0D503002B0BD128
:1033F800404BDB7823F03703002B05D13D4B1B797D
:1034080003F00203002B0BD13A4B00221A703A4BFF
:1034180000221A70FEF780FF384B394A1A6067E0BD
:10342800FFF720F80346012B09D1324B00221A700E
:10343800314B00221A70314B314A1A6058E0FEF7BE
:10344800D3FF0346012B09D12A4B00221A702A4BBD
:1034580000221A70294B2B4A1A6049E02A4B1B7824
:103468000133DAB2284B1A70274B1B78C72B1FD9A8
:10347800254B00221A701F4BDB7803F00703072B3C
:103488000ED0072B10DC022B02D0062B04D00BE049
:103498001E4B0122DA700BE01C4B0222DA7007E0A7
:1034A8001A4B0322DA7003E0184B0022DA7000BFCF
:1034B800164BDB78002B15D00E4B01225A700D4BA2
:1034C8005B7943F01003DAB20A4B5A71094B5B7906
:1034D80023F02003DAB2074B5A71FEF77FFE074B41
:1034E8000B4A1A60034B00221A70034B00221A7011
:1034F80080BD00BFF0070020DC0700208408002002
:10350800F13E0008FD2600087C080020680800201D
:103518001D35000880B500AF454B1B78012B1DD128
:10352800434B9B7823F07503002B0BD1404BDB7882
:1035380023F03703002B05D13D4B1B7903F0020321
:10354800002B0BD13A4B00221A703A4B00221A700A
:10355800FEF7E2FE384B394A1A6067E0FEF782FF51
:103568000346012B09D1324B00221A70314B00223D
:103578001A70314B314A1A6058E0FEF735FF03469E
:10358800012B09D12A4B00221A702A4B00221A70EB
:10359800294B2B4A1A6049E0254B9B781B09DBB263
:1035A80003F00103002B19D0214B9B785B09DBB298
:1035B80003F00103002B11D11D4B01225A701C4B43
:1035C8005B7923F02003DAB2194B5A71184B5B79F7
:1035D80043F01003DAB2164B5A7121E0144B9B7872
:1035E8001B09DBB203F00103002B19D1104B9B78A8
:1035F8005B09DBB203F00103002B11D00D4B5B8894
:10360800B3F5587F0CD30A4B01225A70084B9B79AB
:1036180023F00203DAB2064B9A71074B094A1A6083
:10362800034B00221A70034B00221A7080BD00BFA2
:10363800F0070020DC07002084080020F13E000885
:10364800FD2600085136000880B500AF4D4B1B78A9
:10365800012B1BD14B4B9B7823F07D03002B09D109
:10366800484BDB783F2B05D8464B1B7903F0020308
:10367800002B0BD1434B00221A70434B00221A70C7
:10368800FEF74AFE414B424A1A607AE0FEF7EAFE2C
:103698000346012B09D13B4B00221A703A4B0022FA
:1036A8001A703A4B3A4A1A606BE0FEF79DFE0346E1
:1036B800012B09D1334B00221A70334B00221A70A8
:1036C800324B344A1A605CE02E4B9B781B09DBB204
:1036D80003F00103002B1DD12A4B9B785B09DBB259
:1036E80003F00103002B15D0274B5B88B3F5547FFB
:1036F80010D3244B01225A70224B5B7923F04003EC
:10370800DAB2204B5A711F4B5B7963F07F03DAB250
:103718001C4B5A711B4BDB78DB08DBB203F001034F
:10372800002B28D0174B01225A70164B5B7943F0B7
:103738004003DAB2134B5A71124B5B7903F07F03E3
:10374800DAB2104B5A710F4B9B7943F00203DAB28D
:103758000C4B9A710B4B5B7943F02003DAB2094B9F
:103768005A71084B5B7923F01003DAB2054B5A7192
:10377800064B094A1A60034B00221A70024B0022BA
:103788001A7080BDF0070020DC07002084080020A4
:10379800F13E0008FD260008A537000880B500AFF7
:1037A8009A4B1B78012B1CD1984B9B785BB2002B52
:1037B8000BDB964BDB7823F03D03002B05D1934BB5
:1037C8001B7903F00203002B0BD1904B00221A70D7
:1037D8008F4B00221A70FEF79FFD8E4B8E4A1A609F
:1037E80013E1FEF73FFE0346012B09D1874B002268
:1037F8001A70874B00221A70864B874A1A6004E1B8
:10380800FEF7F2FD0346012B09D1804B00221A7006
:103818007F4B00221A707F4B804A1A60F5E0804B7C
:103828001B780133DAB27E4B1A707D4B1B78C72B9D
:1038380040F2E5807A4B00221A70744BDB78DB0883
:10384800DBB203F00103002B25D0704B9B7803F00B
:103858000103002B1FD06D4B5B79DB08DBB203F053
:103868000103002B17D0694B01225A70674B5B7913
:1038780023F00203DAB2654B5A71644B5B7943F06B
:103888000403DAB2614B5A71604B00221A70604B24
:1038980000221A70B9E05D4BDB78DB08DBB203F07D
:1038A8000103002B20D0594B9B785B08DBB203F057
:1038B8000103002B18D0554B5B79DB08DBB203F012
:1038C8000103002B10D0514B01225A704F4B5B79EA
:1038D80023F00803DAB24D4B5A714C4B00221A7090
:1038E8004B4B00221A7090E0484BDB78DB08DBB2C8
:1038F80003F00103002B27D0444B9B785B08DBB215
:1039080003F00103002B1FD0404B5B79DB08DBB2CF
:1039180003F00103002B17D13C4B01225A703B4B9B
:103928005B7943F00203DAB2384B5A71374B5B7953
:1039380023F00403DAB2354B5A71344B00221A7063
:10394800334B00221A7060E0304B9B7803F0010380
:10395800002B54D02D4B5B79DB08DBB203F001035D
:10396800002B4CD1294B01225A702E4BDB78012BAE
:1039780005D0002B2FDD023B012B2CD815E0234B63
:103988009B7943F01003DAB2204B9A711F4B9B7955
:1039980023F02003DAB21D4B9A711C4B9B7943F03C
:1039A8004003DAB2194B9A7115E0184B9B7943F032
:1039B8001003DAB2154B9A71144B9B7943F020032C
:1039C800DAB2124B9A71114B9B7923F04003DAB2A9
:1039D8000E4B9A7100BF0D4B9B7923F00803DAB2A6
:1039E8000A4B9A71094B9B7963F07F03DAB2074B54
:1039F8009A710D4B01221A70064B0C4A1A60034B40
:103A080000221A70024B00221A7080BDF0070020B5
:103A1800DC07002084080020F13E0008FD2600088D
:103A28007D0800206808002064080020393A000852
:103A380080B500AF484B1B78012B1DD1464B9B78B6
:103A480023F05503002B0BD1434BDB7823F03803CD
:103A5800002B05D1404B1B7903F00203002B0BD13F
:103A68003D4B00221A703D4B00221A70FEF754FCA1
:103A78003B4B3C4A1A606DE0FEF7F4FC0346012B11
:103A880009D1354B00221A70344B00221A70344B7E
:103A9800344A1A605EE0FEF7A7FC0346012B09D101
:103AA8002D4B00221A702D4B00221A702C4B2E4AD7
:103AB8001A604FE02D4B1B78012B2DD12C4B1B7816
:103AC8000133DAB22A4B1A70294B1B78012B09D122
:103AD800214B01225A70204B9B7903F07F03DAB205
:103AE8001D4B9A71224B1B78952B15D91A4B1B79B4
:103AF80003F00103002B0FD0174B01225A70164B0D
:103B08009B7963F07F03DAB2134B9A71174B00224B
:103B18001A70174B00221A70144B1B78002B13D104
:103B28000D4B01225A700C4B5B7923F00203DAB279
:103B3800094B5A71084B5B7943F00403DAB2064B20
:103B48005A71074B0B4A1A60034B00221A70034B39
:103B580000221A7080BD00BFF0070020DC0700209B
:103B680084080020F13E0008FD26000864080020B3
:103B78007E080020813B000880B500AF3B4B1B78D6
:103B8800012B1DD1394B9B7823F05703002B0BD108
:103B9800364BDB7823F03003002B05D1334B1B79F0
:103BA80003F00203002B0BD1304B00221A70304B6C
:103BB80000221A70FEF7B0FB2E4B2F4A1A6054E011
:103BC800FEF750FC0346012B09D1284B00221A703E
:103BD800274B00221A70274B274A1A6045E0FEF748
:103BE80003FC0346012B09D1204B00221A70204BFD
:103BF80000221A701F4B214A1A6036E01B4B9B7833
:103C08005B08DBB203F00103002B28D0174B9B782D
:103C180003F00103002B22D1144B5B79DB08DBB2E4
:103C280003F00103002B1AD1104B01225A700F4BDD
:103C38005B7943F00803DAB20C4B5A710B4B5B7992
:103C480043F00203DAB2094B5A71084B5B7923F04F
:103C58000403DAB2054B5A71064B094A1A60034B42
:103C680000221A70024B00221A7080BDF007002053
:103C7800DC07002084080020F13E0008FD2600082B
:103C88008D3C000880B500AF5D4B1B78012B1DD122
:103C98005B4B9B7823F05703002B0BD1584BDB78F9
:103CA80023F03003002B05D1554B1B7903F0020399
:103CB800002B0BD1524B00221A70524B00221A7063
:103CC800FEF72AFB504B514A1A6098E0FEF7CAFBF0
:103CD8000346012B09D14A4B00221A70494B002296
:103CE8001A70494B494A1A6089E0FEF77DFB034682
:103CF800012B09D1424B00221A70424B00221A7044
:103D0800414B434A1A607AE0424B1B78012B38D169
:103D1800414B1B780133DAB23F4B1A703E4B1B788C
:103D2800012B09D1364B01225A70354B9B7903F090
:103D38007F03DAB2324B9A71374B1B78952B20D917
:103D48002F4B1B7903F00103002B1AD02C4B0122B7
:103D58005A702B4B5B7943F00103DAB2284B5A7146
:103D6800274B9B7963F07F03DAB2254B9A71294B75
:103D780000221A70284B00221A70234B274A1A6017
:103D88003DE01F4B9B7803F00103002B31D01C4B07
:103D98009B785B08DBB203F00103002B29D11D4B94
:103DA8001B78012B25D0164B9B7923F00803DAB238
:103DB800134B9A71124B9B7923F01003DAB2104B14
:103DC8009A710F4B9B7943F02003DAB20C4B9A712E
:103DD8000B4B9B7943F04003DAB2094B9A71084BBD
:103DE8009B7963F07F03DAB2054B9A71094B012284
:103DF8001A70034B00221A70024B00221A7080BD01
:103E0800F0070020DC07002084080020F13E0008AD
:103E1800FD260008640800207F080020293E0008CD
:103E280080B400AF104B1B780133DAB20E4B1A7016
:103E38000D4B1B78C82B12D10B4B00221A700B4B61
:103E480001229A70094BFF221A70084B01225A70FE
:103E5800064B40F2F6429A80054B064A1A6000BFAC
:103E6800BD465DF8047B704780080020E807002005
:103E780084080020813E000880B500AF154B1B78F0
:103E88000133DAB2134B1A70124B1B78C82B20D1AE
:103E9800114B9B78002B1BD10E4B00221A700E4B36
:103EA80001229A700C4B01221A700B4B01225A7096
:103EB800094B40F2F6429A80084B0022DA70074B11
:103EC80001221A70FEF7DAF9054B064A1A6000E07B
:103ED80000BF80BD81080020E80700206808002096
:103EE80084080020E924000880B400AF074B0522AD
:103EF8001A70074B9B7A002B02D1064B064A1A60B0
:103F080000BFBD465DF8047B704700BF680800200D
:103F1800AC08002084080020810F000880B400AF9E
:103F28003F4B5B7943F00103DAB23D4B5A713C4B8E
:103F38005B7943F00203DAB2394B5A71384B5B793B
:103F480023F00403DAB2364B5A71354B5B7943F0F0
:103F58000803DAB2324B5A71314B5B7923F0100304
:103F6800DAB22F4B5A712E4B5B7943F02003DAB249
:103F78002B4B5A712A4B5B7943F04003DAB2284B3A
:103F88005A71274B5B7903F07F03DAB2244B5A71DD
:103F9800234B9B7943F00103DAB2214B9A71204BF2
:103FA8009B7943F00203DAB21D4B9A711C4B9B7943
:103FB80023F00803DAB21A4B9A71194B9B7923F054
:103FC8001003DAB2164B9A71154B9B7943F0200314
:103FD800DAB2134B9A71124B9B7943F04003DAB271
:103FE8000F4B9A710E4B9B7963F07F03DAB20C4B3F
:103FF8009A710C4B01221A700B4B0022DA700A4B93
:1040080000229A70084B01221A70074B00225A703E
:10401800064B074A1A6000BFBD465DF8047B70472F
:10402800F0070020640800206808002084080020A9
:10403800E924000880B582B000AF0B4B5B88FB71A8
:10404800094B1B78012B01D0FDF7AEFBFB799AB227
:10405800054B5B889A4202D0034B01221A7000BFBD
:104068000837BD4680BD00BFDC07002080B400AF24
:10407800034B044A9A6000BFBD465DF8047B704755
:10408800840800203D40000880B582B000AF124B84
:104098009B78FB71104BDB78BB710F4B1B797B71E5
:1040A8000D4B1B78012B01D0FDF758FD0A4B9B786F
:1040B800FA799A4209D1084BDB78BA799A4204D145
:1040C800054B1B797A799A4202D0034B01221A7068
:1040D80000BF0837BD4680BDF007002080B400AFA0
:1040E800034B044A5A6000BFBD465DF8047B704725
:1040F800840800209140000880B500AF054B5B782C
:10410800012B04D1FDF74CFD024B00225A7000BF71
:1041180080BD00BFF007002080B400AF034B044A05
:10412800DA6000BFBD465DF8047B70478408002054
:1041380001410008B0B489B000AF03463960FB8084
:104148001C4B07F10C041D460FCD0FC42B682370C0
:10415800FB881B0B9BB203F00F0320333B4413F87F
:10416800142C3B681A70FB881B0A9BB203F00F02E1
:104178003B68013320323A4412F8142C1A70FB8839
:104188001B099BB203F00F023B68023320323A440A
:1041980012F8142C1A70FB8803F00F023B680333E3
:1041A80020323A4412F8142C1A7000BF2437BD4646
:1041B800B0BC7047ACDC000880B485B000AF0346E3
:1041C8003960FB710023FB6014E0FA79FB68C3F1E6
:1041D800070342FA03F303F00103002B01D0312156
:1041E80000E03021FB683A6813440A461A70FB68FD
:1041F8000133FB60FB68072BE7DD00BF00BF143706
:10420800BD465DF8047B704780B58CB000AF58237D
:1042180087F82F30D64B5B78012B11D1D44B1B7804
:10422800012B03D1312387F82F3002E0302387F8A0
:104238002F3097F82F0005230C220621FCF7EAF906
:10424800CC4B9B7807F1240211461846FFF7B4FFC0
:10425800C84BDB7807F11C0211461846FFF7ACFF84
:10426800C44B1B7907F1140211461846FFF7A4FF47
:10427800C04B5B7907F10C0211461846FFF79CFF0B
:10428800BC4B9B793A1D11461846FFF795FFBA4B70
:104298005B883A4611461846FFF74CFF387B0523E2
:1042A80005220121FCF7B6F9787B052306220121B6
:1042B800FCF7B0F9B87B052307220121FCF7AAF91E
:1042C800F87B052308220121FCF7A4F9387C052393
:1042D8000C220121FCF79EF9787C05230D2201218F
:1042E800FCF798F9B87C05230E220121FCF792F916
:1042F800F87C05230F220121FCF78CF93879052376
:1043080005220221FCF786F9787905230622022185
:10431800FCF780F9B879052307220221FCF77AF91E
:10432800F879052308220221FCF774F9387A052365
:104338000C220221FCF76EF9787A05230D2202215E
:10434800FCF768F9B87A05230E220221FCF762F916
:10435800F87A05230F220221FCF75CF997F824006C
:10436800052305220321FCF755F997F825000523B5
:1043780006220321FCF74EF997F8260005230722A9
:104388000321FCF747F997F82700052308220321A2
:10439800FCF740F997F8280005230C220321FCF7C5
:1043A80039F997F8290005230D220321FCF732F982
:1043B80097F82A0005230E220321FCF72BF997F81A
:1043C8002B0005230F220321FCF724F9387F05234E
:1043D80005220421FCF71EF9787F05230622042113
:1043E800FCF718F9B87F052307220421FCF712F916
:1043F800F87F052308220421FCF70CF997F8200020
:1044080005230C220421FCF705F997F82100052360
:104418000D220421FCF7FEF897F8220005230E224E
:104428000421FCF7F7F897F8230005230F2204214D
:10443800FCF7F0F8387D052305220521FCF7EAF89A
:10444800787D052306220521FCF7E4F8B87D0523CD
:1044580007220521FCF7DEF8F87D0523082205214F
:10446800FCF7D8F8387E05230C220521FCF7D2F892
:10447800787E05230D220521FCF7CCF8B87E0523AC
:104488000E220521FCF7C6F8F87E05230F22052128
:10449800FCF7C0F83878052307220721FCF7BAF89B
:1044A8007878052308220721FCF7B4F8B8780523A3
:1044B80009220721FCF7AEF8F87805230A2207211C
:1044C800FCF7A8F82D4B1B78013B042B2FD801A231
:1044D80052F823F0F1440008FF4400080D45000895
:1044E8001B450008294500080523122207215720EB
:1044F800FCF790F81BE00523122207214120FCF766
:1045080089F814E00523122207214F20FCF782F8CE
:104518000DE00523122207215420FCF77BF806E062
:104528000523122207214520FCF774F800BF134B1E
:10453800DB78032B14D0032B22DC012B02D0022BB7
:1045480007D01DE00523122206214E20FCF762F851
:104558001DE00523122206214F20FCF75BF816E028
:104568000523122206214D20FCF754F80FE000BF66
:10457800E4070020F0070020DC070020680800207E
:104588000523122206214120FCF744F800BF00BF92
:104598003037BD4680BD00BF80B500AF00224FF464
:1045A8000061264801F0E8FA01224FF480512348BF
:1045B80001F0E2FA01224FF40051204801F0DCFA40
:1045C80001224FF480411D4801F0D6FA642000F022
:1045D8007BFBFBF7B3FF642000F076FB0020FBF7C2
:1045E800D9FF052200211648FCF7DCF80522012135
:1045F8001448FCF7D7F8052202211348FCF7D2F833
:10460800052203211148FCF7CDF8052204211048A2
:10461800FCF7C8F8052205210E48FCF7C3F8052267
:1046280006210D48FCF7BEF8052207210B48FCF7C8
:10463800B9F80B4B0B4A9A6100BF80BD00040240D9
:104648007C05002093050020AA050020C105002054
:10465800D8050020EF050020060600201D060020D2
:10466800840800201142000880B582B000AF002302
:10467800FB7107E0FB79074A52F823309847FB792A
:104688000133FB71FB79092BF4D900BF00BF083750
:10469800BD4680BD8408002080B483B000AF0023ED
:1046A800FB7107E0FB79094A094942F82310FB79B5
:1046B8000133FB71FB79092BF4D9064B064A1A60C2
:1046C80000BF0C37BD465DF8047B704784080020A6
:1046D800810F0008580800207146000880B500AF17
:1046E8001D4B9B7A002B33D01B4BDB7A002B06D15A
:1046F800194B03225A76184B00229A722BE0164B5C
:10470800DB7A082B06D9144B04225A76124B002266
:104718009A7220E0FDF782FA0346002B1AD00E4B5E
:104728005B690D4AD27A0D491846FDF799FA034696
:10473800002B06D0084B01225A76074B00229A72AA
:1047480009E0054B00225A76034B00229A7202E0D8
:1047580000BF00E000BF80BDAC080020B808002002
:1047680080B584B000AF2A4B5B78012B49D0FDF7A8
:1047780049FA0346002B46D03B1D1846FDF758FA68
:104788000346012B09D0224B00221A76204B022225
:104798005A761F4B01225A7036E01E4B1B69DAB25B
:1047A8001B4B1A761A4B1B7E082B02D9184B082272
:1047B8001A760023FB730CE0FA7BFB7B10323A4439
:1047C80012F80C1C124A13440A469A70FB7B0133F8
:1047D800FB730F4B1B7EFA7B9A42EDD307E0FB7B02
:1047E8000B4A134400229A70FB7B0133FB73FB7B5B
:1047F800072BF4D9064B00225A76054B01225A7032
:1048080002E000BF00E000BF1037BD4680BD00BF1A
:10481800AC080020F807002080B483B000AF1C4B20
:104828004FF480725A611A4B00221A70184B0022FA
:104838005A70174B00229A72154B0022DA72144BE9
:1048480000221A76124B00225A760023FB710CE0E4
:10485800FB790F4A134400221A73FB790C4A13445C
:1048680000229A70FB790133FB71FB79072BEFD992
:10487800084B094A1A62074B084ADA61044B0122BD
:104888001A7000BF0C37BD465DF8047B704700BF47
:10489800AC08002084080020E546000869470008A5
:1048A80080B500AF604B1B78013B042B00F2BB8046
:1048B80001A252F823F000BFD54800084949000872
:1048C800E94800085D490008194A00080220FDF778
:1048D8002BF80120FDF70CF80320FDF709F8A2E0FA
:1048E800514BDB78002B00F09D804F4BDB78032B7E
:1048F8001BD0032B00F39680012B02D0022B0AD089
:1049080090E00320FDF710F80120FCF7F1FF0220EA
:10491800FCF7EEFF13E00320FCF7CEFF0120FCF7C5
:10492800E7FF0220FCF7E4FF09E00220FCF7C4FFE0
:104938000120FCF7DDFF0320FCF7DAFF00BF71E080
:104948000120FCF7B9FF0320FCF7D2FF0220FCF797
:10495800CFFF68E0354BDB7803F00103002B09D06B
:104968000320FCF7A9FF0120FCF7C2FF0220FCF797
:10497800BFFF58E02D4BDB785B08DBB203F0010387
:10498800002B09D00120FCF797FF0320FCF7B0FFAC
:104998000220FCF7ADFF46E0244BDB789B08DBB236
:1049A80003F00103002B09D00220FCF785FF032048
:1049B800FCF79EFF0120FCF79BFF34E01B4BDB78E4
:1049C800DB08DBB203F00103002B09D00220FCF75F
:1049D80073FF0320FCF78CFF0120FCF789FF22E01E
:1049E800134B5B884F2B09D90320FCF765FF012087
:1049F800FCF762FF0220FCF77BFF14E00320FCF7C2
:104A080077FF0120FCF774FF0220FCF771FF0AE032
:104A18000120FCF789FF0220FCF76AFF0320FCF75E
:104A280067FF00E000BF80BD68080020F007002095
:104A3800DC07002080B400AF034B044A5A6200BF71
:104A4800BD465DF8047B704784080020A94800082B
:104A580080B500AF094B00221A70094B00221A706A
:104A6800084B50221A60084B00221A60074B00229C
:104A78001A70FDF7D3FA00BF80BD00BFC808002038
:104A8800C908002034060020CC080020CA080020ED
:104A980080B400AF034B01221A7000BFBD465DF819
:104AA800047B7047C808002080B485B000AF034677
:104AB800FB71FB79642B01D96423FB71124AFB79E2
:104AC80013704F23FB60FB79FA6802FB03F30F4A6C
:104AD800A2FB03235B09C3F150030D4A13600C4B7F
:104AE8001B68002B02D10A4B01221A60084B1B6875
:104AF800502B02D9064B50221A6000BF1437BD460E
:104B08005DF8047B704700BFC90800201F85EB5182
:104B18003406002080B582B000AF194B1B78002BFB
:104B280028D0184B1B78DBB2002B25D0164B1A68FF
:104B3800164B1B689A4204D2134B1B680133124A66
:104B48001360114B1A68114B1B689A4215D30D4B11
:104B580000221A70FDF76EFA00237B6003E000BFA5
:104B68007B6801337B607B68B3F5FA6FF7D3FDF799
:104B780055FA02E000BF00E000BF0837BD4680BD1F
:104B8800C8080020CA080020CC08002034060020ED
:104B9800DFF834D0FCF7F6FD0C480D490D4A002328
:104BA80002E0D458C4500433C4188C42F9D30A4ADA
:104BB8000A4C002301E013600432A242FBD308F040
:104BC800F5FFFCF7E0F97047000002200000002024
:104BD800B0060020ECDC0008B0060020D811002048
:104BE800FEE7000080B500AF0E4B1B680D4A43F48A
:104BF800007313600B4B1B680A4A43F4806313600D
:104C0800084B1B68074A43F480731360032000F0C5
:104C1800BDFD002000F008F8FCF72CFC0023184626
:104C280080BD00BF003C024080B582B000AF786014
:104C3800124B1A68124B1B7819464FF47A73B3FB60
:104C4800F1F3B2FBF3F3184600F0D5FD0346002B51
:104C580001D001230EE07B680F2B0AD80022796867
:104C68004FF0FF3000F09DFD064A7B68136000237B
:104C780000E0012318460837BD4680BD54050020D2
:104C88003C0600203806002080B400AF064B1B7895
:104C98001A46064B1B681344044A136000BFBD46FE
:104CA8005DF8047B704700BF3C060020D008002058
:104CB80080B400AF034B1B681846BD465DF8047B03
:104CC800704700BFD008002080B584B000AF78607E
:104CD800FFF7EEFFB8607B68FB60FB68B3F1FF3F4E
:104CE80005D00A4B1B781A46FB681344FB6000BFCB
:104CF800FFF7DEFF0246BB68D31AFA689A42F7D874
:104D080000BF00BF1037BD4680BD00BF3C06002075
:104D180080B584B000AF78607B68002B01D1012397
:104D2800EDE07B6893F82030DBB2002B02D1786885
:104D3800FCF7C8FB7B681B681A687B681B6842F035
:104D480001021A60FFF7B4FFF86012E0FFF7B0FF46
:104D58000246FB68D31A0A2B0BD97B685B6A43F4BB
:104D680000327B685A627B68052283F82020012381
:104D7800C5E07B681B685B6803F00103002BE5D086
:104D88007B681B681A687B681B6822F002021A603D
:104D9800FFF78EFFF86012E0FFF78AFF0246FB6814
:104DA800D31A0A2B0BD97B685B6A43F400327B6801
:104DB8005A627B68052283F8202001239FE07B68E4
:104DC8001B685B6803F00203002BE5D17B681B7E40
:104DD800012B08D17B681B681A687B681B6842F046
:104DE80080021A6007E07B681B681A687B681B688A
:104DF80022F080021A607B685B7E012B08D17B68F9
:104E08001B681A687B681B6842F040021A6007E05A
:104E18007B681B681A687B681B6822F040021A606E
:104E28007B689B7E012B08D17B681B681A687B68AE
:104E38001B6842F020021A6007E07B681B681A684A
:104E48007B681B6822F020021A607B68DB7E012BDE
:104E580008D17B681B681A687B681B6822F01002FF
:104E68001A6007E07B681B681A687B681B6842F059
:104E780010021A607B681B7F012B08D17B681B68B6
:104E88001A687B681B6842F008021A6007E07B68B2
:104E98001B681A687B681B6822F008021A607B6826
:104EA8005B7F012B08D17B681B681A687B681B68CD
:104EB80042F004021A6007E07B681B681A687B6886
:104EC8001B6822F004021A607B689A687B68DB68BA
:104ED8001A437B681B691A437B685B6942EA0301D2
:104EE8007B685B685A1E7B681B680A43DA617B68CB
:104EF80000225A627B68012283F82020002318468A
:104F08001037BD4680BD000080B487B000AF786020
:104F180039607B6893F82030FB75FB7D012B03D04B
:104F2800FB7D022B40F0BE80654B3B613B69D3F8AB
:104F3800003243F001023B69C3F800223B69D3F811
:104F4800003223F47C523B69C3F800223B69D3F852
:104F580000223B685B6A1B021A433B69C3F80022C4
:104F68003B685B6903F01F03012202FA03F3FB604D
:104F78003B69D3F81C22FB68DB431A403B69C3F842
:104F88001C223B68DB69002B23D13B69D3F80C2238
:104F9800FB68DB431A403B69C3F80C223B68DB68BB
:104FA80019043B685B689BB23A68526919433B69CC
:104FB800483243F832103B689B6819043B681B6809
:104FC8009AB23B685B690A4339694833DB000B4492
:104FD8005A603B68DB69012B22D13B69D3F80C226C
:104FE800FB681A433B69C3F80C223B681B68190429
:104FF8003B685B689BB23A68526919433B6948321F
:1050080043F832103B689B6819043B68DB689AB226
:105018003B685B690A4339694833DB000B445A60D3
:105028003B689B69002B09D13B69D3F80422FB68D4
:10503800DB431A403B69C3F8042207E03B69D3F815
:105048000422FB681A433B69C3F804223B681B69C6
:10505800002B09D13B69D3F81422FB68DB431A40C3
:105068003B69C3F8142207E03B69D3F81422FB68B4
:105078001A433B69C3F814223B681B6A012B07D10A
:105088003B69D3F81C22FB681A433B69C3F81C220E
:105098003B69D3F8003223F001023B69C3F80022D0
:1050A800002306E07B685B6A43F480227B685A62CF
:1050B800012318461C37BD465DF8047B704700BFC6
:1050C8000064004080B584B000AF78607B6893F8D6
:1050D8002030DBB2012B2ED17B68022283F82020FE
:1050E8007B681B681A687B681B6822F001021A60DB
:1050F800FFF7DEFDF86012E0FFF7DAFD0246FB6815
:10510800D31A0A2B0BD97B685B6A43F400327B689D
:105118005A627B68052283F82020012312E07B680D
:105128001B685B6803F00103002BE5D17B68002254
:105138005A62002306E07B685B6A43F400227B68BE
:105148005A62012318461037BD4680BD80B489B025
:1051580000AFF860B9607A603B60FB6893F8203074
:10516800FB77FB681B689B68BB61FB7F012B03D047
:10517800FB7F022B40F0AD80BB6903F08063002BFE
:105188000AD1BB6903F00063002B05D1BB6903F0AA
:105198008053002B00F09580BB691B0E03F00303BE
:1051A8007B6101227B699A403B681A60BB689B68F7
:1051B800002B0DD1BB681B685A05BB68DB68F96812
:1051C80009681A437B6918331B010B441A600FE006
:1051D800BB685B68DA00BB689B681A43BB68DB681E
:1051E800F96809681A437B6918331B010B441A6074
:1051F800FB681968BB681A697B6918331B010B4483
:1052080004331A60BB681B7D012B11D1FB681A6837
:105218007B6918331B01134404331B68FA6811684F
:1052280043F480727B6918331B010B4404331A6002
:105238007B6807331B781A067B6806331B781B04C8
:105248001A437B6805331B781B0213437A680432C0
:1052580012781046FA68116843EA00027B691B015C
:105268000B4403F5C6731A607B6803331B781A0670
:105278007B6802331B781B041A437B6801331B7855
:105288001B0213437A6812781046FA68116843EAD9
:1052980000027B691B010B4403F5C4731A60FB68A9
:1052A8001A687B6918331B0113441B68FA68116874
:1052B80043F001027B6918331B010B441A60002379
:1052C8000EE0FB685B6A43F40012FB685A62012334
:1052D80006E0FB685B6A43F48022FB685A6201239C
:1052E80018462437BD465DF8047B704780B485B006
:1052F80000AF78600023FB607B6893F82030FB7276
:10530800FB7A012B02D0FB7A022B1DD17B681B682C
:105318009B6803F08063002B02D0FB680133FB60BD
:105328007B681B689B6803F00063002B02D0FB6856
:105338000133FB607B681B689B6803F08053002B7C
:1053480002D0FB680133FB60FB6818461437BD4682
:105358005DF8047B704780B487B000AFF860B9602F
:105368007A603B60FB6893F82030FB75FB7D012B6E
:1053780003D0FB7D022B40F00381BB68002B0ED1CC
:10538800FB681B68DB6803F00303002B16D1FB687E
:105398005B6A43F40012FB685A620123F7E0FB687A
:1053A8001B681B6903F00303002B07D1FB685B6ACA
:1053B80043F40012FB685A620123E8E0FB681A68AC
:1053C800BB681B331B0113441B6803F004027B6892
:1053D8009A607B689B68002B0CD1FB681A68BB68D5
:1053E8001B331B0113441B685B0DC3F30A027B6864
:1053F8001A600BE0FB681A68BB681B331B01134477
:105408001B68DB0823F060427B685A60FB681A68F7
:10541800BB681B331B0113441B6803F002027B6843
:10542800DA60FB681A68BB681B331B01134404333A
:105438001B6803F00803002B03D07B6808221A615D
:105448000BE0FB681A68BB681B331B011344043369
:105458001B6803F00F027B681A61FB681A68BB6857
:105468001B331B01134404331B681B0ADAB27B6825
:105478009A61FB681A68BB681B331B011344043329
:105488001B681B0C9AB27B685A61FB681A68BB6878
:105498001B01134403F5DC731B68DAB23B681A700E
:1054A800FB681A68BB681B01134403F5DC731B68AF
:1054B8001A0A3B680133D2B21A70FB681A68BB68D3
:1054C8001B01134403F5DC731B681A0C3B68023399
:1054D800D2B21A70FB681A68BB681B01134403F543
:1054E800DC731B681A0E3B680333D2B21A70FB6870
:1054F8001A68BB681B01134403F5DE731A683B681E
:105508000433D2B21A70FB681A68BB681B011344D3
:1055180003F5DE731B681A0A3B680533D2B21A70AA
:10552800FB681A68BB681B01134403F5DE731B682C
:105538001A0C3B680633D2B21A70FB681A68BB684B
:105548001B01134403F5DE731B681A0E3B6807330F
:10555800D2B21A70BB68002B08D1FB681B68DA68E6
:10556800FB681B6842F02002DA6007E0FB681B68F2
:105578001A69FB681B6842F020021A61002306E0E2
:10558800FB685B6A43F48022FB685A620123184671
:105598001C37BD465DF8047B704780B485B000AF0A
:1055A800786039600023FB607B6893F82030FB72D9
:1055B800FB7A012B02D0FB7A022B0FD13B68002B20
:1055C80006D17B681B68DB6803F00303FB6005E01A
:1055D8007B681B681B6903F00303FB60FB681846C4
:1055E8001437BD465DF8047B7047000080B485B071
:1055F80000AF78607B6803F00703FB600C4BDB6847
:10560800BB60BA684FF6FF031340BB60FB681A0221
:10561800BB68134343F0BF6343F40033BB60044AE1
:10562800BB68D36000BF1437BD465DF8047B704784
:1056380000ED00E080B400AF044BDB681B0A03F008
:1056480007031846BD465DF8047B704700ED00E08F
:1056580080B483B000AF0346FB7197F90730002B85
:105668000BDBFB7903F01F02074997F907305B0949
:10567800012000FA02F241F8232000BF0C37BD4692
:105688005DF8047B704700BF00E100E080B483B0A0
:1056980000AF03463960FB7197F90730002B0ADB2E
:1056A8003B68DAB20C4997F907301201D2B20B44C1
:1056B80083F800230AE03B68DAB20849FB7903F073
:1056C8000F03043B1201D2B20B441A7600BF0C3709
:1056D800BD465DF8047B704700E100E000ED00E0A6
:1056E80080B489B000AFF860B9607A60FB6803F0F5
:1056F8000703FB61FB69C3F10703042B28BF0423DD
:10570800BB61FB690433062B02D9FB69033B00E04C
:1057180000237B614FF0FF32BB6902FA03F3DA43DF
:10572800BB681A407B699A404FF0FF317B6901FAE8
:1057380003F3D9437B680B40134318462437BD460F
:105748005DF8047B7047000080B582B000AF7860D8
:105758007B68013BB3F1807F01D301230FE00A4A44
:105768007B68013B53600F214FF0FF30FFF78EFF3E
:10577800054B00229A60044B07221A600023184642
:105788000837BD4680BD00BF10E000E080B582B09C
:1057980000AF78607868FFF729FF00BF0837BD467B
:1057A80080BD80B586B000AF0346B9607A60FB73F0
:1057B80000237B61FFF73EFF78617A68B9687869F2
:1057C800FFF78EFF024697F90F3011461846FFF78C
:1057D8005DFF00BF1837BD4680BD80B582B000AF01
:1057E8000346FB7197F907301846FFF731FF00BFF2
:1057F8000837BD4680BD80B582B000AF7860786854
:10580800FFF7A2FF034618460837BD4680BD0000D3
:1058180080B489B000AF7860396000237B610023D1
:105828003B610023BB610023FB616BE10122FB6943
:1058380002FA03F37B613B681B687A6913403B619A
:105848003A697B699A4240F05A813B685B6803F089
:105858000303012B05D03B685B6803F00303022BAD
:1058680030D17B689B68BB61FB695B00032202FA4D
:1058780003F3DB43BA691340BB613B68DA68FB6931
:105888005B0002FA03F3BA691343BB617B68BA6928
:105898009A607B685B68BB610122FB6902FA03F3CB
:1058A800DB43BA691340BB613B685B681B0903F0C3
:1058B8000102FB6902FA03F3BA691343BB617B680F
:1058C800BA695A603B685B6803F00303032B17D07F
:1058D8007B68DB68BB61FB695B00032202FA03F3A8
:1058E800DB43BA691340BB613B689A68FB695B009C
:1058F80002FA03F3BA691343BB617B68BA69DA60D9
:105908003B685B6803F00303022B23D1FB69DA08C9
:105918007B68083253F82230BB61FB6903F0070348
:105928009B000F2202FA03F3DB43BA691340BB6101
:105938003B681A69FB6903F007039B0002FA03F34B
:10594800BA691343BB61FB69DA087B680832B96935
:1059580043F822107B681B68BB61FB695B0003226C
:1059680002FA03F3DB43BA691340BB613B685B6827
:1059780003F00302FB695B0002FA03F3BA691343FD
:10598800BB617B68BA691A603B685B6803F44033A3
:10599800002B00F0B4800023FB60604B5B6C5F4A17
:1059A80043F4804353645D4B5B6C03F48043FB60BA
:1059B800FB685B4AFB699B08023352F82330BB61E2
:1059C800FB6903F003039B000F2202FA03F3DB4396
:1059D800BA691340BB617B68524A93422BD07B68FB
:1059E800514A934225D07B68504A93421FD07B6826
:1059F8004F4A934219D07B684E4A934213D07B6832
:105A08004D4A93420DD07B684C4A934207D07B683D
:105A18004B4A934201D107230EE008230CE00623EA
:105A28000AE0052308E0042306E0032304E0022338
:105A380002E0012300E00023FA6902F00302920069
:105A48009340BA691343BB613549FB699B0802332C
:105A5800BA6941F823203B4B9B68BB613B69DB4338
:105A6800BA691340BB613B685B6803F48013002B81
:105A780003D0BA693B691343BB61324ABB6993607F
:105A8800304BDB68BB613B69DB43BA691340BB61E0
:105A98003B685B6803F40013002B03D0BA693B69C9
:105AA8001343BB61274ABB69D360264B5B68BB6164
:105AB8003B69DB43BA691340BB613B685B6803F42D
:105AC8000033002B03D0BA693B691343BB611D4AFD
