:020000040800F2
:1000000000000220CD2D0008451600084D160008FE
:10001000551600085D16000865160008000000006F
:100020000000000000000000000000006D16000845
:100030007B160008000000008916000897160008CB
:100040001D2E00081D2E00081D2E00081D2E000864
:100050001D2E00081D2E00081D2E00081D2E000854
:100060001D2E00081D2E00081D2E00081D2E000844
:100070001D2E00081D2E00081D2E00081D2E000834
:100080001D2E00081D2E00081D2E00081D2E000824
:100090001D2E00081D2E00081D2E00081D2E000814
:1000A0001D2E00081D2E00081D2E00081D2E000804
:1000B000A51600081D2E00081D2E00081D2E000884
:1000C0001D2E00081D2E00081D2E00081D2E0008E4
:1000D0001D2E00081D2E00081D2E00081D2E0008D4
:1000E000B91600081D2E00081D2E00081D2E000840
:1000F0001D2E0008C91600081D2E00081D2E000820
:100100001D2E00081D2E00081D2E00081D2E0008A3
:100110001D2E00081D2E00081D2E00081D2E000893
:100120001D2E00081D2E00081D2E00081D2E000883
:100130001D2E00081D2E00081D2E00081D2E000873
:100140001D2E00081D2E00081D2E0008DD160008BB
:100150001D2E00081D2E00081D2E00081D2E000853
:100160001D2E00081D2E00081D2E00081D2E000843
:100170001D2E00081D2E00081D2E00080000000086
:080180001D2E00081D2E0008D1
:1001880010B5054C237833B9044B13B10448AFF3C9
:1001980000800123237010BD8806002000000000A5
:1001A8000CB8000808B5034B1BB103490348AFF36B
:1001B800008008BD000000008C0600200CB8000874
:1001C80053B94AB9002908BF00281CBF4FF0FF31B6
:1001D8004FF0FF3000F088B9ADF1080C6DE904CE9E
:1001E80000F006F8DDF804E0DDE9022304B070470A
:1001F8002DE9F047089D8E4604468846002B4AD1D3
:100208008A42174662D9B2FA82F64EB1C6F1200385
:1002180001FA06F820FA03F3B74043EA0808B440A5
:100228004FEA174E1FFA87FCB8FBFEF1230C0EFBB2
:10023800118843EA084301FB0CF29A4209D9FB18DA
:1002480001F1FF3080F0EA809A4240F2E7800239FB
:100258003B449A1AA3B2B2FBFEF00EFB102243EA0B
:10026800024300FB0CFC9C4509D9FB1800F1FF3246
:1002780080F0D6809C4540F2D3803B44023840EA67
:100288000140A3EB0C0300211DB1F3400022C5E996
:100298000032BDE8F0878B4205D90DB1C5E90001F0
:1002A80000210846F5E7B3FA83F1002946D17345E2
:1002B80002D3824200F20581841A6EEB0302012008
:1002C8009046002DE5D0C5E90048E2E7002A00F095
:1002D8009080B2FA82F6002E40F0A4808A1A030CAD
:1002E8004FEA174E80B2BCB20121B2FBFEFC0EFBF6
:1002F8001C2243EA024304FB0CF29A4207D9FB187A
:100308000CF1FF3802D29A4200F2E080C4469B1AF0
:10031800B3FBFEF20EFB123340EA034302FB04F484
:100328009C4207D9FB1802F1FF3002D29C4200F22E
:10033800CA8002461B1B42EA0C40A5E7C1F1200611
:100348008B4022FA06F71F430EFA01F420FA06F34F
:100358002EFA06FE4FEA1749234300FA01F81FFA5E
:1003680087FCBEFBF9F01C0C09FB10EE44EA0E44B6
:1003780000FB0CFEA64502FA01F209D93C1900F16E
:10038800FF3A80F09C80A64540F2998002383C44B0
:10039800A4EB0E041FFA83FEB4FBF9F309FB134424
:1003A8004EEA044403FB0CFCA44508D93C1903F1AC
:1003B800FF3E80F08280A4457FD9023B3C4443EA5B
:1003C8000040A4EB0C04A0FB02EC64457346E14634
:1003D80062D35FD05DB1B8EB030264EB090404FAA1
:1003E80006F622FA01F31E43CC40C5E90064002159
:1003F8004FE7B1FBF2FC010C41EA0E4180B240EA42
:1004080001423B4638463C46B846BE462026B1FB2C
:10041800F7F1A2EB080241EA0C4166E7014618E74A
:1004280010462CE7C6F120022EFA02F3B740B1407D
:1004380020FA02F24FEA174E0A43B3FBFEF8BCB2A9
:100448000EFB1833110C41EA034108FB04F9B040D4
:1004580089454FEA104380B23ED9791808F1FF3C2C
:1004680001D289451FD8A1EB0901B1FBFEF909FBAF
:1004780004F80EFB191192B242EA0142424529D210
:10048800BA1809F1FF31C4D24245C2D2A9F102011A
:100498003A44BEE7F0459DD2BEEB02036CEB070C75
:1004A8000138E14696E7A7EB09094944A8F1020C8F
:1004B800B1FBFEF909FB04F8DBE773467FE750461A
:1004C80066E70846FDE63B44023A33E7ACF1020C26
:1004D8003B441CE749469CE7A1EB0901C446B1FB34
:1004E800FEF909FB04F8C4E7704700BF80B584B083
:1004F80000AF03460A46FB711346BB710422012173
:10050800002000F0CBF90346FB7306E0042201212A
:10051800002000F0C3F90346FB7397F90F30002B56
:10052800F4DBFB7903F00B03DBB2B879012200217D
:1005380000F046FB00BF1037BD4680BD80B500AF58
:100548003E210220FFF7D2FFC0210220FFF7CEFF95
:10055800B8210220FFF7CAFF40210220FFF7C6FF9B
:100568003F210220FFF7C2FF3E210120FFF7BEFF17
:10057800C0210120FFF7BAFFB8210120FFF7B6FF1D
:1005880040210120FFF7B2FF3F210120FFF7AEFF16
:1005980000BF80BD80B584B000AF0346FB71002367
:1005A800BB602EE0BB68DBB2483BDBB219460120DA
:1005B800FFF79CFFBB68DBB2483BDBB21946022061
:1005C800FFF794FF0023FB6007E0FB7919460A2038
:1005D800FFF78CFFFB680133FB60FB683F2BF4DD02
:1005E8000023FB6007E0FB7919460920FFF77EFF2F
:1005F800FB680133FB60FB683F2BF4DDBB6801330C
:10060800BB60BB68072BCDDD00BF00BF1037BD4600
:1006180080BD000090B585B000AF0446084611467D
:100628001A462346FB710346BB710B467B71134682
:100638003B71FB79203BDBB23B733B79032B02D147
:100648007B799B007B733B79052B07D17B791A4615
:10065800520013445B00DBB204337B733B79072BF6
:1006680002D17B79DB007B737B7B3F2B05D9092388
:10067800FB737B7B403B7B7301E00A23FB737B7B33
:1006880043F04003FB72FB7B03F00703DBB2FA7A0B
:1006980011461846FFF72AFFBB7963F04703FB7240
:1006A800FB7B03F00703DBB2FA7A11461846FFF723
:1006B8001DFF3B79032B21D10023BB731AE097F967
:1006C8000C2097F90E10344813465B00134403447A
:1006D8000B441B78FB72FB7B43F00803DBB2FA7A0E
:1006E80011461846FFF702FF97F90E30DBB20133C7
:1006F800DBB2BB7397F90E30022BE0DD3B79052B9B
:1007080021D10023BB731AE097F90C2097F90E103A
:10071800224813469B00134403440B441B78FB7286
:10072800FB7B43F00803DBB2FA7A11461846FFF761
:10073800DDFE97F90E30DBB20133DBB2BB7397F9FC
:100748000E30042BE0DD3B79072B21D10023BB734E
:100758001AE097F90C2097F90E1011481346DB00A0
:100768009B1A03440B441B78FB72FB7B43F0080382
:10077800DBB2FA7A11461846FFF7B8FE97F90E3041
:10078800DBB20133DBB2BB7397F90E30062BE0DD29
:1007980000BF1437BD4690BD00000020C4000020F3
:1007A800AC02002080B584B000AF78600B46FB70C7
:1007B8001346BB70BB78032B12D10023FB600CE0FF
:1007C800FB687A6813441878F978FB68DAB203236F
:1007D800FFF720FFFB680133FB60FB681F2BEFDD91
:1007E800BB78052B12D10023FB600CE0FB687A680C
:1007F80013441878F978FB68DAB20523FFF70AFF83
:10080800FB680133FB60FB68132BEFDDBB78072B1C
:1008180012D10023FB600CE0FB687A681344187857
:10082800F978FB68DAB20723FFF7F4FEFB680133B7
:10083800FB60FB680F2BEFDD00BF1037BD4680BDA6
:1008480080B586B000AF4FF47F437B600023BB6068
:100858000023FB603B1D1946034802F081FD00BFE1
:100868001837BD4680BD00BF0010024080B586B075
:1008780000AF4FF47F437B600123BB600023FB6024
:1008880000233B613B1D1946034802F069FD00BF88
:100898001837BD4680BD00BF0010024080B584B047
:1008A80000AF0346FB710B46BB7113467B71FFF724
:1008B800C7FF7B7903F00103002B06D001224FF418
:1008C8008071BC4802F000FF05E000224FF48071FF
:1008D800B84802F0F9FE7B7903F00203002B06D03A
:1008E80001224FF40071B34802F0EEFE05E0002249
:1008F8004FF40071AF4802F0E7FE7B7903F0040380
:10090800002B06D001224FF48061AA4802F0DCFED9
:1009180005E000224FF48061A64802F0D5FE7B79FD
:1009280003F00803002B06D001224FF40061A14810
:1009380002F0CAFE05E000224FF400619D4802F073
:10094800C3FE7B7903F01003002B05D0012202219E
:10095800994802F0B9FE04E000220221964802F00C
:10096800B3FEFB79032B4FD801A252F823F000BF46
:1009780089090008AB090008CD090008EF0900083B
:10098800BB79002B06D100224FF400618A4802F09F
:100998009BFE3AE001224FF40061874802F094FE82
:1009A80033E0BB79002B06D100224FF480518248F6
:1009B80002F08AFE29E001224FF480517E4802F0BD
:1009C80083FE22E0BB79002B06D100224FF40051B0
:1009D800794802F079FE18E001224FF40051764878
:1009E80002F072FE11E0BB79002B06D100224FF411
:1009F8008041714802F068FE07E001224FF480410F
:100A08006D4802F061FE00E000BF002201216A4843
:100A180002F05AFE4FF48071684802F03DFE03462A
:100A2800DB015BB2DB115AB23B7A62F300033B7223
:100A38004FF40071614802F02FFE0346DB015BB200
:100A4800DB115AB23B7A62F341033B724FF4806187
:100A58005A4802F021FE0346DB015BB2DB115AB2B1
:100A68003B7A62F382033B724FF40061534802F011
:100A780013FE0346DB015BB2DB115AB23B7A62F329
:100A8800C3033B724FF480514C4802F005FE034605
:100A9800DB015BB2DB115AB23B7A62F304133B729F
:100AA8004FF40051454802F0F7FD0346DB015BB205
:100AB800DB115AB23B7A62F345133B724FF4804123
:100AC8003E4802F0E9FD0346DB015BB2DB115AB296
:100AD8003B7A62F386133B724FF40041374802F0C9
:100AE800DBFD0346DB015BB2DB115AB23B7A62F3F2
:100AF800C7133B72012201212F4802F0E5FDFB7963
:100B0800032B4FD801A252F823F000BF250B000891
:100B1800470B0008690B00088B0B0008BB79002BFA
:100B280006D101224FF40061234802F0CDFD3AE0DE
:100B380000224FF40061204802F0C6FD33E0BB7983
:100B4800002B06D101224FF480511B4802F0BCFD56
:100B580029E000224FF48051174802F0B5FD22E049
:100B6800BB79002B06D101224FF40051124802F044
:100B7800ABFD18E000224FF400510F4802F0A4FD2D
:100B880011E0BB79002B06D101224FF480410A48BD
:100B980002F09AFD07E000224FF48041064802F077
:100BA80093FD00E000BF3B7AFB73FB7B18461037D0
:100BB800BD4680BD000C0240000402400010024007
:100BC80090B585B000AF0446084611461A4623463C
:100BD800FB710346BB710B467B7113463B71FFF7F4
:100BE80045FEFB793B733B7B03F00103DBB2002B33
:100BF80006D100224FF48071B54802F065FD05E08A
:100C080001224FF48071B24802F05EFD3B7B03F095
:100C18000203DBB2002B06D100224FF40071AC486E
:100C280002F052FD05E001224FF40071A84802F0DD
:100C38004BFD3B7B03F00403DBB2002B06D1002203
:100C48004FF48061A24802F03FFD05E001224FF415
:100C580080619F4802F038FD3B7B03F00803DBB25C
:100C6800002B06D100224FF40061994802F02CFDB8
:100C780005E001224FF40061954802F025FD3B7B19
:100C880003F01003DBB2002B06D100224FF4805191
:100C98008F4802F019FD05E001224FF480518C487D
:100CA80002F012FD3B7B03F02003DBB2002B06D1E0
:100CB80000224FF40051864802F006FD05E00122AB
:100CC8004FF40051824802F0FFFC3B7B03F04003E5
:100CD800DBB2002B06D100224FF480417C4802F0A1
:100CE800F3FC05E001224FF48041794802F0ECFC66
:100CF8003B7B23F07F03DBB2002B06D100224FF4AD
:100D08000041734802F0E0FC05E001224FF4004185
:100D18006F4802F0D9FC3B7903F00103002B06D0A1
:100D280001224FF480716B4802F0CEFC05E00022EE
:100D38004FF48071674802F0C7FC3B7903F0020367
:100D4800002B06D001224FF40071624802F0BCFC6F
:100D580005E000224FF400715E4802F0B5FC3B79D3
:100D680003F00403002B06D001224FF48061594898
:100D780002F0AAFC05E000224FF48061554802F019
:100D8800A3FC3B7903F00803002B06D001224FF4A3
:100D98000061504802F098FC05E000224FF4006121
:100DA8004C4802F091FC3B7903F01003002B05D06E
:100DB80001220221484802F087FC04E000220221B7
:100DC800454802F081FCBB79032B4FD801A252F8A9
:100DD80023F000BFED0D00080F0E0008310E0008CB
:100DE800530E00087B79002B06D100224FF40061D6
:100DF800394802F069FC3AE001224FF400613648B4
:100E080002F062FC33E07B79002B06D100224FF41C
:100E18008051314802F058FC29E001224FF48051FA
:100E28002D4802F051FC22E07B79002B06D10022EC
:100E38004FF40051284802F047FC18E001224FF413
:100E48000051254802F040FC11E07B79002B06D1C7
:100E580000224FF48041204802F036FC07E00122CE
:100E68004FF480411C4802F02FFC00E000BFBB7922
:100E7800032B55D801A252F823F000BF950E0008A5
:100E8800B70E0008E50E0008070F00087B79002B55
:100E980006D101224FF400610F4802F015FC40E032
:100EA80000224FF400610C4802F00EFC39E07B7917
:100EB800002B06D101224FF48051074802F004FCB0
:100EC8002FE000224FF48051034802F0FDFB28E098
:100ED80000100240000C0240000402407B79002B05
:100EE80006D101224FF40051104802F0EDFB18E042
:100EF80000224FF400510D4802F0E6FB11E07B7927
:100F0800002B06D101224FF48041084802F0DCFB97
:100F180007E000224FF48041044802F0D5FB00E0CE
:100F280000BF00BF1437BD4690BD00BF000402409B
:100F380080B500AF00F000FE01F022FF00F01CFDBC
:100F480000F0A4FC00F026FC00F080FC01F06CFC32
:100F580001F088FC01F094FE01F0BEFB00BF80BDEB
:100F680080B400AF00BFBD465DF8047B704780B514
:100F780000AF01F051FF00F015F800F04FF900F054
:100F8800AFF809F0FBFF00F077F800F023F900F064
:100F9800D5F8FFF7CDFF00F0B1FD00F0C3FD0AF072
:100FA80013F8FCE780B594B000AF07F120033022B6
:100FB800002118460AF098FB07F10C0300221A607A
:100FC8005A609A60DA601A610023BB60284B1B6C78
:100FD800274A43F080531364254B1B6C03F080535E
:100FE800BB60BB6800237B60224B1B68214A43F42B
:100FF800804313601F4B1B6803F480437B607B684E
:1010080001233B624FF480337B620223BB634FF4BE
:101018008003FB6308233B644FF4A8737B640223BB
:10102800BB640723FB6407F12003184605F08AFC1C
:101038000346002B01D000F0FFF90F23FB600223C9
:101048003B6100237B614FF4A053BB614FF4805395
:10105800FB6107F10C030521184605F0EBFE03467A
:10106800002B01D000F0E8F900BF5037BD4680BD25
:10107800003802400070004080B500AF164B174A98
:101088001A60154B10225A60134B00229A60124BBB
:101098000022DA60104B00221A610F4B00225A61BD
:1010A8000D4B00221A760C4B00225A760A4B00226E
:1010B8009A76094B0022DA76074B00221A77064BFC
:1010C80000225A77044801F03DFF0346002B01D067
:1010D80000F0B2F900BF80BDA40600200064004003
:1010E80080B500AF124B134A1A60114B124A5A606E
:1010F8000F4B00229A600E4B0022DA600C4B4FF423
:1011080080421A610A4B00225A61094B00229A61F7
:10111800074B0022DA61064B00221A62044804F0E9
:1011280017FC0346002B01D000F086F900BF80BDF4
:10113800CC06002000540040A086010080B586B08F
:1011480000AF07F1080300221A605A609A60DA605B
:101158003B4600221A605A601D4B4FF080421A60CD
:101168001B4B00225A601A4B00229A60184B44F21B
:101178009F12DA60164B00221A61154B00229A6101
:10118800134806F063F80346002B01D000F054F929
:101198004FF48053BB6007F1080319460C4806F06A
:1011A80034FA0346002B01D000F046F900233B60D7
:1011B80000237B603B461946054806F055FC03466C
:1011C800002B01D000F038F900BF1837BD4680BDAC
:1011D8002007002080B500AF0E4B0F4A1A600D4B58
:1011E80002225A600B4B00229A600A4B4DF6BF222E
:1011F800DA60084B00221A61064B00229A61054802
:1012080006F024F80346002B01D000F015F900BFC2
:1012180080BD00BF680700200020004080B58CB06A
:1012280000AF07F11C0300221A605A609A60DA6066
:101238001A610023BB617A4B1B6B794A43F0100398
:101248001363774B1B6B03F01003BB61BB6900236F
:101258007B61734B1B6B724A43F004031363704B3F
:101268001B6B03F004037B617B6900233B616C4BC0
:101278001B6B6B4A43F080031363694B1B6B03F0D2
:1012880080033B613B690023FB60654B1B6B644A31
:1012980043F001031363624B1B6B03F00103FB6014
:1012A800FB680023BB605E4B1B6B5D4A43F0020387
:1012B80013635B4B1B6B03F00203BB60BB6800232B
:1012C8007B60574B1B6B564A43F008031363544B20
:1012D8001B6B03F008037B607B6800224FF64171AB
:1012E800504802F0F1F9012201214F4802F0ECF9CF
:1012F8000022E0214D4802F0E7F9002247F60301F9
:101308004B4802F0E1F900224FF47F41494802F0CE
:10131800DBF94FF64173FB6101233B6200237B62DB
:101328000023BB6207F11C0319463E4802F018F877
:101338004FF40053FB614FF404133B6200237B62BC
:1013480007F11C031946384802F00AF80123FB612B
:1013580001233B6200237B620023BB6207F11C036D
:101368001946314801F0FCFF0123FB6100233B6271
:1013780000237B6207F11C0319462C4801F0F0FF9B
:10138800E023FB6101233B6200237B620023BB62F5
:1013980007F11C031946254801F0E2FF47F603034D
:1013A800FB6101233B6200237B620023BB6207F1E0
:1013B8001C0319461E4801F0D3FF0423FB610023D8
:1013C8003B6200237B6207F11C031946184801F0B1
:1013D800C7FF4FF47F43FB6101233B6200237B621D
:1013E8000023BB6207F11C031946124801F0B8FF3D
:1013F8002023FB6100233B6200237B6207F11C036F
:1014080019460C4801F0ACFF00220021282001F009
:1014180070FF282001F089FF00BF3037BD4680BD2E
:10142800003802400010024000080240000002405C
:1014380000040240000C024080B400AF72B600BF46
:1014480000BFFDE780B582B000AF00237B60104B82
:101458005B6C0F4A43F4804353640D4B5B6C03F49D
:1014680080437B607B6800233B60094B1B6C084A08
:1014780043F080531364064B1B6C03F080533B60AE
:101488003B68072001F02AFF00BF0837BD4680BD32
:101498000038024080B58AB000AF786007F11403C5
:1014A80000221A605A609A60DA601A617B681B68C9
:1014B800194A93422BD100233B61184B1B6C174AE6
:1014C80043F000731364154B1B6C03F000733B610E
:1014D8003B690023FB60114B1B6B104A43F0080368
:1014E80013630E4B1B6B03F00803FB60FB680323BD
:1014F8007B610223BB610023FB6103233B62092359
:101508007B6207F114031946054801F029FF00BF63
:101518002837BD4680BD00BF006400400038024047
:10152800000C024080B58AB000AF786007F1140360
:1015380000221A605A609A60DA601A617B681B6838
:10154800194A93422CD100233B61184B1B6B174A55
:1015580043F002031363154B1B6B03F002033B615B
:101568003B694FF410737B611223BB610123FB615C
:1015780000233B6204237B6207F1140319460C48DD
:1015880001F0EEFE0023FB60084B1B6C074A43F496
:1015980000131364054B1B6C03F40013FB60FB681A
:1015A80000BF2837BD4680BD0054004000380240C7
:1015B8000004024080B584B000AF78607B681B6887
:1015C800B3F1804F16D10023FB601A4B1B6C194AEC
:1015D80043F001031364174B1B6C03F00103FB601A
:1015E800FB68002200211C2001F083FE1C2001F072
:1015F8009CFE1AE07B681B680F4A934215D10023B2
:10160800BB600C4B1B6C0B4A43F480731364094B8F
:101618001B6C03F48073BB60BB68002200212D2083
:1016280001F067FE2D2001F080FE00BF1037BD4697
:1016380080BD00BF003802400020004080B400AFE9
:1016480000BFFDE780B400AF00BFFDE780B400AF86
:1016580000BFFDE780B400AF00BFFDE780B400AF76
:1016680000BFFDE780B400AF00BFBD465DF8047B56
:10167800704780B400AF00BFBD465DF8047B70477B
:1016880080B400AF00BFBD465DF8047B704780B5ED
:1016980000AF01F013FC00BF80BD000080B500AFB3
:1016A800024805F0C2FE00BF80BD00BF2007002031
:1016B80080B500AF4FF4005002F020F800BF80BDA5
:1016C80080B500AF024805F0B0FE00BF80BD00BF86
:1016D8006807002080B500AF024802F0E5FA00BFB5
:1016E80080BD00BFE40B002080B586B000AF7860F5
:1016F800144A154BD31A7B617B693B61134B1B68FA
:10170800002B02D1114B124A1A60104B1A687B68E1
:1017180013443A699A4207D209F0FEFF03460C22A5
:101728001A604FF0FF3309E0084B1B68FB60074B5A
:101738001A687B681344054A1360FB681846183713
:10174800BD4680BD0000022000040000B007002054
:101758001011002080B400AF064BD3F88830054A3A
:1017680043F47003C2F8883000BFBD465DF8047BBF
:10177800704700BF00ED00E080B500AF9A2000F090
:1017880037F903461A46024B5A8000BF80BD00BF96
:10179800B407002080B400AF034B044A9A6000BF2E
:1017A800BD465DF8047B7047E807002081170008F4
:1017B80080B500AF224B1B8801339AB2204B1A80A8
:1017C8001F4B1B88092B31D91D4B00221A8000F0B2
:1017D800E3F80346012B14D11A4B1B88022B27D0A0
:1017E800184B1B8801339AB2164B1A80154B1B886D
:1017F800012B1FD9144B01221A70134B01225A7066
:101808001DE0104B1B88002B16D00E4B1B88013B8C
:101818009AB20C4B1A800B4B1B88002B0ED10A4B2B
:1018280000221A70084B01225A7008E000BF06E037
:1018380000BF04E000BF02E000BF00E000BF80BDC1
:10184800B8070020BA070020BC07002080B400AF0A
:10185800094B00225A70084B02221A70074B0022CB
:101868001A80074B01221A80064B074A1A6100BFEB
:10187800BD465DF8047B7047BC070020B807002010
:10188800BA070020E8070020B917000880B500AFA4
:1018980000F0F0F800F0FAF800F004F900F00EF9A2
:1018A800054BFF221A70044B32225A70034B002258
:1018B8001A8000BF80BD00BFC0070020BE070020FF
:1018C80080B485B000AF0346FB710023FB7300238F
:1018D800BB6012E0FB7B5B00FB7397F9073003F0FA
:1018E80001035AB297F90F3013435BB2FB73FB79CC
:1018F8005B08FB71BB680133BB60BB68072BE9DD84
:10190800FB7B18461437BD465DF8047B7047000022
:1019180080B500AF702000F04FF803461A460C4B14
:101928009A70742000F048F80346DB43DBB218468F
:10193800FFF7C6FF03461A46054BDA70762000F01B
:101948003BF80346DB43DAB2014B1A7100BF80BD96
:10195800C407002080B500AF064B5B791946782094
:1019680000F070F8034B9B7919467A2000F06AF86A
:1019780000BF80BDC407002080B400AF054B002223
:101988001A70044B01225A7000BFBD465DF8047BF3
:10199800704700BFC407002080B500AF012105488B
:1019A80001F07AFE0346012B01D1012300E0002358
:1019B800184680BD0000024080B586B002AF0346DD
:1019C800FB71FB7999B207F10F0201230093012300
:1019D800064804F0FFF90346002B01D1FB7B00E029
:1019E800002318461037BD4680BD00BFCC06002036
:1019F80080B586B002AF0346FB71FB7999B207F157
:101A08000C020123009302230D4804F0E3F9034676
:101A1800002B0FD13B7B1BB29B011BB203F47073ED
:101A28001AB27B7B9B08DBB21BB213431BB2FB8150
:101A3800FB8900E0002318461037BD4680BD00BF73
:101A4800CC06002080B584B002AF03460A46FB717D
:101A58001346BB71FB7999B2BA1D01230093012388
:101A6800034804F0B9F800BF0837BD4680BD00BF81
:101A7800CC06002080B500AF00220121024801F009
:101A880023FE00BF80BD00BF0010024080B500AF3C
:101A980000224021024801F017FE00BF80BD00BFB0
:101AA8000000024080B500AF00228021024801F00A
:101AB8000BFE00BF80BD00BF0000024080B500AF34
:101AC80000222021024801F0FFFD00BF80BD00BFB9
:101AD8000000024080B582B000AF78607B68054A9C
:101AE800934202D1044B1B68984700BF0837BD4694
:101AF80080BD00BF68070020CC07002080B500AF7C
:101B0800024805F0F3FB00BF80BD00BF6807002056
:101B180080B500AF024805F059FC00BF80BD00BF8A
:101B28006807002080B500AF024805F0DFFB00BF62
:101B380080BD00BF2007002080B400AF034B044ADB
:101B48001A6000BFBD465DF8047B7047CC070020D3
:101B5800690F000880B483B000AF0346FB8000BF64
:101B68000C37BD465DF8047B7047000080B400AFB9
:101B7800354B01221A70354B1B78012B27D1344B7A
:101B88001B780133DAB2324B1A70314B1B78012BB8
:101B980009D1304B01225A702E4B9B7903F07F03F9
:101BA800DAB22C4B9A712A4B1B78632B0FD9294B2D
:101BB80001225A70274B9B7963F07F03DAB2254BD9
:101BC8009A71224B00221A70214B00221A70214B65
:101BD8001B78012B0ED11F4BDB785B09DBB203F0BE
:101BE8000103002B06D01B4B00221A701A4B1B4A0C
:101BF8001A6024E01A4B5B78012B0AD1184B1B782A
:101C0800012B06D1164B00225A70134B154A1A6045
:101C180015E0104B1B78012B0ED10E4BDB781B09FE
:101C2800DBB203F00103002B06D00A4B00221A7026
:101C3800094B0D4A1A6002E0064B00221A70BD4695
:101C48005DF8047B704700BFD0070020D107002053
:101C5800D2070020C4070020E8070020751C0008F0
:101C6800BC070020751D0008BD26000880B483B09D
:101C780000AF354BDB781B09DBB203F00103FB71C6
:101C8800324B02221A70304B00221A70304B1B78EC
:101C9800FA799A4210D02F4B1B780133DAB22D4BC8
:101CA8001A702C4B1B78022B09D9294AFB7913701F
:101CB800284B00221A7002E0264B00221A70264B8D
:101CC8001B78002B25D1224B1B78012B21D1234BCC
:101CD8001B780133DAB2214B1A70204B1B78012B89
:101CE80003D11F4B00221A8013E01C4B1B78022BD8
:101CF8000FD11B4B1B88B3F57A7F0AD2194B1A4AAE
:101D08001A60164B00221A70114B1A78124B1A706F
:101D180015E00F4B1A78104B1A70104B1B78002BDC
:101D28000DD00F4B1B880A339AB20D4B1A800C4BFF
:101D38001B88B3F57A7F02D3084B00221A700C3740
:101D4800BD465DF8047B7047C4070020D00700201B
:101D5800D3070020D4070020D5070020D60700208D
:101D6800D8070020E8070020BD26000880B400AF8F
:101D7800054B04221A70054B054A1A6000BFBD4680
:101D88005DF8047B704700BFD0070020E8070020FB
:101D98009D1D000880B400AF2A4B1B78012B12D17F
:101DA800284B9B7823F05503002B05D1254BDB7876
:101DB80023F03003002B06D0224B00221A70224B4E
:101DC800224A1A6039E01F4B1B78012B0ED11D4B9C
:101DD800DB785B09DBB203F00103002B06D0194B5B
:101DE80000221A70184B1A4A1A6026E0154B1B7805
:101DF800012B1FD1134BDB781B09DBB203F0010366
:101E0800002B17D00F4B00221A700E4B01225A706C
:101E18000C4B5B7923F04003DAB20A4B5A71094B39
:101E28005B7963F07F03DAB2064B5A71064B094AB5
:101E38001A6002E0034B00221A70BD465DF8047B6D
:101E4800704700BFC4070020E8070020D526000817
:101E5800751C0008611E000880B400AF434B1B8846
:101E680001339AB2414B1A80414B1B78012B15D193
:101E78003F4B9B7823F05903002B05D13C4BDB7873
:101E880023F03403002B09D0384B00221A80384B3A
:101E980000221A70374B384A1A6063E0344B1B78BB
:101EA800012B22D1324BDB785B09DBB203F0010353
:101EB800002B1AD02D4B00221A802D4B00221A70AD
:101EC8002B4B01225A702A4B5B7903F07F03DAB25D
:101ED800274B5A71264B5B7943F04003DAB2244B07
:101EE8005A71244B254A1A603CE0204B1B88FA2B78
:101EF8000ED11F4B5B7903F07F03DAB21C4B5A718A
:101F08001B4B5B7943F04003DAB2194B5A7129E055
:101F1800164B1B88FA2B22D9154B1B78012B1ED187
:101F2800134BDB781B09DBB203F00103002B16D03F
:101F38000E4B00221A800E4B01225A700C4B5B7913
:101F480023F02003DAB20A4B5A71094B5B7943F04C
:101F58001003DAB2064B5A71064B094A1A60044B51
:101F680000221A70BD465DF8047B7047DA0700202E
:101F7800C4070020E8070020D5260008751C0008C3
:101F88008D1F000880B400AF334B1B8801339AB211
:101F9800314B1A80314B1B78012B15D12F4B9B7875
:101FA80023F07D03002B05D12C4BDB7823F0350380
:101FB800002B09D0284B00221A80284B00221A70C7
:101FC800274B284A1A6043E0244B1B78012B11D178
:101FD800224BDB785B09DBB203F00103002B09D04D
:101FE8001D4B00221A801D4B00221A701C4B1E4AE2
:101FF8001A602DE0184B1B88F92B26D9174B9B78B4
:102008005B09DBB203F00103002B1ED0124B002248
:102018001A80124B01225A70104B5B7943F020034F
:10202800DAB20E4B5A710D4B5B7923F01003DAB21A
:102038000A4B5A71094B9B7923F00203DAB2074B1A
:102048009A71074B094A1A6002E0044B00221A7081
:10205800BD465DF8047B7047DC070020C4070020FC
:10206800E8070020D5260008751C0008792000081C
:1020780080B400AF2E4B1B78012B10D12C4B9B78D2
:1020880023F07503002B03D1294BDB783F2B06D9AE
:10209800274B00221A70274B274A1A6043E0244B2B
:1020A8001B78012B18D1224BDB785B09DBB203F0DC
:1020B8000103002B10D01E4B00221A701C4B01226A
:1020C8005A701B4B9B7943F00203DAB2184B9A7192
:1020D800184B1A4A1A6026E0154B1B78012B1FD1A2
:1020E800134BDB781B09DBB203F00103002B17D07D
:1020F8000F4B00221A700E4B01225A700C4B9B7921
:1021080043F00203DAB20A4B9A71094B9B7923F028
:102118000103DAB2064B9A71064B094A1A6002E0CB
:10212800034B00221A70BD465DF8047B704700BF60
:10213800C4070020E8070020D5260008751C000801
:102148004D21000880B400AF364B1B8801339AB28A
:10215800344B1A80344B1B78012B15D1324B9B78AA
:1021680023F09503002B05D12F4BDB7823F03003A8
:10217800002B09D02B4B00221A802B4B00221A70FF
:102188002A4B2B4A1A6049E0274B1B78012B1BD19D
:10219800254BDB785B09DBB203F00103002B13D07E
:1021A800204B00221A80204B00221A701E4B01225D
:1021B8005A701D4B9B7943F00103DAB21A4B9A719E
:1021C8001A4B1C4A1A6029E0164B1B88F92B22D996
:1021D800154B9B78DB09DBB203F00103002B1AD007
:1021E800104B00221A80104B00221A700E4B01224D
:1021F8005A700D4B9B7943F00103DAB20A4B9A717E
:10220800094B5B7923F00803DAB2074B5A71074B85
:10221800094A1A6002E0044B00221A70BD465DF8B4
:10222800047B7047DE070020C4070020E807002071
:10223800D5260008751C00084522000880B400AFA8
:10224800324B1B78012B12D1304B9B7823F055036E
:10225800002B05D12D4BDB7823F07003002B06D023
:102268002A4B00221A702A4B2A4A1A604AE0274B46
:102278001B78012B18D1254BDB785B09DBB203F007
:102288000103002B10D0214B00221A701F4B012292
:102298005A701E4B5B7943F00803DAB21B4B5A7134
:1022A8001B4B1D4A1A602DE0184B1B78012B26D1B9
:1022B800164BDB781B09DBB203F00103002B1ED0A1
:1022C800124B00221A70114B01225A700F4B5B7986
:1022D80043F00803DAB20D4B5A710C4B5B7923F0CB
:1022E8000203DAB2094B5A71084B5B7943F00403D5
:1022F800DAB2064B5A71064B084A1A6002E0034BE1
:1023080000221A70BD465DF8047B7047C4070020A0
:10231800E8070020D5260008751C000829230008B6
:1023280080B400AF3A4B1B8801339AB2384B1A80FD
:10233800384B1B78012B15D1364B9B7823F056036D
:10234800002B05D1334BDB7823F03803002B09D061
:102358002F4B00221A802F4B00221A702E4B2F4A27
:102368001A6050E02B4B1B78012B22D1294BDB78CC
:102378005B09DBB203F00103002B1AD0244B0022C7
:102388001A80244B00221A70224B01225A70214BCA
:102398005B7943F00203DAB21E4B5A711D4B5B792D
:1023A80023F00403DAB21B4B5A711B4B1C4A1A6008
:1023B80029E0174B1B88F92B22D9164B9B785B0811
:1023C800DBB203F00103002B1AD0114B00221A8054
:1023D800104B00221A700F4B01225A700D4B5B797B
:1023E80043F00203DAB20B4B5A710A4B5B7923F0C4
:1023F8000403DAB2074B5A71074B0A4A1A6002E023
:10240800044B00221A70BD465DF8047B704700BF7C
:10241800E0070020C4070020E8070020D5260008B0
:10242800751C00083124000880B400AF984B1B7855
:10243800012B48D1974B1B780133DAB2954B1A70B0
:10244800944B1B78012B0AD1934B01225A70924B63
:102458009B7903F07F03DAB28F4B9A7113E18D4BAE
:102468001B78632B2BD98C4B01225A708A4B9B7992
:1024780063F07F03DAB2884B9A71854B00221A7099
:10248800844B00221A70854B1B78012B02D0022B3B
:1024980007D014E0824B834A1A607F4B00221A70DF
:1024A800F1E0814B1B78032B05D17F4B00221A707A
:1024B8007B4B7E4A1A60784B00221A70E3E0764B19
:1024C80000221A70DFE0744B1B78012B1BD1724B72
:1024D8009B7823F05503002B0BD16F4BDB7823F04F
:1024E8003003002B05D16C4B1B7903F00203002B42
:1024F80009D16D4B00221A70674B00221A70684B85
:102508006B4A1A60BFE0644B1B78012B30D1624BD9
:10251800DB785B09DBB203F00103002B28D0624BA8
:1025280000221A705C4B00221A705B4B01225A7011
:10253800594B9B7923F01003DAB2574B9A71564BDB
:102548009B7943F02003DAB2534B9A71524B9B7933
:1025580043F04003DAB2504B9A714F4B9B7903F02A
:102568007F03DAB24C4B9A714C4B01221A708AE005
:10257800494B1B78012B40F08380474BDB781B09C4
:10258800DBB203F00103002B7AD0434B1B7903F035
:102598000103002B74D0444B1B780133DAB2424B51
:1025A8001A703D4B00221A703B4B01225A70384B6F
:1025B80001221A703C4B1B78032B40D0032B5BDCA9
:1025C800012B02D0022B1DD056E0334B9B7943F0F0
:1025D8001003DAB2304B9A712F4B9B7923F020030A
:1025E800DAB22D4B9A712C4B9B7943F04003DAB247
:1025F800294B9A71284B9B7963F07F03DAB2264BFB
:102608009A7139E0244B9B7943F01003DAB2224BDC
:102618009A71214B9B7943F02003DAB21E4B9A71D1
:102628001D4B9B7923F04003DAB21B4B9A711A4B6E
:102638009B7963F07F03DAB2174B9A711CE0164B53
:102648009B7923F01003DAB2134B9A71124B9B79E2
:1026580043F02003DAB2104B9A710F4B9B7943F089
:102668004003DAB20C4B9A710B4B9B7963F07F03F2
:10267800DAB2094B9A7100BF084B02221A7002E0C5
:10268800054B00221A70BD465DF8047B704700BFF9
:10269800D1070020E2070020C4070020E30700203C
:1026A800E8070020751C0008E4070020751B0008D7
:1026B800D526000880B400AF034B03221A7000BF70
:1026C800BD465DF8047B7047D007002080B500AF99
:1026D800FFF71EFA00BF80BD80B400AF394B5B79AD
:1026E80043F00103DAB2374B5A71364B5B7943F04A
:1026F8000203DAB2334B5A71324B5B7923F004038D
:10270800DAB2304B5A712F4B5B7943F00803DAB2D7
:102718002C4B5A712B4B5B7923F01003DAB2294BFF
:102728005A71284B5B7943F02003DAB2254B5A7172
:10273800244B5B7943F04003DAB2224B5A71214BA8
:102748005B7903F07F03DAB21E4B5A711D4B9B79FC
:1027580043F00103DAB21B4B9A711A4B9B7943F091
:102768000203DAB2174B9A71164B9B7923F00803D0
:10277800DAB2144B9A71134B9B7923F01003DAB237
:10278800104B9A710F4B9B7943F02003DAB20D4B33
:102798009A710C4B9B7943F04003DAB2094B9A715A
:1027A800084B9B7963F07F03DAB2064B9A71064BAC
:1027B80001221A70054B064A1A6000BFBD465DF833
:1027C800047B7047C4070020D1070020E8070020D9
:1027D800751B000880B582B000AF124B9B78FB7167
:1027E800104BDB78BB710F4B1B797B710D4B1B7842
:1027F800012B01D0FFF78CF80A4B9B78FA799A42A3
:1028080009D1084BDB78BA799A4204D1054B1B7978
:102818007A799A4202D0034B01221A7000BF083716
:10282800BD4680BDC407002080B400AF034B044AF6
:102838005A6000BFBD465DF8047B7047E80700207A
:10284800DD27000880B500AF054B5B78012B04D16C
:10285800FFF780F8024B00225A7000BF80BD00BF0E
:10286800C407002080B400AF034B044ADA6000BFFD
:10287800BD465DF8047B7047E80700204D28000836
:10288800B0B489B000AF03463960FB801C4B07F138
:102898000C041D460FCD0FC42B682370FB881B0B3F
:1028A8009BB203F00F0320333B4413F8142C3B680E
:1028B8001A70FB881B0A9BB203F00F023B680133B6
:1028C80020323A4412F8142C1A70FB881B099BB268
:1028D80003F00F023B68023320323A4412F8142CFA
:1028E8001A70FB8803F00F023B68033320323A4426
:1028F80012F8142C1A7000BF2437BD46B0BC7047BC
:1029080024B8000880B485B000AF03463960FB7175
:102918000023FB6014E0FA79FB68C3F1070342FA6D
:1029280003F303F00103002B01D0312100E0302133
:10293800FB683A6813440A461A70FB680133FB6067
:10294800FB68072BE7DD00BF00BF1437BD465DF805
:10295800047B704780B58CB000AF582387F82F30C0
:10296800C34B5B78012B11D1C14B1B78012B03D1D1
:10297800312387F82F3002E0302387F82F3097F87B
:102988002F0005230C220621FDF744FEB94B9B7846
:1029980007F1240211461846FFF7B4FFB54BDB7860
:1029A80007F11C0211461846FFF7ACFFB14B1B7923
:1029B80007F1140211461846FFF7A4FFAD4B5B79E7
:1029C80007F10C0211461846FFF79CFFA94B9B79AB
:1029D8003A1D11461846FFF795FFA74B5B883A4604
:1029E80011461846FFF74CFF387B052305220121C5
:1029F800FDF710FE787B052306220121FDF70AFE6C
:102A0800B87B052307220121FDF704FEF87B052387
:102A180008220121FDF7FEFD387C05230C22012147
:102A2800FDF7F8FD787C05230D220121FDF7F2FD65
:102A3800B87C05230E220121FDF7ECFDF87C052367
:102A48000F220121FDF7E6FD387905230522022131
:102A5800FDF7E0FD7879052306220221FDF7DAFD6E
:102A6800B879052307220221FDF7D4FDF87905235B
:102A780008220221FDF7CEFD387A05230C22022117
:102A8800FDF7C8FD787A05230D220221FDF7C2FD66
:102A9800B87A05230E220221FDF7BCFDF87A05233A
:102AA8000F220221FDF7B6FD97F824000523052221
:102AB8000321FDF7AFFD97F8250005230622032122
:102AC800FDF7A8FD97F82600052307220321FDF747
:102AD800A1FD97F82700052308220321FDF79AFD99
:102AE80097F8280005230C220321FDF793FD97F89A
:102AF800290005230D220321FDF78CFD97F82A00F4
:102B080005230E220321FDF785FD97F82B000523E9
:102B18000F220321FDF77EFD387F052305220421BE
:102B2800FDF778FD787F052306220421FDF772FD65
:102B3800B87F052307220421FDF76CFDF87F0523E4
:102B480008220421FDF766FD97F8200005230C22D2
:102B58000421FDF75FFD97F8210005230D220421CC
:102B6800FDF758FD97F8220005230E220421FDF7F2
:102B780051FD97F8230005230F220421FDF74AFD94
:102B8800387D052305220521FDF744FD787D0523C1
:102B980006220521FDF73EFDB87D05230722052104
:102BA800FDF738FDF87D052308220521FDF732FDE4
:102BB800387E05230C220521FDF72CFD787E0523A0
:102BC8000D220521FDF726FDB87E05230E220521DD
:102BD800FDF720FDF87E05230F220521FDF71AFDDC
:102BE8003878052307220721FDF714FD7878052397
:102BF80008220721FDF70EFDB878052309220721D1
:102C0800FDF708FDF87805230A220721FDF702FDE4
:102C18001A4B1B78013B032B26D801A252F823F04C
:102C2800392C0008472C0008552C0008632C000894
:102C38000523122207215720FDF7ECFC14E0052399
:102C4800122207214120FDF7E5FC0DE005231222A1
:102C580007214F20FDF7DEFC06E00523122207219D
:102C68005420FDF7D7FC00BF00BF3037BD4680BDFC
:102C7800BC070020C4070020B4070020D0070020AC
:102C880080B500AF00224FF40061264800F01CFD1B
:102C980001224FF48051234800F016FD01224FF421
:102CA8000051204800F010FD01224FF480411D48DA
:102CB80000F00AFD642000F021F9FDF73FFC6420D4
:102CC80000F01CF90020FDF765FC052200211648DC
:102CD800FDF768FD052201211448FDF763FD052273
:102CE80002211348FDF75EFD052203211148FDF777
:102CF80059FD052204211048FDF754FD0522052140
:102D08000E48FDF74FFD052206210D48FDF74AFD47
:102D1800052207210B48FDF745FD0B4B0B4A9A612D
:102D280000BF80BD00040240580500206F05002048
:102D3800860500209D050020B4050020CB05002055
:102D4800E2050020F9050020E80700205D290008B9
:102D580080B582B000AF0023FB7107E0FB79074A1A
:102D680052F823309847FB790133FB71FB79062B26
:102D7800F4D900BF00BF0837BD4680BDE807002072
:102D880080B483B000AF0023FB7107E0FB79094AE8
:102D9800094942F82310FB790133FB71FB79062BB3
:102DA800F4D9064B064A1A6000BF0C37BD465DF8D9
:102DB800047B7047E8070020690F0008CC07002053
:102DC800592D0008DFF834D0FEF7C4FC0C480D4933
:102DD8000D4A002302E0D458C4500433C4188C426E
:102DE800F9D30A4A0A4C002301E013600432A242D4
:102DF800FBD308F097FCFEF7BAF8704700000220F2
:102E0800000000208806002064B80008880600201A
:102E18000C110020FEE7000080B500AF0E4B1B68C8
:102E28000D4A43F4007313600B4B1B680A4A43F4C2
:102E380080631360084B1B68074A43F48073136070
:102E4800032000F04BFA002000F008F8FEF7FAFA29
:102E58000023184680BD00BF003C024080B582B008
:102E680000AF7860124B1A68124B1B7819464FF462
:102E78007A73B3FBF1F3B2FBF3F3184600F063FA8D
:102E88000346002B01D001230EE07B680F2B0AD8E4
:102E9800002279684FF0FF3000F02BFA064A7B6871
:102EA8001360002300E0012318460837BD4680BDA3
:102EB80054050020140600201006002080B400AF3E
:102EC800064B1B781A46064B1B681344044A1360CA
:102ED80000BFBD465DF8047B704700BF14060020A4
:102EE8000408002080B400AF034B1B681846BD4699
:102EF8005DF8047B704700BF0408002080B584B0EB
:102F080000AF7860FFF7EEFFB8607B68FB60FB6896
:102F1800B3F1FF3F05D00A4B1B781A46FB681344F0
:102F2800FB6000BFFFF7DEFF0246BB68D31AFA68F2
:102F38009A42F7D800BF00BF1037BD4680BD00BF1A
:102F48001406002080B584B000AF78607B68002B41
:102F580001D10123EDE07B6893F82030DBB2002B30
:102F680002D17868FEF796FA7B681B681A687B6856
:102F78001B6842F001021A60FFF7B4FFF86012E024
:102F8800FFF7B0FF0246FB68D31A0A2B0BD97B6800
:102F98005B6A43F400327B685A627B68052283F8D7
:102FA80020200123C5E07B681B685B6803F00103F0
:102FB800002BE5D07B681B681A687B681B6822F0C9
:102FC80002021A60FFF78EFFF86012E0FFF78AFF2F
:102FD8000246FB68D31A0A2B0BD97B685B6A43F459
:102FE80000327B685A627B68052283F8202001231F
:102FF8009FE07B681B685B6803F00203002BE5D148
:103008007B681B7E012B08D17B681B681A687B686C
:103018001B6842F080021A6007E07B681B681A6828
:103028007B681B6822F080021A607B685B7E012B3C
:1030380008D17B681B681A687B681B6842F04002ED
:103048001A6007E07B681B681A687B681B6822F0B7
:1030580040021A607B689B7E012B08D17B681B6845
:103068001A687B681B6842F020021A6007E07B68D8
:103078001B681A687B681B6822F020021A607B684C
:10308800DB7E012B08D17B681B681A687B681B688C
:1030980022F010021A6007E07B681B681A687B68D8
:1030A8001B6842F010021A607B681B7F012B08D155
:1030B8007B681B681A687B681B6842F008021A6004
:1030C80007E07B681B681A687B681B6822F00802A7
:1030D8001A607B685B7F012B08D17B681B681A68C4
:1030E8007B681B6842F004021A6007E07B681B6873
:1030F8001A687B681B6822F004021A607B689A6869
:103108007B68DB681A437B681B691A437B685B69C9
:1031180042EA03017B685B685A1E7B681B680A43A6
:10312800DA617B6800225A627B68012283F82020DA
:10313800002318461037BD4680BD000080B485B016
:1031480000AF78607B6803F00703FB600C4BDB681B
:10315800BB60BA684FF6FF031340BB60FB681A02F6
:10316800BB68134343F0BF6343F40033BB60044AB6
:10317800BB68D36000BF1437BD465DF8047B704759
:1031880000ED00E080B400AF044BDB681B0A03F0DD
:1031980007031846BD465DF8047B704700ED00E064
:1031A80080B483B000AF0346FB7197F90730002B5A
:1031B8000BDBFB7903F01F02074997F907305B091E
:1031C800012000FA02F241F8232000BF0C37BD4667
:1031D8005DF8047B704700BF00E100E080B483B075
:1031E80000AF03463960FB7197F90730002B0ADB03
:1031F8003B68DAB20C4997F907301201D2B20B4496
:1032080083F800230AE03B68DAB20849FB7903F047
:103218000F03043B1201D2B20B441A7600BF0C37DD
:10322800BD465DF8047B704700E100E000ED00E07A
:1032380080B489B000AFF860B9607A60FB6803F0C9
:103248000703FB61FB69C3F10703042B28BF0423B1
:10325800BB61FB690433062B02D9FB69033B00E021
:1032680000237B614FF0FF32BB6902FA03F3DA43B4
:10327800BB681A407B699A404FF0FF317B6901FABD
:1032880003F3D9437B680B40134318462437BD46E4
:103298005DF8047B7047000080B582B000AF7860AD
:1032A8007B68013BB3F1807F01D301230FE00A4A19
:1032B8007B68013B53600F214FF0FF30FFF78EFF13
:1032C800054B00229A60044B07221A600023184617
:1032D8000837BD4680BD00BF10E000E080B582B071
:1032E80000AF78607868FFF729FF00BF0837BD4650
:1032F80080BD80B586B000AF0346B9607A60FB73C5
:1033080000237B61FFF73EFF78617A68B9687869C6
:10331800FFF78EFF024697F90F3011461846FFF760
:103328005DFF00BF1837BD4680BD80B582B000AFD5
:103338000346FB7197F907301846FFF731FF00BFC6
:103348000837BD4680BD80B582B000AF7860786828
:10335800FFF7A2FF034618460837BD4680BD0000A8
:1033680080B489B000AF7860396000237B610023A6
:103378003B610023BB610023FB616BE10122FB6918
:1033880002FA03F37B613B681B687A6913403B616F
:103398003A697B699A4240F05A813B685B6803F05E
:1033A8000303012B05D03B685B6803F00303022B82
:1033B80030D17B689B68BB61FB695B00032202FA22
:1033C80003F3DB43BA691340BB613B68DA68FB6906
:1033D8005B0002FA03F3BA691343BB617B68BA69FD
:1033E8009A607B685B68BB610122FB6902FA03F3A0
:1033F800DB43BA691340BB613B685B681B0903F098
:103408000102FB6902FA03F3BA691343BB617B68E3
:10341800BA695A603B685B6803F00303032B17D053
:103428007B68DB68BB61FB695B00032202FA03F37C
:10343800DB43BA691340BB613B689A68FB695B0070
:1034480002FA03F3BA691343BB617B68BA69DA60AD
:103458003B685B6803F00303022B23D1FB69DA089E
:103468007B68083253F82230BB61FB6903F007031D
:103478009B000F2202FA03F3DB43BA691340BB61D6
:103488003B681A69FB6903F007039B0002FA03F320
:10349800BA691343BB61FB69DA087B680832B9690A
:1034A80043F822107B681B68BB61FB695B00032241
:1034B80002FA03F3DB43BA691340BB613B685B68FC
:1034C80003F00302FB695B0002FA03F3BA691343D2
:1034D800BB617B68BA691A603B685B6803F4403378
:1034E800002B00F0B4800023FB60604B5B6C5F4AEC
:1034F80043F4804353645D4B5B6C03F48043FB608F
:10350800FB685B4AFB699B08023352F82330BB61B6
:10351800FB6903F003039B000F2202FA03F3DB436A
:10352800BA691340BB617B68524A93422BD07B68CF
:10353800514A934225D07B68504A93421FD07B68FA
:103548004F4A934219D07B684E4A934213D07B6806
:103558004D4A93420DD07B684C4A934207D07B6812
:103568004B4A934201D107230EE008230CE00623BF
:103578000AE0052308E0042306E0032304E002230D
:1035880002E0012300E00023FA6902F0030292003E
:103598009340BA691343BB613549FB699B08023301
:1035A800BA6941F823203B4B9B68BB613B69DB430D
:1035B800BA691340BB613B685B6803F48013002B56
:1035C80003D0BA693B691343BB61324ABB69936054
:1035D800304BDB68BB613B69DB43BA691340BB61B5
:1035E8003B685B6803F40013002B03D0BA693B699E
:1035F8001343BB61274ABB69D360264B5B68BB6139
:103608003B69DB43BA691340BB613B685B6803F401
:103618000033002B03D0BA693B691343BB611D4AD1
:10362800BB6953601B4B1B68BB613B69DB43BA69D1
:103638001340BB613B685B6803F48033002B03D005
:10364800BA693B691343BB61124ABB691360FB69E2
:103658000133FB61FB690F2B7FF690AE00BF00BF03
:103668002437BD465DF8047B704700BF0038024030
:1036780000380140000002400004024000080240F7
:10368800000C0240001002400014024000180240E2
:10369800001C0240003C014080B485B000AF786057
:1036A8000B467B807B681A697B881340002B02D00D
:1036B8000123FB7301E00023FB73FB7B18461437DF
:1036C800BD465DF8047B704780B483B000AF786076
:1036D8000B467B8013467B707B78002B03D07A885F
:1036E8007B689A6103E07B881A047B689A6100BF53
:1036F8000C37BD465DF8047B7047000080B582B08A
:1037080000AF0346FB80084B5A69FB881340002B27
:1037180006D0054AFB885361FB881846FEF71AFA5B
:1037280000BF0837BD4680BD003C014080B586B06B
:1037380002AF78607B68002B01D1012359E07B68D8
:103748001B68FB607B6893F8D533DBB2002B06D18E
:103758007B68002283F8D423786807F06DFC7B68C7
:10376800032283F8D523FB68B3F1A04F02D17B680D
:1037780000229A717B681B68184604F07AFA7B6805
:1037880018687B681A7C8DF8002004330ECB04F08F
:10379800FBF90346002B05D07B68022283F8D5236A
:1037A800012326E07B681B680121184604F072FAA1
:1037B8000346002B05D07B68022283F8D52301231A
:1037C80017E07B6818687B681A7C8DF80020043342
:1037D8000ECB04F01BFC0346002B05D07B680222AD
:1037E80083F8D523012304E07B68012283F8D523DD
:1037F800002318461037BD4680BD90B58BB004AF86
:103808007860084611461A460346FB700B46BB70A3
:1038180013467B703B8E7B617B6893F8D433012B16
:1038280001D102239DE07B68012283F8D423FA7832
:10383800796813461B019B1A9B000B44193300221D
:103848001A70FA78796813461B019B1A9B000B447F
:1038580014337A781A70FA78796813461B019B1A20
:103868009B000B441533FA781A70FA787968134676
:103878001B019B1A9B000B44263397F82C201A70C7
:10388800FA78BB7803F07F03D8B2796813461B0136
:103898009B1A9B000B44163302461A70FB78194694
:1038A800786800F0A5FB97F90230002B0ADAFA785D
:1038B800796813461B019B1A9B000B44173301229E
:1038C8001A7009E0FA78796813461B019B1A9B0065
:1038D8000B44173300221A707B681B68184604F0E3
:1038E800F9FC386197F82C30012B0BD197F8283068
:1038F800012B07D13B69002B04D17B69BC2B01D973
:10390800BC237B61FA78796813461B019B1A9B00DC
:103918000B44183397F828201A70FA787B6998B204
:10392800796813461B019B1A9B000B4428330246F7
:103938001A807B6818687B699BB27C78BA78F978BA
:10394800029397F82C30019397F828300093234678
:1039580004F0E8FC0346FB737B68002283F8D42359
:10396800FB7B18461C37BD4690BD000080B582B071
:1039780000AF7860084611461A460346FB700B46AE
:10398800BB7013467B70FA78796813461B019B1A43
:103998009B000B441733BA781A70FA787968134683
:1039A8001B019B1A9B000B4426337A781A703B7CC8
:1039B800002B14D1FA78796813461B019B1A9B00D7
:1039C8000B442A3303221A70FA78796813461B01CC
:1039D8009B1A9B000B4419333A7F1A7009E0FA7856
:1039E800796813461B019B1A9B000B442A33022259
:1039F8001A707B78032B00F2028101A252F823F09F
:103A0800193A0008F13B0008DD3A0008673B000856
:103A18003B7C012B40F0F580BB78002B2DD13B8BF4
:103A2800002B09D1FA78796813461B019B1A9B0071
:103A38000B443D3301221A70FA78796813461B014A
:103A48009B1A9B000B443D331B78002B0AD1FA7854
:103A5800796813461B019B1A9B000B442A330022EA
:103A68001A70CEE0FA78796813461B019B1A9B00FE
:103A78000B442A3302221A70C3E0FA787968134695
:103A88001B019B1A9B000B441A331B78012B40F037
:103A9800B880FA78796813461B019B1A9B000B447F
:103AA8003C331B78002B0AD1FA78796813461B013E
:103AB8009B1A9B000B442A3300221A70A1E0FA7863
:103AC800796813461B019B1A9B000B442A33022278
:103AD8001A7096E0BB78002B20D1FA7879681346E3
:103AE8001B019B1A9B000B443D331B78002B0AD10A
:103AF800FA78796813461B019B1A9B000B442A33FA
:103B080000221A707EE0FA78796813461B019B1A26
:103B18009B000B442A3302221A7073E0FA78796802
:103B280013461B019B1A9B000B443C331B78002B4C
:103B38000AD1FA78796813461B019B1A9B000B443B
:103B48002A3300221A705DE0FA78796813461B015F
:103B58009B1A9B000B442A3302221A7052E0BB784E
:103B6800002B20D1FA78796813461B019B1A9B0019
:103B78000B443D331B78002B0AD1FA787968134639
:103B88001B019B1A9B000B442A3300221A7039E050
:103B9800FA78796813461B019B1A9B000B442A3359
:103BA80002221A702EE0FA78796813461B019B1AD4
:103BB8009B000B443C331B78002B0AD1FA787968B8
:103BC80013461B019B1A9B000B442A3300221A70D0
:103BD80018E0FA78796813461B019B1A9B000B447E
:103BE8002A3302221A700DE0FA78796813461B010D
:103BF8009B1A9B000B442A3300221A7002E000BF74
:103C080000E000BFFA78796813461B019B1A9B00F5
:103C18000B442C337A691A60FA78398B7868134622
:103C28001B019B1A9B00034434331960FA787968A6
:103C380013461B019B1A9B000B444C3300221A703D
:103C4800FA78796813461B019B1A9B000B4438339A
:103C580000221A60FA78796813461B019B1A9B00A8
:103C68000B441533FA781A70FA78796813461B01F1
:103C78009B1A9B000B444D3300221A707B6818680E
:103C8800FA7813461B019B1A9B0010337A68134479
:103C9800191D7B689B791A4604F070FC0346184688
:103CA8000837BD4680BD00BF80B586B000AF7860DC
:103CB8007B681B683B613B69FB607B681B68184637
:103CC80004F05EF90346012B40F0FB807B681B681B
:103CD800184604F021F90346002B00F0F1807B68B8
:103CE8001B68184604F018F9034603F40013B3F5EB
:103CF800001F04D17B681B684FF400125A617B686F
:103D08001B68184604F008F9034603F48013B3F55A
:103D1800801F04D17B681B684FF480125A617B684E
:103D28001B68184604F0F8F8034603F08063B3F103
:103D3800806F04D17B681B684FF080625A617B6892
:103D48001B68184604F0E8F8034603F00203022B48
:103D580003D17B681B6802225A617B681B6818467E
:103D680004F0DAF8034603F00053B3F1005F20D102
:103D78007B681B684FF000525A61FB6803F5886343
:103D88001B6803F00103002B13D11021386903F0DD
:103D9800CDFF386903F0FCFF7B685B7A022B05D105
:103DA8007B681B680121184604F0F4F9786807F06D
:103DB800C1F97B681B68184604F0AEF8034603F0A7
:103DC8008073B3F1807F02D1786801F04DFD7B6884
:103DD8001B68184604F0A0F8034603F00803082BF4
:103DE80006D1786807F08AF97B681B6808225A614F
:103DF8007B681B68184604F08FF8034603F00073CD
:103E0800B3F1007F39D17B681B68184604F030FE97
:103E1800B86000237B6125E07B6903F00F03BA6873
:103E280022FA03F303F00103002B18D07B695A012F
:103E3800FB68134403F5A0631B6803F40043B3F560
:103E4800004F06D17B69DBB21946786800F005F9A6
:103E580005E07B69DBB21946786800F067FF7B698B
:103E680001337B617B685B791A467B699342D3D3C4
:103E78007B681B684FF000725A617B681B681846A4
:103E880004F04AF8034603F01003102B01D1012374
:103E980000E00023002B14D07B681B689A697B68BC
:103EA8001B6822F010029A61786801F0FEFB7B68BB
:103EB8001B689A697B681B6842F010029A6100E0EF
:103EC80000BF1837BD4680BD80B582B000AF7860AE
:103ED8007B6893F8D433012B01D1022313E07B686C
:103EE800012283F8D4237B681B680121184604F05B
:103EF800B8F97B681B68184603F0AAFE7B680022A5
:103F080083F8D423002318460837BD4680BD80B502
:103F180082B000AF78607B6893F8D433012B01D16D
:103F280002230DE07B68012283F8D4237B681B6899
:103F3800184604F00BFF7B68002283F8D423002383
:103F480018460837BD4680BD80B582B000AF78609E
:103F58007B681B68184604F05AF903461846083768
:103F6800BD4680BD80B483B000AF78600B46FB705F
:103F7800FA78796813461B019B1A9B000B444C3353
:103F88001B7818460C37BD465DF8047B704780B433
:103F980083B000AF78600B46FB70FA7879681346F7
:103FA8001B019B1A9B000B4438331B6818460C37BF
:103FB800BD465DF8047B704780B582B000AF78607D
:103FC8007B681B68184604F09CF9034618460837B6
:103FD800BD4680BD80B582B000AF78607B681B6845
:103FE800184604F077F9034618460837BD4680BDE1
:103FF80080B483B000AF78600B46FB70FA787968BC
:1040080013461B019B1A9B000B441A3300221A709B
:10401800FA78796813461B019B1A9B000B441B33E3
:1040280000221A70FA78796813461B019B1A9B00C4
:104038000B44253300221A70FA78796813461B015D
:104048009B1A9B000B44243300221A700023184645
:104058000C37BD465DF8047B704780B586B000AF6D
:1040680078600B46FB707B681B687B617B693B61F2
:104078007B681B68FA781146184603F060FF034610
:1040880003F00403042B1AD1FB785A013B6913444B
:1040980003F5A0631A4604239360FA7879681346F7
:1040A8001B019B1A9B000B444D3307221A707B6837
:1040B8001B68FA781146184604F0EBFC9EE07B6812
:1040C8001B68FA781146184603F039FF034603F4D3
:1040D8008073B3F5807F1BD1FB785A013B69134489
:1040E80003F5A0631A464FF480739360FA787968F1
:1040F80013461B019B1A9B000B444D3308221A7070
:104108007B681B68FA781146184604F0C2FC75E013
:104118007B681B68FA781146184603F010FF0346BF
:1041280003F00803082B1AD1FB785A013B691344A2
:1041380003F5A0631A4608239360FA787968134652
:104148001B019B1A9B000B444D3306221A707B6897
:104158001B68FA781146184604F09BFC4EE07B6811
:104168001B68FA781146184603F0E9FE034603F483
:104178008063B3F5806F1BD1FB785A013B69134408
:1041880003F5A0631A464FF480639360FA78796860
:1041980013461B019B1A9B000B444D3309221A70CE
:1041A8007B681B68FA781146184604F072FC25E013
:1041B8007B681B68FA781146184603F0C0FE034670
:1041C80003F08003802B19D1FB785A013B69134413
:1041D80003F5A0631A4680239360FA78796813463A
:1041E8001B019B1A9B000B444D3307221A707B68F6
:1041F8001B68FA781146184604F04BFC7B681B686C
:10420800FA781146184603F09AFE034603F4007341
:10421800B3F5007F12D17B681B68FA7811461846FF
:1042280004F037FCFB785A013B69134403F5A0639B
:104238001A464FF40073936000F075BD7B681B68E5
:10424800FA781146184603F07AFE034603F0010394
:10425800012B40F02881FB785A013B69134403F590
:10426800A0631A4620239360FA78796813461B01E5
:104278009B1A9B000B441B331B78012B19D1FA782E
:10428800796813461B019B1A9B000B441B330022C1
:104298001A70FB785A013B69134403F5A0635B6805
:1042A800FA7851013A690A4402F5A06223F480338E
:1042B80053607B689B79002B1BD0FA78796813468A
:1042C8001B019B1A9B000B4430331968FB785A0179
:1042D8003B69134403F5A0631B69C3F31203FA781F
:1042E800C91A786813461B019B1A9B00034438338C
:1042F8001960FA78796813461B019B1A9B000B44D6
:104308004D3301221A70FA78796813461B019B1AFB
:104318009B000B44443300221A60FB785A013B6926
:10432800134403F5A0631A4601239360FA78796869
:1043380013461B019B1A9B000B4426331B78002B4A
:104348000AD0FA78796813461B019B1A9B000B4424
:1043580026331B78022B10D17B681B68FA7811462C
:10436800184604F096FBFB785A013B69134403F5A1
:10437800A0631A46102393603DE0FA7879681346E3
:104388001B019B1A9B000B4426331B78032B0AD076
:10439800FA78796813461B019B1A9B000B44263355
:1043A8001B78012B27D1FB785A013B69134403F58D
:1043B800A0631B68FA7851013A690A4402F5A062C1
:1043C80043F000531360FA78796813461B019B1A6F
:1043D8009B000B444C3301221A70FA787968134613
:1043E8001B019B1A9B000B444C331A78FB78194627
:1043F800786806F0ADFE7B689B79012B3BD1FA7893
:10440800796813461B019B1A9B000B4438331968C3
:10441800FA78786813461B019B1A9B0003442833DB
:104428001B880B44591EFA78786813461B019B1A9F
:104438009B00034428331B88B1FBF3F303F001030B
:10444800002B00F07084FA78796813461B019B1AD8
:104458009B000B443C331B78FA7883F00103D8B2F5
:10446800796813461B019B1A9B000B443C33024698
:104478001A7000F058BCFA78796813461B019B1A29
:104488009B000B443C331B78FA7883F00103D8B2C5
:10449800796813461B019B1A9B000B443C33024668
:1044A8001A7000F040BC7B681B68FA781146184601
:1044B80003F045FD034603F02003202B31D1FB78A0
:1044C8005A013B69134403F5A0631A4620239360FD
:1044D800FA78796813461B019B1A9B000B441A3320
:1044E8001B78012B40F01F84FA78796813461B016A
:1044F8009B1A9B000B441B3301221A70FA787968C7
:1045080013461B019B1A9B000B444D3303221A7060
:104518007B681B68FA781146184604F0BAFA00F06E
:1045280002BC7B681B68FA781146184603F007FD41
:10453800034603F00203022B40F00583FB785A017F
:104548003B69134403F5A0631A4602239360FA7883
:10455800796813461B019B1A9B000B444D331B784B
:10456800012B14D1FA78796813461B019B1A9B001A
:104578000B444D3302221A70FA78796813461B01EE
:104588009B1A9B000B444C3301221A70CCE2FA7838
:10459800796813461B019B1A9B000B444D331B780B
:1045A800062B14D1FA78796813461B019B1A9B00D5
:1045B8000B444D3302221A70FA78796813461B01AE
:1045C8009B1A9B000B444C3305221A70ACE2FA7814
:1045D800796813461B019B1A9B000B444D331B78CB
:1045E800072B0BD0FA78796813461B019B1A9B009E
:1045F8000B444D331B78092B40F0A680FA78796874
:1046080013461B019B1A9B000B444D3302221A7060
:10461800FA78796813461B019B1A9B000B444433B4
:104628001B68591C786813461B019B1A9B0003449E
:1046380044331960FA78796813461B019B1A9B006A
:104648000B4444331B68022B43D9FA787968134624
:104658001B019B1A9B000B44443300221A60FA7812
:10466800796813461B019B1A9B000B441A331B786D
:10467800012B23D1FA78796813461B019B1A9B00FA
:104688000B441B3300221A70FA78796813461B0111
:104698009B1A9B000B441C3300221A70FB785A01AA
:1046A8003B69134403F5A0635B68FA7851013A69E2
:1046B8000A4402F5A06223F480335360FA787968DB
:1046C80013461B019B1A9B000B444C3304221A709F
:1046D80029E2FA78796813461B019B1A9B000B4460
:1046E8004C3302221A70FA78796813461B019B1A18
:1046F8009B000B4426331B78002B0BD0FA78796883
:1047080013461B019B1A9B000B4426331B78022B74
:1047180040F00982FB785A013B69134403F5A06312
:104728001B68FB60FB6823F08043FB60FB6843F079
:104738000043FB60FB785A013B69134403F5A0630F
:104748001A46FB681360EEE1FA78796813461B0194
:104758009B1A9B000B444D331B78052B40F0C880F7
:10476800FA78796813461B019B1A9B000B444D335A
:1047780002221A70FA78796813461B019B1A9B006B
:104788000B441B331B78012B40F0CE81FA787968F3
:1047980013461B019B1A9B000B4426331B78032BE3
:1047A8006BD1FA78796813461B019B1A9B000B445E
:1047B80048331B68591C786813461B019B1A9B00D9
:1047C800034448331960FA78796813461B019B1A29
:1047D8009B000B4448331B68022B43D9FA7879684D
:1047E80013461B019B1A9B000B44483300221A6096
:1047F800FA78796813461B019B1A9B000B441B33FC
:1048080000221A70FA78796813461B019B1A9B00DC
:104818000B4444331B68022B09D8FA78796813468D
:104828001B019B1A9B000B441C3301221A70FB7856
:104838005A013B69134403F5A0635B68FA78510198
:104848003A690A4402F5A06223F480335360FA7887
:10485800796813461B019B1A9B000B444C330422B6
:104868001A7014E0FA78796813461B019B1A9B00AA
:104878000B444C3302221A7009E0FA78796813461F
:104888001B019B1A9B000B444C3302221A70FA78C6
:10489800796813461B019B1A9B000B4426331B782F
:1048A800002B0BD0FA78796813461B019B1A9B00E2
:1048B8000B4426331B78022B40F03681FB785A01D3
:1048C8003B69134403F5A0631B68FB60FB6823F096
:1048D8008043FB60FB6843F00043FB60FB785A01B0
:1048E8003B69134403F5A0631A46FB6813601BE198
:1048F800FA78796813461B019B1A9B000B444D33C9
:104908001B78032B40F08180FA78796813461B01E5
:104918009B1A9B000B444D3302221A70FA7879686F
:1049280013461B019B1A9B000B441B331B78012B5E
:1049380040F0FA80FA78796813461B019B1A9B00AD
:104948000B444C3302221A70FB785A013B6913441A
:1049580003F5A0635B68FA7851013A690A4402F5E5
:10496800A06243F480335360FB785A013B691344D7
:1049780003F5A063DB68FA7851013A690A4402F545
:10498800A06243F04003D360FB785A013B691344AB
:1049980003F5A063DB68FA7851013A690A4402F525
:1049A800A06223F02003D360FA78796813461B01CC
:1049B8009B1A9B000B4426331B78002B0BD0FA78EC
:1049C800796813461B019B1A9B000B4426331B78FE
:1049D800022B40F0A980FB785A013B69134403F588
:1049E800A0631B68FB60FB6823F08043FB60FB68E7
:1049F80043F00043FB60FB785A013B69134403F51D
:104A0800A0631A46FB6813608EE0FA78796813464B
:104A18001B019B1A9B000B444D331B78042B43D17D
:104A2800FA78796813461B019B1A9B000B444D3397
:104A380002221A70FA78796813461B019B1A9B00A8
:104A48000B444C3302221A70FA78796813461B011A
:104A58009B1A9B000B4426331B78002B0AD0FA784C
:104A6800796813461B019B1A9B000B4426331B785D
:104A7800022B59D1FB785A013B69134403F5A06313
:104A88001B68FB60FB6823F08043FB60FB6843F016
:104A98000043FB60FB785A013B69134403F5A063AC
:104AA8001A46FB6813603FE0FA78796813461B01E1
:104AB8009B1A9B000B444D331B78082B26D1FA78A0
:104AC800796813461B019B1A9B000B444D33022245
:104AD8001A70FA78796813461B019B1A9B000B44DD
:104AE80044331B68591C786813461B019B1A9B00AA
:104AF800034444331960FA78796813461B019B1AFA
:104B08009B000B444C3304221A700DE0FA78796844
:104B180013461B019B1A9B000B444D331B78022B39
:104B280000F0008100E000BFFA78796813461B01A5
:104B38009B1A9B000B444C331A78FB78194678680B
:104B480006F006FBEFE07B681B68FA78114618460A
:104B580003F0F5F9034603F04003402B2FD1FB780F
:104B68005A013B69134403F5A0631A464023936036
:104B7800FA78796813461B019B1A9B000B444D3346
:104B880005221A70FA78796813461B019B1A9B0054
:104B98000B441A331B78002B09D1FA78796813462D
:104BA8001B019B1A9B000B44443300221A607B684C
:104BB8001B68FA781146184603F06BFFB3E07B6870
:104BC8001B68FA781146184603F0B9F9034603F052
:104BD8001003102B40F0A780FA78796813461B0160
:104BE8009B1A9B000B4426331B78032B1BD1FA78A6
:104BF800796813461B019B1A9B000B44443300221F
:104C08001A60FA78796813461B019B1A9B000B44BB
:104C18004D3304221A707B681B68FA7811461846CF
:104C280003F037FF3FE0FA78796813461B019B1AB7
:104C38009B000B4426331B78002B0AD0FA7879683E
:104C480013461B019B1A9B000B4426331B78022B2F
:104C580029D1FA78796813461B019B1A9B000B44EB
:104C6800443300221A607B689B79002B0AD0FA78BB
:104C7800796813461B019B1A9B000B441B331B7856
:104C8800012B10D1FA78796813461B019B1A9B00F7
:104C98000B444D3304221A707B681B68FA7811465E
:104CA800184603F0F6FEFA78796813461B019B1A3A
:104CB8009B000B441B331B78012B29D1FA787968A8
:104CC80013461B019B1A9B000B441B3300221A70CE
:104CD800FB785A013B69134403F5A0635B68FA78D3
:104CE80051013A690A4402F5A06223F48033536003
:104CF800FB785A013B69134403F5A063DB68FA7833
:104D080051013A690A4402F5A06243F02003D360D6
:104D1800FB785A013B69134403F5A0631A46102334
:104D2800936000E000BF1837BD4680BD80B586B0EF
:104D380000AF78600B46FB707B681B687B617B6902
:104D48003B617B681B68FA781146184603F0F7F850
:104D5800034603F00403042B1BD1FB785A013B697B
:104D6800134403F5A0631A4604239360FA7879681C
:104D780013461B019B1A9B000B444D3307221A70E4
:104D88007B681B68FA781146184603F082FE00F02B
:104D980089BC7B681B68FA781146184603F0CFF87F
:104DA800034603F02003202B40F08280FB785A0151
:104DB8003B69134403F5A0631A4620239360FA78ED
:104DC800796813461B019B1A9B000B4419331B7807
:104DD800012B24D1FA78796813461B019B1A9B0092
:104DE8000B44193300221A70FA78796813461B01AC
:104DF8009B1A9B000B444C3302221A70FA7879688C
:104E080013461B019B1A9B000B444D3303221A7057
:104E18007B681B68FA781146184603F03AFEFA7860
:104E2800796813461B019B1A9B000B441A331B78A5
:104E3800012B40F03784FA78796813461B019B1AD6
:104E48009B000B441B331B78002B40F02B84FA7813
:104E5800796813461B019B1A9B000B4426331B7869
:104E6800012B09D0FA78796813461B019B1A9B001D
:104E78000B441B3301221A70FA78796813461B0118
:104E88009B1A9B000B444D3303221A707B681B68E6
:104E9800FA781146184603F0FCFDFA78796813464B
:104EA8001B019B1A9B000B44443300221A60F9E350
:104EB8007B681B68FA781146184603F040F80346E9
:104EC80003F40073B3F5007F11D1FB785A013B69F5
:104ED800134403F5A0631A464FF4007393607B688C
:104EE8001B68FA781146184603F0D3FDDAE37B68AD
:104EF8001B68FA781146184603F021F8034603F0B8
:104F08000103012B68D1FA78796813461B019B1AB3
:104F18009B000B44443300221A607B681B68FA78B4
:104F28001146184603F00BF8034603F04003402BE4
:104F380012D1FA78796813461B019B1A9B000B441F
:104F4800193301221A70FB785A013B69134403F59F
:104F5800A0631A4640239360FA78796813461B01C8
:104F68009B1A9B000B441B331B78002B19D0FA7833
:104F7800796813461B019B1A9B000B441B330022C4
:104F88001A70FB785A013B69134403F5A0635B6808
:104F9800FA7851013A690A4402F5A06223F4803391
:104FA8005360FB785A013B69134403F5A0631A4622
:104FB80001239360FA78796813461B019B1A9B00BA
:104FC8000B444D3301221A707B681B68FA7811462E
:104FD800184603F05EFD65E37B681B68FA781146A6
:104FE800184602F0ACFF034603F04003402B39D1CA
:104FF800FA78796813461B019B1A9B000B444D33C2
:1050080005221A70FA78796813461B019B1A9B00CF
:105018000B441A331B78002B09D1FA7879681346A8
:105028001B019B1A9B000B44193301221A70FA7852
:10503800796813461B019B1A9B000B4444330022DA
:105048001A607B681B68FA781146184603F021FD40
:10505800FB785A013B69134403F5A0631A464023C1
:1050680093601FE37B681B68FA781146184602F0C4
:1050780066FF034603F00803082B1AD1FB785A0190
:105088003B69134403F5A0631A4608239360FA7832
:10509800796813461B019B1A9B000B444D3306226B
:1050A8001A707B681B68FA781146184603F0F1FC01
:1050B800F8E27B681B68FA781146184602F03FFF51
:1050C800034603F01003102B44D1FA78796813468D
:1050D8001B019B1A9B000B44443300221A60FA7888
:1050E800796813461B019B1A9B000B444D3304221D
:1050F8001A70FA78796813461B019B1A9B000B44B7
:1051080019331B78002B14D1FA78796813461B01E0
:105118009B1A9B000B4418331B78002B09D1FA7893
:10512800796813461B019B1A9B000B441933012213
:105138001A707B681B68FA781146184603F0A9FCB8
:10514800FB785A013B69134403F5A0631A46102300
:105158009360A7E27B681B68FA781146184602F04C
:10516800EEFE034603F08003802B40F083807B68CB
:105178009B79002B11D1FA78796813461B019B1A89
:105188009B000B444D3307221A707B681B68FA7822
:105198001146184603F07DFC62E0FA7879681346F8
:1051A8001B019B1A9B000B4444331B68591C7868ED
:1051B80013461B019B1A9B00034444331960FA7879
:1051C800796813461B019B1A9B000B4444331B68E8
:1051D800022B22D9FA78796813461B019B1A9B0087
:1051E8000B44443300221A60FA78796813461B018D
:1051F8009B1A9B000B444C3304221A70FA78796886
:1052080013461B019B1A9B000B444C331A78FB78FE
:105218001946786805F09CFF22E0FA787968134609
:105228001B019B1A9B000B444C3302221A70FB781B
:105238005A013B69134403F5A0631B68FB60FB68D4
:1052480023F08043FB60FB6843F00043FB60FB787E
:105258005A013B69134403F5A0631A46FB681360BF
:10526800FB785A013B69134403F5A0631A4680236F
:10527800936017E27B681B68FA781146184602F0BB
:105288005EFE034603F48063B3F5806F1BD1FA78A2
:10529800796813461B019B1A9B000B444D33092266
:1052A8001A707B681B68FA781146184603F0F1FB00
:1052B800FB785A013B69134403F5A0631A464FF47F
:1052C80080639360EEE17B681B68FA7811461846A4
:1052D80002F035FE034603F00203022B40F0DF81A3
:1052E800FB785A013B69134403F5A0631A4602236D
:1052F8009360FA78796813461B019B1A9B000B444C
:105308004D331B78012B40F09380FA787968134667
:105318001B019B1A9B000B444D3302221A70FA782A
:10532800796813461B019B1A9B000B444C330122DE
:105338001A70FA78796813461B019B1A9B000B4474
:1053480026331B78022B0BD0FA78796813461B0199
:105358009B1A9B000B4426331B78032B40F090814B
:105368007B689B79002B15D1FA78796813461B0165
:105378009B1A9B000B443D331B78FA7883F001039A
:10538800D8B2796813461B019B1A9B000B443D3326
:1053980002461A707B689B79012B40F07181FA787C
:1053A800796813461B019B1A9B000B4434331B6816
:1053B800002B00F06581FA78796813461B019B1A67
:1053C8009B000B4434331968FA78786813461B013C
:1053D8009B1A9B00034428331B880B44591EFA78F8
:1053E800786813461B019B1A9B00034428331B88CB
:1053F800B1FBF3F3BB60BB6803F00103002B00F0C3
:105408003F81FA78796813461B019B1A9B000B446D
:105418003D331B78FA7883F00103D8B279681346D4
:105428001B019B1A9B000B443D3302461A7027E16F
:10543800FA78796813461B019B1A9B000B444D337D
:105448001B78032B20D1FA78796813461B019B1A25
:105458009B000B444D3302221A70FA787968134680
:105468001B019B1A9B000B441B331B78012B40F03C
:105478000781FA78796813461B019B1A9B000B4435
:105488004C3302221A70FBE0FA78796813461B0144
:105498009B1A9B000B444D331B78042B3AD1FA78A6
:1054A800796813461B019B1A9B000B444D3302225B
:1054B8001A70FA78796813461B019B1A9B000B44F3
:1054C8004C3302221A70FA78796813461B019B1A2A
:1054D8009B000B441B331B78012B40F0D180FA78DA
:1054E800796813461B019B1A9B000B441B3300224F
:1054F8001A70FB785A013B69134403F5A0635B6893
:10550800FA7851013A690A4402F5A06223F480331B
:105518005360B5E0FA78796813461B019B1A9B0023
:105528000B444D331B78052B14D1FA787968134650
:105538001B019B1A9B000B444D3302221A70FA7808
:10554800796813461B019B1A9B000B444C330222BB
:105558001A7095E0FA78796813461B019B1A9B002C
:105568000B444D331B78062B14D1FA78796813460F
:105578001B019B1A9B000B444D3302221A70FA78C8
:10558800796813461B019B1A9B000B444C33052278
:105598001A7075E0FA78796813461B019B1A9B000C
:1055A8000B444D331B78072B0AD0FA7879681346D9
:1055B8001B019B1A9B000B444D331B78092B70D1A0
:1055C800FA78796813461B019B1A9B000B444D33EC
:1055D80002221A70FA78796813461B019B1A9B00FD
:1055E8000B4444331B68591C786813461B019B1AEB
:1055F8009B00034444331960FA78796813461B0109
:105608009B1A9B000B4444331B68022B14D9FA786D
:10561800796813461B019B1A9B000B4444330022F4
:105628001A60FA78796813461B019B1A9B000B4491
:105638004C3304221A7022E0FA78796813461B0169
:105648009B1A9B000B444C3302221A70FB785A01B8
:105658003B69134403F5A0631B68FB60FB6823F0F8
:105668008043FB60FB6843F00043FB60FB785A0112
:105678003B69134403F5A0631A46FB68136000BF37
:10568800FA78796813461B019B1A9B000B444C332C
:105698001A78FB781946786805F05AFD02E000BFD1
:1056A80000E000BF1837BD4680BD80B58AB000AFA6
:1056B80078607B681B687B627B6A3B627B681B68DF
:1056C8001B6AFB61FB6903F00F03BB61FB695B0CA1
:1056D80003F00F037B61FB691B09C3F30A033B61FA
:1056E8007B69022B04D07B69052B00F0B680B7E0FC
:1056F8003B69002B00F0B3807968BA6913461B0137
:105708009B1A9B000B442C331B68002B00F0A780CE
:105718007968BA6913461B019B1A9B000B443833FE
:105728001A683B69D1187868BA6913461B019B1A35
:105738009B00034434331B68994200F283807B68E2
:1057480018687968BA6913461B019B1A9B000B44B9
:105758002C331B683A6992B2194602F085FB7968C6
:10576800BA6913461B019B1A9B000B442C331A6819
:105778003B69D1187868BA6913461B019B1A9B00CC
:1057880003442C3319607968BA6913461B019B1AC4
:105798009B000B4438331A683B69D1187868BA699A
:1057A80013461B019B1A9B00034438331960BB69DD
:1057B8005A013B6A134403F5A0631B69DB0CC3F36E
:1057C8000903FB607968BA6913461B019B1A9B00A1
:1057D8000B4428331B881A463B6993423FD1FB6828
:1057E800002B3CD0BB695A013B6A134403F5A06304
:1057F8001B68BB60BB6823F08043BB60BB6843F099
:105808000043BB60BB695A013B6A134403F5A063BC
:105818001A46BB6813607968BA6913461B019B1A5C
:105828009B000B443C331B7883F00103D8B27968A2
:10583800BA6913461B019B1A9B000B443C33024672
:105848001A700CE07968BA6913461B019B1A9B0011
:105858000B444C3304221A7001E000BF00E000BF83
:1058680000BF2837BD4680BD80B586B000AF7860E0
:105878007B681B687B617B693B613B6903F58863D7
:105888001B68FB603B6903F588631B68BB60BB68EA
:1058980023F02E03BB60FB6803F00203022B0BD13D
:1058A800FB6803F00103012B02D1786805F034FC92
:1058B800BB6843F00203BB60FB6803F00803082BD6
:1058C80032D1BB6843F00803BB60FB6803F00403F4
:1058D800042B26D17B685B7A022B13D1FB6803F477
:1058E800C023B3F5802F06D17B681B6802211846B8
:1058F80002F050FC11E07B681B680121184602F099
:1059080049FC0AE07B68DB79012B06D13B6903F58A
:1059180080631A464EF660235360786805F026FCCB
:1059280002E0786805F030FCFB6803F02003202BC8
:1059380003D1BB6843F02003BB603B6903F5886370
:105948001A46BB68136000BF1837BD4680BD00000B
:1059580080B584B000AF78607B68002B01D101234B
:105968002BE17B6893F83D30DBB2002B06D17B68D6
:10597800002283F83C207868FBF7D4FD7B6824225A
:1059880083F83D207B681B681A687B681B6822F0D7
:1059980001021A607B681B681A687B681B6842F4FE
:1059A80000421A607B681B681A687B681B6822F4CF
:1059B80000421A6001F036FCF8607B685B68814A37
:1059C800934207D8FB68804A934294BF012300237F
:1059D800DBB206E0FB687D4A934294BF01230023B3
:1059E800DBB2002B01D00123E7E0FB68784AA2FB79
:1059F80003239B0CBB607B681B685B6823F03F013B
:105A08007B681B68BA680A435A607B681B681B6A14
:105A180023F03F017B685B686A4A934202D8BB68FF
:105A2800013309E0BB684FF4967202FB03F3694A3D
:105A3800A2FB03239B0901337A6812680B431362A4
:105A48007B681B68DB6923F44F4222F0FF027B6806
:105A58005B685C498B4219D8FB68591E7B685B6898
:105A68005B00B1FBF3F3591C40F6FC730B40002BB1
:105A78000AD0FB68591E7B685B685B00B1FBF3F3D7
:105A88000133C3F30B0351E004234FE07B689B68A9
:105A9800002B11D1FB68581E7B6859680B465B00C8
:105AA8000B44B0FBF3F30133C3F30B03002B0CBF20
:105AB80001230023DBB212E0FB68581E7B6859689B
:105AC8000B469B000B4499000B44B0FBF3F30133E6
