:020000040800F2
:10000000000002206D290008451600084D16000862
:10001000551600085D16000865160008000000006F
:100020000000000000000000000000006D16000845
:100030007B160008000000008916000897160008CB
:10004000BD290008BD290008BD290008BD290008F8
:10005000BD290008BD290008BD290008BD290008E8
:10006000BD290008BD290008BD290008BD290008D8
:10007000BD290008BD290008BD290008BD290008C8
:10008000BD290008BD290008BD290008BD290008B8
:10009000BD290008BD290008BD290008BD290008A8
:1000A000BD290008BD290008BD290008BD29000898
:1000B000A5160008BD290008BD290008BD290008B3
:1000C000BD290008BD290008BD290008BD29000878
:1000D000BD290008BD290008BD290008BD29000868
:1000E000B9160008BD290008BD290008BD2900086F
:1000F000BD290008C9160008BD290008BD2900084F
:10010000BD290008BD290008BD290008BD29000837
:10011000BD290008BD290008BD290008BD29000827
:10012000BD290008BD290008BD290008BD29000817
:10013000BD290008BD290008BD290008BD29000807
:10014000BD290008BD290008BD290008DD160008EA
:10015000BD290008BD290008BD290008BD290008E7
:10016000BD290008BD290008BD290008BD290008D7
:10017000BD290008BD290008BD29000800000000B5
:08018000BD290008BD2900089B
:1001880010B5054C237833B9044B13B10448AFF3C9
:1001980000800123237010BDA80600200000000085
:1001A800ACB3000808B5034B1BB103490348AFF3D0
:1001B800008008BD00000000AC060020ACB30008B9
:1001C80053B94AB9002908BF00281CBF4FF0FF31B6
:1001D8004FF0FF3000F088B9ADF1080C6DE904CE9E
:1001E80000F006F8DDF804E0DDE9022304B070470A
:1001F8002DE9F047089D8E4604468846002B4AD1D3
:100208008A42174662D9B2FA82F64EB1C6F1200385
:1002180001FA06F820FA03F3B74043EA0808B440A5
:100228004FEA174E1FFA87FCB8FBFEF1230C0EFBB2
:10023800118843EA084301FB0CF29A4209D9FB18DA
:1002480001F1FF3080F0EA809A4240F2E7800239FB
:100258003B449A1AA3B2B2FBFEF00EFB102243EA0B
:10026800024300FB0CFC9C4509D9FB1800F1FF3246
:1002780080F0D6809C4540F2D3803B44023840EA67
:100288000140A3EB0C0300211DB1F3400022C5E996
:100298000032BDE8F0878B4205D90DB1C5E90001F0
:1002A80000210846F5E7B3FA83F1002946D17345E2
:1002B80002D3824200F20581841A6EEB0302012008
:1002C8009046002DE5D0C5E90048E2E7002A00F095
:1002D8009080B2FA82F6002E40F0A4808A1A030CAD
:1002E8004FEA174E80B2BCB20121B2FBFEFC0EFBF6
:1002F8001C2243EA024304FB0CF29A4207D9FB187A
:100308000CF1FF3802D29A4200F2E080C4469B1AF0
:10031800B3FBFEF20EFB123340EA034302FB04F484
:100328009C4207D9FB1802F1FF3002D29C4200F22E
:10033800CA8002461B1B42EA0C40A5E7C1F1200611
:100348008B4022FA06F71F430EFA01F420FA06F34F
:100358002EFA06FE4FEA1749234300FA01F81FFA5E
:1003680087FCBEFBF9F01C0C09FB10EE44EA0E44B6
:1003780000FB0CFEA64502FA01F209D93C1900F16E
:10038800FF3A80F09C80A64540F2998002383C44B0
:10039800A4EB0E041FFA83FEB4FBF9F309FB134424
:1003A8004EEA044403FB0CFCA44508D93C1903F1AC
:1003B800FF3E80F08280A4457FD9023B3C4443EA5B
:1003C8000040A4EB0C04A0FB02EC64457346E14634
:1003D80062D35FD05DB1B8EB030264EB090404FAA1
:1003E80006F622FA01F31E43CC40C5E90064002159
:1003F8004FE7B1FBF2FC010C41EA0E4180B240EA42
:1004080001423B4638463C46B846BE462026B1FB2C
:10041800F7F1A2EB080241EA0C4166E7014618E74A
:1004280010462CE7C6F120022EFA02F3B740B1407D
:1004380020FA02F24FEA174E0A43B3FBFEF8BCB2A9
:100448000EFB1833110C41EA034108FB04F9B040D4
:1004580089454FEA104380B23ED9791808F1FF3C2C
:1004680001D289451FD8A1EB0901B1FBFEF909FBAF
:1004780004F80EFB191192B242EA0142424529D210
:10048800BA1809F1FF31C4D24245C2D2A9F102011A
:100498003A44BEE7F0459DD2BEEB02036CEB070C75
:1004A8000138E14696E7A7EB09094944A8F1020C8F
:1004B800B1FBFEF909FB04F8DBE773467FE750461A
:1004C80066E70846FDE63B44023A33E7ACF1020C26
:1004D8003B441CE749469CE7A1EB0901C446B1FB34
:1004E800FEF909FB04F8C4E7704700BF80B584B083
:1004F80000AF03460A46FB711346BB710422012173
:10050800002000F0CBF90346FB7306E0042201212A
:10051800002000F0C3F90346FB7397F90F30002B56
:10052800F4DBFB7903F00B03DBB2B879012200217D
:1005380000F046FB00BF1037BD4680BD80B500AF58
:100548003E210220FFF7D2FFC0210220FFF7CEFF95
:10055800B8210220FFF7CAFF40210220FFF7C6FF9B
:100568003F210220FFF7C2FF3E210120FFF7BEFF17
:10057800C0210120FFF7BAFFB8210120FFF7B6FF1D
:1005880040210120FFF7B2FF3F210120FFF7AEFF16
:1005980000BF80BD80B584B000AF0346FB71002367
:1005A800BB602EE0BB68DBB2483BDBB219460120DA
:1005B800FFF79CFFBB68DBB2483BDBB21946022061
:1005C800FFF794FF0023FB6007E0FB7919460A2038
:1005D800FFF78CFFFB680133FB60FB683F2BF4DD02
:1005E8000023FB6007E0FB7919460920FFF77EFF2F
:1005F800FB680133FB60FB683F2BF4DDBB6801330C
:10060800BB60BB68072BCDDD00BF00BF1037BD4600
:1006180080BD000090B585B000AF0446084611467D
:100628001A462346FB710346BB710B467B71134682
:100638003B71FB79203BDBB23B733B79032B02D147
:100648007B799B007B733B79052B07D17B791A4615
:10065800520013445B00DBB204337B733B79072BF6
:1006680002D17B79DB007B737B7B3F2B05D9092388
:10067800FB737B7B403B7B7301E00A23FB737B7B33
:1006880043F04003FB72FB7B03F00703DBB2FA7A0B
:1006980011461846FFF72AFFBB7963F04703FB7240
:1006A800FB7B03F00703DBB2FA7A11461846FFF723
:1006B8001DFF3B79032B21D10023BB731AE097F967
:1006C8000C2097F90E10344813465B00134403447A
:1006D8000B441B78FB72FB7B43F00803DBB2FA7A0E
:1006E80011461846FFF702FF97F90E30DBB20133C7
:1006F800DBB2BB7397F90E30022BE0DD3B79052B9B
:1007080021D10023BB731AE097F90C2097F90E103A
:10071800224813469B00134403440B441B78FB7286
:10072800FB7B43F00803DBB2FA7A11461846FFF761
:10073800DDFE97F90E30DBB20133DBB2BB7397F9FC
:100748000E30042BE0DD3B79072B21D10023BB734E
:100758001AE097F90C2097F90E1011481346DB00A0
:100768009B1A03440B441B78FB72FB7B43F0080382
:10077800DBB2FA7A11461846FFF7B8FE97F90E3041
:10078800DBB20133DBB2BB7397F90E30062BE0DD29
:1007980000BF1437BD4690BD00000020C4000020F3
:1007A800AC02002080B584B000AF78600B46FB70C7
:1007B8001346BB70BB78032B12D10023FB600CE0FF
:1007C800FB687A6813441878F978FB68DAB203236F
:1007D800FFF720FFFB680133FB60FB681F2BEFDD91
:1007E800BB78052B12D10023FB600CE0FB687A680C
:1007F80013441878F978FB68DAB20523FFF70AFF83
:10080800FB680133FB60FB68132BEFDDBB78072B1C
:1008180012D10023FB600CE0FB687A681344187857
:10082800F978FB68DAB20723FFF7F4FEFB680133B7
:10083800FB60FB680F2BEFDD00BF1037BD4680BDA6
:1008480080B586B000AF4FF47F437B600023BB6068
:100858000023FB603B1D1946034802F051FB00BF13
:100868001837BD4680BD00BF0010024080B586B075
:1008780000AF4FF47F437B600123BB600023FB6024
:1008880000233B613B1D1946034802F039FB00BFBA
:100898001837BD4680BD00BF0010024080B584B047
:1008A80000AF0346FB710B46BB7113467B71FFF724
:1008B800C7FF7B7903F00103002B06D001224FF418
:1008C8008071BC4802F0D0FC05E000224FF4807132
:1008D800B84802F0C9FC7B7903F00203002B06D06C
:1008E80001224FF40071B34802F0BEFC05E000227B
:1008F8004FF40071AF4802F0B7FC7B7903F00403B2
:10090800002B06D001224FF48061AA4802F0ACFC0B
:1009180005E000224FF48061A64802F0A5FC7B792F
:1009280003F00803002B06D001224FF40061A14810
:1009380002F09AFC05E000224FF400619D4802F0A5
:1009480093FC7B7903F01003002B05D001220221D0
:10095800994802F089FC04E000220221964802F03E
:1009680083FCFB79032B4FD801A252F823F000BF78
:1009780089090008AB090008CD090008EF0900083B
:10098800BB79002B06D100224FF400618A4802F09F
:100998006BFC3AE001224FF40061874802F064FCE6
:1009A80033E0BB79002B06D100224FF480518248F6
:1009B80002F05AFC29E001224FF480517E4802F0EF
:1009C80053FC22E0BB79002B06D100224FF40051E2
:1009D800794802F049FC18E001224FF400517648AA
:1009E80002F042FC11E0BB79002B06D100224FF443
:1009F8008041714802F038FC07E001224FF4804141
:100A08006D4802F031FC00E000BF002201216A4875
:100A180002F02AFC4FF48071684802F00DFC03468E
:100A2800DB015BB2DB115AB23B7A62F300033B7223
:100A38004FF40071614802F0FFFB0346DB015BB233
:100A4800DB115AB23B7A62F341033B724FF4806187
:100A58005A4802F0F1FB0346DB015BB2DB115AB2E4
:100A68003B7A62F382033B724FF40061534802F011
:100A7800E3FB0346DB015BB2DB115AB23B7A62F35C
:100A8800C3033B724FF480514C4802F0D5FB034638
:100A9800DB015BB2DB115AB23B7A62F304133B729F
:100AA8004FF40051454802F0C7FB0346DB015BB237
:100AB800DB115AB23B7A62F345133B724FF4804123
:100AC8003E4802F0B9FB0346DB015BB2DB115AB2C8
:100AD8003B7A62F386133B724FF40041374802F0C9
:100AE800ABFB0346DB015BB2DB115AB23B7A62F324
:100AF800C7133B72012201212F4802F0B5FBFB7995
:100B0800032B4FD801A252F823F000BF250B000891
:100B1800470B0008690B00088B0B0008BB79002BFA
:100B280006D101224FF40061234802F09DFB3AE010
:100B380000224FF40061204802F096FB33E0BB79B5
:100B4800002B06D101224FF480511B4802F08CFB88
:100B580029E000224FF48051174802F085FB22E07B
:100B6800BB79002B06D101224FF40051124802F044
:100B78007BFB18E000224FF400510F4802F074FB91
:100B880011E0BB79002B06D101224FF480410A48BD
:100B980002F06AFB07E000224FF48041064802F0A9
:100BA80063FB00E000BF3B7AFB73FB7B1846103702
:100BB800BD4680BD000C0240000402400010024007
:100BC80090B585B000AF0446084611461A4623463C
:100BD800FB710346BB710B467B7113463B71FFF7F4
:100BE80045FEFB793B733B7B03F00103DBB2002B33
:100BF80006D100224FF48071B54802F035FB05E0BC
:100C080001224FF48071B24802F02EFB3B7B03F0C7
:100C18000203DBB2002B06D100224FF40071AC486E
:100C280002F022FB05E001224FF40071A84802F00F
:100C38001BFB3B7B03F00403DBB2002B06D1002235
:100C48004FF48061A24802F00FFB05E001224FF447
:100C580080619F4802F008FB3B7B03F00803DBB28E
:100C6800002B06D100224FF40061994802F0FCFAEB
:100C780005E001224FF40061954802F0F5FA3B7B4C
:100C880003F01003DBB2002B06D100224FF4805191
:100C98008F4802F0E9FA05E001224FF480518C48B0
:100CA80002F0E2FA3B7B03F02003DBB2002B06D113
:100CB80000224FF40051864802F0D6FA05E00122DE
:100CC8004FF40051824802F0CFFA3B7B03F0400317
:100CD800DBB2002B06D100224FF480417C4802F0A1
:100CE800C3FA05E001224FF48041794802F0BCFACA
:100CF8003B7B23F07F03DBB2002B06D100224FF4AD
:100D08000041734802F0B0FA05E001224FF40041B7
:100D18006F4802F0A9FA3B7903F00103002B06D0D3
:100D280001224FF480716B4802F09EFA05E0002220
:100D38004FF48071674802F097FA3B7903F0020399
:100D4800002B06D001224FF40071624802F08CFAA1
:100D580005E000224FF400715E4802F085FA3B7905
:100D680003F00403002B06D001224FF48061594898
:100D780002F07AFA05E000224FF48061554802F04B
:100D880073FA3B7903F00803002B06D001224FF4D5
:100D98000061504802F068FA05E000224FF4006153
:100DA8004C4802F061FA3B7903F01003002B05D0A0
:100DB80001220221484802F057FA04E000220221E9
:100DC800454802F051FABB79032B4FD801A252F8DB
:100DD80023F000BFED0D00080F0E0008310E0008CB
:100DE800530E00087B79002B06D100224FF40061D6
:100DF800394802F039FA3AE001224FF400613648E6
:100E080002F032FA33E07B79002B06D100224FF44E
:100E18008051314802F028FA29E001224FF480512C
:100E28002D4802F021FA22E07B79002B06D100221E
:100E38004FF40051284802F017FA18E001224FF445
:100E48000051254802F010FA11E07B79002B06D1F9
:100E580000224FF48041204802F006FA07E0012200
:100E68004FF480411C4802F0FFF900E000BFBB7955
:100E7800032B55D801A252F823F000BF950E0008A5
:100E8800B70E0008E50E0008070F00087B79002B55
:100E980006D101224FF400610F4802F0E5F940E065
:100EA80000224FF400610C4802F0DEF939E07B794A
:100EB800002B06D101224FF48051074802F0D4F9E3
:100EC8002FE000224FF48051034802F0CDF928E0CA
:100ED80000100240000C0240000402407B79002B05
:100EE80006D101224FF40051104802F0BDF918E074
:100EF80000224FF400510D4802F0B6F911E07B7959
:100F0800002B06D101224FF48041084802F0ACF9C9
:100F180007E000224FF48041044802F0A5F900E000
:100F280000BF00BF1437BD4690BD00BF000402409B
:100F380080B500AF00F0D4FE01F0F2FC00F0B2FD85
:100F480000F030FD00F026FC00F080FC01F03EFAD5
:100F580001F05AFA01F064FC01F000FA00BF80BD0C
:100F680080B400AF00BFBD465DF8047B704780B514
:100F780000AF01F021FD00F015F800F04FF900F086
:100F8800AFF809F0CBFD00F077F800F023F900F096
:100F9800D5F8FFF7CDFF00F085FE00F097FE09F0C9
:100FA800E3FDFCE780B594B000AF07F120033022E1
:100FB800002118460AF068F907F10C0300221A60AC
:100FC8005A609A60DA601A610023BB60284B1B6C78
:100FD800274A43F080531364254B1B6C03F080535E
:100FE800BB60BB6800237B60224B1B68214A43F42B
:100FF800804313601F4B1B6803F480437B607B684E
:1010080001233B624FF480337B620223BB634FF4BE
:101018008003FB6308233B644FF4A8737B640223BB
:10102800BB640723FB6407F12003184605F05AFA4E
:101038000346002B01D000F0FFF90F23FB600223C9
:101048003B6100237B614FF4A053BB614FF4805395
:10105800FB6107F10C030521184605F0BBFC0346AC
:10106800002B01D000F0E8F900BF5037BD4680BD25
:10107800003802400070004080B500AF164B174A98
:101088001A60154B10225A60134B00229A60124BBB
:101098000022DA60104B00221A610F4B00225A61BD
:1010A8000D4B00221A760C4B00225A760A4B00226E
:1010B8009A76094B0022DA76074B00221A77064BFC
:1010C80000225A77044801F00DFD0346002B01D099
:1010D80000F0B2F900BF80BDC406002000640040E3
:1010E80080B500AF124B134A1A60114B124A5A606E
:1010F8000F4B00229A600E4B0022DA600C4B4FF423
:1011080080421A610A4B00225A61094B00229A61F7
:10111800074B0022DA61064B00221A62044804F0E9
:10112800E7F90346002B01D000F086F900BF80BD27
:10113800EC06002000540040A086010080B586B06F
:1011480000AF07F1080300221A605A609A60DA605B
:101158003B4600221A605A601D4B4FF080421A60CD
:101168001B4B00225A601A4B00229A60184B44F21B
:101178009F12DA60164B00221A61154B00229A6101
:10118800134805F033FE0346002B01D000F054F954
:101198004FF48053BB6007F1080319460C4806F06A
:1011A80004F80346002B01D000F046F900233B6009
:1011B80000237B603B461946054806F025FA03469E
:1011C800002B01D000F038F900BF1837BD4680BDAC
:1011D8004007002080B500AF0E4B0F4A1A600D4B38
:1011E80002225A600B4B00229A600A4B4DF6BF222E
:1011F800DA60084B00221A61064B00229A61054802
:1012080005F0F4FD0346002B01D000F015F900BFEE
:1012180080BD00BF880700200020004080B58CB04A
:1012280000AF07F11C0300221A605A609A60DA6066
:101238001A610023BB617A4B1B6B794A43F0100398
:101248001363774B1B6B03F01003BB61BB6900236F
:101258007B61734B1B6B724A43F004031363704B3F
:101268001B6B03F004037B617B6900233B616C4BC0
:101278001B6B6B4A43F080031363694B1B6B03F0D2
:1012880080033B613B690023FB60654B1B6B644A31
:1012980043F001031363624B1B6B03F00103FB6014
:1012A800FB680023BB605E4B1B6B5D4A43F0020387
:1012B80013635B4B1B6B03F00203BB60BB6800232B
:1012C8007B60574B1B6B564A43F008031363544B20
:1012D8001B6B03F008037B607B6800224FF64171AB
:1012E800504801F0C1FF012201214F4801F0BCFF25
:1012F8000022E0214D4801F0B7FF002247F6030124
:101308004B4801F0B1FF00224FF47F41494801F0FA
:10131800ABFF4FF64173FB6101233B6200237B6205
:101328000023BB6207F11C0319463E4801F0E8FDA3
:101338004FF40053FB614FF404133B6200237B62BC
:1013480007F11C031946384801F0DAFD0123FB6157
:1013580001233B6200237B620023BB6207F11C036D
:101368001946314801F0CCFD0123FB6100233B62A3
:1013780000237B6207F11C0319462C4801F0C0FDCD
:10138800E023FB6101233B6200237B620023BB62F5
:1013980007F11C031946254801F0B2FD47F603037F
:1013A800FB6101233B6200237B620023BB6207F1E0
:1013B8001C0319461E4801F0A3FD0423FB6100230A
:1013C8003B6200237B6207F11C031946184801F0B1
:1013D80097FD4FF47F43FB6101233B6200237B624F
:1013E8000023BB6207F11C031946124801F088FD6F
:1013F8002023FB6100233B6200237B6207F11C036F
:1014080019460C4801F07CFD00220021282001F03B
:1014180040FD282001F059FD00BF3037BD4680BD92
:10142800003802400010024000080240000002405C
:1014380000040240000C024080B400AF72B600BF46
:1014480000BFFDE780B582B000AF00237B60104B82
:101458005B6C0F4A43F4804353640D4B5B6C03F49D
:1014680080437B607B6800233B60094B1B6C084A08
:1014780043F080531364064B1B6C03F080533B60AE
:101488003B68072001F0FAFC00BF0837BD4680BD65
:101498000038024080B58AB000AF786007F11403C5
:1014A80000221A605A609A60DA601A617B681B68C9
:1014B800194A93422BD100233B61184B1B6C174AE6
:1014C80043F000731364154B1B6C03F000733B610E
:1014D8003B690023FB60114B1B6B104A43F0080368
:1014E80013630E4B1B6B03F00803FB60FB680323BD
:1014F8007B610223BB610023FB6103233B62092359
:101508007B6207F114031946054801F0F9FC00BF96
:101518002837BD4680BD00BF006400400038024047
:10152800000C024080B58AB000AF786007F1140360
:1015380000221A605A609A60DA601A617B681B6838
:10154800194A93422CD100233B61184B1B6B174A55
:1015580043F002031363154B1B6B03F002033B615B
:101568003B694FF410737B611223BB610123FB615C
:1015780000233B6204237B6207F1140319460C48DD
:1015880001F0BEFC0023FB60084B1B6C074A43F4C8
:1015980000131364054B1B6C03F40013FB60FB681A
:1015A80000BF2837BD4680BD0054004000380240C7
:1015B8000004024080B584B000AF78607B681B6887
:1015C800B3F1804F16D10023FB601A4B1B6C194AEC
:1015D80043F001031364174B1B6C03F00103FB601A
:1015E800FB68002200211C2001F053FC1C2001F0A4
:1015F8006CFC1AE07B681B680F4A934215D10023E4
:10160800BB600C4B1B6C0B4A43F480731364094B8F
:101618001B6C03F48073BB60BB68002200212D2083
:1016280001F037FC2D2001F050FC00BF1037BD46FB
:1016380080BD00BF003802400020004080B400AFE9
:1016480000BFFDE780B400AF00BFFDE780B400AF86
:1016580000BFFDE780B400AF00BFFDE780B400AF76
:1016680000BFFDE780B400AF00BFBD465DF8047B56
:10167800704780B400AF00BFBD465DF8047B70477B
:1016880080B400AF00BFBD465DF8047B704780B5ED
:1016980000AF01F0E3F900BF80BD000080B500AFE6
:1016A800024805F092FC00BF80BD00BF4007002043
:1016B80080B500AF4FF4005001F0F0FD00BF80BDD1
:1016C80080B500AF024805F080FC00BF80BD00BFB8
:1016D8008807002080B500AF024802F0B5F800BFC7
:1016E80080BD00BFF80B002080B586B000AF7860E1
:1016F800144A154BD31A7B617B693B61134B1B68FA
:10170800002B02D1114B124A1A60104B1A687B68E1
:1017180013443A699A4207D209F0CEFD03460C22D7
:101728001A604FF0FF3309E0084B1B68FB60074B5A
:101738001A687B681344054A1360FB681846183713
:10174800BD4680BD0000022000040000D007002034
:101758002011002080B400AF064BD3F88830054A2A
:1017680043F47003C2F8883000BFBD465DF8047BBF
:10177800704700BF00ED00E080B500AF9A2000F090
:10178800DBF903461A46024B5A8000BF80BD00BFF2
:10179800D407002080B400AF034B044A5A6000BF4E
:1017A800BD465DF8047B7047FC07002081170008E0
:1017B80080B500AF224B1B8801339AB2204B1A80A8
:1017C8001F4B1B88092B31D91D4B00221A8000F0B2
:1017D80087F90346012B14D11A4B1B88022B27D0FB
:1017E800184B1B8801339AB2164B1A80154B1B886D
:1017F800012B1FD9144B01221A70134B01225A7066
:101808001DE0104B1B88002B16D00E4B1B88013B8C
:101818009AB20C4B1A800B4B1B88002B0ED10A4B2B
:1018280000221A70084B01225A7008E000BF06E037
:1018380000BF04E000BF02E000BF00E000BF80BDC1
:10184800D8070020DA070020DC07002080B400AFAA
:10185800094B00225A70084B02221A70074B0022CB
:101868001A80074B01221A80064B074ADA6000BF2C
:10187800BD465DF8047B7047DC070020D8070020D0
:10188800DA070020FC070020B917000890B583B0DC
:1018980000AF0446084611461A462346FB71034624
:1018A800BB710B467B7113463B71FB79012B02D14F
:1018B80000F084F901E000F08DF9BB79012B02D129
:1018C80000F094F901E000F09DF97B79012B02D139
:1018D80000F0A4F901E000F0ADF93B79012B02D149
:1018E80000F0B4F901E000F0BDF900BF0C37BD46C7
:1018F80090BD000098B500AF264B1B8801339AB203
:10190800244B1A80244B5B781A46224B1B889A4238
:101918003DD1204B00221A801F4B93F90030DAB2D8
:101928001E4B93F90030DBB21344DBB25AB21B4BA7
:101938001A701A4B93F90030072B02DD174B00225F
:101948001A70164B93F90030002B02DA134B07225A
:101958001A70124B93F900301A46114B13F82200F3
:101968000E4B93F900300E4A9B00134459780B4BE9
:1019780093F900300A4A9B0013449A78074B93F96D
:101988000030074C9B002344DB78FFF77FFF00BF44
:1019980098BD00BFDE070020E0070020E307002015
:1019A8005805002080B500AF00F014F900F02AF9BE
:1019B80000F040F900F056F9064BFF221A70054B6B
:1019C80032225A70044B00221A80044B044A5A618E
:1019D80000BF80BDE0070020DE070020FC070020D4
:1019E800FD18000880B485B000AF0346FB710023E2
:1019F800FB730023BB6012E0FB7B5B00FB7397F972
:101A0800073003F001035AB297F90F3013435BB262
:101A1800FB73FB795B08FB71BB680133BB60BB6878
:101A2800072BE9DDFB7B18461437BD465DF8047BC0
:101A38007047000080B582B000AF702000F060F8F9
:101A480003461A460D4BDA70742000F059F8034625
:101A5800DB43FB71FB791846FFF7C4FF03461A46C0
:101A6800064B1A71762000F04BF80346DB43DAB2D6
:101A7800024B5A7100BF0837BD4680BDE4070020FD
:101A880080B500AF064B9B791946782000F07EF8A8
:101A9800034BDB7919467A2000F078F800BF80BD47
:101AA800E407002080B400AF0C4B0022DA700B4B27
:101AB80000221A71094B00225A71084B01229A71AF
:101AC800064B8022DA71054B00225A70034B012223
:101AD8009A7000BFBD465DF8047B7047E40700209C
:101AE80080B500AF0121054801F0A6FB0346012B94
:101AF80001D1012300E00023184680BD0000024008
:101B080080B586B002AF0346FB71FB7999B207F145
:101B18000F02012300930123064803F02BFF03461D
:101B2800002B01D1FB7B00E0002318461037BD468F
:101B380080BD00BFEC06002080B586B002AF03462A
:101B4800FB71FB7999B207F10C0201230093022380
:101B58000D4803F00FFF0346002B0FD13B7B1BB250
:101B68009B011BB203F470731AB27B7B9B08DBB238
:101B78001BB213431BB2FB81FB8900E0002318460C
:101B88001037BD4680BD00BFEC06002080B584B08C
:101B980002AF03460A46FB711346BB71FB7999B243
:101BA800BA1D012300930123034803F0E5FD00BF9C
:101BB8000837BD4680BD00BFEC06002080B500AFE9
:101BC80001220121024801F04FFB00BF80BD00BF88
:101BD8000010024080B500AF00220121024801F048
:101BE80043FB00BF80BD00BF0010024080B500AFBE
:101BF80001224021024801F037FB00BF80BD00BF31
:101C08000000024080B500AF00224021024801F0E8
:101C18002BFB00BF80BD00BF0000024080B500AFB5
:101C280001228021024801F01FFB00BF80BD00BFD8
:101C38000000024080B500AF00228021024801F078
:101C480013FB00BF80BD00BF0000024080B500AF9D
:101C580001222021024801F007FB00BF80BD00BF20
:101C68000000024080B500AF00222021024801F0A8
:101C7800FBFA00BF80BD00BF0000024080B582B003
:101C880000AF78607B68054A934202D1044B1B6819
:101C9800984700BF0837BD4680BD00BF88070020B1
:101CA800EC07002080B500AF024805F0EFF800BF50
:101CB80080BD00BF8807002080B500AF024805F04E
:101CC80055F900BF80BD00BF8807002080B500AF70
:101CD800024805F0DBF800BF80BD00BF40070020C8
:101CE80080B400AF034B044A1A6000BFBD465DF8DC
:101CF800047B7047EC070020690F000880B483B0AC
:101D080000AF0346FB8000BF0C37BD465DF8047B7F
:101D18007047000080B400AF2A4B01221A70294B8B
:101D28005B78012B12D1274BDB7823F05503002B6E
:101D380005D1244B1B7923F03003002B06D0214B0F
:101D480000225A70204B214A1A6137E01D4B5B78FC
:101D5800012B0ED11B4B1B795B09DBB203F001038E
:101D6800002B06D0174B00225A70174B184A1A61DD
:101D780024E0184B5B78012B0AD1164B1B78012BFA
:101D880006D1144B00225A700F4B134A1A6115E002
:101D98000C4B5B78012B0ED10A4B1B791B09DBB26C
:101DA80003F00103002B06D0064B00225A70064BA5
:101DB8000A4A1A6102E0034B00225A70BD465DF8D8
:101DC800047B7047E4070020FC0700205923000823
:101DD800E91D0008DC070020E51E00084123000873
:101DE80080B483B000AF354B1B791B09DBB203F01D
:101DF8000103FB71314B02221A70304B00225A70DA
:101E08002F4B1B78FA799A4210D02E4B1B7801334E
:101E1800DAB22C4B1A702B4B1B78022B09D9284AA3
:101E2800FB791370274B00221A7002E0254B002221
:101E38001A70254B1B78002B25D1214B1B78012BC1
:101E480021D1224B1B780133DAB2204B1A701F4B79
:101E58001B78012B03D11E4B00221A8013E01B4B69
:101E68001B78022B0FD11A4B1B88B3F57A7F0AD245
:101E7800184B194A1A61154B00221A70104B1A7820
:101E8800114B1A7015E00E4B1A780F4B1A700F4B46
:101E98001B78002B0DD00E4B1B880A339AB20C4BC3
:101EA8001A800B4B1B88B3F57A7F02D3074B0022AD
:101EB8001A700C37BD465DF8047B7047E4070020B4
:101EC800F0070020F1070020F2070020F3070020A8
:101ED800F4070020FC0700204123000880B400AF6D
:101EE800054B04221A70054B054A1A6100BFBD460E
:101EF8005DF8047B704700BFE4070020FC07002062
:101F08000D1F000880B400AF2A4B5B78012B12D15B
:101F1800284BDB7823F05503002B05D1254B1B7983
:101F280023F03003002B06D0224B00225A70224B9C
:101F3800224A1A6139E01F4B5B78012B0ED11D4BE9
:101F48001B795B09DBB203F00103002B06D0194BA8
:101F580000225A70184B1A4A1A6126E0154B5B7812
:101F6800012B1FD1134B1B791B09DBB203F00103B3
:101F7800002B17D00F4B00225A700E4B01229A707B
:101F88000C4B9B7923F04003DAB20A4B9A71094B48
:101F98009B7963F07F03DAB2064B9A71064B094AC4
:101FA8001A6102E0034B00225A70BD465DF8047BBB
:101FB800704700BFE4070020FC07002059230008F1
:101FC800E91D0008D11F000880B400AF384B1B88FA
:101FD80001339AB2364B1A80364B5B78012B12D1FB
:101FE800344BDB7823F09503002B05D1314B1B795B
:101FF80023F03003002B06D02E4B00225A702E4BB4
:102008002E4A1A614FE02B4B5B78012B0ED1294BDE
:102018001B795B09DBB203F00103002B06D0254BCB
:1020280000225A70244B264A1A613CE0204B1B8838
:10203800FA2B0ED11F4B9B7903F07F03DAB21D4BAD
:102048009A711C4B9B7943F04003DAB2194B9A7191
:1020580029E0174B1B88FA2B22D9164B5B78012BEA
:102068001ED1144B1B791B09DBB203F00103002BB3
:1020780016D00F4B00221A800E4B01229A700D4B7E
:102088009B7943F02003DAB20A4B9A71094B9B798A
:1020980023F01003DAB2074B9A71074B094A1A6109
:1020A800044B00225A70BD465DF8047B704700BFA0
:1020B800F6070020E4070020FC0700205923000849
:1020C800E91D0008D120000880B400AF304B1B8800
:1020D80001339AB22E4B1A802E4B5B78012B12D10A
:1020E8002C4BDB7823F07503002B05D1294B1B798A
:1020F80023F03003002B06D0264B00225A70264BC3
:10210800264A1A6140E0234B5B78012B0ED1214B04
:102118001B795B09DBB203F00103002B06D01D4BD2
:1021280000225A701C4B1E4A1A612DE0184B1B885E
:10213800FA2B26D1174BDB785B09DBB203F00103DE
:10214800002B1ED0124B00221A80124B01229A70CB
:10215800104B9B7943F02003DAB20E4B9A710D4B6A
:102168009B7923F01003DAB20A4B9A71094BDB7999
:1021780043F00203DAB2074BDA71074B094A1A61D6
:1021880002E0044B00225A70BD465DF8047B70479C
:10219800F8070020E4070020FC0700205923000866
:1021A800E91D0008B121000880B400AF264B5B7818
:1021B800012B12D1244BDB7823F05503002B05D1DA
:1021C800214B1B7923F03003002B06D01E4B002235
:1021D8005A701E4B1E4A1A6132E01B4B5B78012B6A
:1021E8000ED1194B1B795B09DBB203F00103002BFD
:1021F80006D0154B00225A70144B164A1A611FE07C
:10220800114B5B78012B18D10F4B1B791B09DBB2E3
:1022180003F00103002B10D00B4B00225A700A4B1D
:1022280001229A70084BDB7943F00103DAB2064BBE
:10223800DA71064B084A1A6102E0034B00225A7011
:10224800BD465DF8047B7047E4070020FC070020CA
:1022580059230008E91D00086522000880B400AF72
:102268002B4B1B8801339AB2294B1A80294B5B7878
:10227800012B12D1274BDB7823F05903002B05D112
:10228800244B1B7923F03003002B06D0214B00226E
:102298005A70214B214A1A6135E01E4B5B78012B9D
:1022A8000ED11C4B1B795B09DBB203F00103002B39
:1022B80006D0184B00225A70174B194A1A6122E0AF
:1022C800134B1B88F92B1BD9124BDB785B09DBB24C
:1022D80003F00103002B13D00D4B00221A800D4B85
:1022E80000225A700B4B01229A700A4BDB7923F0BB
:1022F8000103DAB2074BDA71074B0A4A1A6102E0A6
:10230800044B00225A70BD465DF8047B704700BF3D
:10231800FA070020E4070020FC07002059230008E2
:10232800E91D00083123000880B400AF00BFBD4696
:102338005DF8047B7047000080B400AF034B0322B4
:102348001A7000BFBD465DF8047B7047E4070020A3
:1023580080B500AFFFF7B0FC00BF80BD80B400AF10
:10236800034B044A1A6100BFBD465DF8047B704701
:10237800FC0700201D1D000880B582B000AF124B7D
:10238800DB78FB71104B1B79BB710F4B5B797B7151
:102398000D4B5B78012B01D0FFF74CFB0A4BDB7828
:1023A800FA799A4209D1084B1B79BA799A4204D131
:1023B800054B5B797A799A4202D0034B01225A7015
:1023C80000BF0837BD4680BDE407002080B400AFD9
:1023D800034B044A1A6000BFBD465DF8047B704792
:1023E800FC0700208123000880B500AF054B9B78CF
:1023F800012B04D1FFF744FB024B00229A7000BF67
:1024080080BD00BFE407002080B400AF034B044A3E
:102418009A6000BFBD465DF8047B7047FC0700204A
:10242800F1230008B0B489B000AF03463960FB80DF
:102438001C4B07F10C041D460FCD0FC42B682370ED
:10244800FB881B0B9BB203F00F0320333B4413F8AC
:10245800142C3B681A70FB881B0A9BB203F00F020E
:102468003B68013320323A4412F8142C1A70FB8866
:102478001B099BB203F00F023B68023320323A4437
:1024880012F8142C1A70FB8803F00F023B68033310
:1024980020323A4412F8142C1A7000BF2437BD4673
:1024A800B0BC7047C4B3000880B485B000AF034621
:1024B8003960FB710023FB6014E0FA79FB68C3F113
:1024C800070342FA03F303F00103002B01D0312183
:1024D80000E03021FB683A6813440A461A70FB682A
:1024E8000133FB60FB68072BE7DD00BF00BF143733
:1024F800BD465DF8047B704780B58CB000AF5823AB
:1025080087F82F30C34B5B78012B11D1C14B1B7857
:10251800012B03D1312387F82F3002E0302387F8CD
:102528002F3097F82F0005230C220621FEF772F8AA
:10253800B94BDB7807F1240211461846FFF7B4FFC0
:10254800B54B1B7907F11C0211461846FFF7ACFF83
:10255800B14B5B7907F1140211461846FFF7A4FF47
:10256800AD4B9B7907F10C0211461846FFF79CFF0B
:10257800A94BDB793A1D11461846FFF795FFA74B83
:102588005B883A4611461846FFF74CFF387B05230F
:1025980005220121FEF73EF8787B0523062201215A
:1025A800FEF738F8B87B052307220121FEF732F839
:1025B800F87B052308220121FEF72CF8387C052337
:1025C8000C220121FEF726F8787C05230D22012133
:1025D800FEF720F8B87C05230E220121FEF71AF831
:1025E800F87C05230F220121FEF714F8387905231A
:1025F80005220221FEF70EF878790523062202212A
:10260800FEF708F8B879052307220221FEF702F839
:10261800F879052308220221FDF7FCFF387A052303
:102628000C220221FDF7F6FF787A05230D220221FC
:10263800FDF7F0FFB87A05230E220221FDF7EAFF25
:10264800F87A05230F220221FDF7E4FF97F824000A
:10265800052305220321FDF7DDFF97F82500052353
:1026680006220321FDF7D6FF97F826000523072247
:102678000321FDF7CFFF97F8270005230822032140
:10268800FDF7C8FF97F8280005230C220321FDF762
:10269800C1FF97F8290005230D220321FDF7BAFF92
:1026A80097F82A0005230E220321FDF7B3FF97F8B8
:1026B8002B0005230F220321FDF7ACFF387F0523EC
:1026C80005220421FDF7A6FF787F052306220421B1
:1026D800FDF7A0FFB87F052307220421FDF79AFF25
:1026E800F87F052308220421FDF794FF97F82000BE
:1026F80005230C220421FDF78DFF97F821000523FF
:102708000D220421FDF786FF97F8220005230E22EB
:102718000421FDF77FFF97F8230005230F220421EA
:10272800FDF778FF387D052305220521FDF772FFA7
:10273800787D052306220521FDF76CFFB87D05236A
:1027480007220521FDF766FFF87D052308220521EC
:10275800FDF760FF387E05230C220521FDF75AFF9F
:10276800787E05230D220521FDF754FFB87E052349
:102778000E220521FDF74EFFF87E05230F220521C5
:10278800FDF748FF3878052307220721FDF742FFA8
:102798007878052308220721FDF73CFFB878052340
:1027A80009220721FDF736FFF87805230A220721B9
:1027B800FDF730FF184B1B78013B032B26D801A2ED
:1027C80052F823F0DD270008EB270008F927000856
:1027D800072800080523122207215720FDF71AFFB2
:1027E80014E00523122207214120FDF713FF0DE015
:1027F8000523122207214F20FDF70CFF06E00523D1
:10280800122207215420FDF705FF00BF00BF303713
:10281800BD4680BDDC070020E4070020D407002067
:1028280080B500AF00224FF40061264800F01CFD7F
:1028380001224FF48051234800F016FD01224FF485
:102848000051204800F010FD01224FF480411D483E
:1028580000F00AFD642000F021F9FDF76FFE642006
:1028680000F01CF90020FDF795FE0522002116480E
:10287800FDF798FF052201211448FDF793FF052273
:1028880002211348FDF78EFF052203211148FDF7A9
:1028980089FF052204211048FDF784FF0522052140
:1028A8000E48FDF77FFF052206210D48FDF77AFF48
:1028B800052207210B48FDF775FF0B4B0B4A9A6160
:1028C80000BF80BD00040240780500208F0500206D
:1028D800A6050020BD050020D4050020EB0500203A
:1028E8000206002019060020FC0700200125000828
:1028F80080B582B000AF0023FB7107E0FB79074A7F
:1029080052F823309847FB790133FB71FB79062B8A
:10291800F4D900BF00BF0837BD4680BDFC070020C2
:1029280080B483B000AF0023FB7107E0FB79094A4C
:10293800094942F82310FB790133FB71FB79062B17
:10294800F4D9064B064A1A6000BF0C37BD465DF83D
:10295800047B7047FC070020690F0008EC07002083
:10296800F9280008DFF834D0FEF7F4FE0C480D49CA
:102978000D4A002302E0D458C4500433C4188C42D2
:10298800F9D30A4A0A4C002301E013600432A24238
:10299800FBD308F097FCFEF7EAFA70470000022024
:1029A80000000020A806002004B40008A8060020A3
:1029B80020110020FEE7000080B500AF0E4B1B6819
:1029C8000D4A43F4007313600B4B1B680A4A43F427
:1029D80080631360084B1B68074A43F480731360D5
:1029E800032000F04BFA002000F008F8FEF72AFD5B
:1029F8000023184680BD00BF003C024080B582B06D
:102A080000AF7860124B1A68124B1B7819464FF4C6
:102A18007A73B3FBF1F3B2FBF3F3184600F063FAF1
:102A28000346002B01D001230EE07B680F2B0AD848
:102A3800002279684FF0FF3000F02BFA064A7B68D5
:102A48001360002300E0012318460837BD4680BD07
:102A580054050020340600203006002080B400AF62
:102A6800064B1B781A46064B1B681344044A13602E
:102A780000BFBD465DF8047B704700BF34060020E8
:102A88001808002080B400AF034B1B681846BD46E9
:102A98005DF8047B704700BF1808002080B584B03B
:102AA80000AF7860FFF7EEFFB8607B68FB60FB68FB
:102AB800B3F1FF3F05D00A4B1B781A46FB68134455
:102AC800FB6000BFFFF7DEFF0246BB68D31AFA6857
:102AD8009A42F7D800BF00BF1037BD4680BD00BF7F
:102AE8003406002080B584B000AF78607B68002B86
:102AF80001D10123EDE07B6893F82030DBB2002B95
:102B080002D17868FEF7C6FC7B681B681A687B6888
:102B18001B6842F001021A60FFF7B4FFF86012E088
:102B2800FFF7B0FF0246FB68D31A0A2B0BD97B6864
:102B38005B6A43F400327B685A627B68052283F83B
:102B480020200123C5E07B681B685B6803F0010354
:102B5800002BE5D07B681B681A687B681B6822F02D
:102B680002021A60FFF78EFFF86012E0FFF78AFF93
:102B78000246FB68D31A0A2B0BD97B685B6A43F4BD
:102B880000327B685A627B68052283F82020012383
:102B98009FE07B681B685B6803F00203002BE5D1AC
:102BA8007B681B7E012B08D17B681B681A687B68D1
:102BB8001B6842F080021A6007E07B681B681A688D
:102BC8007B681B6822F080021A607B685B7E012BA1
:102BD80008D17B681B681A687B681B6842F0400252
:102BE8001A6007E07B681B681A687B681B6822F01C
:102BF80040021A607B689B7E012B08D17B681B68AA
:102C08001A687B681B6842F020021A6007E07B683C
:102C18001B681A687B681B6822F020021A607B68B0
:102C2800DB7E012B08D17B681B681A687B681B68F0
:102C380022F010021A6007E07B681B681A687B683C
:102C48001B6842F010021A607B681B7F012B08D1B9
:102C58007B681B681A687B681B6842F008021A6068
:102C680007E07B681B681A687B681B6822F008020B
:102C78001A607B685B7F012B08D17B681B681A6828
:102C88007B681B6842F004021A6007E07B681B68D7
:102C98001A687B681B6822F004021A607B689A68CD
:102CA8007B68DB681A437B681B691A437B685B692E
:102CB80042EA03017B685B685A1E7B681B680A430B
:102CC800DA617B6800225A627B68012283F820203F
:102CD800002318461037BD4680BD000080B485B07B
:102CE80000AF78607B6803F00703FB600C4BDB6880
:102CF800BB60BA684FF6FF031340BB60FB681A025B
:102D0800BB68134343F0BF6343F40033BB60044A1A
:102D1800BB68D36000BF1437BD465DF8047B7047BD
:102D280000ED00E080B400AF044BDB681B0A03F041
:102D380007031846BD465DF8047B704700ED00E0C8
:102D480080B483B000AF0346FB7197F90730002BBE
:102D58000BDBFB7903F01F02074997F907305B0982
:102D6800012000FA02F241F8232000BF0C37BD46CB
:102D78005DF8047B704700BF00E100E080B483B0D9
:102D880000AF03463960FB7197F90730002B0ADB67
:102D98003B68DAB20C4997F907301201D2B20B44FA
:102DA80083F800230AE03B68DAB20849FB7903F0AC
:102DB8000F03043B1201D2B20B441A7600BF0C3742
:102DC800BD465DF8047B704700E100E000ED00E0DF
:102DD80080B489B000AFF860B9607A60FB6803F02E
:102DE8000703FB61FB69C3F10703042B28BF042316
:102DF800BB61FB690433062B02D9FB69033B00E086
:102E080000237B614FF0FF32BB6902FA03F3DA4318
:102E1800BB681A407B699A404FF0FF317B6901FA21
:102E280003F3D9437B680B40134318462437BD4648
:102E38005DF8047B7047000080B582B000AF786011
:102E48007B68013BB3F1807F01D301230FE00A4A7D
:102E58007B68013B53600F214FF0FF30FFF78EFF77
:102E6800054B00229A60044B07221A60002318467B
:102E78000837BD4680BD00BF10E000E080B582B0D5
:102E880000AF78607868FFF729FF00BF0837BD46B4
:102E980080BD80B586B000AF0346B9607A60FB7329
:102EA80000237B61FFF73EFF78617A68B96878692B
:102EB800FFF78EFF024697F90F3011461846FFF7C5
:102EC8005DFF00BF1837BD4680BD80B582B000AF3A
:102ED8000346FB7197F907301846FFF731FF00BF2B
:102EE8000837BD4680BD80B582B000AF786078688D
:102EF800FFF7A2FF034618460837BD4680BD00000D
:102F080080B489B000AF7860396000237B6100230A
:102F18003B610023BB610023FB616BE10122FB697C
:102F280002FA03F37B613B681B687A6913403B61D3
:102F38003A697B699A4240F05A813B685B6803F0C2
:102F48000303012B05D03B685B6803F00303022BE6
:102F580030D17B689B68BB61FB695B00032202FA86
:102F680003F3DB43BA691340BB613B68DA68FB696A
:102F78005B0002FA03F3BA691343BB617B68BA6961
:102F88009A607B685B68BB610122FB6902FA03F304
:102F9800DB43BA691340BB613B685B681B0903F0FC
:102FA8000102FB6902FA03F3BA691343BB617B6848
:102FB800BA695A603B685B6803F00303032B17D0B8
:102FC8007B68DB68BB61FB695B00032202FA03F3E1
:102FD800DB43BA691340BB613B689A68FB695B00D5
:102FE80002FA03F3BA691343BB617B68BA69DA6012
:102FF8003B685B6803F00303022B23D1FB69DA0803
:103008007B68083253F82230BB61FB6903F0070381
:103018009B000F2202FA03F3DB43BA691340BB613A
:103028003B681A69FB6903F007039B0002FA03F384
:10303800BA691343BB61FB69DA087B680832B9696E
:1030480043F822107B681B68BB61FB695B000322A5
:1030580002FA03F3DB43BA691340BB613B685B6860
:1030680003F00302FB695B0002FA03F3BA69134336
:10307800BB617B68BA691A603B685B6803F44033DC
:10308800002B00F0B4800023FB60604B5B6C5F4A50
:1030980043F4804353645D4B5B6C03F48043FB60F3
:1030A800FB685B4AFB699B08023352F82330BB611B
:1030B800FB6903F003039B000F2202FA03F3DB43CF
:1030C800BA691340BB617B68524A93422BD07B6834
:1030D800514A934225D07B68504A93421FD07B685F
:1030E8004F4A934219D07B684E4A934213D07B686B
:1030F8004D4A93420DD07B684C4A934207D07B6877
:103108004B4A934201D107230EE008230CE0062323
:103118000AE0052308E0042306E0032304E0022371
:1031280002E0012300E00023FA6902F003029200A2
:103138009340BA691343BB613549FB699B08023365
:10314800BA6941F823203B4B9B68BB613B69DB4371
:10315800BA691340BB613B685B6803F48013002BBA
:1031680003D0BA693B691343BB61324ABB699360B8
:10317800304BDB68BB613B69DB43BA691340BB6119
:103188003B685B6803F40013002B03D0BA693B6902
:103198001343BB61274ABB69D360264B5B68BB619D
:1031A8003B69DB43BA691340BB613B685B6803F466
:1031B8000033002B03D0BA693B691343BB611D4A36
:1031C800BB6953601B4B1B68BB613B69DB43BA6936
:1031D8001340BB613B685B6803F48033002B03D06A
:1031E800BA693B691343BB61124ABB691360FB6947
:1031F8000133FB61FB690F2B7FF690AE00BF00BF68
:103208002437BD465DF8047B704700BF0038024094
:10321800003801400000024000040240000802405B
:10322800000C024000100240001402400018024046
:10323800001C0240003C014080B485B000AF7860BB
:103248000B467B807B681A697B881340002B02D071
:103258000123FB7301E00023FB73FB7B1846143743
:10326800BD465DF8047B704780B483B000AF7860DA
:103278000B467B8013467B707B78002B03D07A88C3
:103288007B689A6103E07B881A047B689A6100BFB7
:103298000C37BD465DF8047B7047000080B582B0EE
:1032A80000AF0346FB80084B5A69FB881340002B8C
:1032B80006D0054AFB885361FB881846FEF71EFDB9
:1032C80000BF0837BD4680BD003C014080B586B0D0
:1032D80002AF78607B68002B01D1012359E07B683D
:1032E8001B68FB607B6893F8D533DBB2002B06D1F3
:1032F8007B68002283F8D423786807F06DFC7B682C
:10330800032283F8D523FB68B3F1A04F02D17B6871
:1033180000229A717B681B68184604F07AFA7B6869
:1033280018687B681A7C8DF8002004330ECB04F0F3
:10333800FBF90346002B05D07B68022283F8D523CE
:10334800012326E07B681B680121184604F072FA05
:103358000346002B05D07B68022283F8D52301237E
:1033680017E07B6818687B681A7C8DF800200433A6
:103378000ECB04F01BFC0346002B05D07B68022211
:1033880083F8D523012304E07B68012283F8D52341
:10339800002318461037BD4680BD90B58BB004AFEA
:1033A8007860084611461A460346FB700B46BB7008
:1033B80013467B703B8E7B617B6893F8D433012B7B
:1033C80001D102239DE07B68012283F8D423FA7897
:1033D800796813461B019B1A9B000B441933002282
:1033E8001A70FA78796813461B019B1A9B000B44E4
:1033F80014337A781A70FA78796813461B019B1A85
:103408009B000B441533FA781A70FA7879681346DA
:103418001B019B1A9B000B44263397F82C201A702B
:10342800FA78BB7803F07F03D8B2796813461B019A
:103438009B1A9B000B44163302461A70FB781946F8
:10344800786800F0A5FB97F90230002B0ADAFA78C1
:10345800796813461B019B1A9B000B441733012202
:103468001A7009E0FA78796813461B019B1A9B00C9
:103478000B44173300221A707B681B68184604F047
:10348800F9FC386197F82C30012B0BD197F82830CC
:10349800012B07D13B69002B04D17B69BC2B01D9D7
:1034A800BC237B61FA78796813461B019B1A9B0041
:1034B8000B44183397F828201A70FA787B6998B269
:1034C800796813461B019B1A9B000B44283302465C
:1034D8001A807B6818687B699BB27C78BA78F9781F
:1034E800029397F82C30019397F8283000932346DD
:1034F80004F0E8FC0346FB737B68002283F8D423BE
:10350800FB7B18461C37BD4690BD000080B582B0D5
:1035180000AF7860084611461A460346FB700B4612
:10352800BB7013467B70FA78796813461B019B1AA7
:103538009B000B441733BA781A70FA7879681346E7
:103548001B019B1A9B000B4426337A781A703B7C2C
:10355800002B14D1FA78796813461B019B1A9B003B
:103568000B442A3303221A70FA78796813461B0130
:103578009B1A9B000B4419333A7F1A7009E0FA78BA
:10358800796813461B019B1A9B000B442A330222BD
:103598001A707B78032B00F2028101A252F823F003
:1035A800B9350008913700087D360008073700084C
:1035B8003B7C012B40F0F580BB78002B2DD13B8B59
:1035C800002B09D1FA78796813461B019B1A9B00D6
:1035D8000B443D3301221A70FA78796813461B01AF
:1035E8009B1A9B000B443D331B78002B0AD1FA78B9
:1035F800796813461B019B1A9B000B442A3300224F
:103608001A70CEE0FA78796813461B019B1A9B0062
:103618000B442A3302221A70C3E0FA7879681346F9
:103628001B019B1A9B000B441A331B78012B40F09B
:10363800B880FA78796813461B019B1A9B000B44E3
:103648003C331B78002B0AD1FA78796813461B01A2
:103658009B1A9B000B442A3300221A70A1E0FA78C7
:10366800796813461B019B1A9B000B442A330222DC
:103678001A7096E0BB78002B20D1FA787968134647
:103688001B019B1A9B000B443D331B78002B0AD16E
:10369800FA78796813461B019B1A9B000B442A335E
:1036A80000221A707EE0FA78796813461B019B1A8B
:1036B8009B000B442A3302221A7073E0FA78796867
:1036C80013461B019B1A9B000B443C331B78002BB1
:1036D8000AD1FA78796813461B019B1A9B000B44A0
:1036E8002A3300221A705DE0FA78796813461B01C4
:1036F8009B1A9B000B442A3302221A7052E0BB78B3
:10370800002B20D1FA78796813461B019B1A9B007D
:103718000B443D331B78002B0AD1FA78796813469D
:103728001B019B1A9B000B442A3300221A7039E0B4
:10373800FA78796813461B019B1A9B000B442A33BD
:1037480002221A702EE0FA78796813461B019B1A38
:103758009B000B443C331B78002B0AD1FA7879681C
:1037680013461B019B1A9B000B442A3300221A7034
:1037780018E0FA78796813461B019B1A9B000B44E2
:103788002A3302221A700DE0FA78796813461B0171
:103798009B1A9B000B442A3300221A7002E000BFD8
:1037A80000E000BFFA78796813461B019B1A9B005A
:1037B8000B442C337A691A60FA78398B7868134687
:1037C8001B019B1A9B00034434331960FA7879680B
:1037D80013461B019B1A9B000B444C3300221A70A2
:1037E800FA78796813461B019B1A9B000B443833FF
:1037F80000221A60FA78796813461B019B1A9B000D
:103808000B441533FA781A70FA78796813461B0155
:103818009B1A9B000B444D3300221A707B68186872
:10382800FA7813461B019B1A9B0010337A681344DD
:10383800191D7B689B791A4604F070FC03461846EC
:103848000837BD4680BD00BF80B586B000AF786040
:103858007B681B683B613B69FB607B681B6818469B
:1038680004F05EF90346012B40F0FB807B681B687F
:10387800184604F021F90346002B00F0F1807B681C
:103888001B68184604F018F9034603F40013B3F54F
:10389800001F04D17B681B684FF400125A617B68D3
:1038A8001B68184604F008F9034603F48013B3F5BF
:1038B800801F04D17B681B684FF480125A617B68B3
:1038C8001B68184604F0F8F8034603F08063B3F168
:1038D800806F04D17B681B684FF080625A617B68F7
:1038E8001B68184604F0E8F8034603F00203022BAD
:1038F80003D17B681B6802225A617B681B681846E3
:1039080004F0DAF8034603F00053B3F1005F20D166
:103918007B681B684FF000525A61FB6803F58863A7
:103928001B6803F00103002B13D11021386903F041
:10393800CDFF386903F0FCFF7B685B7A022B05D169
:103948007B681B680121184604F0F4F9786807F0D1
:10395800C1F97B681B68184604F0AEF8034603F00B
:103968008073B3F1807F02D1786801F04DFD7B68E8
:103978001B68184604F0A0F8034603F00803082B58
:1039880006D1786807F08AF97B681B6808225A61B3
:103998007B681B68184604F08FF8034603F0007331
:1039A800B3F1007F39D17B681B68184604F030FEFC
:1039B800B86000237B6125E07B6903F00F03BA68D8
:1039C80022FA03F303F00103002B18D07B695A0194
:1039D800FB68134403F5A0631B6803F40043B3F5C5
:1039E800004F06D17B69DBB21946786800F005F90B
:1039F80005E07B69DBB21946786800F067FF7B69F0
:103A080001337B617B685B791A467B699342D3D328
:103A18007B681B684FF000725A617B681B68184608
:103A280004F04AF8034603F01003102B01D10123D8
:103A380000E00023002B14D07B681B689A697B6820
:103A48001B6822F010029A61786801F0FEFB7B681F
:103A58001B689A697B681B6842F010029A6100E053
:103A680000BF1837BD4680BD80B582B000AF786012
:103A78007B6893F8D433012B01D1022313E07B68D0
:103A8800012283F8D4237B681B680121184604F0BF
:103A9800B8F97B681B68184603F0AAFE7B68002209
:103AA80083F8D423002318460837BD4680BD80B567
:103AB80082B000AF78607B6893F8D433012B01D1D2
:103AC80002230DE07B68012283F8D4237B681B68FE
:103AD800184604F00BFF7B68002283F8D4230023E8
:103AE80018460837BD4680BD80B582B000AF786003
:103AF8007B681B68184604F05AF9034618460837CD
:103B0800BD4680BD80B483B000AF78600B46FB70C3
:103B1800FA78796813461B019B1A9B000B444C33B7
:103B28001B7818460C37BD465DF8047B704780B497
:103B380083B000AF78600B46FB70FA78796813465B
:103B48001B019B1A9B000B4438331B6818460C3723
:103B5800BD465DF8047B704780B582B000AF7860E1
:103B68007B681B68184604F09CF90346184608371A
:103B7800BD4680BD80B582B000AF78607B681B68A9
:103B8800184604F077F9034618460837BD4680BD45
:103B980080B483B000AF78600B46FB70FA78796820
:103BA80013461B019B1A9B000B441A3300221A7000
:103BB800FA78796813461B019B1A9B000B441B3348
:103BC80000221A70FA78796813461B019B1A9B0029
:103BD8000B44253300221A70FA78796813461B01C2
:103BE8009B1A9B000B44243300221A7000231846AA
:103BF8000C37BD465DF8047B704780B586B000AFD2
:103C080078600B46FB707B681B687B617B693B6156
:103C18007B681B68FA781146184603F060FF034674
:103C280003F00403042B1AD1FB785A013B691344AF
:103C380003F5A0631A4604239360FA78796813465B
:103C48001B019B1A9B000B444D3307221A707B689B
:103C58001B68FA781146184604F0EBFC9EE07B6876
:103C68001B68FA781146184603F039FF034603F437
:103C78008073B3F5807F1BD1FB785A013B691344ED
:103C880003F5A0631A464FF480739360FA78796855
:103C980013461B019B1A9B000B444D3308221A70D4
:103CA8007B681B68FA781146184604F0C2FC75E078
:103CB8007B681B68FA781146184603F010FF034624
:103CC80003F00803082B1AD1FB785A013B69134407
:103CD80003F5A0631A4608239360FA7879681346B7
:103CE8001B019B1A9B000B444D3306221A707B68FC
:103CF8001B68FA781146184604F09BFC4EE07B6876
:103D08001B68FA781146184603F0E9FE034603F4E7
:103D18008063B3F5806F1BD1FB785A013B6913446C
:103D280003F5A0631A464FF480639360FA787968C4
:103D380013461B019B1A9B000B444D3309221A7032
:103D48007B681B68FA781146184604F072FC25E077
:103D58007B681B68FA781146184603F0C0FE0346D4
:103D680003F08003802B19D1FB785A013B69134477
:103D780003F5A0631A4680239360FA78796813469E
:103D88001B019B1A9B000B444D3307221A707B685A
:103D98001B68FA781146184604F04BFC7B681B68D0
:103DA800FA781146184603F09AFE034603F40073A6
:103DB800B3F5007F12D17B681B68FA781146184664
:103DC80004F037FCFB785A013B69134403F5A06300
:103DD8001A464FF40073936000F075BD7B681B684A
:103DE800FA781146184603F07AFE034603F00103F9
:103DF800012B40F02881FB785A013B69134403F5F5
:103E0800A0631A4620239360FA78796813461B0149
:103E18009B1A9B000B441B331B78012B19D1FA7892
:103E2800796813461B019B1A9B000B441B33002225
:103E38001A70FB785A013B69134403F5A0635B6869
:103E4800FA7851013A690A4402F5A06223F48033F2
:103E580053607B689B79002B1BD0FA7879681346EE
:103E68001B019B1A9B000B4430331968FB785A01DD
:103E78003B69134403F5A0631B69C3F31203FA7883
:103E8800C91A786813461B019B1A9B0003443833F0
:103E98001960FA78796813461B019B1A9B000B443A
:103EA8004D3301221A70FA78796813461B019B1A60
:103EB8009B000B44443300221A60FB785A013B698B
:103EC800134403F5A0631A4601239360FA787968CE
:103ED80013461B019B1A9B000B4426331B78002BAF
:103EE8000AD0FA78796813461B019B1A9B000B4489
:103EF80026331B78022B10D17B681B68FA78114691
:103F0800184604F096FBFB785A013B69134403F505
:103F1800A0631A46102393603DE0FA787968134647
:103F28001B019B1A9B000B4426331B78032B0AD0DA
:103F3800FA78796813461B019B1A9B000B442633B9
:103F48001B78012B27D1FB785A013B69134403F5F1
:103F5800A0631B68FA7851013A690A4402F5A06225
:103F680043F000531360FA78796813461B019B1AD3
:103F78009B000B444C3301221A70FA787968134677
:103F88001B019B1A9B000B444C331A78FB7819468B
:103F9800786806F0ADFE7B689B79012B3BD1FA78F7
:103FA800796813461B019B1A9B000B443833196828
:103FB800FA78786813461B019B1A9B000344283340
:103FC8001B880B44591EFA78786813461B019B1A04
:103FD8009B00034428331B88B1FBF3F303F0010370
:103FE800002B00F07084FA78796813461B019B1A3D
:103FF8009B000B443C331B78FA7883F00103D8B25A
:10400800796813461B019B1A9B000B443C330246FC
:104018001A7000F058BCFA78796813461B019B1A8D
:104028009B000B443C331B78FA7883F00103D8B229
:10403800796813461B019B1A9B000B443C330246CC
:104048001A7000F040BC7B681B68FA781146184665
:1040580003F045FD034603F02003202B31D1FB7804
:104068005A013B69134403F5A0631A462023936061
:10407800FA78796813461B019B1A9B000B441A3384
:104088001B78012B40F01F84FA78796813461B01CE
:104098009B1A9B000B441B3301221A70FA7879682B
:1040A80013461B019B1A9B000B444D3303221A70C5
:1040B8007B681B68FA781146184604F0BAFA00F0D3
:1040C80002BC7B681B68FA781146184603F007FDA6
:1040D800034603F00203022B40F00583FB785A01E4
:1040E8003B69134403F5A0631A4602239360FA78E8
:1040F800796813461B019B1A9B000B444D331B78B0
:10410800012B14D1FA78796813461B019B1A9B007E
:104118000B444D3302221A70FA78796813461B0152
:104128009B1A9B000B444C3301221A70CCE2FA789C
:10413800796813461B019B1A9B000B444D331B786F
:10414800062B14D1FA78796813461B019B1A9B0039
:104158000B444D3302221A70FA78796813461B0112
:104168009B1A9B000B444C3305221A70ACE2FA7878
:10417800796813461B019B1A9B000B444D331B782F
:10418800072B0BD0FA78796813461B019B1A9B0002
:104198000B444D331B78092B40F0A680FA787968D8
:1041A80013461B019B1A9B000B444D3302221A70C5
:1041B800FA78796813461B019B1A9B000B44443319
:1041C8001B68591C786813461B019B1A9B00034403
:1041D80044331960FA78796813461B019B1A9B00CF
:1041E8000B4444331B68022B43D9FA787968134689
:1041F8001B019B1A9B000B44443300221A60FA7877
:10420800796813461B019B1A9B000B441A331B78D1
:10421800012B23D1FA78796813461B019B1A9B005E
:104228000B441B3300221A70FA78796813461B0175
:104238009B1A9B000B441C3300221A70FB785A010E
:104248003B69134403F5A0635B68FA7851013A6946
:104258000A4402F5A06223F480335360FA7879683F
:1042680013461B019B1A9B000B444C3304221A7003
:1042780029E2FA78796813461B019B1A9B000B44C4
:104288004C3302221A70FA78796813461B019B1A7C
:104298009B000B4426331B78002B0BD0FA787968E7
:1042A80013461B019B1A9B000B4426331B78022BD9
:1042B80040F00982FB785A013B69134403F5A06377
:1042C8001B68FB60FB6823F08043FB60FB6843F0DE
:1042D8000043FB60FB785A013B69134403F5A06374
:1042E8001A46FB681360EEE1FA78796813461B01F9
:1042F8009B1A9B000B444D331B78052B40F0C8805C
:10430800FA78796813461B019B1A9B000B444D33BE
:1043180002221A70FA78796813461B019B1A9B00CF
:104328000B441B331B78012B40F0CE81FA78796857
:1043380013461B019B1A9B000B4426331B78032B47
:104348006BD1FA78796813461B019B1A9B000B44C2
:1043580048331B68591C786813461B019B1A9B003D
:10436800034448331960FA78796813461B019B1A8D
:104378009B000B4448331B68022B43D9FA787968B1
:1043880013461B019B1A9B000B44483300221A60FA
:10439800FA78796813461B019B1A9B000B441B3360
:1043A80000221A70FA78796813461B019B1A9B0041
:1043B8000B4444331B68022B09D8FA7879681346F2
:1043C8001B019B1A9B000B441C3301221A70FB78BB
:1043D8005A013B69134403F5A0635B68FA785101FD
:1043E8003A690A4402F5A06223F480335360FA78EC
:1043F800796813461B019B1A9B000B444C3304221B
:104408001A7014E0FA78796813461B019B1A9B000E
:104418000B444C3302221A7009E0FA787968134683
:104428001B019B1A9B000B444C3302221A70FA782A
:10443800796813461B019B1A9B000B4426331B7893
:10444800002B0BD0FA78796813461B019B1A9B0046
:104458000B4426331B78022B40F03681FB785A0137
:104468003B69134403F5A0631B68FB60FB6823F0FA
:104478008043FB60FB6843F00043FB60FB785A0114
:104488003B69134403F5A0631A46FB6813601BE1FC
:10449800FA78796813461B019B1A9B000B444D332D
:1044A8001B78032B40F08180FA78796813461B014A
:1044B8009B1A9B000B444D3302221A70FA787968D4
:1044C80013461B019B1A9B000B441B331B78012BC3
:1044D80040F0FA80FA78796813461B019B1A9B0012
:1044E8000B444C3302221A70FB785A013B6913447F
:1044F80003F5A0635B68FA7851013A690A4402F54A
:10450800A06243F480335360FB785A013B6913443B
:1045180003F5A063DB68FA7851013A690A4402F5A9
:10452800A06243F04003D360FB785A013B6913440F
:1045380003F5A063DB68FA7851013A690A4402F589
:10454800A06223F02003D360FA78796813461B0130
:104558009B1A9B000B4426331B78002B0BD0FA7850
:10456800796813461B019B1A9B000B4426331B7862
:10457800022B40F0A980FB785A013B69134403F5EC
:10458800A0631B68FB60FB6823F08043FB60FB684B
:1045980043F00043FB60FB785A013B69134403F581
:1045A800A0631A46FB6813608EE0FA7879681346B0
:1045B8001B019B1A9B000B444D331B78042B43D1E2
:1045C800FA78796813461B019B1A9B000B444D33FC
:1045D80002221A70FA78796813461B019B1A9B000D
:1045E8000B444C3302221A70FA78796813461B017F
:1045F8009B1A9B000B4426331B78002B0AD0FA78B1
:10460800796813461B019B1A9B000B4426331B78C1
:10461800022B59D1FB785A013B69134403F5A06377
:104628001B68FB60FB6823F08043FB60FB6843F07A
:104638000043FB60FB785A013B69134403F5A06310
:104648001A46FB6813603FE0FA78796813461B0145
:104658009B1A9B000B444D331B78082B26D1FA7804
:10466800796813461B019B1A9B000B444D330222A9
:104678001A70FA78796813461B019B1A9B000B4441
:1046880044331B68591C786813461B019B1A9B000E
:10469800034444331960FA78796813461B019B1A5E
:1046A8009B000B444C3304221A700DE0FA787968A9
:1046B80013461B019B1A9B000B444D331B78022B9E
:1046C80000F0008100E000BFFA78796813461B010A
:1046D8009B1A9B000B444C331A78FB781946786870
:1046E80006F006FBEFE07B681B68FA78114618466F
:1046F80003F0F5F9034603F04003402B2FD1FB7874
:104708005A013B69134403F5A0631A46402393609A
:10471800FA78796813461B019B1A9B000B444D33AA
:1047280005221A70FA78796813461B019B1A9B00B8
:104738000B441A331B78002B09D1FA787968134691
:104748001B019B1A9B000B44443300221A607B68B0
:104758001B68FA781146184603F06BFFB3E07B68D4
:104768001B68FA781146184603F0B9F9034603F0B6
:104778001003102B40F0A780FA78796813461B01C4
:104788009B1A9B000B4426331B78032B1BD1FA780A
:10479800796813461B019B1A9B000B444433002283
:1047A8001A60FA78796813461B019B1A9B000B4420
:1047B8004D3304221A707B681B68FA781146184634
:1047C80003F037FF3FE0FA78796813461B019B1A1C
:1047D8009B000B4426331B78002B0AD0FA787968A3
:1047E80013461B019B1A9B000B4426331B78022B94
:1047F80029D1FA78796813461B019B1A9B000B4450
:10480800443300221A607B689B79002B0AD0FA781F
:10481800796813461B019B1A9B000B441B331B78BA
:10482800012B10D1FA78796813461B019B1A9B005B
:104838000B444D3304221A707B681B68FA781146C2
:10484800184603F0F6FEFA78796813461B019B1A9E
:104858009B000B441B331B78012B29D1FA7879680C
:1048680013461B019B1A9B000B441B3300221A7032
:10487800FB785A013B69134403F5A0635B68FA7837
:1048880051013A690A4402F5A06223F48033536067
:10489800FB785A013B69134403F5A063DB68FA7897
:1048A80051013A690A4402F5A06243F02003D3603B
:1048B800FB785A013B69134403F5A0631A46102399
:1048C800936000E000BF1837BD4680BD80B586B054
:1048D80000AF78600B46FB707B681B687B617B6967
:1048E8003B617B681B68FA781146184603F0F7F8B5
:1048F800034603F00403042B1BD1FB785A013B69E0
:10490800134403F5A0631A4604239360FA78796880
:1049180013461B019B1A9B000B444D3307221A7048
:104928007B681B68FA781146184603F082FE00F08F
:1049380089BC7B681B68FA781146184603F0CFF8E3
:10494800034603F02003202B40F08280FB785A01B5
:104958003B69134403F5A0631A4620239360FA7851
:10496800796813461B019B1A9B000B4419331B786B
:10497800012B24D1FA78796813461B019B1A9B00F6
:104988000B44193300221A70FA78796813461B0110
:104998009B1A9B000B444C3302221A70FA787968F0
:1049A80013461B019B1A9B000B444D3303221A70BC
:1049B8007B681B68FA781146184603F03AFEFA78C5
:1049C800796813461B019B1A9B000B441A331B780A
:1049D800012B40F03784FA78796813461B019B1A3B
:1049E8009B000B441B331B78002B40F02B84FA7878
:1049F800796813461B019B1A9B000B4426331B78CE
:104A0800012B09D0FA78796813461B019B1A9B0081
:104A18000B441B3301221A70FA78796813461B017C
:104A28009B1A9B000B444D3303221A707B681B684A
:104A3800FA781146184603F0FCFDFA7879681346AF
:104A48001B019B1A9B000B44443300221A60F9E3B4
:104A58007B681B68FA781146184603F040F803464D
:104A680003F40073B3F5007F11D1FB785A013B6959
:104A7800134403F5A0631A464FF4007393607B68F0
:104A88001B68FA781146184603F0D3FDDAE37B6811
:104A98001B68FA781146184603F021F8034603F01C
:104AA8000103012B68D1FA78796813461B019B1A18
:104AB8009B000B44443300221A607B681B68FA7819
:104AC8001146184603F00BF8034603F04003402B49
:104AD80012D1FA78796813461B019B1A9B000B4484
:104AE800193301221A70FB785A013B69134403F504
:104AF800A0631A4640239360FA78796813461B012D
:104B08009B1A9B000B441B331B78002B19D0FA7897
:104B1800796813461B019B1A9B000B441B33002228
:104B28001A70FB785A013B69134403F5A0635B686C
:104B3800FA7851013A690A4402F5A06223F48033F5
:104B48005360FB785A013B69134403F5A0631A4686
:104B580001239360FA78796813461B019B1A9B001E
:104B68000B444D3301221A707B681B68FA78114692
:104B7800184603F05EFD65E37B681B68FA7811460A
:104B8800184602F0ACFF034603F04003402B39D12E
:104B9800FA78796813461B019B1A9B000B444D3326
:104BA80005221A70FA78796813461B019B1A9B0034
:104BB8000B441A331B78002B09D1FA78796813460D
:104BC8001B019B1A9B000B44193301221A70FA78B7
:104BD800796813461B019B1A9B000B44443300223F
:104BE8001A607B681B68FA781146184603F021FDA5
:104BF800FB785A013B69134403F5A0631A46402326
:104C080093601FE37B681B68FA781146184602F028
:104C180066FF034603F00803082B1AD1FB785A01F4
:104C28003B69134403F5A0631A4608239360FA7896
:104C3800796813461B019B1A9B000B444D330622CF
:104C48001A707B681B68FA781146184603F0F1FC65
:104C5800F8E27B681B68FA781146184602F03FFFB5
:104C6800034603F01003102B44D1FA7879681346F1
:104C78001B019B1A9B000B44443300221A60FA78EC
:104C8800796813461B019B1A9B000B444D33042281
:104C98001A70FA78796813461B019B1A9B000B441B
:104CA80019331B78002B14D1FA78796813461B0145
:104CB8009B1A9B000B4418331B78002B09D1FA78F8
:104CC800796813461B019B1A9B000B441933012278
:104CD8001A707B681B68FA781146184603F0A9FC1D
:104CE800FB785A013B69134403F5A0631A46102365
:104CF8009360A7E27B681B68FA781146184602F0B1
:104D0800EEFE034603F08003802B40F083807B682F
:104D18009B79002B11D1FA78796813461B019B1AED
:104D28009B000B444D3307221A707B681B68FA7886
:104D38001146184603F07DFC62E0FA78796813465C
:104D48001B019B1A9B000B4444331B68591C786851
:104D580013461B019B1A9B00034444331960FA78DD
:104D6800796813461B019B1A9B000B4444331B684C
:104D7800022B22D9FA78796813461B019B1A9B00EB
:104D88000B44443300221A60FA78796813461B01F1
:104D98009B1A9B000B444C3304221A70FA787968EA
:104DA80013461B019B1A9B000B444C331A78FB7863
:104DB8001946786805F09CFF22E0FA78796813466E
:104DC8001B019B1A9B000B444C3302221A70FB7880
:104DD8005A013B69134403F5A0631B68FB60FB6839
:104DE80023F08043FB60FB6843F00043FB60FB78E3
:104DF8005A013B69134403F5A0631A46FB68136024
:104E0800FB785A013B69134403F5A0631A468023D3
:104E1800936017E27B681B68FA781146184602F01F
:104E28005EFE034603F48063B3F5806F1BD1FA7806
:104E3800796813461B019B1A9B000B444D330922CA
:104E48001A707B681B68FA781146184603F0F1FB64
:104E5800FB785A013B69134403F5A0631A464FF4E3
:104E680080639360EEE17B681B68FA781146184608
:104E780002F035FE034603F00203022B40F0DF8107
:104E8800FB785A013B69134403F5A0631A460223D1
:104E98009360FA78796813461B019B1A9B000B44B0
:104EA8004D331B78012B40F09380FA7879681346CC
:104EB8001B019B1A9B000B444D3302221A70FA788F
:104EC800796813461B019B1A9B000B444C33012243
:104ED8001A70FA78796813461B019B1A9B000B44D9
:104EE80026331B78022B0BD0FA78796813461B01FE
:104EF8009B1A9B000B4426331B78032B40F09081B0
:104F08007B689B79002B15D1FA78796813461B01C9
:104F18009B1A9B000B443D331B78FA7883F00103FE
:104F2800D8B2796813461B019B1A9B000B443D338A
:104F380002461A707B689B79012B40F07181FA78E0
:104F4800796813461B019B1A9B000B4434331B687A
:104F5800002B00F06581FA78796813461B019B1ACB
:104F68009B000B4434331968FA78786813461B01A0
:104F78009B1A9B00034428331B880B44591EFA785C
:104F8800786813461B019B1A9B00034428331B882F
:104F9800B1FBF3F3BB60BB6803F00103002B00F027
:104FA8003F81FA78796813461B019B1A9B000B44D2
:104FB8003D331B78FA7883F00103D8B27968134639
:104FC8001B019B1A9B000B443D3302461A7027E1D4
:104FD800FA78796813461B019B1A9B000B444D33E2
:104FE8001B78032B20D1FA78796813461B019B1A8A
:104FF8009B000B444D3302221A70FA7879681346E5
:105008001B019B1A9B000B441B331B78012B40F0A0
:105018000781FA78796813461B019B1A9B000B4499
:105028004C3302221A70FBE0FA78796813461B01A8
:105038009B1A9B000B444D331B78042B3AD1FA780A
:10504800796813461B019B1A9B000B444D330222BF
:105058001A70FA78796813461B019B1A9B000B4457
:105068004C3302221A70FA78796813461B019B1A8E
:105078009B000B441B331B78012B40F0D180FA783E
:10508800796813461B019B1A9B000B441B330022B3
:105098001A70FB785A013B69134403F5A0635B68F7
:1050A800FA7851013A690A4402F5A06223F4803380
:1050B8005360B5E0FA78796813461B019B1A9B0088
:1050C8000B444D331B78052B14D1FA7879681346B5
:1050D8001B019B1A9B000B444D3302221A70FA786D
:1050E800796813461B019B1A9B000B444C33022220
:1050F8001A7095E0FA78796813461B019B1A9B0091
:105108000B444D331B78062B14D1FA787968134673
:105118001B019B1A9B000B444D3302221A70FA782C
:10512800796813461B019B1A9B000B444C330522DC
:105138001A7075E0FA78796813461B019B1A9B0070
:105148000B444D331B78072B0AD0FA78796813463D
:105158001B019B1A9B000B444D331B78092B70D104
:10516800FA78796813461B019B1A9B000B444D3350
:1051780002221A70FA78796813461B019B1A9B0061
:105188000B4444331B68591C786813461B019B1A4F
:105198009B00034444331960FA78796813461B016D
:1051A8009B1A9B000B4444331B68022B14D9FA78D2
:1051B800796813461B019B1A9B000B444433002259
:1051C8001A60FA78796813461B019B1A9B000B44F6
:1051D8004C3304221A7022E0FA78796813461B01CE
:1051E8009B1A9B000B444C3302221A70FB785A011D
:1051F8003B69134403F5A0631B68FB60FB6823F05D
:105208008043FB60FB6843F00043FB60FB785A0176
:105218003B69134403F5A0631A46FB68136000BF9B
:10522800FA78796813461B019B1A9B000B444C3390
:105238001A78FB781946786805F05AFD02E000BF35
:1052480000E000BF1837BD4680BD80B58AB000AF0A
:1052580078607B681B687B627B6A3B627B681B6843
:105268001B6AFB61FB6903F00F03BB61FB695B0C05
:1052780003F00F037B61FB691B09C3F30A033B615E
:105288007B69022B04D07B69052B00F0B680B7E060
:105298003B69002B00F0B3807968BA6913461B019B
:1052A8009B1A9B000B442C331B68002B00F0A78033
:1052B8007968BA6913461B019B1A9B000B44383363
:1052C8001A683B69D1187868BA6913461B019B1A9A
:1052D8009B00034434331B68994200F283807B6847
:1052E80018687968BA6913461B019B1A9B000B441E
:1052F8002C331B683A6992B2194602F085FB79682B
:10530800BA6913461B019B1A9B000B442C331A687D
:105318003B69D1187868BA6913461B019B1A9B0030
:1053280003442C3319607968BA6913461B019B1A28
:105338009B000B4438331A683B69D1187868BA69FE
:1053480013461B019B1A9B00034438331960BB6941
:105358005A013B6A134403F5A0631B69DB0CC3F3D2
:105368000903FB607968BA6913461B019B1A9B0005
:105378000B4428331B881A463B6993423FD1FB688C
:10538800002B3CD0BB695A013B6A134403F5A06368
:105398001B68BB60BB6823F08043BB60BB6843F0FD
:1053A8000043BB60BB695A013B6A134403F5A06321
:1053B8001A46BB6813607968BA6913461B019B1AC1
:1053C8009B000B443C331B7883F00103D8B2796807
:1053D800BA6913461B019B1A9B000B443C330246D7
:1053E8001A700CE07968BA6913461B019B1A9B0076
:1053F8000B444C3304221A7001E000BF00E000BFE8
:1054080000BF2837BD4680BD80B586B000AF786044
:105418007B681B687B617B693B613B6903F588633B
:105428001B68FB603B6903F588631B68BB60BB684E
:1054380023F02E03BB60FB6803F00203022B0BD1A1
:10544800FB6803F00103012B02D1786805F034FCF6
:10545800BB6843F00203BB60FB6803F00803082B3A
:1054680032D1BB6843F00803BB60FB6803F0040358
:10547800042B26D17B685B7A022B13D1FB6803F4DB
:10548800C023B3F5802F06D17B681B68022118461C
:1054980002F050FC11E07B681B680121184602F0FD
:1054A80049FC0AE07B68DB79012B06D13B6903F5EF
:1054B80080631A464EF660235360786805F026FC30
:1054C80002E0786805F030FCFB6803F02003202B2D
:1054D80003D1BB6843F02003BB603B6903F58863D5
:1054E8001A46BB68136000BF1837BD4680BD000070
:1054F80080B584B000AF78607B68002B01D10123B0
:105508002BE17B6893F83D30DBB2002B06D17B683A
:10551800002283F83C207868FCF704F87B68242292
:1055280083F83D207B681B681A687B681B6822F03B
:1055380001021A607B681B681A687B681B6842F462
:1055480000421A607B681B681A687B681B6822F433
:1055580000421A6001F036FCF8607B685B68814A9B
:10556800934207D8FB68804A934294BF01230023E3
:10557800DBB206E0FB687D4A934294BF0123002317
:10558800DBB2002B01D00123E7E0FB68784AA2FBDD
:1055980003239B0CBB607B681B685B6823F03F019F
:1055A8007B681B68BA680A435A607B681B681B6A79
:1055B80023F03F017B685B686A4A934202D8BB6864
:1055C800013309E0BB684FF4967202FB03F3694AA2
:1055D800A2FB03239B0901337A6812680B43136209
:1055E8007B681B68DB6923F44F4222F0FF027B686B
:1055F8005B685C498B4219D8FB68591E7B685B68FD
:105608005B00B1FBF3F3591C40F6FC730B40002B15
:105618000AD0FB68591E7B685B685B00B1FBF3F33B
:105628000133C3F30B0351E004234FE07B689B680D
:10563800002B11D1FB68581E7B6859680B465B002C
:105648000B44B0FBF3F30133C3F30B03002B0CBF84
:1056580001230023DBB212E0FB68581E7B685968FF
:105668000B469B000B4499000B44B0FBF3F301334A
:10567800C3F30B03002B0CBF01230023DBB2002B69
:1056880001D0012322E07B689B68002B0ED1FB68C8
:10569800581E7B6859680B465B000B44B0FBF3F35C
:1056A8000133C3F30B0343F400430FE0FB68581EB8
:1056B8007B6859680B469B000B4499000B44B0FB70
:1056C800F3F30133C3F30B0343F4404379680968E8
:1056D8001343CB617B681B681B6823F0C0017B68A0
:1056E800DA697B681B6A1A437B681B680A431A607D
:1056F8007B681B689B6823F4034323F0FF037A68E5
:1057080011697A68D26811437A6812680B4393600A
:105718007B681B68DB6823F0FF017B685A697B683C
:105728009B691A437B681B680A43DA607B681B68BD
:105738001A687B681B6842F001021A607B680022C5
:105748001A647B68202283F83D207B6800221A6354
:105758007B68002283F83E20002318461037BD4698
:1057680080BD00BFA08601007F841E00FF083D00A9
:1057780083DE1B43D34D621080B588B002AFF8605A
:105788007A601A460B467B8113463B81FDF77AF90E
:105798007861FB6893F83D30DBB2202B40F0E08065
:1057A8007B690093192301227049F86800F064FCB2
:1057B8000346002B01D00223D3E0FB6893F83C306A
:1057C800012B01D10223CCE0FB68012283F83C20A5
:1057D800FB681B681B6803F00103012B07D0FB68FB
:1057E8001B681A68FB681B6842F001021A60FB68B4
:1057F8001B681A68FB681B6822F400621A60FB6861
:10580800212283F83D20FB68102283F83E20FB68A4
:1058180000221A64FB687A685A62FB683A895A85DA
:10582800FB685B8D9AB2FB681A85FB68504ADA629E
:1058380079897B693A6AF86800F0CEFA0346002B4A
:1058480001D001238DE000233B61FB681B685B6985
:105858003B61FB681B689B693B613B6966E07A6951
:10586800396AF86800F022FD0346002B0DD0FB686A
:105878001B6C042B07D1FB681B681A68FB681B6844
:1058880042F400721A6001236BE0FB685B6A1A78C5
:10589800FB681B681A61FB685B6A5A1CFB685A62E2
:1058A800FB685B8D9BB2013B9AB2FB685A85FB682B
:1058B8001B8D013B9AB2FB681A85FB681B685B6904
:1058C80003F00403042B1BD1FB681B8D002B17D09E
:1058D800FB685B6A1A78FB681B681A61FB685B6A7D
:1058E8005A1CFB685A62FB685B8D9BB2013B9AB2FB
:1058F800FB685A85FB681B8D013B9AB2FB681A85C9
:105908007A69396AF86800F019FD0346002B0DD052
:10591800FB681B6C042B07D1FB681B681A68FB68C3
:105928001B6842F400721A6001231AE0FB681B8DA1
:10593800002B94D1FB681B681A68FB681B6842F44B
:1059480000721A60FB68202283F83D20FB68002261
:1059580083F83E20FB68002283F83C20002300E007
:10596800022318461837BD4680BD00BF020010004C
:105978000000FFFF80B58CB002AFF8607A601A466D
:105988000B467B8113463B81FDF77CF87862FB6808
:1059980093F83D30DBB2202B40F017827B6A0093EE
:1059A800192301227C49F86800F066FB0346002BA6
:1059B80001D002230AE2FB6893F83C30012B01D1A5
:1059C800022303E2FB68012283F83C20FB681B6882
:1059D8001B6803F00103012B07D0FB681B681A68DA
:1059E800FB681B6842F001021A60FB681B681A68B2
:1059F800FB681B6822F400621A60FB68222283F8A5
:105A08003D20FB68102283F83E20FB6800221A64C0
:105A1800FB687A685A62FB683A895A85FB685B8D2D
:105A28009AB2FB681A85FB685C4ADA6279897B6AF4
:105A38003A6BF86800F052FA0346002B01D00123B4
:105A4800C4E1FB681B8D002B13D100233B62FB686C
:105A58001B685B693B62FB681B689B693B623B6A2E
:105A6800FB681B681A68FB681B6842F400721A60BE
:105A780098E1FB681B8D012B1BD1FB681B681A681A
:105A8800FB681B6822F480621A600023FB61FB68D4
:105A98001B685B69FB61FB681B689B69FB61FB69B1
:105AA800FB681B681A68FB681B6842F400721A607E
:105AB80078E1FB681B8D022B1BD1FB681B681A68F9
:105AC800FB681B6822F480621A60FB681B681A680E
